:020000040000FA
:2000000000500020950C00008D0C0000750C0000910C0000910C0000910C000000000000DE
:20002000000000000000000000000000910C0000910C000000000000910C0000910C00004C
:200040006D420000910C000031E70000910C0000F5380000613D0000910C0000910C00009A
:20006000910C000059E70000910C0000910C0000910C0000910C0000910C0000910C0000F5
:20008000910C0000910C0000910C0000910C0000910C0000910C0000910C0000910C000078
:2000A000910C0000910C0000910C0000910C0000910C0000910C0000910C0000910C000058
:2000C000910C00000D5200002DE9F04F23F0004858EA020993B03CD0714C21F00046A642DC
:2000E00083460D460CDD06F1404606F5801656EA0B0038D183466B49584613B0BDE8F08F97
:200100009A4696462BD0A045EDDC654CA04578D0002D0F468146CDE9002376DB0024BEF156
:20012000000F27D15E4B984500F08B805D4B984552D0BAF1804F00F0C9835B4B9A4519D16B
:20014000002D17DB4846394613B0BDE8F04F0FF001BDCB465846534913B0BDE8F08F0028B5
:20016000C1D1B045D1DD514813B0BDE8F04F0FF0C1BD0024484639460FF0B0FDBBF1000FF5
:200180001CD0ED0F013D54EA050370D0484B984540F3948003F10473984540F30D84454B60
:2001A0009E4270DDBAF1000F70DD3BA3D3E90023104619460FF0F4FF83469DE726B1394BFF
:2001C00025F040429A42DCD1BAF1000FC0F2B783002D08DB83468FE7BAF1000FC0F25E84BC
:2001E000CB46394688E706F1404606F5801656EA040300F08384012CECD101F100418346CE
:200200007AE7BEF1000F83D06DE72B4B98452CDCA3F15473984581DD4FEA2853A3F2FF33AC
:20022000142B40F35384C3F134032EFA03F202FA03F39E457FF472AF02F00102C2F1020456
:200240006DE706F1404303F5801353EA0B0300F03A83184B9E4240F36783BAF1000F15DB43
:20026000DDE900349B46214646E7022457E74A4648463B4639460FF0DFFD02460B4610F019
:20028000B9F8834638E7BAF1000F8EDB4FF0000B594631E7AFF300809C7500883CE4377E11
:2002A0000000F07F0000F03F0000E03F501A01000000E041FFFFEF3FFFFF3F43B6F5801FFF
:2002C0004FF0000205DAD04B0FF06AFF0E466FF03402DFF844E33315C6F31306A3F2FF33B3
:2002E00046F07F57764503EB020A47F4401740F3C983C64B00229E4240F304840023CDE985
:200300000823CDE90C23C24B0022CDE906230AF1010AA7F5801700263946DDE90623CDE93C
:200320000A010FF089FDDDE9062380468946DDE90A010FF083FD02460B460020B44910F0A3
:2003400059F80A4601461346CDE90E120246494640460FF025FF8C4683467B1043F000535A
:2003600003F5002399190020CDE904BC06460F464FF0000B6146584632463B46CDE910BC6F
:20038000CDE902010FF00CFF02460B46404649460FF052FDDDE90623804689463046394625
:2003A0000FF04AFD02460B46DDE90A010FF044FDDDE902230FF0F4FE02460B4640464946C3
:2003C0000FF03AFDDDE90E230FF0EAFEDDE90478CDE906013A464346384641460FF0E0FE1F
:2003E00077A3D3E9002306460F460FF0D9FE76A3D3E900230FF022FD32463B460FF0D0FEB1
:2004000073A3D3E900230FF019FD32463B460FF0C7FE71A3D3E900230FF010FD32463B461D
:200420000FF0BEFE6EA3D3E900230FF007FD32463B460FF0B5FE6CA3D3E900230FF0FEFC7C
:200440003246804689463B46304639460FF0A8FE02460B46404649460FF0A2FEDDE902233C
:2004600006460F46DDE904010FF0E8FCDDE906230FF096FE32463B460FF0E0FCDDE90267A8
:200480008046894632463B46304639460FF088FE0022604BCDE90A010FF0D0FC42464B46E2
:2004A0000FF0CCFCDDE910BC0F46DDE902015A463B46CDE90EBC5E460FF072FE0022CDE939
:2004C0000201544B304639460FF0B6FCDDE90A230FF0B2FC02460B46404649460FF0ACFCDF
:2004E000DDE904230FF05CFE324680468946DDE906013B460FF054FE02460B46404649465C
:200500000FF09CFC8046894602460B46DDE902010FF094FCDDE90EBC35A3D3E900235846D9
:20052000CDE906BC5E460F460FF03AFEDDE90223CDE90401304639460FF07EFC02460B4666
:20054000404649460FF078FC2BA3D3E900230FF027FE2BA3D3E9002380468946304639460B
:200560000FF01EFE02460B46404649460FF066FCDDE90C230FF062FC8046504689460FF0D5
:20058000A9FD06460F46DDE9040142464B460FF055FCDDE908230FF051FC32463B460FF0AB
:2005A0004DFCDDE906BC324658463B46DA468B460FF042FCDDE9082330E000BFAFF30080C3
:2005C000EF4E454A287ECA3F65DBC9934A86CD3F01411DA96074D13F4D268F515555D53F2B
:2005E000FFAB6FDBB66DDB3F033333333333E33F000000E009C7EE3FFD033ADC09C7EE3FB6
:20060000F5015B14E02F3EBE0000404379B60B000000F03F000008408E9803000FF00CFC06
:20062000DDE904230FF008FC02460B46404649460FF002FC80468946DDE90012013C54EA37
:20064000050314BFD64CD74C0023CDE904340B461446CDE9023400230293DDE902450846BF
:200660002B46114622460FF0E7FB52465B460FF097FDDDE9002306460F46404649460FF0FF
:200680008FFD02460B46304639460FF0D7FB06460F4622462B4650465946CDE900670FF0A4
:2006A0007FFD0B46024680468946304639460FF0C5FBBD4B064699420D460C4640F30E8146
:2006C00001F13F4303F5E003034340F0F081A0A3D3E90023DDE900010FF0B0FB4246824601
:2006E0008B464B46304629460FF0A6FB02460B46504659460FF0E4FF002840F0D8812F463D
:200700003B154FF48012A3F2FE3342FA03F32344C3F30A52A54EA2F2FF321641C3F3130B60
:200720000020C2F1140523EA06014BF4801B02460B46002C4BFA05FB40464946B8BFCBF18D
:20074000000B0FF079FB02460B4680468946DDE900010FF073FB4FEA0B5A00247EA3D3E91A
:20076000002320460D460FF01BFD424606460F464B46204629460FF05FFB02460B46DDE93F
:2007800000010FF059FB76A3D3E900230FF008FD75A3D3E9002380468946204629460FF0A9
:2007A000FFFC02460B46404649460FF047FB8046894602460B46304639460FF03FFB32467B
:2007C0003B4604460D460FF037FB02460B46404649460FF031FB2246804689462B4620461D
:2007E00029460FF0DDFC62A3D3E9002306460F460FF0D6FC60A3D3E900230FF01DFB3246EB
:200800003B460FF0CDFC5EA3D3E900230FF016FB32463B460FF0C4FC5BA3D3E900230FF00B
:200820000BFB32463B460FF0BBFC59A3D3E900230FF004FB32463B460FF0B2FC02460B46EB
:20084000204629460FF0F8FA06460F4602460B46204629460FF0A4FC0022CDE900014FF00C
:200860008043304639460FF0E7FA02460B46DDE900010FF0BFFD424606460F464B462046A5
:2008800029460FF08DFC42464B460FF0D7FA02460B46304639460FF0CFFA22462B460FF04A
:2008A000CBFA02460B4600203D490FF0C5FA8A44BAF5801FC0F237815146DDE904230FF06D
:2008C0006FFC834618E4F346354915E44A4648463B4639460FF064FC83460DE4344B21F071
:2008E00000479F4240F30181324B0B4403430CD142464B460FF0A0FA02460B46DDE900011A
:200900000FF0CAFE00283FF4FBAE23A3D3E90023DDE904010FF044FC1FA3D3E900230FF0BD
:200920003FFC8346FFF7E8BBBAF1000FBFF6AEACDDE900349B4604F10041FFF7DDBB02466A
:200940000B46002016490FF055FD41E4AFF30080FE822B654715973C00000000432EE63F5A
:20096000EF39FAFE422EE63F396CA80C615C20BED0A4BE726937663EF16BD2C541BDBB3EFC
:200980002CDE25AF6A56113F93BDBE166CC1663F3E5555555555C53F59F3F8C21F6EA5014F
:2009A0000000F03F0000F0BFFFFF8F40FFFF0F00FFCB904000346F3F6F4B9E427FF763ACE4
:2009C0006E4B9E423FF7EEAB00226C4B0FF034FA5BA3D3E9002306460F460FF0E1FB5AA353
:2009E000D3E9002380468946304639460FF0D8FB002282468B46624B304639460FF0D0FB95
:200A000002460B4652A1D1E900010FF015FA32463B460FF0C5FB02460B46002059490FF06F
:200A20000BFA3246CDE902013B46304639460FF0B7FB02460B46DDE902010FF0B1FB46A363
:200A4000D3E900230FF0ACFB02460B46504659460FF0F2F902460B4606460F46404649460A
:200A60000FF0ECF942464B46002082468B460FF0E3F902460B46304639460FF0DDF98046BC
:200A80008946D9E500220023CDE90823CDE90C233A4B00220026CDE906233DE44A463B46E0
:200AA000002036490FF0A6FC8346FFF725BB2CA3D3E90023DDE904010FF072FB28A3D3E9EB
:200AC00000230FF06DFB8346FFF716BBBEF1000F7FF44FABC3F1140348FA03F202FA03F3DD
:200AE000984524D07446FFF721BB264B9F423FF707AEDDE902349A469B462EE602460B46F2
:200B0000FFF7B9BB204B4FF48026CDE9062316A3D3E90023CDE9082315A3D3E90023CDE972
:200B20000C23FFF7F9BB5A4600F032F8C5E602F00102C2F10204FFF7F9BA00BFAFF300803F
:200B4000000000604715F73F44DF5DF80BAE543E555555555555D53FFE822B654715F73F2C
:200B60009C7500883CE4377E0000004003B8E23F06D0CF43EBFD4C3EFEFFEF3F0000F03F37
:200B80000000D03F0000E03F0000F83F00000000F8B5C1F30A5604460D460B46174606BB23
:200BA00021F00043034325D000222F4B0FF0F8FA2E4A044697420D460B462ADBC1F30A56C1
:200BC000363E40F2FE723E44964228DC002E12DD23F0FF4323F4E00343EA065520462946D8
:200BE000F8BD40F2FF729642EBD102460B460FF025F9F8BDF8BD16F1350F1DDA4CF25033E6
:200C00009F420CDC14A1D1E9000122462B460FF007F911A3D3E900230FF0C2FAF8BD224658
:200C20000FA1D1E900012B460FF0FAF80CA3D3E900230FF0B5FAF8BD23F0FF4323F4E003A7
:200C4000363643EA0655204629460022084B0FF0A7FAF8BDAFF3008059F3F8C21F6EA501A6
:200C60009C7500883CE4377E00005043B03CFFFF0000903C044B1A68B2F5806F03D01B6800
:200C80009B0500D4FEE7704728ED00E0FEE700BFFEE700BF08B50AF03BFC104A104B9A4288
:200CA0000DD2D0430F4918440B4620F003000430084453F8041B834242F8041BF9D10A4806
:200CC0000A494FF000028842B8BF40F8042BFADB02F002F8FFF7CEFF08BD00BF00000020B0
:200CE0004C0700201521010050070020AC420020F0B52F4D93B006AC95E80F002D4E07C4DD
:200D0000777BF07BB17B327B237002963B46019000910AA8284904F00DFB042606A91423A0
:200D200005A88DF815308DF8146000F0E1F8152306A905A88DF8153002278DF8146000F00A
:200D4000D7F806A905A819248DF814608DF8157000F0CEF8012305F1100105A88DF81530D0
:200D60008DF8144000F0C4F806A905A88DF814408DF8157000F0BCF8032306A905A88DF804
:200D800015308DF8144000F0B3F806A905A88DF815608DF8144000F0ABF805230AA905A850
:200DA0008DF814408DF8153000F0A2F813B0F0BDF01101007807002018120100F0B5048899
:200DC00087B0054634B1832C22D000230380032007B0F0BD11481249C679437802788779B6
:200DE00005964679049707790396C67880788DE8C1000C4804F09EFA00F060F921460A4897
:200E000005F01AFAFFF774FF0849094804F044FA832301202B8007B0F0BD00BF8042002015
:200E20003012010078070020940400200012010054120100437A83BB827A82BBF0B51A4F5C
:200E40009BB03B46C479057A07F2945604E066339E4202F1010224D01878A042F7D15878D6
:200E6000A842F4D10D46662101FB027101A8023110F008F801A810F063F80023C0B21AAA41
:200E80001A4412F8644C5A1CEC54D3B29842F6D200220120EA541BB0F0BD0020704718462F
:200EA000704700201BB0F0BDA4340020F8B5DFF83CE00578734647780EF29456002204E066
:200EC0006633B34202F101020DD01C78AC42F7D15C78BC42F4D1662000FB02E002300FF03C
:200EE000D1FF0120F8BD0020F8BD00BFA434002038B50B4C22780E2A0FD06623551C03FBD3
:200F000002F325700478074AD45444781344981C5C700FF0B7FF012038BD002038BD00BF20
:200F20007E340020A434002001207047BDF80830BDF80010014804F0AFB900BFA412010042
:200F4000F0B52C4889B004F079FF2B4B2B4C1F785E789D78D8781A7959798DF800708DF835
:200F600001609F79DE798DF802501D7A8DF803008DF80420587A9A7A8DF80510D97A8DF8AA
:200F800006708DF807601F7B5E7B8DF808509D7BDB7B8DF809008DF80A208DF80B106A46A4
:200FA000204600218DF80D608DF80E508DF80F308DF80C7000F0A0FD4AF6AA26C2B2214698
:200FC0004FF48075002404AB0D48ADF81060ADF81240ADF81440ADF81640ADF81840ADF80F
:200FE0001A40ADF81C40ADF81E5008F04FF809B0F0BD00BF8C070020483A00201C09002085
:20100000AC07002070B51C4B1C4A1D4DADF5067D196812881B4E1C480FF0A4FD2C6806F169
:2010200008030FCB84E80F00184B69461B78164828339B5B638200F021FBB0B168461249A1
:2010400000F058FC10490246286807F067FE2B6800221A805A809A80DA801A815A819A8191
:20106000DA815A820DF5067D70BD094804F014F90DF5067D70BD00BFE43F0020E03B002046
:20108000480A0020F03B0020D00700208C340020DC12010008B54FF49672002105480FF058
:2010A0003BFE054B1B789B0700D408BDBDE80840FFF7A8BFD0070020D83F002000210148F7
:2010C00005F0BAB8380400202DE9F0474FF000088246894647464546561C0AE0B8F1000FF6
:2010E00026DB31D008F101080237102F06F102061BD016F8014C337803EB0424A4B2002CEC
:20110000ECD0B8F1000F13DD4FF0FF38C5EB09010AEB05002346124A04F0E4F80237284407
:20112000102FC5B206F10206E3D12846BDE8F087002FEBD0C5EB09010AEB0500094A04F0D7
:20114000D1F82844C5B2E1E7C5EB09010AEB0500054A04F0C7F82844C5B24FF00108C3E790
:20116000101301000C130100081301002DE9F04FDFF808E3B44B9EF800101C7B5D7B9E7BCB
:20118000DF7BB248C1B0013122462B4602904FF019088DE8C00027A88EF800104FF0010EA5
:2011A000AB498DF839E08DF8388004F0C3F827A90EA8FFF77BFE02238DF838808DF839306C
:2011C00007F04EFD2B4622460290A2498DE8C00027A804F0AFF827A90EA8FFF767FE0DF1F9
:2011E0005C0804211523402240468DF8381000218DF839300FF090FD05F09CFF40210246A5
:201200004046FFF761FF2B4622468DE8C001924927A8DFF86C8204F08DF827A90EA8FFF77F
:2012200045FED8F800000AF043FE0D9009F0B2F90D9991B1C36881469B69994206D1E9E0C6
:20124000D9F80C309B698B4200F0E480D8F800000AF0F0FD01460028F2D14FF000094B469A
:201260004FF0030E224602934FF019082B467B498DE8C00027A88DF839E08DF8388004F0B9
:2012800059F827A90EA8FFF711FE4FF0040E2B468DE8C0022246724927A88DF839E08DF864
:2012A000388004F047F827A90EA8FFF7FFFDDFF8D4E14FF0010C9EF818300EF13A0AE146AB
:2012C00023B19EF82A80B8F1010F0FD9BCF1030F26D00EF1200E9EF818300CF1010C002B64
:2012E000F4D09EF82A80B8F1010FEFD8734653F81A0F0DF14C0B59689A68DB68BCF1020F24
:20130000ABE80F0000F08E800DF14C0BABE80F00B8F1000FDAD1BCF1030F8EF82A90D8D12B
:20132000504B0DF13B0203F1100012F8011F03F8011F8342F9D14C4B0DF14B0203F1100019
:2013400012F8011F03F8011F8342F9D1474B019793F80BE0987A5A7A197A93F801800096FE
:20136000CDF81CE093F800E0069093F80FC005929A7B0491597B187B2B46CDF80C80CDF822
:2013800008E04FF004084FF0020E0A92099122460890374927A8CDF82CC08DF839E08DF872
:2013A000388003F0C7FF27A90EA8FFF77FFD3149019791F80BE091F801C08F7A91F809A0B9
:2013C00091F8089000960878CDF81CE091F80FE006978F7BCDF814A04E7B2B460D7B224653
:2013E000CDF80CC00290CDF810901424224927A8CDF82CE08DF838800A97099608958DF883
:20140000394003F097FF27A90EA8FFF74FFD41B0BDE8F08F0846B1F8048008F041FF4346B1
:2014200081461DE7DAF80000DAF80410DAF80820DAF80C300DF13C0BABE80F00B8F1000F82
:201440007FF447AF67E700BF483A00209412010014130100281301003C13010050130100B5
:2014600064130100373A0020573A0020583A002078130100383A0020BC1301007F3400203F
:2014800080060020743A0020F0B5048887B00646BCB140F27D139C420ED1354B1B788B4258
:2014A00062D0344804F0F0FD002855D140F27D130120338007B0F0BD00230380032007B0D5
:2014C000F0BD22462146204607F072FC03464FF42142294D0282A121027D28482B6003F0AD
:2014E000DBFE274803F0D8FE4AF6AA20254D2649A2234FF4807700912A46194628806C80FD
:20150000AC80EC802C816C81AC81EF811F4807F0CDFD1F481F4990F807E085794378027863
:20152000CDF814E0049590F805E00579CDF80CE00295C57880788DE82100174803F0FAFE11
:2015400039460C4804F082FD2346144A4FF4A061134804F067FCA9E7064804F081FDFFF742
:2015600005FEFFF7E1FCA1E7FFF794FD99E700BFAA420020FC080020480A00200014010090
:20158000201401000C0900202D0F0000AC0700208042002030120100483A0020410F0000BB
:2015A0008C0700202DE9F04F037883B0022B37D1457800238B460B6075B3441C4FF0010A52
:2015C00014F8010F0EF076FD0646CAEB05000F460EF070FD02460B46002015490EF022F988
:2015E0008046DBF8000089460EF064FD4246CDE900014B46304639460EF0D2FD02460B46F9
:20160000DDE900010EF01AFC0FF07AF80AF1010AAA45CBF80000D3D9012003B0BDE8F08F22
:20162000044803F039FE002003B0BDE8F08F00BF000070409014010030B583B001A905461C
:20164000FFF7B0FF019C74B901A9E81CFFF7AAFF019B13B9012003B030BD064803F01CFE4A
:20166000204603B030BD044803F016FE002003B030BD00BFE0140100B4140100F0B50378B4
:20168000CFB0302B40F0B68004460D46C07802AB01301844621C0DF1070312F8011F03F850
:2016A000011F8342F9D1002601A902A80196FFF779FF002800F09C800199002940F0AD80A8
:2016C00028460A4640F80F1B211D11F8013F013200F8013FA37902339342F6D800232A4473
:2016E00013746F7C194607F10903DBB203F1010E013B681DA644E21812F8016F013100F83C
:20170000016F9EF8003002338B42F5D8002329448B71EB7902AA3B440B33DBB2013B0DF1A4
:201720000E00234413F8011F02F8011B8242F9D1002602A88DF80E60FFF77EFF32466E7CCD
:20174000EB790736F6B20E333344DBB25F1C013B2744E11805F2091011F8013F013200F85C
:20176000013F3B7802339342F6D82A44002782F80A71A25DA22305F585746B712A71204680
:201780000FA9FFF757FB2B79A12B4BD039D8302B2DD0A02B37D195F80B310133DBB22B4489
:2017A00093F80A211AB993F80721012A72D00122204683F80A210FA9FFF73CFB28B30FA8DA
:2017C0000FF0BEFB042310F0FF0185F81F0185F81E310CD001F21F1129440DF13B0305F222
:2017E0001F1513F8012F05F8012FA942F9D101204FB0F0BD19463D4803F04EFD00204FB08A
:20180000F0BDA32BF3D90020F2E70522002385F81E2185F81F310120EAE7354803F03CFD1A
:201820003046E5E795F80B114B1CDBB2EA1892F80A0110B392F80931012B3DD020460FA954
:20184000FFF7F8FA0028E0D00FA80FF079FB042310F0FF0185F81F0185F81E31C7D001F284
:201860001F1129440DF13B0305F21F1513F8012F05F8012F8D42F9D1B9E7013B2B4493F88D
:201880000A11082995BF0131012383F80A1182F80A31D3E793F80621022A88D193F8052165
:2018A000012A84D193F80421062A80D193F803212B2A7FF47CAF81E792F80831022BBDD1EF
:2018C00092F80731012BB9D192F806010628B5D192F805012B28B1D1023185F80B1182F8A0
:2018E0000B3182F80C7182F80D71A7E70C15010040150100F8B530230B70C279437C90F8BA
:201900000B411344173390F81F2123441344022401224B708C70CA700368934204D0C0F056
:201920009780032B40F08F8000220B7113460244147CCA185471447C0133DBB2651C9D42CE
:201940001A46F4DA00263346E21DD2B2A2258D54C77990F80B5109343D4490F81F71103550
:201960000A443D44E4B2557082199579CA181555C2790133DBB2551C9D421E46F4DA144472
:2019800090F81E31E4B2A21C052B5FFA82FC61D0E51C0126EDB24FF0020E01F80CE04E5546
:2019A000251D0027EDB24F55651DEDB201F805E0A51DEDB24E55E61DF6B204F108058F55E7
:2019C000EDB23A463B4630274F5590F81F5190F80B612E4404F109050636EDB24E5504F198
:2019E0000A05EDB24F5590F80B7190F81F6104F10B053E440436EDB204F10C074E55FFB2CD
:201A0000024492F80A51CA18D55590F80B510133DBB26E1C9E421A46F2DA04F10E021544F6
:201A200000221346EDB2024492F81E41CA18545590F81F410133DBB201349C421A46F2DAEA
:201A400048780230F8BD2B4803F026FC0020F8BD002369E700263346E21C02250127D2B29F
:201A600001F80C508F54221DD2B28D54621DD2B28D54A21DD2B2E51D8F54EDB204F10802E0
:201A80004F55D2B230278F5490F80B5190F81F212A4404F109050632EDB24A5504F10A0250
:201AA000D2B28F5490F81F2190F80B5104F10B0715440435FFB204F10C02CD55D2B20644D6
:201AC00096F80A71CE18B75490F80B510133DBB26F1C9F421E46F2DA1544EDB2AB1C0335D4
:201AE000DBB2EDB205200022C8544A5548780230F8BD00BF701501002DE9F0474FF06C0CC8
:201B00004624702775264FF062084470C771067280F8098080F80AC04FF0690E6325A423D4
:201B200039248227FB264FF068084FF0400C80F80BE005734FF0300E0225437384730123F4
:201B400000248775C6750427062680F8188080F819C04FF008084FF02B0C80F800E0857060
:201B6000C577C370C37443750471C4760477447784774771077587768671C673867480F854
:201B800010804FF0430A80F811C04FF01E0980F8211080F828E080F82AE01C214FF0100E35
:201BA00080F82B1080F8203080F8225080F8233080F8244080F8263080F8274080F82C6068
:201BC00080F82D8080F82EC080F82F6080F8303080F8315080F8323080F8335080F83430F1
:201BE00080F8354080F8367080F825A080F8299000F14701013A00F837EF12F8013F00F898
:201C0000013F8842F9D14820BDE8F087F0B517460D46124C83B000230C268DE848006A46C4
:201C2000636D0F49984702AE032001F013FA56F8042D38460B490EF095FFE369D4F8B4100D
:201C4000284698473146636B284601229847E36C39462846019A984703B0F0BD98170100BC
:201C6000941501009815010010B50D4A84B00023946D009301930293ADF80C306A460949F9
:201C8000A047431E082B04D80246009901A80EF069FF01A80EF0E4FE034B187004B010BD1D
:201CA000981701001416010048070020F0B583B002AB4FF0FF35254C43F8045D276A0D46F1
:201CC00019461646B84701994B1C1CD0D4F8B43099421AD0D4F80431994230D0D4F8E03030
:201CE000994226D0D4F89010636928469847184B1E6830460FF024F931460246E36C284697
:201D0000984703B0F0BDD4F8B410E36928469847104B114A1B883021304603F0E3FA3046F5
:201D20000FF00EF9E36C024631462846984703B0F0BDE36928469847064B084AEAE7E36989
:201D400028469847034B064AE4E700BF98170100900400204407002054160100701601004D
:201D60006016010010B5038804464BB1392B03D139232380012010BD00230380032010BD9B
:201D8000094801F053FE01F047F900F033FF0749074800F04FFF0749074800F04BFF39234B
:201DA0002380012010BD00BF181701002C17010048040020381701006C040020014B18604F
:201DC000704700BFF40A002080790123013803FA00F0C0B2704700BF2DE9F04F038887B02D
:201DE0000446B3B1B3F5AD7F0DD1BA4B1B788B421AD0882900F08A804FF4AD730120238062
:201E000007B0BDE8F08F00230380032007B0BDE8F08FB149B14800F00DFF00F0DFF943F257
:201E200016300BF011FCE7E7AD4BAE4D1B78002298072A70E0D5AC4BDFF8D482AB4F1A8830
:201E4000D8F8001038460BF0D7FD0646287000285FD1BB79013B032B70D97B6823F07F437A
:201E600023F0FF03002B57D1C3232B70388900F049FADFF88492C9F8000040B1C66AD0F8EE
:201E800030A000F0D9F916B150469849B0477B790022012BC9F80020944A40F2CB802E7857
:201EA000002EA9D00020C22E00F0C180DFF864B2DFF864A28E4E00F0BFF92A78894BC32A89
:201EC00000F0B180BF2A84BFA0221A7002213B8986480BF0D5FB356828460FF031F8294647
:201EE000024682480CF00EF9D8F800509BF80030294628337D483AF803600BF0CFFB31468A
:201F000083B22A467B480BF057FD75E700F00EFA72E7794B1868C6E77B79032BA6D1DFF8FC
:201F2000F4B1DFF8F4A19BF800300AF1080028333AF803103A8900F0B5FA97E7DFF8D4B1EE
:201F4000DFF8D4A19BF800300AF1080128333AF80320388900F04CF9DFF89C91C9F8000003
:201F6000002800F0DB807B792022039604960596ADF80A20002B6FD13B89452202215F48BB
:201F80000BF07EFBBA7A002A40F0998004AB009300220DF10A0303A954480CF059F840B131
:201FA000BDF80A30049A202B28BF20230592ADF80A30534BD3F800A0BAF1000F00F08480F2
:201FC000D9F800204D4EDFF824B10DF1140EBDF80A30743231465846CDF800E0D04700281B
:201FE0005CD02A783F4B92B99BF81620110740F19B8096F90620002AC0F29680B27D120722
:2020000000F192803A4E3F49A12231601A702E78D9F80000002E7FF446AF00283FF4ECAECD
:2020200000F020F9E8E600221A7003214FE700F003F9E1E6D37C5B067FF531AFDFF8D4B0B1
:20204000DFF8D4A09BF800300AF1080028333AF8031000F0ABFCDAE70BF00AFB45220346C7
:20206000012126480BF00CFB8CE7049B9A4275D0013203997FD0BDF80A300122DFF87CA078
:2020800050460CF003F8B6F89E30BDF80A20934204D9DAF8A01050460CF034F82B78002B98
:2020A000B5D1D9F80060154806F136010BF0F6FA80B2B0860028AAD1C1232B70A7E7124980
:2020C0000E480BF0E7FE61E7094E104AA12332602B709CE7AA420020A4180100CC040020A4
:2020E000D83F00209F340020E03B0020F80A0020EC060020F83B00204C0A0020500A002004
:20210000F40A0020B8180100030B0020D8180100E43F00208C340020F03B0020284E294A5A
:20212000A32332602B70C6E697F91530059A002B9BDB002AB5D0013218BF012220230021AB
:2021400021480BF0A3FFB6F89E20D6F8A0101F2A88BF20221C480BF0D5FF9FE7B6F89E10A8
:20216000194E8A4210D3822330460F22B37117490BF0C8FF92E7B6F89E20BDF80A309A4207
:2021800094BF0022012279E7BDF80A308A1A9A4294BF00220122039930460BF077FF049821
:2021A000B6F89E30BDF80A201B1AD6F8A0109A42014428BF1A4630460BF0A4FF6EE700BF81
:2021C000EC060020EC180100500A0020C81801000021014804F030B8A4040020024A034BE5
:2021E00012681A60704700BF78140020A00B0020F8B507460E480D46164604F039FA04468E
:2022000098B10023878003762968A8686F68EA68C4F81A10C4F822002146C4F81E70C4F8D7
:2022200026200448668504F095F92046F8BD00BFB40400209C0B002070B110B504460830BE
:2022400003F03EFF2146054804F0D6F92146BDE81040034804F02ABA704700BF9C0B00201B
:20226000B40400202DE9F041044600F11A063046A38E04F13602618D0BF09EFB94F836507C
:20228000C5F3011595B9237E032B14D82BB3E3685B00E360184D194B2E681B6804F10800C1
:2022A0002B6003F0E7FE2E60BDE8F0812046BDE8F041FFF7C1BF3046618DE66A276B00F02F
:2022C00061F82046FFF7B8FF2EB1294638463346BDE8F0411847BDE8F08102F0A7FE084B18
:2022E000A3FB0023DB0903EB4303A0EB831303F28113E360CEE700BF78140020A00B00202D
:20230000ABAAAAAA10B50446074804F021F948B18388A34203D106E08388A34202D00068DB
:202320000028F9D110BD10BD9C0B002010B50C4804F00EF990B1044601E0246874B104F124
:20234000080003F0A1FE0028F7D0237E204601332376FFF787FF2468002CF0D110BD00BF9F
:202360009C0B002010B504460448214604F09EF92146BDE81040024804F03EB9C0040020D4
:202380003C0F0020F8B505460E480E4604F0E0F80446A0B100271022294604F118000EF0F6
:2023A000AFFB10B9238DB34204D02468002CF2D13846F8BD2046FFF7D5FF0137F5E70746F2
:2023C000F6E700BF3C0F00202DE9F843054618480E4691461F4604F0BBF8044630B34FF057
:2023E000000801E02468F4B11022294604F118000EF086FB0028F5D1238DB342F2D194F8B4
:202400002A30BB42EED13A46494604F12B000EF077FB0028E6D12046FFF7A4FF246808F1A4
:202420000108002CE0D14046BDE8F8838046FAE73C0F00202DE9F8430546194888461746D6
:2024400004F086F8044640B34FF0000908E029460EF056FB10B9238D434506D02468CCB1FF
:20246000102204F11800002DF1D1261DBE4209D030460EF065FD3946024630460EF040FBC6
:202480000028EBD12046FFF76DFF246809F10109002CE5D14846BDE8F8838146FAE700BF09
:2024A0003C0F00202DE9F041054613480E46174604F04EF80446E8B14FF0000801E0246842
:2024C000ACB11022294604F118000EF019FB0028F5D1238DB342F2D1A38EBB42EFD1204635
:2024E000FFF740FF246808F10108002CE9D14046BDE8F0818046FAE73C0F00202DE9F04738
:202500004468DAB0804620460E460EF019FD0546214603A813220EF08FFD122D07DC36B1CC
:2025200003AB3146C5F1130258190EF085FD00273B4608A8452201218DF81F700BF0A0F832
:202540003B460122394631A80BF09AF803A931A80BF01AFD03A80EF0F3FC0646334803F009
:20256000F7FF044600285DD0DFF8C4900BE007DA98F80830DB0603D5A3191B792F2B08D0CC
:202580002468002C4ED0251D28460EF0D9FC8642EDD12946324603A80EF000FD0028EFD1E7
:2025A0000BF066F8228D04F11801FFF721FE05460028E5D0A16B89FB0123CA17C2EBE303A0
:2025C00003EB8303B1EB830308BF8DF8253082883023A2868288D8F810A0ADF82820009731
:2025E00000F1740208A931A8D0479DF92630002B05DBA16B08A84B1CA3630BF021FD94F80E
:202600002A2004F12B0108A80BF044FC05F1360108A80BF043F8A8862846FFF723FE246812
:20262000002CB0D15AB0BDE8F08700BF3C0F0020676666660021FFF761BF00BF8B79012BDE
:2026400000D0704792F90630002BFADB2DE9F04FCB7C81B05B060C4603D54B6E23B1012B21
:2026600047D001B0BDE8F08F2E4B2F481B78D1F860A028331F5A1546394652460830E66D51
:2026800094F80A80FFF7D6FE284803F0F1FF04F10B09B346044600283AD0122EC4BF13268D
:2026A000B3463246514604300EF05CFA4FF0000AA3441F4B8BF804A004F118060FCB86E86E
:2026C0000F0042464946278584F82A8004F12B000EF048FA2146A4F834A0164803F03AFF41
:2026E0002846A16B4B1CA36301B0BDE8F04F0BF0A7BC0C4B0C4A1B7802F108002833D15A3F
:20270000A37A04F10B0201B0BDE8F04FFFF75CBE28460949A3231022AB7101B0BDE8F04F8C
:202720000BF0F0BC8C340020F03B0020C0040020F83B00203C0F0020101901002DE9F04FA6
:2027400083B0019100929846DDF8309000F08EFA03F0FEFE002800F0B380D9F800B0002557
:2027600007462C465E46B44208D3454512D24FF03C02009B5A55D9F800600135631CB34215
:2027800008D3454506D24FF02F02009B5A55D9F800600135D7F804B0023458460EF0D0FBBB
:2027A00004EB000AB2454FD801D3454561D3FE680AF10104BEB13378ABB1D9F800B05C4572
:2027C00008D3454506D2009A3B235355FE68D9F800B0013530460EF0B3FB0AF1020A0AEBE1
:2027E00000045C450FD8454504D9D9F80030621B9A425AD83F68002F40D0BCB9D9F80060CE
:20280000B442BBD3B1E70098CAEB0B0308F10101002BACBFF318331C491B28442C4A02F01E
:2028200061FD0544454540D83F683FB3D9F80060A64207D8454505D2009A2C235355D9F8FB
:202840000060013501348EE70098331B08F10101002BACBF5B440BF10003491B28441C4AED
:2028600002F040FD0544454509D2D9F800309A459DD3009A3E235355013598E70027A5B94E
:2028800044B9EFB1D9F800304344C9F8003003B0BDE8F08F019C822120460BF0F5FA204655
:2028A0000F220C490BF02EFCEBE79DE812002A4620460BF027FC204628210BF003FBE0E7A1
:2028C0004FF0FF33C9F8003003B0BDE8F08F00BF24130100C818010038B5A0B105460F4807
:2028E0000C4601F0A3F8AB79413B3E2B06D8EB7C5B060DD5B4FA84F0400938BD084801F0C8
:2029000095F8032038BD074801F090F8042038BD054801F08BF8022038BD00BF3819010048
:20292000481901002C1901005C1901002DE9F0410A4D0B4C0E4617460146002228460AF002
:202940009FFE216828460AF0A9FE226883B239463046BDE8F0410BF02FB800BF440F0020A4
:20296000E43F002070B505460E480E4603F0F0FD044610B913E024688CB16A7829780A4876
:2029800002F08AFC237FB342F5D13246294604F11D000EF0B5F80028EDD1204670BD002025
:2029A00070BD00BF400F0020D0190100F0B5144683B0064624480F4601F038F8A57A2348E8
:2029C00001F034F825B9224801F030F803B0F0BD204801F02BF8294604F10B00FFF7C2FF77
:2029E000054618B3637983B1EB6A002BEED000212046FFF771FF012806460DD03246214655
:202A0000EB6A2846984703B0F0BD3A46314623890220FFF78BFFE7E701A920460BF004FB97
:202A2000019B2A6B9A420BD02B63E7E70A4800F0FDFF23893A4631460320FFF777FFC5E736
:202A4000064800F0F3FFC1E7541A0100701A0100801A0100C41A0100DC1A0100241B0100F3
:202A600070B502880546C02A0FD0D02A11D01AB100230380032070BD1F4B8521186803F074
:202A800077FCC0232B80012070BD852907D0012070BD882917D0D0232B80012070BD174831
:202AA00003F056FD044618B9F5E72468002CF2D0E369002BF9D0A1680029F6D004F10C0026
:202AC00003F0C4FAF1E70D4803F042FD044618B9E1E72468002CDED0A368002BF9D004F1A9
:202AE0000C06304603F0D0FA0028F2D0E3699847304603F0B5FAECE778140020E80F0020CE
:202B00002DE9F04F87B006AD0024384E45F8044D0291F468294691469A468046A047054631
:202B2000334803F015FD002835D00446DDF814B009E006DD227AD30603D51BF800202F2A60
:202B400007D024683CB3676838460EF0F9F98542EFD10246594638460EF020FA0028F0D1F9
:202B6000039032694046904710F0010F039B1CD1850728D5656935B3109B4A460093029987
:202B800053464046A847237A5B0612D40123184607B0BDE8F08F73690298D6F8881098472B
:202BA0000023184607B0BDE8F08F2569002DE3D1DEE7336E2046029A4146984701231846FA
:202BC00007B0BDE8F08F410702D5A569002DD3D1020702D5E569002DCED102987269D6F8DF
:202BE0008C1003939047039BDBE700BF98170100EC0F002038B50A4B1C7804B138BD094D0C
:202C0000012209481A7003F09FFCAB68074898476B6898472146BDE83840054803F00CBBAA
:202C20008034002098170100EC0F0020012B0000F004002010B504460A486160214603F039
:202C400089FC94F90830002B00DB10BD216ACB69002BFAD08B68002BF7D0BDE8104002487F
:202C600003F078BCEC0F0020E80F002000487047EC0F0020F0B5002706463C463D4683B091
:202C8000304600F0D3F90195019B9C4206DD00BF019B01330193019B9C42F8DC304600F038
:202CA000CFF90195019BC4F5C874A34206DA00BF019B01330193019BA342F8DB0137B7F505
:202CC000487F06D0B7F5C87FCCBFC7F548743C46D6E703B0F0BD00BF2DE9F041634C84B0D9
:202CE0002368012162485B6898472368012211461B685F48984708F0BDFE01F0CFFA01F06F
:202D000067FA00F0C1F901F09FFA00F085F9594959485A4A012303600B6018461368FFF708
:202D2000A9FF08F0ABFE00F059FD00F0C7FC03F057FB00F023FE03F0A3FA41F2342002F0F2
:202D40007BF900F0D9FF03F0EDFB4D4800F06EFE4BF2016200214B4802F09EFA4A4800F00B
:202D600065FE0021494803F067FA03F021F802F0D3FF0220FFF77EFF454802F08DFA454BEF
:202D8000454C186800F052FE444802F085FA444B186800F04BFE434802F07EFA2168424895
:202DA00002F07AFAE469A04720B1A04701463F4802F072FA0A2000F031FE002609F04EFBE4
:202DC00002A808213A4D3B4F019600F067FE9DF80F309DF80E4002AA03CA43EA0424D7F8CF
:202DE0002C802860696002204AF6CD31C04721460320C04719210120C047082202A97B6BC1
:202E00000B209847BB6A01A90120984701992A4802F042FA294B214629481C8002F03CFA8F
:202E2000284B6A6829685A60196008F0F7FE3146254803F001FA0220FFF71CFF31462348B5
:202E400003F0FAF9224802F05BFF00F0A5FD0120FFF710FF03F02EFA044600F0D1FD14F0F7
:202E6000FF0FF7D101F07CF8F4E700BFD801001000400340080009400C4009402C20094096
:202E8000A01B0100C41B0100DC1B0100C4050020F01B01002C1E0100D81E0100F81B010053
:202EA000A81E0100001C010024130100081C0100804200202C1D01002C1C01006C3400209C
:202EC000401C0100E83B00203006002000050020101201002DE9F04104880646772C30D0F2
:202EE0007E2C27D024B1002303800320BDE8F08103F09AF92F4F304B304D3A6818702C60CB
:202F0000002A55D02346A0462D4C04F8038093680021802098472B68013357F823202B609C
:202F2000002AF2D1DBB2274A1370772333800120BDE8F081204B1B788B421CD00120BDE822
:202F4000F081DFF880801D4D98F800201E4F00233B602B60002AE8D0194CE256002A18DBBD
:202F60002B6898F80020013393422B60F5DB3B68002BECD1D9E7114D114CDFF84880124FA4
:202F80002B683A68E15C013201F07F01E1543A60E7E7084A084952F823200978002003F0BA
:202FA000E7F90028ECD17E2333800120BDE8F0811346B8E724050020A8420020F00F002057
:202FC000683A002081340020F40F002010B40E4B1C7864B10D4A1368984213D0002303E0DC
:202FE00052F8041F88420BD00133A342F8D1084A0848135D63F07F03135510BC03F0E4B932
:203000001C46F4E70024F2E78134002024050020683A00200005002008B500F081F8024BFE
:2030200000221A7008BD00BF82340020034A137803431846137000F08FB800BF82340020BF
:20304000034A137823EA00031846137000F084B882340020034A137843401846137000F079
:203060007BB800BF8234002010B5064C042023685B699847236804205B6B98470128F9D1D8
:2030800010BD00BFB8010010F0B591B008F0F2FC0746FFF7E9FF1C4B4FF4A0601B68DB6973
:2030A00098471A4B01211A4A196013689907FCD56C46184D00F0EAF9174801F07DF80FCD56
:2030C0000FC40FCD0FC40FCD0FC495E80F0084E80F00009C621C0FD06D46104E33682046AD
:2030E0009B6B9847336820469B694FF40051984755F8044F631CF1D10FB111B0F0BD11B0A3
:20310000BDE8F04008F0BABCB80100102820086028200840581C010010050020B4010010F4
:203120000A4B1A6802B1704710B50122084C1A6023680820DB6B984723680720DB6B9847E9
:20314000044B4FF4C0721A6010BD00BFF80F0020B4010010A0200240084B09494FF4C0729D
:2031600008701A60C20744BF4FF4807243F8102C830702D5034B80221A607047A020024061
:20318000833400209020024008B5034B1B685B689847C0F3804008BDB401001028B1012837
:2031A00006BF054BD86800207047044B1868C0F3403080F001007047FC0F0020C02002407C
:2031C00008B100207047034B1868C0F3803080F001007047C02002408138012801D9002008
:2031E00070470D20FFF7D0BF8138012801D9002070470E20FFF7C8BF802870B514460AD027
:20320000812807D1E1B9BDE87040184B10461B685B6B184770BD154D1549012393402A6867
:203220000B60936B204698472B6820460021114A1B689847E0B21049BDE8704000F0EEBF2C
:203240000A4D0B49012393402A680B60936B204698472B6820461B68064A002198472B682D
:203260002046BDE870401B6B184700BFB4010010E0200240004007209532000008B50D22CE
:20328000FFF7BAFF012008BD08B50E22FFF7B4FF012008BD0D2838B50AD00E2800D038BD26
:2032A0004FF080524FF48041BDE8384000F082BD0E4C204603F0D4F80028F0D004212046BB
:2032C00003F0BAF80A4B1D68C5F3403525B900F041FAE560A06038BD00F03CFAA368C31AF1
:2032E000E3600448BDE83840FFF770BEFC0F0020C0200240A01C010030B51C4A1C4B1068CA
:2033000083B000244FF48015042101908DF800408DF801400DEB01001D6000F0D3F820B933
:20332000144BFF201D6003B030BD0221684600F0E7F8104B1D6010B9FF2003B030BD9DF85D
:203340000030EF2B03D0C22B01D02046EBE79DF80100A0F11103012B05D9143801288CBF55
:2033600000200120DFE70120DDE700BFC01C0100A02002409020024030B5164B83B002ACAA
:2033800005224FF4801504F8042D1D6000F0DCF82046012100F096F820B910E09DF8073025
:2033A000DB0710D501210DF1070000F0A9F80028F4D1094B4FF480121A6003B030BD064B0D
:2033C0001D6003B030BD044B4FF4801201201A6003B030BDA02002409020024030B583B065
:2033E000FFF7CAFF08B903B030BD0E4B02A8B9224FF4801500F8012D01211D6000F062F8E8
:20340000094B0A241D60FFF777FF631E0028EAD013F0FF04F7D1044B4FF480121A6003B0BF
:2034200030BD00BFA02002409020024010B50A2182B0124800F09AF8114B14201B68114C7E
:20344000DB6B9847104A4FF48013AB2102A8236000F8011D1360012100F034F808B1FFF7A8
:203460008BFF084B4FF480121A60FFF745FFA0F10100B0FA80F0400902B010BD00093D002C
:20348000B401001090200240A020024008B5FFF7CDFFFFF7A3FFBDE8084000F0C7B800BF41
:2034A00008B5064B02201B685B6B9847012803BF034B186800F00100002008BDB80100105C
:2034C00078200840F0B583B005460C46FFF7E8FF074680B17CB1094E336815F8011B5B6831
:2034E0004FF080409847336801A9DB684FF080409847013CF0D1384603B0F0BDC4010010D7
:20350000F0B583B005460C46FFF7CAFF0746B0B1ACB10C4E09E033684FF08040DB6898476D
:20352000019B013C05F8013B09D0336800219B684FF08040984701A90028ECD107463846A9
:2035400003B0F0BDC401001010B582B0FFF7A8FF40B1054C236801A91B694FF080409847C9
:203560000028F7D102B010BDC4010010F0B5264D07462B6885B002205B690E4698472B682E
:2035800002205B6B9847012804461F4BF7D11B684FF48070DB6998471C4B1D4A1C60136821
:2035A0009B07FCD51B4A1C4913681C484FF0030E082523F00F030C4609681360C0F800E07F
:2035C0000023019500971A460F684FF080401449B847144B29461B6800965D6C09224FF04F
:2035E000FF334FF08040A8470F4A136843F002031360236803A91B694FF08040984700286B
:20360000F7D105B0F0BD00BFB8010010282008602820084014000040C4010010200000402F
:20362000006CDC02B40100100400004010B5174B4FF480701B681B6A9847154B0121154A15
:20364000196013689B07FCD5134C082023689B6B984723684FF400519B6908209847236857
:2036600009209B6B984723684FF400519B690920984723680A209B6B984723684FF4005158
:203680009B690A20BDE81040184700BFB80100102820086028200840B401001010B5064C04
:2036A000042023685B699847236804205B6B98470128F9D110BD00BFB8010010F8B51A4A0B
:2036C00000200021C2E90001184B04201B685B6B9847012801D0FFF7E1FF144B00201B687C
:2036E000DB699847124B0121124A196013689B07FCD5114A11491368096823F4807323F0A7
:2037000001030F4C13600B6820460E49984740F221200D4D0D490E4B042731260122276020
:203720002E6008601A60F8BD50070020B801001028200860282008400C000140C8010010BE
:2037400000000140002100043C000140080001400400244310B40949094C0B6822680868FA
:203760008342FAD1DB01074903EB52620023C1E9002310BCD1E90001704700BF082009408D
:203780000C2009405007002010B50B490B4C0B68226808688342FAD1DB01094903EB526200
:2037A0000023C1E9002302F079FC00B910BDBDE8104002F045BC00BF082009400C2009409F
:2037C0005007002010B508F055F9034B1C6808B908F054F9204610BD082009402DE9F041A4
:2037E00008F048F91D4E1E4B1E4F32680124002580464FF480314FF480703D601C601860ED
:2038000019601368284623219847336820461B6824219847336825211B6802209847124ABA
:203820001249136843F4E02313600D6008F0ACF90F4B1049104A1B6800F50070086014602A
:203840003C601B6914209847B8F1000F01D0BDE8F081BDE8F04108F011B900BF84010010AA
:2038600004200940000024430020094008200940B00100101C200940A0022443431E012BBE
:2038800010B419D9042801D010BC704700231A4610F004001CBF0E4C216013B10D4B012177
:2038A000196012B10C4B01221A600028ECD00B4B01221A6010BC704710F0010302D0084A56
:2038C0000123116010F00202E2D0064C2160DFE72020094080022443A0022443C002244360
:2038E000182009401C200940014B1868704700BF0C10002008B50AF015FC184B1860FFF7AB
:2039000043FF174B1B686BB9164B1B68E3B9164B1B6833B11549164B00204FF480320860D8
:203920001A6008BD124B4FF480721A6008F02CF900F205200F4B20F4FF7020F001001860A2
:20394000084B1B68002BE2D00B49094B0020012208601A6002F05CFDD9E700BF0C100020E1
:20396000A000244380002443C0002443C0022443042009401C200940800224430349044896
:20398000044B012208601A60704700BF00000840FFFF0F00000C0840F8B508F06BF8124A50
:2039A000B0FA80F01368012B0BD0104C104D1149114A0123400925600B601360C3070FD480
:2039C000F8BD0E4F094D0A4E0A4C0B49400940F0020017602E6023600B601360C307EFD50E
:2039E000BDE8F84008F04AB8000C084000000840FFFF0F000C0008400401004351E5CC1A8F
:203A000003490448044B012208601A60704700BF00000840FFFF0F000C00084010B504468C
:203A2000C0B200F07DF9204610BD00BF70B506460024451E04E015F8010F00F071F9013434
:203A400030460DF07DFAA042F5D80A2000F068F900F07AF90128FBD0204670BD70B50446F9
:203A6000B0B10078C0B1A9B10025661804E014F8010F38B1B44205D000F052F9631C05F19B
:203A80000105F4D100F060F90128FBD0284670BD0546F7E70D46F5E70546F3E710B40B4BEC
:203AA0000B4C13F8012FFF2A0DD1A342F9D1094A39B11144013801390B78914200F8013F2B
:203AC000F9D110BC7047044AF2E700BFC7FF0100CFFF0100F0120050C8FF010038B50C4DBD
:203AE00002202B685B6998472B6802205B6B984701280446064BF7D11B684FF40070DB690E
:203B00009847044B044A1C6013689B07FCD538BDB801001028200860282008402DE9F04378
:203B200040F2F275DFF8DC8083B0FFF7D7FFD8F800302A4EDB682A4898473368294C5B69DA
:203B4000152098472368DFF8C090274F23F4FE63D9F8002023F0020323603D60D36B032027
:203B600098472249D9F800300820122208600092D3F840900322132302211948C847D8F84B
:203B800000206023D2F8048019494FF4E1321448C04740F2011240F2013E1649164B14206F
:203BA00008601968154841F01001196003681449002B0CBF134673460B603D60036853B1BD
:203BC0002368326843F0500323601369152003B0BDE8F043184703B0BDE8F083B001001090
:203BE00000100040381000404410004090200240006CDC02341000402C10004010100020DD
:203C000030100040D0010010B401001008B5064B02201B685B6B9847012803BF034B18686D
:203C200000F00100002008BDB80100106C20084038B50446FFF7EAFF18B1254A1368190728
:203C4000FCD4032C03D0234B1B6803B138BDFFF7DDFFE0B9204D4FF400702B681B6A984776
:203C6000032C2AD01D4B01211D4A196013689B07FCD5032000F0BCFA022000F0B9FA132002
:203C800000F0B6FABDE83840122000F0B1BA154B15481B68DB689847144B15201B685B699D
:203CA000984740F2F270124A1249136823F4FE6323F0020313600860CCE72B684FF40070FB
:203CC0009B6A98472B684FF400701B6B9847C9E71810004010100020B80100102820086084
:203CE00028200840D001001000100040B0010010381000404410004010B507F0BBFE044667
:203D0000054800F059FA054B00221A6004B110BDBDE8104007F0B2BE3005002010100020B4
:203D200010B50446FFF772FF08B9FFF7F7FE044B2146BDE810401B680248DB69184700BF87
:203D4000D00100100010004008B5FFF75FFF18B1024B1868C0F3C00008BD00BF181000402C
:203D600038B5FFF7BBFE40F2F2710C4B0C4A1B68116013F0500F10D00A4C0B4D05E02B6809
:203D80001B699847094B1B6823B923680848DB06F5D538BDC0B29847F7E738BD40100040DE
:203DA0004410004018100040D001001010100020001000402DE9F04740234FF0000882B06D
:203DC0000F461646CDF800800193054607F052FE494A4A4BC2F80080444601204FF4807186
:203DE0004FF48032DFF85881186019601A60D8F8003020463F211B6801349847042CF6D15F
:203E0000DFF83C810024D8F8003020463F219B6801349847032CF6D1394B1B68FFF7F0FD2D
:203E2000384802F095FB044630B1A368032003B198472468002CF8D16B1C0CD0324BAA0089
:203E400013430021314A1960136846F000523A4328461B6898472E4EDFF8E890002433681D
:203E6000C9F800409B690720984768460AF070F900F08CFA00F03AFA2648274903683268A9
:203E800023F0030303600B68244D23F00F030B609369382098472C6001200AF079F9DFF80F
:203EA000A8A01F481F4A4FF001081F491F4B2C60134FCAF80040C0F8008014601C4A0C6062
:203EC000C9F800401C603B681A491368096823F0030313604B68184803219847174A3368D5
:203EE0002C60CAF80040C2F800809B6B3A68984702B0BDE8F08700BF000024430420094012
:203F00002C20094014100020001A4442B4010010B801001000100940081009404010094047
:203F20008801044340012243440122430800094024220840D80100100040034018100940A5
:203F4000840100100C40094020042243034A136823F00403136030BF704700BF10ED00E017
:203F600070B507F087FD02F0F9F918B1BDE8704007F084BD804802F0EBFA0225044648B15E
:203F8000636823B19847A84228BF2846C5B22468002CF5D10AF0C6F8784B04461B68002BFC
:203FA00040F0898002F07AF8002840F0B2800346012D00F09380022DD8D1002840F0C780E9
:203FC000611E2846FFF75AFC6B4802F0C1FA0625044600287BD0A368022003B19847236914
:203FE000246825EA0305002CF5D1FFF709FD6B0705F006046ED4002C40F0A38000F0C6F94F
:2040000000200AF0C5F85E495E4A0B685E4823F003030B601368016843F00F0313608B694D
:2040200039209847594A5A4900231360184613600B6007F0BFFA062C00F08E80554C564D0C
:20404000564E2B682368326823F00303236053680321534898474C4B1B689B6B98472B687D
:2040600007F0D6FB4F4A3368002111604C485B680121984723684C4A012143F0030323605B
:2040800011602B6807F0FCFB0AF04EF8FFF77CFBFFF7B6FC384802F05BFA044628B1E368A4
:2040A00003B198472468002CF9D107F0E7FCBDE8704007F0E3BC3D4B1B681B1A022B3BD4AA
:2040C000A3F28F23002BBFF66DAF012335E0FFF797FC0624344B00221A608CE7002842D0E9
:2040E0006FF00702121BDA423AD404F58031CA1A11EA220138BF19460220FFF7BFFB2C4AB7
:20410000136823F00403136030BFBDE8704007F0B5BC01F0CBFF0646FFF71CFB361A002E59
:204120007FF724AFFFF7E0FB224A00EB4623121BDA421BD401203BE700239D4228BF1D46DE
:2041400030E7114B20461B689B69984756E719462846FFF793FB37E7022007F073FC6DE798
:2041600004F10801C8E704F58031C5E7022DB7D0012D7FF4FBAEB3E7141000208002244375
:204180000010094008100940B80100104010094020042243242208402C200940D80100106E
:2041A00000400340800104430C4009401820094010ED00E071FDFFFF0146014802F0CAB950
:2041C000141000200146014802F016BA1410002010B5054802F0B8F9BDE81040034B2021CC
:2041E0001B6803201B6818471410002084010010431C0ED010B50446064B4FF4C0421B68F9
:2042000000211B689847044AA3001A430023136010BD7047B4010010001A444238B5044617
:204220000D4607F027FC01230549064AA3400B6042F8245000B138BDBDE8384007F01EBCBF
:20424000E020024018100020064B002103F1800243F8041F9342FBD1034B10201B681B6968
:20426000184700BF14100020B0010010F8B5094B094F1D6800241D60012606FA04F32B4211
:20428000E0B203D057F8243003B198470134202CF3D1F8BDE02002401810002000B585B015
:2042A0000022412302A80292039309F051FF042007F0A4FC032810D00321042007F076FCE4
:2042C000042007F09BFC0328FAD100901C234FF040520021044807F00BFC02A809F08EFFFB
:2042E00005B05DF804FB00BF00A00C4000B583B00022412368468DE80C0009F029FF042028
:2043000007F07CFC022808D00221042007F04EFC042007F073FC0228FAD1684609F06EFF11
:2043200003B05DF804FB00BF00B583B00022412368468DE80C0009F00BFF012007F05EFCA5
:20434000012803D00121032007F030FC684609F055FF03B05DF804FB00B583B00022412389
:2043600068468DE80C0009F0F3FE012007F046FC012803D0044B986B07F04EFB684609F095
:204380003DFF03B05DF804FB4800001010B582B04123684600240193009409F0D9FE03203A
:2043A000214607F003FC012007F028FC18B1044B986B07F031FB684609F020FF02B010BDE1
:2043C0004800001008B509F059FF30B1044B5B88022B14BF0220012008BD022008BD00BFB6
:2043E000D410002070B582B009F048FF40B901A9134809F04BFF01280AD0002002B070BDDF
:204400000F4C6388022B08BF0120F0D102B070BD09F088FE6FF03F05094C2D1A03E009F007
:2044200081FEC54209D56088054E0228F7D1A0F10200B0FA80F04009E8E77088F7E700BF91
:20444000D410002008B5B32994BF0A46B422014602480CF087FB002008BD00BF561100200C
:2044600070B5054607F006FB04462DB1124A134B12681A6094B170BD0F4B104D1E6800212E
:2044800016F180402A684FF0000341F10001994208BF904206D32E60002CECD1BDE8704035
:2044A00007F0ECBA09F03EFE054A064913680860013313602E60EFE704300440981000205E
:2044C000D01000203C13002030B589B002A840F6020218210AF018F9164B9DF81A201B6874
:2044E0009DF81B401979144D61F3050211468DF81A205A7902A862F387118DF81A109A793C
:2045000001A9012362F347048DF81B4007958DF8163009F0BBFE012802D0002009B030BD73
:2045200002A809F0FDFEA0F10100B0FA80F0400909B030BD440500205C05002008B5FFF7A5
:20454000C3FF012801D0002008BDFFF74BFFC0B208BD00BF70B50E4D0E4E2C68002006E00E
:204560002379022B06D024682B689C420ED02379032BF5D133780120002BF4D1064801F036
:2045800023FF24682B6801209C42F0D170BD00BFC410002086340020F006002010B582B053
:2045A0000AF0ACF8044609F069FE08B902B010BD01A9084809F06AFE0128F7D1638803F445
:2045C0004063002BF2D1638803F44063002BF5D0ECE700BF010001040B2807D00C2801D02E
:2045E00001207047042A11D002207047082AFBD10029F9D0094B0139A3F1080013F8012DA8
:20460000834201F8012FF9D1002070470029EBD0034B00201B680B60704700BF0411002020
:204620006014002042F2034310B584B0002402A801A902940394ADF8083009F027FE20B102
:204640009DF90A30803302D0204604B010BD9DF80C0000F00C00A0F10400B0FA80F0400989
:2046600004B010BD10B582B009F008FE20B3144C6388022B03D01FE0FFF7D4FF18B109F01B
:20468000FDFD0028F8D101A90E4809F0FFFD02E06388022B03D109F0F1FD0028F8D142F260
:2046A00002426388934207D042F20740181AB0FA80F0400902B010BD012002B010BD00BF31
:2046C000D41000200100010430B585B009F0D6FDB8B10D4B5B88022B13D142F20345002495
:2046E00001A902A802940394ADF8085009F0CEFD38B19DF80A305B06F2D09DF80C0005B047
:2047000030BDFF2005B030BDD41000200B2801D001207047082A01D0022070470029FBD03B
:2047200008B50C4B083103F1080011F8012D03F8012F8342F9D109F0A1FD50B1064B5B8873
:20474000022B05D1FFF78EFFFFF74CFE032008BD002008BDFB100020D410002008B50AF0E0
:2047600029F8012814D009F089FD88B1094B5B88022B0DD109F082FD30B9FFF7A5FFFF28EF
:2047800006D0C0F3801008BDFFF74CFF0028F4D0002008BDD410002008B502E0FFF742FF4F
:2047A00018B109F06BFD0028F8D1FFF75BFF09F09BFEFFF7EBFD0E4B0E4819790022022990
:2047C000428012D00C4B1A79022A04BF00221A710A4B1A79022A04BF00221A71084B1A7945
:2047E000022A04BF00221A7108BD1A71EAE700BF1C120020D4100020AC120020D01300200A
:204800004013002008B509F0D5FF012801D0FFF7C3FF012008BD00BFF8B509F0CBFF0128AB
:2048200030D0FFF781FD09F029FD38BB1E4A1F481F49204B92F805E047794E795D7901245F
:2048400064F3830E64F3830764F3830664F38305882482F805E0106047710160C480D480A4
:20486000CC804E710B601A60DC805D71FFF774FD09F0CCFE012807D00020F8BD0E4B5B88E3
:20488000022BD3D10120F8BD0C4B1878003018BF012009F0D9FEFFF717FE0128ECD1BDE8FC
:2048A000F840FFF79FBD00BF1C120020AC120020D013002040130020D4100020863400202F
:2048C00070B584B0072800F2B380DFE800F01E61262F325C6B04574C217709F0CFFC10B3E1
:2048E0006388022B1FD1FFF7BDFE012814BF0324002409F099FE0020FFF7B2FDFFF772FDFE
:2049000001287DD0032004B070BD012900F08480002977D0022004B070BD464C618609F01A
:20492000ADFC0028DCD1002004B070BD414C2186D3E731F00702EDD13E4C3F48237EC1F3BC
:20494000400561F30003DBB243F00203067865F38203657EC1F3800103F0870362F3C713D7
:2049600062F3C7158E42657623760170B5D1334B228B184603A95A8009F088FC002814BF44
:2049800000200320BFE731F00103C3D1C8B2BAE7A1F10B030F2BBDD8264CA37B9942C2D0EE
:2049A000A1739AE701F115031A2BB3D8244A6FF014030C2401E052F83430994232DD14F1F6
:2049C000FF34F8D209F05AFC00289CD04FF000021B4B102503EBC40423796079A17903F0E3
:2049E0003F0360F3871361F3470203A802A98DF80E308DF80F20ADF80C5009F047FC92E768
:204A0000204680E7019109F0D5FE01288BD0FFF7C3FE0199084676E7FFF7FEFE01287FF45D
:204A200071AF80E7064B074A03EBC4031360C9E7012068E7D410002086340020BC1000203B
:204A4000C41C01004405002081B130B50C4683B0102800F28580DFE800F05C57524D6C6963
:204A6000474128221D83831915100B000220704705230B60002003B030BD6FF014030B60EB
:204A80000020F8E71A230B600020F4E70B230B600020F0E7474B00201B780B60EBE7464BD1
:204AA00000201B785BB20B60E5E709F0E7FB002858D0424B5B88022B54D140F20343002278
:204AC000694601A80192ADF8043009F0DFFB01286CD06FF07F0323600320CCE7374B0020FE
:204AE00093F91C300B60C6E7354B00201B681B680B60C0E7314B00201B8E0B60BBE72F4B42
:204B000000205B8E0B60B6E72C4B00209B7B0B60B1E709F0B3FB30B1284B5888A0F1020066
:204B2000B0FA80F0400920600020A4E700200860A1E70023214A0B60137E03F001030B60EB
:204B4000127E520744BF43F002030B601D4B1B78002B9DD00B68002043F004030B608AE78A
:204B6000012088E7FFF758FE0128B2D140F203430022694601A80192ADF8043009F086FBD5
:204B800001280CD009F016FE0128A2D06FF07F05FFF702FE256080357FF47AAF9CE79DF9A0
:204BA000025009F007FE0128F2D1F3E79DF90250F0E700BF8534002084340020D4100020AC
:204BC000440500208634002070B588B0054609F055FB002851D03E4B5B88022B08BF0026D2
:204BE0004BD109F09FFA6FF01F04241A07E0FFF719FD012848D109F095FAC44246D509F070
:204C00003DFB0028F3D102A842F60142182109F07BFD304C304B0022EDB28DF81750217864
:204C2000069304929DF81430891A18BF012162F3030301208DF8143009F040FD02A801A901
:204C400009F024FB30B3207801E0002835D0BDF80A3003F44063002BF7D0BDF80A40A4B2E3
:204C6000B4F5105418BF0124003018BF012009F039FDC6B9204608B070BDFFF7CDFD012821
:204C800019D0012008B070BD0028BCD0C6B9022008B070BD20780124003018BF012009F00D
:204CA00021FD002EE6D009F085FD0128E2D0FFF773FD2046E6E7064693E7FFF747F9C2E75E
:204CC00009F078FD0128E2D0FFF766FDDFE700BFD4100020863400205611002010B50C4631
:204CE000B32998BF2246014688BFB42203480BF039FF2046BDE81040FFF766BF561100203A
:204D000010B509F057FD012824D009F0B7FAB0B11B4B5B88022B03D011E0FFF783FC18B1E1
:204D200009F0ACFA0028F8D1FFF7CEFCFF2811D000F0030010F1FF3018BF012010BDFFF73D
:204D40006BFD0128044607D009F034FD012801D0FFF722FD012010BDFFF7B6FCFF2805D0D6
:204D600000F0030010F1FF3418BF012409F022FD012803D0FFF710FD204610BD204610BD93
:204D8000D41000202DE9F0434B4D83B080460F462E6809F073FA30B1484B5B88022B02D18D
:204DA0000020FFF75DFB09F0BDF9454C241A03E009F0B8F9C44208D53379022BF8D0032BC8
:204DC00006D0002003B0BDE8F0833379032BF8D12E68394A337A032B07D996F808905FFA1C
:204DE00089F9A9F10804BC4207DD3368002013603071307203B0BDE8F0834046224606F188
:204E000009010BF0AFFE09F10302B35C09F1050956F809002B4F5BB23B700190B35CDDF8CC
:204E20000480294E294A03F07F03B8F1404F3370D2F800900BD909F075F9254B1B68C3F168
:204E40007E4303F57203C34248BF09F1FF39DFF88CE06FF4BF70DEF800E010EB08004FF019
:204E6000FF3141F100010022B0EB0E0061EBEE71121849EB0103190241EA12611002002309
:204E800043F609520BF05CFC124B134A1B7810603BB12B6800221968204629601A721A7146
:204EA00090E73978042049B289B207F0ADFA3178032007F0A9FAECE7CC100020D410002099
:204EC000FAFEFFFF8434002085340020D01000203C130020863400206014002000330020FB
:204EE00010B509F0CBF978B10E4B5B88022B0BD10020FFF7B5FABDE8104000230A4A4FF44E
:204F000087310A4800F08EBFFFF786FC0128F2D10020FFF7A5FA09F04DFC0128EBD0FFF715
:204F20003BFCE8E7D4100020E14E00009C100020F8B5304F3048FFF73FF909F04BFB3846DD
:204F4000902200210BF0E8FE902200212B480BF0E3FE902200212A482A4C0BF0DDFE902238
:204F6000002129480BF0D8FE284E294B00252946802220461F60376075600BF0CDFE42F65F
:204F8000010E42F20200072202236376227621491922214B278B2661A273B9266F22E673E5
:204FA0006161E276FF210122A626A4F800E026775F801971A176627384F837201880FFF7F9
:204FC0002BFC012802D02C462046F8BD0446134809F0A8FB2046FFF743FA2B46104A4FF43A
:204FE0008731104800F01EFF29460F4801F024F92046F8BD1C12002048050020AC1200200C
:20500000D0130020D410002040130020C4100020CC1000200C120020BC100020641D01007A
:20502000E14E00009C100020F006002008B500F08BF880B208BD00BF00F010B938B50C4D7A
:2050400004202B685B6998472B6804205B6B984701280446064BF7D11B6840F20140DB69D4
:205060009847044B044A1C6013689B07FCD538BDB80100102820086028200840034B1B687B
:20508000002B14BF01200220704700BF64140020F8B503880446002B2ED0B3F5847F05D195
:2050A000184B1B788B4205D00120F8BD002303800320F8BD144D2B6873B1144B144A1B68AC
:2050C00012685B680220174698470026301847F100012B6898472E600E4B40F201401B683F
:2050E0009B6A98470C4B01210C4A196013689B07FCD50B48FFF766F84FF4847323800120F1
:20510000F8BD00BF4907002064140020CC01001004800240B8010010282008602820084067
:205120008805002008B5064B04201B685B6B9847012803BF034B1868C0F34000002008BDD7
:20514000B80100103C20084070B5274B1B689BB1264C0023224612F8011B29B90133042B14
:20516000F9D10020014670BD214A002502EBC302E55492E8030070BDFFF7D4FF00282FD0BC
:205180001C4A1D4B1268134073B91C4A0121134611601A68002AFCD110464FF4807106F0FD
:2051A00071FC174B01221A6006F064FC0646114A1368DB07FCD5134B134A1B6814685B68DB
:2051C0000220984723460022141843F1000516B12046294670BD06F051FC2046294670BDD0
:2051E000FFF72CFFCCE700BF6414002068140020580700200880024001000080F09F02404D
:20520000A8025042CC0100100480024038B50E4D00240E4A2C6013680D4923F00103096806
:2052200013604B6931209847224620464FF4807106F028FC0122074B2A6019782246BDE85E
:205240003840054801F094B8A80250420C800240B0010010490700209C05002010B5074C38
:205260002378802B00D010BD00F0DEFF207000210348BDE8104000F0DFBF00BF49070020D0
:205280009C0500200AB90020704708B508461146FEF7E4FB002008BD0FB400B583B004AB3E
:2052A00053F8041B04481A46019300F07BF803B05DF804EB04B07047AC05002038B5436816
:2052C000044693428CBF154603F1FF352A4600680BF048FC94E80C002A445D1B84E82400CC
:2052E000002038BD0CB430B587B00AAB53F8044B094D029003911A46214604A802AC01933D
:205300000495059400F04EF8029B00221A7007B0BDE8304002B07047BD52000038B5044661
:20532000154600680BF01EFC236800201D44256038BD00BF0EB430B586B009AB53F8041B55
:20534000084D01901A4601AC04A803930495059400F028F8019B00221A7006B0BDE83040C3
:2053600003B070471D530000102970B50C46054602D80AE0102C0BD92B681022084968688E
:205380009847103C0028F5D070BD08460029FBD022462B6868680249BDE87040184700BFFD
:2053A000881D01002DE9F04F834688468FB001924FF0000998F80030002B00F0E380252BB3
:2053C00008BF45461DD0444603E0252B00F045812C466378651C002BF7D1454500F0D2808E
:2053E000C8EB050641463246DBF80030DBF804009847002840F03D826378B144002B00F035
:20540000C1806B7805F10108002B00F0BB800025A3F12002102A1BD8DFE802F0171A1A14F3
:205420001A1A1A1A1A1A1A111A0E1A1A090045F0100518F8013FEBE745F00105F9E745F084
:205440000605F6E745F00805F3E745F00205F0E7A3F13102082A00F2D580002404EB84045A
:2054600003EB440418F8013F303CA3F13002092AF4D92E2B00F0CE804FF0FF366C2B00F0E2
:20548000E280682B00F04481782B00F28180DFE813F079007F007F007F007F007F007F008F
:2054A0007F007F007F007F007F007F007F007F007F007F007F007F007F007F007F007F00FC
:2054C0007F007F007F007F007F007F007F007F007F007F007F007F007F007F00E2027F0077
:2054E0007F007F007F007F007F007F007F007F007F007F007F007F007F007F007F007F00BC
:205500007F007F007F007F007F007F007F007F007F007F00DF027F007F007F00DC02D9027E
:20552000D6027F007F007F007F007F007F007F007F007F007F007F007F007F007F007F0022
:205540007F00D3027F007F007F007F007F007F007F007F00D0027F00CD02CA02C702C40284
:20556000C1027F00CA027F007F007F007F00BE02BB027D007F007F00B8027F00B5027F00BA
:205580007F00B20248460FB0BDE8F08F45F4407505F4E063B3F5806F08F1010800F06E81C5
:2055A0005FD9B3F5C06F00F0A181B3F5E06F00F09681B3F5A06F7FF4FDAE019A012C1368B4
:2055C00088BF04F1FF3402F104028DF8203098BF0024EB07019200F1F38121465846FFF72E
:2055E000C3FE002840F045810122DBF8003008A9DBF8040009EB02059847002840F0398132
:20560000254497E12A2B00F08D802E2B4FF000047FF432AF98F8013008F10101A3F13002E5
:20562000092A00F28D808846002606EB860603EB460618F8013F303EA3F13002092AF4D909
:205640006C2B7FF41EAF98F801306C2B00F05A8108F1010845F0600516E745457FF4C0AE4C
:20566000CFE6B3F5807F70D0B3F5407F7FF4A2AE0198B24B15F4804FB14F18BF1F46034671
:205680000168043301930A460023002900F0AB810DF1330E7046110941EA03714FEA131C08
:2056A00002F00F0663460A46B95D00F8011D52EA0301F0D1BEEB000600F097810336B442D7
:2056C0004FF078034FF0300200F8013C00F8022C4FF023038CBFA41B0024EA0700F8033C89
:2056E000A0F1030700F1BA8121465846FFF73CFE002840F0BE803946DBF800303246DBF84B
:2057000004009847002840F0B48009EB060511E198F80130682B00F0B58108F1010845F078
:205720004005B1E6019A08F10108134614680433002C0193B8BF45F0010598F8003098E634
:205740002A2B00F0A681884696E6002EABBF25F0100501230596059315F40053049305F092
:20576000E00300F0F580402B00F0A88200F29B81002B00F06182202B40F08A82019991F9A5
:2057800000200431D3170191002A73F10001C0F25F82CDE902230023069305F4C053B3F5CB
:2057A000805F00F0F080B3F5C05F00F0CC81B3F5006F00F0ED810DF1360A002741F608038A
:2057C000059941F208028F4203EA050380F08E819342A1EB070600F0518241F60802934262
:2057E00007EB060100F08D8100231A460293049B83B1069B002B40F0928105F00603022B8D
:2058000000F053824F48062B08BF0246029B08BF01230293029B0B449C428CBFE41A002498
:2058200015F00103049304D1E80640F11D8226441C46029838B11146DBF800300246DBF871
:2058400004009847A8B9102E07EB090540F2C381B14603E0B9F1100F40F2BF81DBF8003038
:2058600010223949DBF804009847A9F110090028F0D04FF0FF300FB0BDE8F08F019A1346DE
:20588000D2F800A004330193BAF1000F00F0E8819AF8007037B1574617F8013F002BFBD1F3
:2058A000CAEB0707002E02DBB74228BF3746BC428CBFE41B0024E9072BD421465846FFF767
:2058C00053FD0028D5D15146DBF800303A46DBF8040098470028CCD107EB09052AE0019A70
:2058E000136804320192C3F8009063E5DBF8003001221649DBF8040098470028B9D109F1EA
:20590000010957E598F8023045F0800508F10208BAE55146DBF800303A46DBF80400984753
:205920000028A6D12146584607EB0905FFF71CFD00289ED104EB05093CE500BFA81D01007A
:20594000BC1D0100E01D0100981D0100EC1D0100402B00F0AE8100F2B680002B00F0618100
:20596000202B40F0E080049A019906920A780023CDE902230B460433019305F4C053B3F52C
:20598000805F7FF410AFDDE90223134300F09D810DF1360307939A46DDE90223D00840EA09
:2059A0004370DE0802F007013346024630310AF8011D52EA0301F1D1079BCAEB0307FDE6CC
:2059C000DBF80030012208A9DBF80400984700287FF44FAF2146584609F10105FFF7C4FCE6
:2059E0000028A7D045E70DF13300302300F8013C0426013863E645F4C855C9E545F41065C5
:205A0000C6E545F48065C3E545F48855C0E545F4E065BDE545F48135BAE545F40075B7E562
:205A200045F40245B4E545F42455B1E545F4A065AEE545F4C135ABE545F4B245A8E545F47F
:205A4000A135A5E545F48445A2E545F442459FE545F4E1359CE545F4C06599E53946DBF81B
:205A600000303246DBF80400984700287FF401AF2146584609EB0605FFF776FC00283FF4B6
:205A800059AFF6E698F8023045F0200508F10208FAE4019998F802300A4604320E6801923A
:205AA00008F10208EAE4602B00F0C680802B40F0EF80019B073323F0070303F10802019286
:205AC000D3E9002360E6602B00F0AB80802B2AD1049B0693019B073323F0070303F108022C
:205AE0000192D3E90023CDE9022356E6934200F0CD8041F608020026934207EB06017FF463
:205B000073AEDDE9022313433FF46EAE744B15F4804F744A18BF1A460223029367E601231D
:205B20000293714A76E605F4C053B3F5805F00F0D080B3F5C05F40F0AE8000230022CDE9C6
:205B4000022300230693694B15F4804FDDE90201674E024618BF1E460B46134300F0B5800B
:205B60000DF1360307939A4602460B46110941EA03711F0902F00F003B460A46315C0AF899
:205B8000011D52EA0301F1D1079BCAEB030715E6DDE9026732463B46134300F096800DF107
:205BA00036039A460793304639460A2200230AF0C7FD3032304639460AF8012D00230A225A
:205BC0000AF0BEFD06460F4656EA0703EBD1079BCAEB0307F2E556B1B1464A46DBF80030A0
:205BE0004449DBF80400984700287FF442AE3A46029F51462F44DBF80030DBF804003D464F
:205C0000984700287FF435AE049B3544002B3FF491AE21465846FFF7A7FB00283FF48AAE42
:205C200027E6019A136804321946049B01920022CDE902120693B0E501990B460A680433CC
:205C40000193002A4FEAE27373F10001BFF6A1AD524263EB4303CDE90223012306939CE54F
:205C6000DFF898A006271DE6214658460592FFF77BFB059A00283FF4DCADFAE5002E08BF86
:205C80000126002302931A46B919B0E50126F8E7002200237DE5002306931F46002200234B
:205CA000CDE902230DF1360A88E50123124A0293B0E5049A019906920A8858E60199B1F9D0
:205CC00000200431D31701915EE500270DF1360A74E500230022CDE902230023069352E6DE
:205CE000D01D0100D41D0100D81D0100A81D0100BC1D0100981D0100DC1D0100E41D01007C
:205D000010B50446006830B1002100F095FA54F8040F0028F8D110BD704700BFF0B50388C8
:205D200083B005465BB14A2B04D188291BD0012003B0F0BD00230380032003B0F0BD1948E8
:205D400000F006FC044630B1A168201D00F07EF92468002CF8D1144B01221A704A2301205E
:205D60002B8003B0F0BD0F48019200F0F1FB04460028F3D0019A031D9A4205D02468231DE5
:205D8000002CEBD09A42F9D12146064800F034FC064E6269A369376832600BB1E069984761
:205DA0003760DBE76C140020873400207814002010B5064B002406481C7000F0C5FB214638
:205DC000BDE81040034800F037BA00BF873400206C140020B405002070B504460D48049D2A
:205DE0000078A261E361656130B9A1600A482146BDE8704000F0AEBB084D094B2E68201D51
:205E00002B6000F023F92E602146BDE87040024800F0A0BB873400206C14002078140020E5
:205E2000B405002010B5044C82B024680094FFF7D3FF02B010BD00BF7814002070B5094BF7
:205E400004461B783BB1084D084B2E6804302B6000F006F92E602146BDE87040044800F007
:205E600079BB00BF8734002078140020B40500206C14002070B5094B04461B783BB1084D98
:205E8000084B2E6804302B6000F0F4F82E602146BDE87040044800F05DBB00BF8734002046
:205EA00078140020B40500206C14002010B50A4B04461B783BB9C36003612146BDE81040EF
:205EC000064800F099BB043000F0FAF82146BDE81040024800F090BB873400206C140020BE
:205EE00010B50E4C2368B3B1FDF734FC226892E80A0092680B44191A4AB1146853689268BA
:205F000023441B1A994228BF1946002AF5D1044B0144196010BD024A136010BD70140020CA
:205F2000741400202DE9F041038805467BB1592B08D1872912D0822920D059232B8001209E
:205F4000BDE8F081002303800320BDE8F081254A0120136059232B80BDE8F081214F3968FB
:205F60000029EAD0CB689A4203D024E0CB689A4220D189680029F9D13960DEE7194F4FF06F
:205F800000083C68002CD8D0002604E0A3682646002BD2D01C46204600F062FA0028F5D032
:205FA00022468821E06800F0E3F978B10E4800F00BFAEBE739608B68002BBED0D86882422D
:205FC0000BBF9B6819468B609B68F5E7E060A3682EB1B360C4F80880FFF782FFD1E73B6080
:205FE000F8E700BF70140020C405002010B50446104800F0E9F91049E3680A684BB142B138
:2060000094420FD0134601E09C420BD09B68002BFAD10A4BA2601B680C60E360BDE8104061
:20602000FFF75EBF054B1B68E360BDE81040FFF757BF00BFC405002070140020781400203E
:20604000014800F0C1B900BFC405002010B5044600F0F2F92046BDE81040FFF7C7BF00BF65
:2060600010B5044600F0F0F92046BDE81040FFF7BDBF00BF10B5044600F0ECF92046BDE8BD
:206080001040FFF7B3BF00BFC068B0FA80F04009704700BF05C81044704700BF024B186824
:2060A000003018BF0120704770140020024B186808B1024B18687047701400207414002007
:2060C00010B50F4B04461A68824213D072B19368984208BF134605D043B19A68944201D0A4
:2060E0001346F9E7A2689A60FFF7FAFE0023A360E36010BD82681A60FFF7F2FEF6E700BF59
:20610000701400202DE9F843DFF8A480274DD8F800702E68874247D077B33B4601E0002BAE
:206120003BD01B689842FAD133B3837B8946044623B3002383736FB1BC424FF0870106D085
:20614000BB7BDB0703D52246384600F033F83F68002FF1D1A3683BB14C4505D02C600022AB
:20616000832104F10C009847D8F80000844208D12368C8F800302E60BDE8F88338468442BF
:20618000F6D00028F7D003689C4208D0002BF2D01A68944204D01346F8E7BDE8F88303466F
:2061A00022681A602E60E7E73B46BDE7781400207C14002070B586687EB104460A480223FB
:2061C0000460A37304F10C000D46B0470238012804D9832D02D00123A37370BD2146204604
:2061E000BDE87040FFF78EBF7814002070B50C4A0C4B146800251D7084B1012601E0246892
:2062000064B1E37B002BFAD0A673E573204600228221FFF7CFFF2468002CF2D170BD00BF4F
:206220007C1400208A340020024B1878421C1A70704700BF8B34002070B50F4D2C688442DB
:2062400006D034B1234600E01BB11B689842FBD170BD0028FCD00346084E04600A46346835
:206260000120002198739981184681212B60FFF7A1FF346070BD00BF7C14002078140020BA
:2062800070B407480749084A0023084D084C8A2603700B6013602E70237070BC704700BF49
:2062A000893400207C140020781400208B340020883400202DE9F041234D2B780BB1FFF7DE
:2062C00095FF224E3378BBB12148224F0278013B02EB4201890001327C1802F01F0202700E
:2062E000A068DBB233707F5CD4F8048098B1812F06D0827BD20705D428781844BDE8F081AB
:206300000123837342463946FFF754FF337828781844BDE8F081104A146834B9ECE7A37BA2
:20632000D9070AD42468002CF0D02B78002BF6D0FFF75CFFA37BD907F4D54246394620460E
:20634000FFF738FFEEE700BF8A3400208934002088340020801400207C140020024A034BE7
:2063600010781B7818447047893400208A340020F0B40C4D2C78202C11D00B4B0B4E1B7824
:20638000671C234403F01F0303EB43039B00F418A06062602F70F1540020F0BC70470120D9
:2063A000F0BC704789340020883400208014002038B5837B034CDB07256801D5FFF7FAFEA0
:2063C000256038BD7814002038B1837B013B012B03D8024A01231370C37370478A340020AF
:2063E00007F09ABE38B5094C049D226822B180E82A002060002038BD024680E82A000846BF
:20640000226007F08BFE002038BD00BF0016002010B5084C206858B100224368816822608E
:206420009847236823B1BDE81040186807F076BE10BD00BF0016002010B541600446FDF718
:2064400089F9206010BD00BF90E80C0013440360704700BF10B50446FDF77CF9206010BD35
:2064600010B50446FDF776F923686268C3F101031844904294BF0020012010BDF8B50488D5
:206480000546672C0BD0792C04D0CCB1002303800320F8BD85291AD11D4C002323601C4CBF
:2064A000264604E00A2814D023687E2B2ADD194800F03EF9431CF5D167232B800120F8BD83
:2064C000FFF7B2FE144A124B10701C60E7E70120F8BD0F4C114F23680F4A581C00261178F9
:2064E00020603A463046FE54FFF742FF0C4B324618688521FFF73CFF0028CED179232B8069
:206500000120F8BD05495A1CC8543260CFE700BF8416002088160020A94200209016002075
:206520007814002008B505490548802200F0F8F8BDE8084000210348FFF77EBE0416002010
:2065400088160020D405002000230360704700BF0068704710B404685CB1A14223D02368CB
:206560000BB906E0134699420FD01A681C46002AF8D100230B6002680AB910E01A46136801
:20658000002BFBD1116010BC70475CB10A68226000221A6000230B600268002AEFD1016030
:2065A00010BC70470C46226823460260F0E700BF30B4056865B1A94219D02B682C460BB917
:2065C00006E01346994207D01A681C46002AF8D10D60016030BC704744B10A682260002277
:2065E0001A6005680D60016030BC70470D462A682B460260F3E700BF10B404685CB18C42E7
:2066000012D023680BB906E01346994205D01A681C46002AF8D110BC70472CB11A6822601F
:2066200000221A6010BC70470A680B460260F7E703682BB100201B680130002BFBD170476F
:206640001846704700B10068704700BF10B504464288002140680AF05FFB23886288A06803
:2066600002FB03F2BDE8104000210AF055BB00BF30B44588BDB141680B7863B14A1C002361
:2066800003E01478114601322CB10133AB42F8D1002030BC704701220A700288806830BC7C
:2066A00003FB020070472846F3E700BF70B4448882685CB18A4206460BD00588002301E0B1
:2066C000914207D00133A3422A44F9D1FF2070BC704700237268D05C0028F8D00138D05447
:2066E000726870BCD05C704783688B4208D84288008800FB023081422CBF002001207047F4
:2067000000207047418849B143680020194413F8012B02B901308B42F9D170470846704741
:206720000023013A0160027143718371704700BF0346807959791A79091A114207D010B451
:20674000411C1C680A40205C9A7110BC70474FF0FF3070472DE9F84302FB0105099F164687
:20676000A8424FF000023A609DF820801CD2044699464FEAD80807E0424649460AF0C0F93E
:2067800078B13444AC4207D22378A01C002BF3D13C603444AC42F7D33B682BB10120BDE83A
:2067A000F8833C60BDE8F8830220BDE8F88300BF2DE9F041174D82B0009104460E469046BF
:2067C0001F4601950346202203211348FFF7C2FF01281BD12B68187020682B68D4F804E002
:2067E000A168E268C3F802002868C3F806E0C3F80A10C3F80E20089B86744361099B80F83D
:2068000013800777836102B0BDE8F081002002B0BDE8F08114170020703B0020F8B50746C3
:206820000C4D0D4E05F120043560803514F8203CA4F11E0033B114F80E2C3946D2080AF0A8
:206840005FF928B134602034AC42EFD10020F8BD0120F8BD703B00201417002010B5094C96
:2068600082B0802203468DE81400032120220648FFF770FF10B9206802B010BD002002B0B7
:2068800010BD00BF181700208C3A002070B4114A114E134648F2FE0502F1600432600021B9
:2068A00007E09A7C824209D02033A3424FF001010AD01A78002AF7D0421CF2D15A88AA4279
:2068C000F2D119B1336001E033600023184670BC704700BF8C3A002018170020F0B5114DC9
:2068E00083B0802203468DE824000446122205210D48FFF72FFF012811D12B681870206816
:206900002A686768A668E168C2F802002868C2F80670C2F80A60C2F80E1003B0F0BD0020C7
