:020000040000FA
:2000000000500020E9000000E1000000C9000000E5000000E5000000E5000000000000002E
:20002000000000000000000000000000E5000000E500000000000000E5000000E50000002C
:20004000E51C0000E5000000D1A70000E50000006D130000D9170000E5000000E500000023
:20006000E5000000F9A70000E5000000E5000000E5000000E5000000E5000000E50000009D
:20008000E5000000E5000000E5000000E5000000E5000000E5000000E5000000E500000038
:2000A000E5000000E5000000E5000000E5000000E5000000E5000000E5000000E500000018
:2000C000E5000000852C0000044B1A68B2F5806F03D01B689B0500D4FEE7704728ED00E0C8
:2000E000FEE700BFFEE700BF08B508F0F5F8104A104B9A420DD2D0430F4918440B4620F07E
:2001000003000430084453F8041B834242F8041BF9D10A480A494FF000028842B8BF40F8AB
:20012000042BFADB00F01EFBFFF7CEFF08BD00BF000000206C020020F8D200007002002061
:20014000DC2F0020F0B5038895B0064633B14A2B31D000230380032015B0F0BD1A481B4958
:20016000C5798479437802784779059505790494C47880788DE8B1006C4615480CAD02F08B
:20018000E5FD0FCD0FC41349A12205231291ADF84420ADF84C3095E80F0084E80F0008AFFC
:2001A00097E80F0000F02AFA50B90B4802F0B0FD0A4802F0ADFD4A230120338015B0F0BD01
:2001C000074802F0A5FDF3E73C2E002070CA00009802002010000020BCCA0000E4CA000080
:2001E00094CA000070B50368042B04D00B4802F08FFD002070BD06795EB1751EEDB20135FA
:200200000023DAB2941C50F8244001339D428C54F7D100238B55012070BD00BF50CB0000ED
:2002200038B50368062B04D0134802F071FD002038BD83682B2B04D0104802F069FD0020AC
:2002400038BD43680122032413F0FF050A704C700FD0AC1C00EB84048B18083050F8042F07
:20026000A04203F8012FF9D16B1CFF22CA54012038BD1346F9E700BF14CC000038CC0000EF
:20028000F8B50368022B04D01C4802F041FD0020F8BD4368002513F0FF0E8C460D601FD0CE
:2002A000071D0EF1FF340126002C06F1010657F8041F234616DB4FF0010009D04FF480727D
:2002C00013F0010F18BF50435B1002FB02F2F7D100FB0155764504F1FF34CCF80050E3D979
:2002E0000120F8BD4FF0FF3000FB0155764504F1FF34CCF80050D7D9F2E700BF7CCC0000E2
:2003000030B583B001A90546FFF7BAFF019C7CB901A905F10C00FFF7B3FF019B13B9012072
:2003200003B030BD054802F0F3FC204603B030BD034802F0EDFC002003B030BDCCCC00006B
:20034000A0CC00002DE9F0430368ADF5077D302B07D0814802F0DCFC00200DF5077DBDE847
:20036000F08305460E46002401A908300194FFF787FF40B1019959B9316005F1140008A96B
:20038000FFF730FF48B900200DF5077DBDE8F083724802F0BDFC2046DFE708A970480DF181
:2003A0001F0702F0B5FC3B4606F10B020DF2191013F8011F834202F8011FF9D1AB6902A934
:2003C0000733DCB24FEA840909F10800284455F82480FFF755FF0028D5D002996148A944E8
:2003E00002F096FCD9F80C3004341C44E4B205EB8400FFF785FF0028C5D05FFA88F8A4B264
:20040000B8F1A10F04F10A003CD031DCB8F1300F2CD0B8F1A00F31D105EB800003A9FFF71B
:20042000FFFE0028AFD0504802F072FC4F4802F06FFC9DF80C10FF2918BF03AC06D04C4863
:2004400002F066FC14F8011FFF29F8D10299A223A0227371B16032710DF10B0306F2051652
:2004600013F8012FBB4206F8012FF9D1012074E7B8F1A20F32D0B8F1A30FF7D03D4802F0DB
:2004800047FC80E705EB800003A9FFF7C9FE00283FF479AF384802F03BFC344802F038FC0B
:2004A0009DF80C10FF2918BF03AC06D0304802F02FFC14F8011FFF29F8D10299A223A12232
:2004C0007371B16032710DF10B0306F2051613F8012FBB4206F8012FF9D1C7E7431C15F81B
:2004E000230047A9044404F10C0005EB80009C00FFF778FE00283FF446AF201F284403A981
:20050000FFF78EFE00283FF43EAF1C4802F000FC164802F0FDFB9DF80C10FF2918BF03AC18
:2005200006D0134802F0F4FB14F8011FFF29F8D147A9134802F0ECFB029AA223337173717F
:20054000B2600DF10B0306F2051613F8012FBB4206F8012FF9D189E7F8CC000028CD000011
:2005600058CD000078CD000090CD0000B0CD0000C0CD000028CE0000C4CD0000E8CD00006E
:200580000CCE000010B5038804466BB1882B07D10B4B1B788B420ED088232380012010BD70
:2005A00000230380032010BD064802F0B1FB88232380012010BD044802F0AAFBECE700BF08
:2005C0007427002078CE000094CE000000B50848C9B002F09DFB01A94B98FFF7B3FE054B2C
:2005E00000221978044803F0CFFB49B05DF804FBB0CE0000742700202000002084B070B520
:20060000374E82B0344606AD85E80F000FCD0FC40FCD0FC495E80F0084E80F00B36A314C7B
:2006200019880A0A42EA0122228059880A0A42EA012262809888B18D020A42EA0022A28014
:20064000D888C7294FEA102242EA0022E28018894FEA102242EA0022228158894FEA1022E6
:2006600042EA0022628198894FEA102242EA0022A281DA894FEA122343EA0223E38125D8C8
:20068000194802F045FB204605F03CFAB18C174802F03EFB164DB38C2246304619460095FB
:2006A00005F0FCFB20B902B0BDE8704004B0704703F0C6FA0F4B002118700F4803F0C8FA41
:2006C000012002B0BDE8704004B070470B4802F01FFB002002B0BDE8704004B0704700BFD7
:2006E000AC020020DC020020ECCE000004CF0000CD0500007427002020000020C8CE00003E
:20070000F0B5002706463C463D4683B0304600F0D3F90195019B9C4206DD00BF019B0133D5
:200720000193019B9C42F8DC304600F0CFF90195019BC4F5C874A34206DA00BF019B01332E
:200740000193019BA342F8DB0137B7F5487F06D0B7F5C87FCCBFC7F548743C46D6E703B048
:20076000F0BD00BF2DE9F041634C84B02368012162485B6898472368012211461B685F48BB
:20078000984708F05BF801F0C5FA01F05DFA00F0B7F901F095FA00F085F9594959485A4AC2
:2007A000012303600B6018461368FFF7A9FF08F049F800F04FFD00F0BDFC03F01DFB00F0B7
:2007C00019FE03F069FA41F2342002F071F900F0CFFF03F0B3FB4D4800F064FE4BF20162E3
:2007E00000214B4802F094FA4A4800F05BFE0021494803F02DFA02F0E7FF02F099FF02209A
:20080000FFF77EFF454802F083FA454B454C186800F048FE444802F07BFA444B186800F0A0
:2008200041FE434802F074FA2168424802F070FAE469A04720B1A04701463F4802F068FA11
:200840000A2000F027FE002608F0ECFC02A808213A4D3B4F019600F05DFE9DF80F309DF824
:200860000E4002AA03CA43EA0424D7F82C802860696002204AF6CD31C04721460320C04798
:2008800019210120C047082202A97B6B0B209847BB6A01A90120984701992A4802F038FA32
:2008A000294B214629481C8002F032FA284B6A6829685A60196008F095F83146254803F0CD
:2008C000C7F90220FFF71CFF3146234803F0C0F9224802F021FF00F09BFD0120FFF710FF6D
:2008E00003F0F4F9044600F0C7FD14F0FF0FF7D101F072F8F4E700BFD801001000400340DF
:20090000080009400C4009402C20094038CF00005CCF000074CF0000F400002088CF00007C
:20092000C4D1000078D2000090CF000048D2000098CF0000A0CF0000A4CF00003C2E00208C
:20094000C8D00000C8CF000064270020DCCF0000A4270020140100203000002068CA000070
:200960002DE9F04104880646772C30D07E2C27D024B1002303800320BDE8F08103F060F914
:200980002F4F304B304D3A6818702C60002A55D02346A0462D4C04F80380936800218020D9
:2009A00098472B68013357F823202B60002AF2D1DBB2274A1370772333800120BDE8F08182
:2009C000204B1B788B421CD00120BDE8F081DFF880801D4D98F800201E4F00233B602B6082
:2009E000002AE8D0194CE256002A18DB2B6898F80020013393422B60F5DB3B68002BECD129
:200A0000D9E7114D114CDFF84880124F2B683A68E15C013201F07F01E1543A60E7E7084A56
:200A2000084952F823200978002003F0ADF90028ECD17E2333800120BDE8F0811346B8E736
:200A400054000020D82F0020EC0200209827002075270020F002002010B40E4B1C7864B17A
:200A60000D4A1368984213D0002303E052F8041F88420BD00133A342F8D1084A0848135DDB
:200A800063F07F03135510BC03F0AAB91C46F4E70024F2E7752700205400002098270020AE
:200AA0003000002008B500F077F8024B00221A7008BD00BF76270020034A13780343184614
:200AC000137000F085B800BF76270020034A137823EA00031846137000F07AB87627002042
:200AE00010B5064C042023685B699847236804205B6B98470128F9D110BD00BFB8010010F1
:200B0000F0B591B007F09AFE0746FFF7E9FF1C4B4FF4A0601B68DB6998471A4B01211A4AFA
:200B2000196013689907FCD56C46184D00F0EAF9174801F07DF80FCD0FC40FCD0FC40FCD67
:200B40000FC495E80F0084E80F00009C621C0FD06D46104E336820469B6B984733682046CA
:200B60009B694FF40051984755F8044F631CF1D10FB111B0F0BD11B0BDE8F04007F062BE42
:200B8000B80100102820086028200840F4CF000040000020B40100100A4B1A6802B1704723
:200BA00010B50122084C1A6023680820DB6B984723680720DB6B9847044B4FF4C0721A6092
:200BC00010BD00BFF4020020B4010010A0200240084B09494FF4C07208701A60C20744BFD4
:200BE0004FF4807243F8102C830702D5034B80221A607047A0200240772700209020024015
:200C000008B5034B1B685B689847C0F3804008BDB401001028B1012806BF054BD868002030
:200C20007047044B1868C0F3403080F001007047F8020020C020024008B100207047034BC9
:200C40001868C0F3803080F001007047C02002408138012801D9002070470D20FFF7D0BF22
:200C60008138012801D9002070470E20FFF7C8BF802870B514460AD0812807D1E1B9BDE875
:200C80007040184B10461B685B6B184770BD154D1549012393402A680B60936B204698471F
:200CA0002B6820460021114A1B689847E0B21049BDE8704000F0EEBF0A4D0B4901239340DE
:200CC0002A680B60936B204698472B6820461B68064A002198472B682046BDE870401B6B34
:200CE000184700BFB4010010E0200240004007200D0D000008B50D22FFF7BAFF012008BDCD
:200D000008B50E22FFF7B4FF012008BD0D2838B50AD00E2800D038BD4FF080524FF480414B
:200D2000BDE8384000F082BD0E4C204603F0A4F80028F0D00421204603F08AF80A4B1D6856
:200D4000C5F3403525B900F041FAE560A06038BD00F03CFAA368C31AE3600448BDE8384069
:200D6000FFF77ABEF8020020C02002403CD0000030B51C4A1C4B106883B000244FF48015A4
:200D8000042101908DF800408DF801400DEB01001D6000F0D3F820B9144BFF201D6003B05A
:200DA00030BD0221684600F0E7F8104B1D6010B9FF2003B030BD9DF80030EF2B03D0C22BA7
:200DC00001D02046EBE79DF80100A0F11103012B05D9143801288CBF00200120DFE70120DD
:200DE000DDE700BF5CD00000A02002409020024030B5164B83B002AC05224FF4801504F82E
:200E0000042D1D6000F0DCF82046012100F096F820B910E09DF80730DB0710D501210DF1DE
:200E2000070000F0A9F80028F4D1094B4FF480121A6003B030BD064B1D6003B030BD044B2D
:200E40004FF4801201201A6003B030BDA02002409020024030B583B0FFF7CAFF08B903B043
:200E600030BD0E4B02A8B9224FF4801500F8012D01211D6000F062F8094B0A241D60FFF7CB
:200E800077FF631E0028EAD013F0FF04F7D1044B4FF480121A6003B030BD00BFA0200240AC
:200EA0009020024010B50A2182B0124800F09AF8114B14201B68114CDB6B9847104A4FF410
:200EC0008013AB2102A8236000F8011D1360012100F034F808B1FFF78BFF084B4FF480125E
:200EE0001A60FFF745FFA0F10100B0FA80F0400902B010BD00093D00B401001090200240CD
:200F0000A020024008B5FFF7CDFFFFF7A3FFBDE8084000F0C7B800BF08B5064B02201B68EA
:200F20005B6B9847012803BF034B186800F00100002008BDB801001078200840F0B583B0FC
:200F400005460C46FFF7E8FF074680B17CB1094E336815F8011B5B684FF080409847336815
:200F600001A9DB684FF080409847013CF0D1384603B0F0BDC4010010F0B583B005460C4680
:200F8000FFF7CAFF0746B0B1ACB10C4E09E033684FF08040DB689847019B013C05F8013B76
:200FA00009D0336800219B684FF08040984701A90028ECD10746384603B0F0BDC40100102C
:200FC00010B582B0FFF7A8FF40B1054C236801A91B694FF0804098470028F7D102B010BD35
:200FE000C4010010F0B5264D07462B6885B002205B690E4698472B6802205B6B9847012853
:2010000004461F4BF7D11B684FF48070DB6998471C4B1D4A1C6013689B07FCD51B4A1C4979
:2010200013681C484FF0030E082523F00F030C4609681360C0F800E00023019500971A46B1
:201040000F684FF080401449B847144B29461B6800965D6C09224FF0FF334FF08040A84784
:201060000F4A136843F002031360236803A91B694FF0804098470028F7D105B0F0BD00BF47
:20108000B8010010282008602820084014000040C401001020000040006CDC02B4010010AF
:2010A0000400004010B5174B4FF480701B681B6A9847154B0121154A196013689B07FCD563
:2010C000134C082023689B6B984723684FF400519B6908209847236809209B6B98472368CB
:2010E0004FF400519B690920984723680A209B6B984723684FF400519B690A20BDE8104074
:20110000184700BFB80100102820086028200840B401001010B5064C042023685B6998477A
:20112000236804205B6B98470128F9D110BD00BFB8010010F8B51A4A00200021C2E9000115
:20114000184B04201B685B6B9847012801D0FFF7E1FF144B00201B68DB699847124B01216C
:20116000124A196013689B07FCD5114A11491368096823F4807323F001030F4C13600B68A9
:2011800020460E49984740F221200D4D0D490E4B04273126012227602E6008601A60F8BDE6
:2011A00070020020B801001028200860282008400C000140C8010010000001400021000408
:2011C0003C000140080001400400244310B40949094C0B68226808688342FAD1DB0107494A
:2011E00003EB52620023C1E9002310BCD1E90001704700BF082009400C20094070020020E8
:2012000010B50B490B4C0B68226808688342FAD1DB01094903EB52620023C1E9002302F0AF
:2012200049FC00B910BDBDE8104002F015BC00BF082009400C2009407002002010B507F038
:20124000FDFA034B1C6808B907F0FCFA204610BD082009402DE9F04107F0F0FA1D4E1E4B77
:201260001E4F32680124002580464FF480314FF480703D601C6018601960136828462321F9
:201280009847336820461B6824219847336825211B6802209847124A1249136843F4E023F6
:2012A00013600D6007F054FB0F4B1049104A1B6800F50070086014603C601B691420984704
:2012C000B8F1000F01D0BDE8F081BDE8F04107F0B9BA00BF84010010042009400000244307
:2012E0000020094008200940B00100101C200940A0022443431E012B10B419D9042801D085
:2013000010BC704700231A4610F004001CBF0E4C216013B10D4B0121196012B10C4B012219
:201320001A600028ECD00B4B01221A6010BC704710F0010302D0084A0123116010F0020218
:20134000E2D0064C2160DFE72020094080022443A0022443C0022443182009401C20094098
:20136000014B1868704700BF0803002008B508F029FF184B1860FFF743FF174B1B686BB907
:20138000164B1B68E3B9164B1B6833B11549164B00204FF4803208601A6008BD124B4FF4EA
:2013A00080721A6007F0D4FA00F205200F4B20F4FF7020F001001860084B1B68002BE2D0CC
:2013C0000B49094B0020012208601A6002F02CFDD9E700BF08030020A0002443800024438D
:2013E000C0002443C0022443042009401C2009408002244303490448044B012208601A60D6
:20140000704700BF00000840FFFF0F00000C0840F8B507F013FA124AB0FA80F01368012BDF
:201420000BD0104C104D1149114A0123400925600B601360C3070FD4F8BD0E4F094D0A4E26
:201440000A4C0B49400940F0020017602E6023600B601360C307EFD5BDE8F84007F0F2B9F4
:20146000000C084000000840FFFF0F000C0008400401004351E5CC1A03490448044B012201
:2014800008601A60704700BF00000840FFFF0F000C00084010B50446C0B200F07DF92046FE
:2014A00010BD00BF70B506460024451E04E015F8010F00F071F9013430460BF0A7FAA04224
:2014C000F5D80A2000F068F900F07AF90128FBD0204670BD70B50446B0B10078C0B1A9B1C7
:2014E0000025661804E014F8010F38B1B44205D000F052F9631C05F10105F4D100F060F9D1
:201500000128FBD0284670BD0546F7E70D46F5E70546F3E710B40B4B0B4C13F8012FFF2AEA
:201520000DD1A342F9D1094A39B11144013801390B78914200F8013FF9D110BC7047044AF0
:20154000F2E700BFC7FF0100CFFF0100F0120050C8FF010038B50C4D02202B685B699847A5
:201560002B6802205B6B984701280446064BF7D11B684FF40070DB699847044B044A1C6013
:2015800013689B07FCD538BDB801001028200860282008402DE9F04340F2F275DFF8DC804A
:2015A00083B0FFF7D7FFD8F800302A4EDB682A4898473368294C5B69152098472368DFF8D6
:2015C000C090274F23F4FE63D9F8002023F0020323603D60D36B032098472249D9F80030F8
:2015E0000820122208600092D3F840900322132302211948C847D8F800206023D2F804804B
:2016000019494FF4E1321448C04740F2011240F2013E1649164B142008601968154841F08E
:201620001001196003681449002B0CBF134673460B603D60036853B12368326843F050032E
:2016400023601369152003B0BDE8F043184703B0BDE8F083B0010010001000403810004008
:201660004410004090200240006CDC02341000402C1000400C03002030100040D00100100A
:20168000B401001008B5064B02201B685B6B9847012803BF034B186800F00100002008BD9E
:2016A000B80100106C20084038B50446FFF7EAFF18B1254A13681907FCD4032C03D0234B64
:2016C0001B6803B138BDFFF7DDFFE0B9204D4FF400702B681B6A9847032C2AD01D4B0121A9
:2016E0001D4A196013689B07FCD5032000F0BCFA022000F0B9FA132000F0B6FABDE838409E
:20170000122000F0B1BA154B15481B68DB689847144B15201B685B69984740F2F270124A30
:201720001249136823F4FE6323F0020313600860CCE72B684FF400709B6A98472B684FF4B5
:2017400000701B6B9847C9E7181000400C030020B80100102820086028200840D001001083
:2017600000100040B0010010381000404410004010B507F063F80446054800F059FA054BFB
:2017800000221A6004B110BDBDE8104007F05AB8600000200C03002010B50446FFF772FF08
:2017A00008B9FFF7F7FE044B2146BDE810401B680248DB69184700BFD00100100010004072
:2017C00008B5FFF75FFF18B1024B1868C0F3C00008BD00BF1810004038B5FFF7BBFE40F235
:2017E000F2710C4B0C4A1B68116013F0500F10D00A4C0B4D05E02B681B699847094B1B6843
:2018000023B923680848DB06F5D538BDC0B29847F7E738BD401000404410004018100040C1
:20182000D00100100C030020001000402DE9F04740234FF0000882B00F461646CDF8008029
:201840000193054606F0FAFF494A4A4BC2F80080444601204FF480714FF48032DFF85881D4
:20186000186019601A60D8F8003020463F211B6801349847042CF6D1DFF83C810024D8F821
:20188000003020463F219B6801349847032CF6D1394B1B68FFF7F0FD384802F065FB04463F
:2018A00030B1A368032003B198472468002CF8D16B1C0CD0324BAA0013430021314A196010
:2018C000136846F000523A4328461B6898472E4EDFF8E89000243368C9F800409B69072002
:2018E0009847684608F084FC00F08CFA00F03AFA264827490368326823F0030303600B6877
:20190000244D23F00F030B609369382098472C60012008F08DFCDFF8A8A01F481F4A4FF037
:2019200001081F491F4B2C60134FCAF80040C0F8008014601C4A0C60C9F800401C603B683E
:201940001A491368096823F0030313604B68184803219847174A33682C60CAF80040C2F852
:2019600000809B6B3A68984702B0BDE8F08700BF00002443042009402C2009401003002037
:20198000001A4442B4010010B8010010001009400810094040100940880104434001224350
:2019A000440122430800094024220840D80100100040034018100940840100100C40094097
:2019C00020042243034A136823F00403136030BF704700BF10ED00E070B506F02FFF02F0AC
:2019E000C9F918B1BDE8704006F02CBF804802F0BBFA0225044648B1636823B19847A842E5
:201A000028BF2846C5B22468002CF5D108F0DAFB784B04461B68002B40F0898002F04AF887
:201A2000002840F0B2800346012D00F09380022DD8D1002840F0C780611E2846FFF75AFCF2
:201A40006B4802F091FA0625044600287BD0A368022003B198472369246825EA0305002C53
:201A6000F5D1FFF709FD6B0705F006046ED4002C40F0A38000F0C6F9002008F0D9FB5E4930
:201A80005E4A0B685E4823F003030B601368016843F00F0313608B6939209847594A5A49F3
:201AA00000231360184613600B6006F067FC062C00F08E80554C564D564E2B68236832682B
:201AC00023F00303236053680321534898474C4B1B689B6B98472B6806F07EFD4F4A3368DA
:201AE000002111604C485B680121984723684C4A012143F00303236011602B6806F0A4FD62
:201B000008F062FBFFF77CFBFFF7B6FC384802F02BFA044628B1E36803B198472468002C0B
:201B2000F9D106F08FFEBDE8704006F08BBE3D4B1B681B1A022B3BD4A3F28F23002BBFF621
:201B40006DAF012335E0FFF797FC0624344B00221A608CE7002842D06FF00702121BDA4204
:201B60003AD404F58031CA1A11EA220138BF19460220FFF7BFFB2C4A136823F00403136005
:201B800030BFBDE8704006F05DBE01F09BFF0646FFF71CFB361A002E7FF724AFFFF7E0FB74
:201BA000224A00EB4623121BDA421BD401203BE700239D4228BF1D4630E7114B20461B6842
:201BC0009B69984756E719462846FFF793FB37E7022006F01BFE6DE704F10801C8E704F54B
:201BE0008031C5E7022DB7D0012D7FF4FBAEB3E71003002080022443001009400810094018
:201C0000B80100104010094020042243242208402C200940D8010010004003408001044382
:201C20000C4009401820094010ED00E071FDFFFF0146014802F09AB91003002001460148AD
:201C400002F0E6B91003002010B5054802F088F9BDE81040034B20211B6803201B6818472F
:201C60001003002084010010431C0ED010B50446064B4FF4C0421B6800211B689847044A66
:201C8000A3001A430023136010BD7047B4010010001A444238B504460D4606F0CFFD012355
:201CA0000549064AA3400B6042F8245000B138BDBDE8384006F0C6BDE020024014030020D5
:201CC000064B002103F1800243F8041F9342FBD1034B10201B681B69184700BF1003002047
:201CE000B0010010F8B5094B094F1D6800241D60012606FA04F32B42E0B203D057F8243011
:201D000003B198470134202CF3D1F8BDE02002401403002000B585B00022412302A802920F
:201D2000039308F065FA042006F04CFE032810D00321042006F01EFE042006F043FE032867
:201D4000FAD100901C234FF040520021044806F0B3FD02A808F0A2FA05B05DF804FB00BFFF
:201D600000A00C4000B583B00022412368468DE80C0008F03DFA042006F024FE022808D06D
:201D80000221042006F0F6FD042006F01BFE0228FAD1684608F082FA03B05DF804FB00BF03
:201DA00000B583B00022412368468DE80C0008F01FFA012006F006FE012803D00121032019
:201DC00006F0D8FD684608F069FA03B05DF804FB00B583B00022412368468DE80C0008F093
:201DE00007FA012006F0EEFD012803D0044B986B06F0F6FC684608F051FA03B05DF804FBB2
:201E00004800001010B582B04123684600240193009408F0EDF90320214606F0ABFD0120EE
:201E200006F0D0FD18B1044B986B06F0D9FC684608F034FA02B010BD4800001008B508F099
:201E40006DFA30B1044B5B88022B14BF0220012008BD022008BD00BFD003002070B582B010
:201E600008F05CFA40B901A9134808F05FFA01280AD0002002B070BD0F4C6388022B08BF89
:201E80000120F0D102B070BD08F09CF96FF03F05094C2D1A03E008F095F9C54209D560887F
:201EA000054E0228F7D1A0F10200B0FA80F04009E8E77088F7E700BFD003002008B5B329F7
:201EC00094BF0A46B422014602480AF077FC002008BD00BF5204002070B5054606F0AEFC61
:201EE00004462DB1124A134B12681A6094B170BD0F4B104D1E68002116F180402A684FF0A4
:201F0000000341F10001994208BF904206D32E60002CECD1BDE8704006F094BC08F052F9E9
:201F2000054A064913680860013313602E60EFE70430044094030020CC0300203806002099
:201F400030B589B002A840F60202182108F02CFC164B9DF81A201B689DF81B401979144D90
:201F600061F3050211468DF81A205A7902A862F387118DF81A109A7901A9012362F3470456
:201F80008DF81B4007958DF8163008F0CFF9012802D0002009B030BD02A808F011FAA0F13B
:201FA0000100B0FA80F0400909B030BD740000208C00002008B5FFF7C3FF012801D0002048
:201FC00008BDFFF74BFFC0B208BD00BF70B50E4D0E4E2C68002006E02379022B06D0246865
:201FE0002B689C420ED02379032BF5D133780120002BF4D1064801F0F3FE24682B680120D6
:202000009C42F0D170BD00BFC00300207A270020D001002010B582B008F0C0FB044608F0B4
:202020007DF908B902B010BD01A9084808F07EF90128F7D1638803F44063002BF2D1638832
:2020400003F44063002BF5D0ECE700BF010001040B2807D00C2801D001207047042A11D068
:2020600002207047082AFBD10029F9D0094B0139A3F1080013F8012D834201F8012FF9D17C
:20208000002070470029EBD0034B00201B680B60704700BF000400205C07002042F2034392
:2020A00010B584B0002402A801A902940394ADF8083008F03BF920B19DF90A30803302D053
:2020C000204604B010BD9DF80C0000F00C00A0F10400B0FA80F0400904B010BD10B582B00C
:2020E00008F01CF920B3144C6388022B03D01FE0FFF7D4FF18B108F011F90028F8D101A987
:202100000E4808F013F902E06388022B03D108F005F90028F8D142F202426388934207D0A1
:2021200042F20740181AB0FA80F0400902B010BD012002B010BD00BFD003002001000104B8
:2021400030B585B008F0EAF8B8B10D4B5B88022B13D142F20345002401A902A802940394B5
:20216000ADF8085008F0E2F838B19DF80A305B06F2D09DF80C0005B030BDFF2005B030BDB1
:20218000D00300200B2801D001207047082A01D0022070470029FBD008B50C4B083103F15F
:2021A000080011F8012D03F8012F8342F9D108F0B5F850B1064B5B88022B05D1FFF78EFFC6
:2021C000FFF74CFE032008BD002008BDF7030020D003002008B508F03DFB012814D008F0F3
:2021E0009DF888B1094B5B88022B0DD108F096F830B9FFF7A5FFFF2806D0C0F3801008BDC1
:20220000FFF74CFF0028F4D0002008BDD003002008B502E0FFF742FF18B108F07FF8002883
:20222000F8D1FFF75BFF08F0AFF9FFF7EBFD0E4B0E48197900220229428012D00C4B1A79EB
:20224000022A04BF00221A710A4B1A79022A04BF00221A71084B1A79022A04BF00221A71DC
:2022600008BD1A71EAE700BF18050020D0030020A8050020CC0600203C06002008B508F078
:20228000E9FA012801D0FFF7C3FF012008BD00BFF8B508F0DFFA012830D0FFF781FD08F0F1
:2022A0003DF838BB1E4A1F481F49204B92F805E047794E795D79012464F3830E64F383079A
:2022C00064F3830664F38305882482F805E0106047710160C480D480CC804E710B601A6023
:2022E000DC805D71FFF774FD08F0E0F9012807D00020F8BD0E4B5B88022BD3D10120F8BDC4
:202300000C4B1878003018BF012008F0EDF9FFF717FE0128ECD1BDE8F840FFF79FBD00BFF1
:2023200018050020A8050020CC0600203C060020D00300207A27002070B584B0072800F211
:20234000B380DFE800F01E61262F325C6B04574C217707F0E3FF10B36388022B1FD1FFF7ED
:20236000BDFE012814BF0324002408F0ADF90020FFF7B2FDFFF772FD01287DD0032004B046
:2023800070BD012900F08480002977D0022004B070BD464C618607F0C1FF0028DCD100205A
:2023A00004B070BD414C2186D3E731F00702EDD13E4C3F48237EC1F3400561F30003DBB2D7
:2023C00043F00203067865F38203657EC1F3800103F0870362F3C71362F3C7158E426576CA
:2023E00023760170B5D1334B228B184603A95A8007F09CFF002814BF00200320BFE731F0A7
:202400000103C3D1C8B2BAE7A1F10B030F2BBDD8264CA37B9942C2D0A1739AE701F11503FE
:202420001A2BB3D8244A6FF014030C2401E052F83430994232DD14F1FF34F8D207F06EFFD9
:2024400000289CD04FF000021B4B102503EBC40423796079A17903F03F0360F3871361F351
:20246000470203A802A98DF80E308DF80F20ADF80C5007F05BFF92E7204680E7019108F024
:20248000E9F901288BD0FFF7C3FE0199084676E7FFF7FEFE01287FF471AF80E7064B074A23
:2024A00003EBC4031360C9E7012068E7D00300207A270020B803002060D000007400002081
:2024C00081B130B50C4683B0102800F28580DFE800F05C57524D6C69474128221D83831945
:2024E00015100B000220704705230B60002003B030BD6FF014030B600020F8E71A230B60F8
:202500000020F4E70B230B600020F0E7474B00201B780B60EBE7464B00201B785BB20B60F2
:20252000E5E707F0FBFE002858D0424B5B88022B54D140F203430022694601A80192ADF8A3
:20254000043007F0F3FE01286CD06FF07F0323600320CCE7374B002093F91C300B60C6E72E
:20256000354B00201B681B680B60C0E7314B00201B8E0B60BBE72F4B00205B8E0B60B6E7C6
:202580002C4B00209B7B0B60B1E707F0C7FE30B1284B5888A0F10200B0FA80F04009206025
:2025A0000020A4E700200860A1E70023214A0B60137E03F001030B60127E520744BF43F055
:2025C00002030B601D4B1B78002B9DD00B68002043F004030B608AE7012088E7FFF758FE73
:2025E0000128B2D140F203430022694601A80192ADF8043007F09AFE01280CD008F02AF922
:202600000128A2D06FF07F05FFF702FE256080357FF47AAF9CE79DF9025008F01BF90128D0
:20262000F2D1F3E79DF90250F0E700BF7927002078270020D0030020740000207A270020B8
:2026400070B588B0054607F069FE002851D03E4B5B88022B08BF00264BD107F0B3FD6FF083
:202660001F04241A07E0FFF719FD012848D107F0A9FDC44246D507F051FE0028F3D102A82A
:2026800042F60142182108F08FF8304C304B0022EDB28DF817502178069304929DF81430C2
:2026A000891A18BF012162F3030301208DF8143008F054F802A801A907F038FE30B32078F9
:2026C00001E0002835D0BDF80A3003F44063002BF7D0BDF80A40A4B2B4F5105418BF012413
:2026E000003018BF012008F04DF8C6B9204608B070BDFFF7CDFD012819D0012008B070BDD3
:202700000028BCD0C6B9022008B070BD20780124003018BF012008F035F8002EE6D008F099
:2027200099F80128E2D0FFF773FD2046E6E7064693E7FFF747F9C2E708F08CF80128E2D098
:20274000FFF766FDDFE700BFD00300207A2700205204002010B50C46B32998BF2246014678
:2027600088BFB42203480AF029F82046BDE81040FFF766BF5204002010B508F06BF80128A1
:2027800024D007F0CBFDB0B11B4B5B88022B03D011E0FFF783FC18B107F0C0FD0028F8D108
:2027A000FFF7CEFCFF2811D000F0030010F1FF3018BF012010BDFFF76BFD0128044607D0C1
:2027C00008F048F8012801D0FFF722FD012010BDFFF7B6FCFF2805D000F0030010F1FF34F9
:2027E00018BF012408F036F8012803D0FFF710FD204610BD204610BDD00300202DE9F04316
:202800004B4D83B080460F462E6807F087FD30B1484B5B88022B02D10020FFF75DFB07F005
:20282000D1FC454C241A03E007F0CCFCC44208D53379022BF8D0032B06D0002003B0BDE85A
:20284000F0833379032BF8D12E68394A337A032B07D996F808905FFA89F9A9F10804BC42E9
:2028600007DD3368002013603071307203B0BDE8F0834046224606F1090109F09FFF09F1B8
:202880000302B35C09F1050956F809002B4F5BB23B700190B35CDDF80480294E294A03F0BD
:2028A0007F03B8F1404F3370D2F800900BD907F089FC254B1B68C3F17E4303F57203C34227
:2028C00048BF09F1FF39DFF88CE06FF4BF70DEF800E010EB08004FF0FF3141F1000100226D
:2028E000B0EB0E0061EBEE71121849EB0103190241EA12611002002343F6095209F09CFD0E
:20290000124B134A1B7810603BB12B6800221968204629601A721A7190E73978042049B28B
:2029200089B206F055FC3178032006F051FCECE7C8030020D0030020FAFEFFFF78270020A0
:2029400079270020CC030020380600207A2700205C070020981F002010B507F0DFFC78B18F
:202960000E4B5B88022B0BD10020FFF7B5FABDE8104000230A4A4FF487310A4800F05EBF87
:20298000FFF786FC0128F2D10020FFF7A5FA07F061FF0128EBD0FFF73BFCE8E7D0030020F4
:2029A0005929000098030020F8B5304F3048FFF73FF907F05FFE38469022002109F0D8FF93
:2029C000902200212B4809F0D3FF902200212A482A4C09F0CDFF90220021294809F0C8FF62
:2029E000284E294B00252946802220461F603760756009F0BDFF42F6010E42F2020007220B
:202A000002236376227621491922214B278B2661A273B9266F22E6736161E276FF2101229B
:202A2000A626A4F800E026775F801971A176627384F837201880FFF72BFC012802D02C4667
:202A40002046F8BD0446134807F0BCFE2046FFF743FA2B46104A4FF48731104800F0EEFE72
:202A600029460F4801F0F4F82046F8BD1805002078000020A8050020CC060020D003002011
:202A80003C060020C0030020C803002008050020B803002000D100005929000098030020F0
:202AA000D001002008B500F08BF880B208BD00BF00F010B938B50C4D04202B685B699847E6
:202AC0002B6804205B6B984701280446064BF7D11B6840F20140DB699847044B044A1C60DC
:202AE00013689B07FCD538BDB80100102820086028200840034B1B68002B14BF01200220D8
:202B0000704700BF60070020F8B503880446002B2ED0B3F5847F05D1184B1B788B4205D0F4
:202B20000120F8BD002303800320F8BD144D2B6873B1144B144A1B6812685B68022017462D
:202B400098470026301847F100012B6898472E600E4B40F201401B689B6A98470C4B012143
:202B60000C4A196013689B07FCD50B48FFF766F84FF4847323800120F8BD00BF6A020020F3
:202B800060070020CC01001004800240B80100102820086028200840B800002008B5064B1C
:202BA00004201B685B6B9847012803BF034B1868C0F34000002008BDB80100103C200840CB
:202BC00070B5274B1B689BB1264C0023224612F8011B29B90133042BF9D10020014670BDC9
:202BE000214A002502EBC302E55492E8030070BDFFF7D4FF00282FD01C4A1D4B1268134025
:202C000073B91C4A0121134611601A68002AFCD110464FF4807105F019FE174B01221A6028
:202C200005F00CFE0646114A1368DB07FCD5134B134A1B6814685B680220984723460022B7
:202C4000141843F1000516B12046294670BD05F0F9FD2046294670BDFFF72CFFCCE700BFC6
:202C60006007002064070020780200200880024001000080F09F0240A8025042CC01001073
:202C80000480024038B50E4D00240E4A2C6013680D4923F00103096813604B69312098476E
:202CA000224620464FF4807105F0D0FD0122074B2A6019782246BDE83840054801F064B8E1
:202CC000A80250420C800240B00100106A020020CC00002010B5074C2378802B00D010BDB6
:202CE00000F0AEFF207000210348BDE8104000F0AFBF00BF6A020020CC0000200AB90020CE
:202D0000704708B508461146FEF7E4FB002008BD0FB400B583B004AB53F8041B04481A4671
:202D2000019300F04BF803B05DF804EB04B07047DC00002038B504461546006809F03EFD40
:202D4000236800201D44256038BD00BF0EB430B586B009AB53F8041B084D01901A4601AC40
:202D600004A803930495059400F028F8019B00221A7006B0BDE8304003B07047352D0000F0
:202D8000102970B50C46054602D80AE0102C0BD92B681022084968689847103C0028F5D056
:202DA00070BD08460029FBD022462B6868680249BDE87040184700BF24D100002DE9F04FD1
:202DC000834688468FB001924FF0000998F80030002B00F0E380252B08BF45461DD04446EB
:202DE00003E0252B00F045812C466378651C002BF7D1454500F0D280C8EB050641463246A0
:202E0000DBF80030DBF804009847002840F03D826378B144002B00F0C1806B7805F10108D4
:202E2000002B00F0BB800025A3F12002102A1BD8DFE802F0171A1A141A1A1A1A1A1A1A1155
:202E40001A0E1A1A090045F0100518F8013FEBE745F00105F9E745F00605F6E745F0080527
:202E6000F3E745F00205F0E7A3F13102082A00F2D580002404EB840403EB440418F8013F04
:202E8000303CA3F13002092AF4D92E2B00F0CE804FF0FF366C2B00F0E280682B00F04481C4
:202EA000782B00F28180DFE813F079007F007F007F007F007F007F007F007F007F007F0043
:202EC0007F007F007F007F007F007F007F007F007F007F007F007F007F007F007F007F0002
:202EE0007F007F007F007F007F007F007F007F007F007F00E2027F007F007F007F007F007D
:202F00007F007F007F007F007F007F007F007F007F007F007F007F007F007F007F007F00C1
:202F20007F007F007F007F007F007F00DF027F007F007F00DC02D902D6027F007F007F002B
:202F40007F007F007F007F007F007F007F007F007F007F007F007F007F00D3027F007F002B
:202F60007F007F007F007F007F007F00D0027F00CD02CA02C702C402C1027F00CA027F004F
:202F80007F007F007F00BE02BB027D007F007F00B8027F00B5027F007F00B20248460FB0CD
:202FA000BDE8F08F45F4407505F4E063B3F5806F08F1010800F06E815FD9B3F5C06F00F04C
:202FC000A181B3F5E06F00F09681B3F5A06F7FF4FDAE019A012C136888BF04F1FF3402F157
:202FE00004028DF8203098BF0024EB07019200F1F38121465846FFF7C3FE002840F04581B7
:203000000122DBF8003008A9DBF8040009EB02059847002840F03981254497E12A2B00F0F0
:203020008D802E2B4FF000047FF432AF98F8013008F10101A3F13002092A00F28D80884611
:20304000002606EB860603EB460618F8013F303EA3F13002092AF4D96C2B7FF41EAF98F8A8
:2030600001306C2B00F05A8108F1010845F0600516E745457FF4C0AECFE6B3F5807F70D01D
:20308000B3F5407F7FF4A2AE0198B24B15F4804FB14F18BF1F4603460168043301930A468F
:2030A0000023002900F0AB810DF1330E7046110941EA03714FEA131C02F00F0663460A4692
:2030C000B95D00F8011D52EA0301F0D1BEEB000600F097810336B4424FF078034FF03002B2
:2030E00000F8013C00F8022C4FF023038CBFA41B0024EA0700F8033CA0F1030700F1BA81F3
:2031000021465846FFF73CFE002840F0BE803946DBF800303246DBF804009847002840F0DC
:20312000B48009EB060511E198F80130682B00F0B58108F1010845F04005B1E6019A08F149
:203140000108134614680433002C0193B8BF45F0010598F8003098E62A2B00F0A681884670
:2031600096E6002EABBF25F0100501230596059315F40053049305F0E00300F0F580402B1F
:2031800000F0A88200F29B81002B00F06182202B40F08A82019991F900200431D31701918D
:2031A000002A73F10001C0F25F82CDE902230023069305F4C053B3F5805F00F0F080B3F5BB
:2031C000C05F00F0CC81B3F5006F00F0ED810DF1360A002741F60803059941F208028F42CB
:2031E00003EA050380F08E819342A1EB070600F0518241F60802934207EB060100F08D811D
:2032000000231A460293049B83B1069B002B40F0928105F00603022B00F053824F48062BFC
:2032200008BF0246029B08BF01230293029B0B449C428CBFE41A002415F00103049304D1B6
:20324000E80640F11D8226441C46029838B11146DBF800300246DBF804009847A8B9102E6A
:2032600007EB090540F2C381B14603E0B9F1100F40F2BF81DBF8003010223949DBF8040035
:203280009847A9F110090028F0D04FF0FF300FB0BDE8F08F019A1346D2F800A0043301933A
:2032A000BAF1000F00F0E8819AF8007037B1574617F8013F002BFBD1CAEB0707002E02DB60
:2032C000B74228BF3746BC428CBFE41B0024E9072BD421465846FFF753FD0028D5D1514686
:2032E000DBF800303A46DBF8040098470028CCD107EB09052AE0019A136804320192C3F82C
:20330000009063E5DBF8003001221649DBF8040098470028B9D109F1010957E598F80230E6
:2033200045F0800508F10208BAE55146DBF800303A46DBF8040098470028A6D121465846BD
:2033400007EB0905FFF71CFD00289ED104EB05093CE500BF44D1000058D1000078D1000063
:2033600034D1000084D10000402B00F0AE8100F2B680002B00F06181202B40F0E080049ACB
:20338000019906920A780023CDE902230B460433019305F4C053B3F5805F7FF410AFDDE9D4
:2033A0000223134300F09D810DF1360307939A46DDE90223D00840EA4370DE0802F0070153
:2033C0003346024630310AF8011D52EA0301F1D1079BCAEB0307FDE6DBF80030012208A98E
:2033E000DBF80400984700287FF44FAF2146584609F10105FFF7C4FC0028A7D045E70DF1FA
:203400003300302300F8013C0426013863E645F4C855C9E545F41065C6E545F48065C3E522
:2034200045F48855C0E545F4E065BDE545F48135BAE545F40075B7E545F40245B4E545F487
:203440002455B1E545F4A065AEE545F4C135ABE545F4B245A8E545F4A135A5E545F4844575
:20346000A2E545F442459FE545F4E1359CE545F4C06599E53946DBF800303246DBF8040004
:20348000984700287FF401AF2146584609EB0605FFF776FC00283FF459AFF6E698F8023095
:2034A00045F0200508F10208FAE4019998F802300A4604320E68019208F10208EAE4602B8A
:2034C00000F0C680802B40F0EF80019B073323F0070303F108020192D3E9002360E6602B38
:2034E00000F0AB80802B2AD1049B0693019B073323F0070303F108020192D3E90023CDE9BA
:20350000022356E6934200F0CD8041F608020026934207EB06017FF473AEDDE9022313432E
:203520003FF46EAE744B15F4804F744A18BF1A460223029367E601230293714A76E605F4E0
:20354000C053B3F5805F00F0D080B3F5C05F40F0AE8000230022CDE9022300230693694BDC
:2035600015F4804FDDE90201674E024618BF1E460B46134300F0B5800DF1360307939A46F5
:2035800002460B46110941EA03711F0902F00F003B460A46315C0AF8011D52EA0301F1D130
:2035A000079BCAEB030715E6DDE9026732463B46134300F096800DF136039A460793304604
:2035C00039460A22002308F037FF3032304639460AF8012D00230A2208F02EFF06460F4653
:2035E00056EA0703EBD1079BCAEB0307F2E556B1B1464A46DBF800304449DBF804009847B9
:2036000000287FF442AE3A46029F51462F44DBF80030DBF804003D46984700287FF435AE3A
:20362000049B3544002B3FF491AE21465846FFF7A7FB00283FF48AAE27E6019A136804324C
:203640001946049B01920022CDE902120693B0E501990B460A6804330193002A4FEAE273DF
:2036600073F10001BFF6A1AD524263EB4303CDE90223012306939CE5DFF898A006271DE662
:20368000214658460592FFF77BFB059A00283FF4DCADFAE5002E08BF0126002302931A468C
:2036A000B919B0E50126F8E7002200237DE5002306931F4600220023CDE902230DF1360A77
:2036C00088E50123124A0293B0E5049A019906920A8858E60199B1F900200431D31701911E
:2036E0005EE500270DF1360A74E500230022CDE902230023069352E66CD1000070D1000037
:2037000074D1000044D1000058D1000034D10000BCCD00007CD1000010B50446006830B1F3
:20372000002100F095FA54F8040F0028F8D110BD704700BFF0B5038883B005465BB14A2B27
:2037400004D188291BD0012003B0F0BD00230380032003B0F0BD194800F006FC044630B1D0
:20376000A168201D00F07EF92468002CF8D1144B01221A704A2301202B8003B0F0BD0F481F
:20378000019200F0F1FB04460028F3D0019A031D9A4205D02468231D002CEBD09A42F9D1C0
:2037A0002146064800F034FC064E6269A369376832600BB1E06998473760DBE7680700200C
:2037C0007B2700207407002010B5064B002406481C7000F0C5FB2146BDE81040034800F031
:2037E00037BA00BF7B27002068070020E400002070B504460D48049D0078A261E3616561DA
:2038000030B9A1600A482146BDE8704000F0AEBB084D094B2E68201D2B6000F023F92E60B6
:203820002146BDE87040024800F0A0BB7B2700206807002074070020E400002010B5044C32
:2038400082B024680094FFF7D3FF02B010BD00BF7407002070B5094B04461B783BB1084DDE
:20386000084B2E6804302B6000F006F92E602146BDE87040044800F079BB00BF7B27002076
:2038800074070020E40000206807002070B5094B04461B783BB1084D084B2E6804302B60BB
:2038A00000F0F4F82E602146BDE87040044800F05DBB00BF7B27002074070020E40000206E
:2038C0006807002010B50A4B04461B783BB9C36003612146BDE81040064800F099BB0430C5
:2038E00000F0FAF82146BDE81040024800F090BB7B2700206807002010B50E4C2368B3B1A6
:20390000FDF764FC226892E80A0092680B44191A4AB114685368926823441B1A994228BF3F
:203920001946002AF5D1044B0144196010BD024A136010BD6C070020700700202DE9F04161
:20394000038805467BB1592B08D1872912D0822920D059232B800120BDE8F08100230380D7
:203960000320BDE8F081254A0120136059232B80BDE8F081214F39680029EAD0CB689A42CB
:2039800003D024E0CB689A4220D189680029F9D13960DEE7194F4FF000083C68002CD8D0E7
:2039A000002604E0A3682646002BD2D01C46204600F062FA0028F5D022468821E06800F06F
:2039C000E3F978B10E4800F00BFAEBE739608B68002BBED0D86882420BBF9B6819468B6065
:2039E0009B68F5E7E060A3682EB1B360C4F80880FFF782FFD1E73B60F8E700BF6C0700206C
:203A0000F400002010B50446104800F0E9F91049E3680A684BB142B194420FD0134601E065
:203A20009C420BD09B68002BFAD10A4BA2601B680C60E360BDE81040FFF75EBF054B1B6870
:203A4000E360BDE81040FFF757BF00BFF40000206C07002074070020014800F0C1B900BFAF
:203A6000F400002010B5044600F0F2F92046BDE81040FFF7C7BF00BF10B5044600F0F0F9CA
:203A80002046BDE81040FFF7BDBF00BF10B5044600F0ECF92046BDE81040FFF7B3BF00BF34
:203AA000C068B0FA80F04009704700BF05C81044704700BF024B1868003018BF01207047C2
:203AC0006C070020024B186808B1024B186870476C0700207007002010B50F4B04461A6834
:203AE000824213D072B19368984208BF134605D043B19A68944201D01346F9E7A2689A6058
:203B0000FFF7FAFE0023A360E36010BD82681A60FFF7F2FEF6E700BF6C0700202DE9F843B7
:203B2000DFF8A480274DD8F800702E68874247D077B33B4601E0002B3BD01B689842FAD176
:203B400033B3837B8946044623B3002383736FB1BC424FF0870106D0BB7BDB0703D5224666
:203B6000384600F033F83F68002FF1D1A3683BB14C4505D02C600022832104F10C00984785
:203B8000D8F80000844208D12368C8F800302E60BDE8F88338468442F6D00028F7D0036829
:203BA0009C4208D0002BF2D01A68944204D01346F8E7BDE8F883034622681A602E60E7E735
:203BC0003B46BDE7740700207807002070B586687EB104460A4802230460A37304F10C0008
:203BE0000D46B0470238012804D9832D02D00123A37370BD21462046BDE87040FFF78EBFED
:203C00007407002070B50C4A0C4B146800251D7084B1012601E0246864B1E37B002BFAD0D8
:203C2000A673E573204600228221FFF7CFFF2468002CF2D170BD00BF780700207E27002059
:203C4000024B1878421C1A70704700BF7F27002070B50F4D2C68844206D034B1234600E084
:203C60001BB11B689842FBD170BD0028FCD00346084E04600A4634680120002198739981D8
:203C8000184681212B60FFF7A1FF346070BD00BF780700207407002070B407480749084A34
:203CA0000023084D084C8A2603700B6013602E70237070BC704700BF7D2700207807002001
:203CC000740700207F2700207C2700202DE9F041234D2B780BB1FFF795FF224E3378BBB199
:203CE0002148224F0278013B02EB4201890001327C1802F01F020270A068DBB233707F5C1C
:203D0000D4F8048098B1812F06D0827BD20705D428781844BDE8F0810123837342463946A2
:203D2000FFF754FF337828781844BDE8F081104A146834B9ECE7A37BD9070AD42468002C53
:203D4000F0D02B78002BF6D0FFF75CFFA37BD907F4D5424639462046FFF738FFEEE700BFC9
:203D60007E2700207D2700207C2700207C07002078070020024A034B10781B7818447047ED
:203D80007D2700207E270020F0B40C4D2C78202C11D00B4B0B4E1B78671C234403F01F038B
:203DA00003EB43039B00F418A06062602F70F1540020F0BC70470120F0BC70477D270020B7
:203DC0007C2700207C07002038B5837B034CDB07256801D5FFF7FAFE256038BD74070020FB
:203DE00038B1837B013B012B03D8024A01231370C37370477E27002006F0DEB938B5094C25
:203E0000049D226822B180E82A002060002038BD024680E82A000846226006F0CFF90020F5
:203E200038BD00BFFC08002010B5084C206858B100224368816822609847236823B1BDE8E5
:203E40001040186806F0BAB910BD00BFFC08002010B541600446FDF7B9F9206010BD00BF17
:203E600090E80C0013440360704700BF10B50446FDF7ACF9206010BD10B50446FDF7A6F9F7
:203E800023686268C3F101031844904294BF0020012010BDF8B504880546672C0BD0792CEF
:203EA00004D0CCB1002303800320F8BD85291AD11D4C002323601C4C264604E00A2814D0BD
:203EC00023687E2B2ADD194800F03EF9431CF5D167232B800120F8BDFFF7B2FE144A124B8E
:203EE00010701C60E7E70120F8BD0F4C114F23680F4A581C0026117820603A463046FE5498
:203F0000FFF742FF0C4B324618688521FFF73CFF0028CED179232B800120F8BD05495A1C9C
:203F2000C8543260CFE700BF8009002084090020D92F00208C0900207407002008B5054985
:203F40000548802200F0F8F8BDE8084000210348FFF77EBE0009002084090020040100200C
:203F600000230360704700BF0068704710B404685CB1A14223D023680BB906E013469942AA
:203F80000FD01A681C46002AF8D100230B6002680AB910E01A461368002BFBD1116010BCB1
:203FA00070475CB10A68226000221A6000230B600268002AEFD1016010BC70470C4622680B
:203FC00023460260F0E700BF30B4056865B1A94219D02B682C460BB906E01346994207D08B
:203FE0001A681C46002AF8D10D60016030BC704744B10A68226000221A6005680D600160B9
:2040000030BC70470D462A682B460260F3E700BF10B404685CB18C4212D023680BB906E08A
:204020001346994205D01A681C46002AF8D110BC70472CB11A68226000221A6010BC70471D
:204040000A680B460260F7E703682BB100201B680130002BFBD170471846704700B1006866
:20406000704700BF10B5044642880021406808F07FFC23886288A06802FB03F2BDE8104031
:20408000002108F075BC00BF30B44588BDB141680B7863B14A1C002303E014781146013236
:2040A0002CB10133AB42F8D1002030BC704701220A700288806830BC03FB02007047284656
:2040C000F3E700BF70B4448882685CB18A4206460BD00588002301E0914207D00133A34219
:2040E0002A44F9D1FF2070BC704700237268D05C0028F8D00138D054726870BCD05C704727
:2041000083688B4208D84288008800FB023081422CBF00200120704700207047418849B148
:2041200043680020194413F8012B02B901308B42F9D17047084670470023013A01600271AF
:2041400043718371704700BF0346807959791A79091A114207D010B4411C1C680A40205CE2
:204160009A7110BC70474FF0FF307047013A0A44914230B414D20C4625786378023403EB78
:2041800005239BB2184480B2834284BF013080B2A242F1D8CB43134423F0010302331944F6
:2041A0008A4201D030BC7047137830BC1B02184480B2834284BF013080B2704730B5134B38
:2041C000134D1C782B796A79C4EB0323134483B09BB2ADF80630BDF8063005F10801184497
:2041E000202280B2FFF7C2FFBDF8062004F12801294492B2FFF7BAFF18B94FF6FF7003B003
:2042000030BD40BA80B203B030BD00BF80270020AC27002002200146F8B5304F304D3A78A8
:20422000304E2832AB185B783070DB0003F1070E4FF0000C704543DC8318EC5C2B44012CEE
:2042400012D019D3632C07D1BCF1000F41D101F021FFA0B90120F8BD04F0C004802C19D0CE
:20426000C02C26D0402C1FD0597802310844C1B208464FF0010CDDE70130C1B2F8E73B78AA
:204280003278283313441D446B780020134402333370F8BDBCF1000F19D102440221042047
:2042A00006F0B0FB0220F8BDBCF1000FD2D03170D0E7BCF1000F08D12B7EFF2BEDD1C9E7FA
:2042C000BCF1000F07D10020F8BD3170F4E73170E3E73170BBE73170F5E700BF8027002048
:2042E000AC270020822700203A20FFF767BF00BF08B506F0DBFE06F071FC00F02DFB064A76
:20430000064B4FF48061118003F5A07100221A8220338B42FBD108BD66270020B42B002073
:20432000F8B5114E3478F4B1104F04F127033D88AB4203DB00233B803370F8BD0C4BA5F1EF
:2043400028021919121B184608F0AEFA03462C1BA4B2A4F12802101200213C8003F8232CE8
:2043600003F8240C3170F8BD802700209C270020D4270020F0B50746DFF884C0BCF80060D6
:204380000136B6B2B6F5FA4F2DD2350245EA1625ADB2194A9646134602F5A074188A2033F3
:2043A000A842EDD09C42F9D1ACF800600023108A203220B101330A2BF9D10020F0BD5C016D
:2043C0000EEB0406358271820B4B87B1354638687968BA68FB680FC5084A0EEB0403127970
:2043E00030461A75F0BD10254FF48056D1E71F517760B760F760EFE7B42B00206C2E0020C1
:20440000662700202DE9F04F042883B020D0914BDFF86492DFF870A20528C9F80030CAF8D9
:2044200000301FD013F83C2CA3F13C0402F0F002602A2ED0884D894EDFF84482884F002367
:204440002B8088F800303B70337003B0BDE8F08F844C814D814E2388002B41D1DFF820820E
:204460007F4FECE7804A1268128A002AE2D07F487C4C794D794E00220C3B0821C9F8003040
:20448000CAF80030026022802A80317001F098FCE1E72279704D6179120228885618864262
:2044A00058DC207A28310A44FF282A8052D0704E363BDFF8CC816A4FA2793360002388F837
:2044C00000303B70002A5AD101233B70FFF7A2FE012800F0A78046D3022850D15F4E34E0E2
:2044E000614A644C126803F1080149BA0020177DA185E085118A303321859BB2508AA3F149
:2045000028014FEA212EE77111272B8084F804E060856171A77104F118050FCA85E80F0019
:20452000294604F1080006F015FD534B04F13C0238461A60FFF742FEC04380B278B1E08545
:20454000002360222270637063800023337003B0BDE8F08F414EDFF82881414F6FE74FF697
:20456000FF73E385ECE798F8003003F1280222445178083303EBC103326088F800303F48CB
:2045800006F0C2FB002800F02D813368DFF8D0B03B491A783C2A00F20681DFE812F0DB0017
:2045A0000401040104010401040104010401040104010401040104010401040104010401AB
:2045C00045000401040104010401040104010401040104010401040104010401040104014B
:2045E0000401040104010401040104010401040104010401E9004300040104010401040149
:20460000040104010401040104010401040104010401BC004300A70048F2FE032189994207
:2046200000F044810D4E0AE7FFF77AFEE38D1120A071104E002B40F01B81B6F82AB0BBF1D0
:20464000000FEFD0084F0F4B0E4E3B60248D06F5A07820E0E82700209C270020942B00202F
:2046600081270020B02B00209C2B0020A42B0020982B0020AC270020A02B0020C4270020D5
:2046800080270020B42B0020A0270020203646453E6000F0A180338A002BF7D05B45F5D1C8
:2046A000738A10227A480BB1A342EFD133682BB973681BB9B3680BB9F36823B1314608F0FD
:2046C0004BF80028E2D12B88724A7348734C744E303B2B8002210023C9F80020CAF80020F2
:2046E00003602380317001F06BFBB4E63A7890076DD5500657D442F040028BF8002001916D
:20470000FFF788FD012801998CD053D302283FF4E5AE33683DE73A20FFF750FD4FF6FF73D6
:2047200098427FF47FAF98F800302833E05C01F053FA98F800302833E2185178E05C06F059
:204740003DF901283FF46EAF2B88554E002B7FF4FCAE74E63A780191D10724D442F0010269
:204760008BF80020FFF756FD01280199CDD159E73A7802F0040000F0FF0EA0B998F800001E
:2047800042F0040200F12803234493F803C08BF80020BCF1000F73D15A78083000EBC202B4
:2047A0000A703360F5E61A1B0121042006F02AF93B4ECAE698F8002002F12803234458783F
:2047C000083202EBC002336088F80020E1E642F002028BF8002092E700220421012006F046
:2047E00011F97BE62F4806F04BFB00287FF4CDAE227E2D4BFF2A3FF40FAF48F2FE00198B77
:2048000081423FF409AF198981424FD081B95A8972B99A8962B9DA8952B91B8A43B9628AE5
:20482000214B2AB99A8A1AB9DB8A002B3FF4FAAE228B1D4B82B95A8B72B99A8B62B9DA8BC2
:2048400052B91A8C42B95A8C32B99A8C22B9DB8CB3F5807F3FF4E6AE2B88B3F5A06F63D860
:20486000E379114A012B58D9013BD3710C4E6CE6FFF7A4FC4FF6FF7398427FF4D3AEDCE61B
:2048800000F12A027146042006F0BCF8044E5CE6B4270020DC270020A42B0020B02B0020DA
:2048A000942B0020C4270020AC2700202189224B79B9598969B9998959B9D98949B9198A93
:2048C00039B9598A29B9998A19B9DB8A002B3FF4A9AE218B184B81B9598B71B9998B61B97D
:2048E000D98B51B9198C41B9598C31B9998C21B9DB8CB3F5807F3FF495AEFF2A3FF492AEBD
:204900000E4806F0E1F9024600287FF48BAE0221012006F077F80A4E17E6002211460320BB
:2049200006F070F8064E10E64FF4A0620021022006F068F8D2E500BFAC270020C42700207D
:20494000942B0020020C131243EA02239BB240BA43EA0040704700BF704700BF08B5064848
:2049600001F028F9054B00220120FD21187099705A70DA7008BD00BF09540000880B00203B
:2049800030B414780B7A84F00204A34215D00B891BB94B89B3F57F4F30D01F4D01222C6809
:2049A00001F10803824004F10801296003CBD3B220606160184630BC70474C7A53789C42AD
:2049C000E5D18C7A93789C42E1D1CC7AD3789C42DDD10C7B13799C42D9D14C7B53799C4257
:2049E000D5D18C7B93799C42D1D1D379CA7B9A42CDD1032101FA00F3DBB2DBE78B89FE2BD5
:204A0000CBD1054CCB892268022122F8023B01FA00F32260DBB2CDE7140A002010B5124C3F
:204A20000220A17904F0D4FBA379112B09D0062B07D03A2B0FD0BDE810400021012004F0CF
:204A4000C7BB218D638D01209942A8BF1946BDE8104004F0BDBB218D012049BA89B2BDE861
:204A6000104004F0B5BB00BFAC27002010B5084C2378012B01D0002010BD01460822A01C05
:204A800007F06AFE00280CBF2046002010BD00BF880B002008B50146102004F0A7FB044BE6
:204AA00000219B6803489847BDE80840FCF7E4BCA0D20000B94A000010B50C4611462046DF
:204AC00006F03EFE044B1B6813B19B6820469847024B1C6010BD00BFEC100020980B002092
:204AE0002DE9F041154D00232A469478713234B101330C2BF9D14FF0FF30BDE8F081C3EB7F
:204B0000C30403EB04142F197970064604F0BAFADFF830800A4A98F800301168C01A2E5532
:204B2000B870CC1804F0AEFA98F800202146821AF81C07F043FEB878BDE8F0819C0B0020C1
:204B4000940B0020842700202DE9F84F074615465ABB88469146584E4FF0FF3436F8063C84
:204B60009BBB631C48D00135022D06F1B806F5D1621C00F09E80B82505FB04F5DFF840915E
:204B80000F2009EB0506A6F81280378204F03AFB0146304604F062FB05F1180048444021CC
:204BA000FFF756F92046BDE8F88FDFF8148100244646328ABA4221D00134022C06F1B80641
:204BC000F7D14FF0FF30BDE8F88F3046FFF754F9002831D0394B26F8069C03F24C51E8B221
:204BE0009A7822B11A78824208BF83F8029071338B42F5D1631CB6D16CB2B4E7738A002B88
:204C0000DAD00F2004F0FEFA0146304604F02CFB0028D1D0E6B229463046FFF761FF011E3C
:204C200011DB0029CDDDB82303FB04839A8A60B20A449A82BDE8F88F611C94D136F8063C37
:204C4000002B90D1D8E74FF0000B5F46D946DFF868A03AF8063CF3B1BC421CD05046FFF78E
:204C60000BF9C0B15FFA87FEB82303FB0E83134AA3F8129002F24C504FF0000C937833B113
:204C80001378734504BF82F802900CF1010C71329042F3D1E3440137022F0AF1B80AD8D1C9
:204CA000BBF1000F8DD029463046FFF719FF0146B7E72046BDE8F88F300A00209C0B002051
:204CC000180A00202DE9F04715090F2D06469A4602F00F042CD00F2C36D0A046A946671928
:204CE000D5BB0F2F03DD5CB9E5B9BDE8F087C7F1100206EB0900002107F03AFE002CF3D034
:204D0000DFF87490C8F11000D9F8007030443946224607F053FD022C20D03C44C9F800406D
:204D2000BDE8F08751463046BDE8F04706F09EB90F2C4FF0100918D04A464D46A046A718DE
:204D4000304607F03BFDCCE74FF01008A94605F110074446002DD3D02A46F1E70A2DDCD81B
:204D6000FF22FE23F2723373D7E74D46C8464C4620272A46E4E700BF140A00202DE9F04F22
:204D80000F2089B0DFF81083B84D04F03BFA4FF0000A04F007FB88F800A085F800A004F0A3
:204DA0005DF9B34E3060042004F01AFA3368B1491C7800B25A78086004F0F801C02942EAC9
:204DC000042277D0E02964D129789F7893F80490D878C2F30A044B1D40EA072021464A468E
:204DE0002B70FFF7B1FE411C074660D0A24AB82303FB0023D346CDF800A0B3F814A00123B0
:204E0000A24534BF4FF0000A4FF0010A019304F039F92B78954D834249D804F033F92B783D
:204E200098F80080C51A08EBC909944AA944B9F57A7F15603BD8BBF1000F06D031680BEBA4
:204E4000080019442A4607F0B9FC002C00F0DC80009B43B1884AB82303FB072308EB0502FB
:204E600092B29A821A84BAF1000F40F01981019BEBB9834B45441D80824C236823B1FFF759
:204E8000CDFD23685B68984700F0BAFE09B0BDE8F08F57465446DFF8FCB1CDF800A02A78D4
:204EA000995C01F0E00060284AD041291CD009B0BDE8F08F29789F78D878C2F30A040B1D64
:204EC00040EA0720524621462B70FFF73DFE07460130ECD0684AB82303FB072202F1220BA8
:204EE000012233680092DAE75946501CC0B2034403F12000D3F800A0D3F80490D3F808C06C
:204F0000D3F80CE010338342C1F800A0C1F80490C1F808C0C1F80CE001F11001EAD11868C8
:204F20005B6808604B6098F800302932283388F80030009B4FF0000A2A70D146019366E7FF
:204F4000981890F801A002321344DFF850914FFA8AF2002AC9F80030B8BF01330192B8BFA0
:204F6000C9F80030CA065AD501F0080303F0FF00002B40F0C681D9F800301A461B78C3F307
:204F8000830343F060038BF8003012F801EBABF802004FEA9E0303F0300343EA8E13C9F818
:204FA00000208BF8013001F0040303F0FF0202923BB9D9F8003013F8012B8BF80620C9F807
:204FC000003011F0030100F0A1802F4B5B5C8BF807301AF0400FCAF3011300F07581019AF5
:204FE000002AC0F2B0810021002B00F09880274A1078012800F0CD81254A00239A4699469F
:205000001360009B019302E7019B002B3FF431AFBAF1000F3FF44BAF194B1C802CE70B071F
:2050200000F17881D9F80030184633F8012F9B78ABF801208BF8033010F804EB9BF8012094
:205040004FEA9E0303F0300C02F00F024CEA8E1E03F00F0343F060034EEA0202C9F80000CA
:205060008BF800308BF801209DE700BF84270020940B0020100A0020180A0020E810002078
:205080009C270020EC100020B8D10000880B00200C0A0020AC27002083270020140A0020A4
:2050A000B82101FB07F1DFF844A3C7480AEB010319461A8C22319C8207F080FBC34EDFF88D
:2050C00008B306F24C5916F8012C22B116F8033C9F4200F048817136B145F4D100221046A9
:2050E000B823FFB203FB07AAB94BAAF8122003F24C519A781AB11A78BA4208BF987071332D
:205100009942F6D1019B002B86D1B2E6D9F8003013F8012B8BF80720C9F8003059E71946C5
:205120000BF108020392AB4A0F20D25C0591049204F068F8049A034605990398FFF7C2FD2D
:205140000AF0080303F0FF010AF00302002B37D01AF0040F0FD1A049531E0988012BADF86D
:205160001C1040F228819D4900238A5C0BF1180007A9FFF7A7FD98F8002002F1280388F88D
:205180000030029B002B41D1D9F800303268DFF860929B1A2B70002C00F0A480A4F1280351
:2051A0001A128BF805308BF804209BF80630112B00F0CF80009B4FF0000AD146019326E685
:2051C0001AF0040F00F0D780019B002BC0F2EC80DFF820A29AF80030012B7FF40DAF9AF83E
:2051E00001308B427FF408AF7A497D4B8A5C10200192C3F800A004F005F8019A03460AF128
:2052000002010BF11800FFF75DFDB4E7D9F80030197801F0F801F029B8D111218BF80610A3
:20522000187800F0F301F03900F00400C0B20329C0D8DFE801F03D33220259780233090943
:20524000A1F5756189B2090241F0F001ABF8281013F8011C01F00F01A1F5756189B20902C4
:2052600041F0F001ABF82A10C9F80030002800F0C380303288F8002088E759780433A1F5D4
:20528000805189B2090241F0F001ABF8281033F8021CC9F80030ABF82A10E7E7B3F8011059
:2052A0000433ABF8281013F8011CA1F58051D5E7B3F801100533ABF8281033F8021CC9F8B8
:2052C0000030ABF82A10D1E7464A0F20D25C039203F098FF039A034643490BF10800FFF791
:2052E000F1FC2DE703F0CEFE99F8002098F80030801A0344283B1A128BF805308BF80420AE
:2053000053E7002360228BF800208BF80130ABF8023048E6D9F80020602310468BF80030D7
:2053200010F8013B03324FEA930E0EF0300E03F00F034EEA03038BF801300388C9F800207B
:20534000ABF802302FE631682A780A44917809094AE6BBF804304FF0000AABF82C30009BC5
:20536000D146019353E516F8020C31460BEBC00007F024FAAFE61B4B102013F802A003F021
:2053800041FF5246034618490BF11800FFF79AFCF1E6507888427FF42FAE1148911C0260CA
:2053A0000BF108020392BEE631682B780B44997801F00F010CE7D9F8003013F8011B8DF871
:2053C0001D10C9F80030CEE6AC2700209F0B00209C0B0020D4D10000B4D10000D0D10000AC
:2053E0000C0A0020BCD10000C0D10000180A002084270020880B002033F8021BABF82E1070
:20540000C9F8003035E700BF2DE9F04FAE4EDFF8E4B2002387B033708BF80030044603F015
:2054200063FE03F01BFEA94BDFF8CCA21B68CAF800000BB1FFF7F2FA04A80190002C00F08A
:205440009382214603F00AFFA14B1B883E2B32D99BF80070DAF80080002302379D4D08F836
:2054600007309D4808F102032B60FFF7FFFA002800F0078108F103032B6080230293974C53
:2054800062782178130943EA0113DBB2980840EA83135BB210075FFA83FE5CD16088002814
:2054A00059D1080740F0F58012F0F00F40F0F1804FF078095EE0894C9BF800C0A646DAF888
:2054C00000300CF10105EDB241221D441A7004F1200877460FCF474528606960AA60EB60C2
:2054E0000EF1100E05F11005F3D1BEE803002860696033780CF1290C28338BF800C03370A8
:205500000199102003F072FE754BDFF8E8911B6898476F4B002837781B889BF80080ACBF3A
:20552000C0F17D056825A3EB0702C8EB0501B8BF15208A4240F3B480C0F1780293FBF2F7DA
:20554000029203F05DFA01388742C0F2D780002007B0BDE8F08F090703D112F0F00F00F092
:2055600082802A6820681346106003F804EB2B604FF06009A379112B68D1E37949F00409F6
:20558000402B6AD0FF2B00F00F82012B68D02A6802F8013B2A602389504A3BB953892BB90B
:2055A00093891BB9D389002B00F034824D48FFF75DFA4D4B1860002800F07781417818F803
:2055C00007304A4A43EA011308F8073045490420FFF7D6F960F03F00C3B20293237E3F494F
:2055E000FF2B00F08E8101F118000391FFF73EFA3D4A03991060002800F0BA8118F8072099
:2056000043780298134340F0040E08F807301831019A00205FFA8EF7FFF7B2F938432F68D1
:205620005FFA80FEA3792822112B32702B4900F00E81DAF800309BF80020FF1A991803F8E2
:2056400002908BF8007081F801E059E72A6802F8013BE3792A60402B94D149F002099AE7E8
:2056600049F0010997E7296823F03F031343204A0B701288CB1CA1F801202B604FF06809D2
:2056800078E71848FFF7F2F900287FF4F3AE0290F5E62B684FF0700903F801EB2B6069E7B4
:2056A000DAF80000E119404407F088F8084B18884044C01B80B203F0CBFC0198FFF7EAF973
:2056C000012007B0BDE8F08F83270020EC1000209C270020140A0020C4270020AC270020C9
:2056E0003CD20000B42700200C0A0020A4270020AE27002084270020940B0020DAF80080AF
:2057000099F80070B64E41463A46002308F104000437336007F0C8F8F9B20E46B14BB248E3
:205720001A88B24B120A62F03F0288F80020AD4AB3F800E012886D1A017825F007054FEA05
:205740001E20AB4F88F8012088F803E02A460EF1010E88F80200214408EB0600A3F800E034
:205760003D6089F8006007F029F8701980B203F06FFC03F04BF99F4D804600283FF4E7AEA1
:205780000198FFF787F9404603F08EF9404603F075F9934B1B68012B3FF4D9AE043B012B61
:2057A0007FF6D5AE8F4B90491B882A681B0A63F01F030D788B49137002983B6809881D4464
:2057C00020F0070005235170ADB2386089F80030B84632E03E68DAF80030B242B8BF1646A2
:2057E0009BF80090B8BFC8F8002003EB0900324683F804E006F0E2FF09EB060080B203F06B
:2058000027FC03F003F9064600283FF4A0AE0198FFF740F9304603F047F9304603F02EF980
:205820006F4A3B6812681D44012AA2F10403ADB23FF48DAE012B7FF68AAE6A4B61191B88F4
:205840004FEAD50E9D42A3EB0502C3D338E74FF2B002088D030A43EA00239BB223F00F00AF
:2058600080B2904200F0A380498D0A0A42EA012292B202F47F42B2F5704F00F0218103F4EE
:205880007F43B3F5704F00F0EB805B4BF0223A7018687B1DC7F801001F46584B30221B884D
:2058A000327027F8023B2F60C3E648F2FE03228953499A420FD14B8B6BB98B8B5BB9CB8BFA
:2058C0004BB908314F4A0420FFF75AF8029B0343DBB2029382E6D5F800C0DFF830E10CF1A7
:2058E00010032B60BEE80F00CCF80410CCF80000CCF80820CCF80C30237E4149FF2B7FF405
:2059000072AE029A4B7E42F0080E022B5FFA8EFE4A8B00F0AF80002A34D18A8B002A31D144
:20592000E18B374A71BB118C31B9518C21B992F82410002900F0CF80218C314A11BB92F86C
:205940002210F9B92F680298394601F8013B52F8233F40F0090EC7F80130137906375FFA79
:205960008EFE0B712F605DE6274903F077FC6BE548F2FE030A8B9A4202D14B8B002B5FD078
:20598000DDF808E0D5F80080DFF884C008F11007BCE80F002F60C8F80000C8F80410C8F83C
:2059A0000820C8F80C303DE649F00309F3E5B1F82AC04FEA1C2242EA0C2292B222F00F0CAE
:2059C00084457FF456AFF3233B700A8D4B8D120A1B0A03EB021303F5AA637B70BB1C5BE709
:2059E000980B00209C2700208327002068270020E8100020940B0020D4270020DA27002075
:205A0000AC270020A427002034D20000B4270020C4270020138A002B7FF4C8AD538A002BE4
:205A20007FF4C4AD938A002B7FF4C0ADD38A002B7FF4BCAD029B43F04003DBB20293CDE50F
:205A40008B8B002B9CD1CB8B002B99D11831019AFEF796FF029B2F6803435FFA83FEE1E525
:205A6000F2233B70238D254A1B0A7B7012883B1D7A8011E7002A85D18A8B002A82D1CA8BEC
:205A8000002A7FF44DAF0A8C002A7FF449AF4A8C002A7FF445AF8A8C002A7FF441AF91F8AF
:205AA0002620002A7FF43CAF2F6891F82730029A07F8013B42F00B0E5FFA8EFE2F60B1E575
:205AC000F1220F4B3A701A883B1DA7F80120628D120AFA70E0E62868014601F8013B32F884
:205AE00025CF029B071D43F00A0E93785FFA8EFEA0F801C02F608B7094E500BFD62700207E
:205B0000D4270020002849D0F0B5078883B0064657B300273D4606E0002F1ADB1FD0013791
:205B20000235102D13D073195B78745D03EB0424A4B2002CF0D0002FC8BF4FF0FF3708DD76
:205B4000214618480235FDF7E3F8102DEBD103B0F0BD002DF4D03A20FBF79CFCF0E7124819
:205B6000FDF7D6F80127DBE74288AAB98388002BCFD1C7887FB9038973B94FF6FF724189B7
:205B8000914208D1837B427B017BC07B00900748FDF7BEF8DBE71F463D46C4E70448FDF7C9
:205BA000B7B800BF0CD2000008D20000F4D10000E4D10000014B1860704700BF001100201A
:205BC00010B51446FEF7D6FB18B1024BC4611B68836110BD7407002000B5074B83B08DF817
:205BE0000700186828B1054B0DF107021978FEF7EBF803B05DF804FBA82B0020DB2F002061
:205C000008B5002202210448FEF7DEF80349044A00230B80137008BD140100209C270020C3
:205C20008027002038B5294C238863B3B3F5A06F24D8274D2B8B6BB96B8B5BB9AB8B4BB935
:205C4000EB8B3BB92B8C2BB96B8C1BB9AB8C0BB9EB8C9BB100F0D6FA80B12B7EFF2B13D00F
:205C60001C4805F031F8A8B11A4805F035FD58B305F02AFD184B1B6803B19847174A00239C
:205C80001370238038BD38BD134B1B68002BF5D00020F2E70F4805F0FBFA054678B105F080
:205CA000CFFA0028E1D1EB6923B11B6A93F8540001F082FA2846BDE8384005F025BB05F0F3
:205CC0008FFC0028D1D1D9E7208038BD9C270020AC270020C4270020001100208027002041
:205CE00038B503880446EBB140F24B30834215D1022945D02BD9872935D0882922D1294BDD
:205D00009A424AD0284B9A421CD11046FDF7C8FEC0B105F0F1F8FFF785FF13E000232380BF
:205D2000032038BDFDF78CFF204B1870FDF788FF1F4B402118701B48FDF794FEFEF7D8FA5B
:205D400000F07CFB40F24B332380012038BD0129F8D1002AF6D0174B05201A60FEF752FB4D
:205D6000FFF760FFEEE7144B002503F5A070996920338A4208BF23F8105C8342F7D1E1E7A9
:205D80000E4D2B88002BDDD00120FEF73BFB2B88002BD7D0FFF746FFD4E71046FDF780FE8E
:205DA000D0E700BFF0100020C82F0020DA2F0020DB2F00209C2B0020B42B00209C2700201A
:205DC000074B1B6843B12833186820B105495A680978FDF7F9BF7047034B1B681833F3E764
:205DE000A42B0020DA2F00209C2B00202DE9F043038885B004462BB18B2B09D1204B1B78E7
:205E00008B420BD08B230120238005B0BDE8F08300230380032005B0BDE8F0831546002A80
:205E2000F0D0184B1B789B07ECD5174BDFF86880B3F80090154B4A464046196806F0BEFC46
:205E4000AF69002FDED01249124E4A8D088D130A43EA0223CDF80890020A42EA0022286A6E
:205E60009BB2CDF80480D6F800800093306001F1180392B228460831B847C6F80080C1E73E
:205E8000DA2F0020942B00209C270020A02B0020AC27002074070020041100202DE9F84318
:205EA000194E044630780F461546984620B3E782A4F814802DB128686968AA68EB68261DA8
:205EC0000FC6089A114E124B98FA98F1A261284689B2224635683360FFF772FEE06128B1B0
:205EE00027B197FA97F9A0F81090E0690030356018BF0120BDE8F88301460548FDF7A8FE1D
:205F000001233370D3E700BF85270020740700202401002070B5304D304CAB790022267893
:205F200022701BB995F82A30632B02D02670012070BD95F829301BB995F82B30042B01D02E
:205F4000002070BD95F82D0001F0E2FB28B390F8553013B3C3689A7DFAB1998B23780A0AFE
:205F60002A3342EA01222B449A8090F85420DA7090F85720012AD9D993F9023005F11800FE
:205F8000002B0CDB05F084F923782A331D44AB78E8B163F07F03AB70C8E72670D0E705F087
:205FA00077F90028C2D123780F202A331D44AB7843F02003AB7003F025F901F061F8002817
:205FC000BED00022064900F0A3FF002070BD03F07F03AB70AAE700BFAC2700208027002049
:205FE000C42700202DE9F84FDFF8A080264CB8F800600025B6F5787F2778257003DD27704E
:206000002846BDE8F88F83468A46DFF88490A6F12802494609F1080006F046FC19F8220C99
:2060200063210422A9F12803C9F80050C9F8045083F8280089F8021009F8225C89F8032072
:20604000DBF8002019F8230C958B00F10802290A41EA0521A9F806109AF80010D2B2083653
:20606000904289F80510A8F8006009F8232C04D919F8242C013209F8242C08372770BDE82B
:20608000F84FFFF747BF00BF802700209C270020D42700202DE9F047374D384C2B782833E6
:2060A000E218527832B940F263420344195B2344914202D00020BDE8F0870646D87801F0CA
:2060C00027FB07460028F5D02B782833334423449A7890060ED597F85730012B06D904F1E7
:2060E000180005F0D5F808B105F00EF9384605F071FDDFE7F968897D0029DBD0B3F80490F0
:206100001F494FEA19230F20D1F800A043EA09294FFA82F803F076F8014650461FFA89F90F
:2061200002F090FE40B12B782833334423449B78590648BFA0F80490FB68B8F1000F9B8B2C
:2061400004DA994504D20120BDE8F0879945FAD220B1C7F81001384605F04EFD287828306F
:2061600030440444A3785A06C0D443F04003A3700120BDE8F08700BF80270020AC27002015
:20618000640100202DE9F8431A4C1B4EA1460023A5791A4F337004F128082B2D04D03C2D6C
:2061A00020D00DB1BDE8F88394F8291060790131C900C9B23A88431A521ADBB294F82850E1
:2061C00092B298423A806371A571A2F1280241440B4804D299F80430013B89F8043006F0E6
:2061E00063FBDAE794F82930DB0008333370BDE8F88300BFAC270020802700209C27002066
:20620000D427002038B5164D2B68EBB1DA68DAB148F2FE01134C208B884215D0217EFF295E
:2062200012D0928BB3F864309A420FD004F1080004F06AFD20B10C4BE2791B799A4207D043
:20624000BDE83840FFF766BE012038BDFFF79AFF2868BDE8384000F154010C30FFF7C2BEBD
:20626000F42C0020AC2700206C2E0020014B1878704700BF86270020F0B585B004F0EEFF57
:20628000034648B19A6918460AB1013A9A6104F0EBFF03460028F5D104F0E0FF0446B0B1D7
:2062A000134FA66904F108039EB90FCB8DE80F00204605F029F804F0D1FF3B680446D8684B
:2062C000B3F86430828B9A420AD1002CE9D105B0F0BD204604F0C8FF0446002CE1D1F6E74D
:2062E00032466946806900F013FE05B0F0BD00BFF42C002010B5044604F0B0FF30B1C3696D
:20630000A34204D004F0B0FF0028F8D110BD04F0FBFF04F0A3FFF1E770B505460E4604F04F
:206320009DFF90B10446204604F08AFF1022294606F012FA18B9E369B34208BFA061204670
:2063400004F092FF04460028EDD170BD38B50D460446D1B228461A4605F04AF870B1C46103
:20636000216A90F82220B1F8664091F85B3022F0010203FB04F380F82220836138BD00BF09
:2063800048F2FE0200B585B0002301466846ADF80230ADF80430ADF80630ADF80830ADF8B4
:2063A0000A30ADF80C30ADF80E30ADF8002004F05DFE0A4890F85530012B02D005B05DF864
:2063C00004FB694600F0F4FF0028F7D0C37943F00103C37105B05DF804FB00BFF82C00208A
:2063E00008B50A4B93F85520012A00D008BD0146184600F0DDFF0028F8D04FF6FF72C37978
:20640000828043F00103C37108BD00BFF82C0020094890F855303BB190F8253023B1C36C1D
:206420001BB990F826301BB17047013BC3647047103001F019B900BFF82C002010B5114BE6
:2064400084B000241C6000F011FE05F0A5FB00F065FD40F2FF224FF4D0536846ADF8024034
:20646000ADF80440ADF80640ADF80840ADF80A40ADF80C40ADF80020ADF80E3004F084FC5F
:2064800004B010BDF42C00200249034A00230B80137070479C270020802700202DE9F041CA
:2064A00004460D4616461F46FFF7E0FE012850D0002C4ED0204600F0F9FD002849D02368FF
:2064C000002B46D0196A002943D0002D41D02B4B91F854C01A78DFF8A8E02C320EF802C054
:2064E00002EB0E034FF0050800224FF0120C4FF0800EDF7083F8048083F805C083F807E016
:206500005A709A709A712F68D5F80480D5F808C0D5F80CE09F600627C3F80C80C3F810C068
:20652000C3F814E01F7691F857509A76012D14BF04251425DA761A775E775D7691F85720EB
:20654000012A08D01E2302229B21BDE8F04104F005BBBDE8F081226811685268C3F81E10D1
:20656000C3F8222050F8081F4268C3F82610C3F82A2020680028ECD02E23E4E780270020C0
:20658000AC2700202DE9F04FDFF898929DB05C22002105A806F0ECF999F80000A04B00F1D1
:2065A0002C0E0EEB03052F46DFF87CA295F802C0E97813F80EE003F108029AF800602B79F9
:2065C00041EA0C21361AADF8261023F07F00C3F3C2010DF1040803F007038DF828008DF8F4
:2065E00029108DF82A300FCA88E80F00697908220C2357F8080F8DF82CE08DF82D1095F8AA
:2066000001E00A218DF82E208DF82F3080224FF460738DF83010ADF8362001211E22ADF838
:2066200034303C238DF83120ADF832308DF82BE0ADF824107968BA68FB6805AC2C3E0FC4FD
:20664000F6B21824B4423EDA2B5D002B00F0CF8005EB040E9EF8011002316718B74200F30F
:20666000CA80023B062B00F2CE80DFE803F0966B31CCCCCC0400202940F0BD8004F1080318
:20668000E818C278EB5C90F801C042EA0363103482782C4443EA0C4343EA022C20686168C8
:2066A000A268E3683C46CDF860C09EF803709EF802C00DF1500BB4428DF864C08DF865706B
:2066C000ABE80F00C0DB05A9404601F083F992E0102940F09080A11D04F10802681804F1BF
:2066E0000A0315F801B090F801C0A9180E344978A85CEA184CEA0B2C527815F803B02B1981
:2067000041EA00205B78295D42EA0B2243EA0123ADF834C0ADF836009EF803C09EF80400C4
:20672000ADF824209EF805109EF80D203C46ADF832308DF82EC08DF82F008DF830108DF808
:2067400031207FE7082956DD231D05EB030CEA5C9CF803309EF8020043EA02629CF80130E4
:206760009CF802C042EA0343C21DD21043EA0C239EF803E002F1070C614512938DF84C0099
:206780008DF84DE037DD802835D804F1080129440EA806F013F83C4654E705292BDD9EF8D3
:2067A00004309EF80300DA0942EA40029EF802109EF805008DF86920C3F3011203F00F039C
:2067C0008DF86A208DF86B308DF868108DF86C00C9B1072919D002290DD19EF806209EF8AE
:2067E00007303C468DF86E208DF86F302AE70134A642BFF627AF0023AAF8003089F800304A
:206800001DB0BDE8F08F3C461CE706342B192A5D5B783C4643EA0223ADF86E3012E700BF5B
:20682000AC270020802700209C270020F0B583B00E461746054604F04FFF044610B1204634
:2068400003B0F0BD0F2002F0DDFC22460146019700962846012304F01BFF0446204603B0FE
:20686000F0BD00BF2DE9F04FDFF8B0A2DFF8B0929AF8003091B04B4493F82C0000F048FF95
:20688000002854D090F85730012B50D9A14A9AF80080144608F12C0608AD09F10803029278
:2068A0000FCB85E80F0019F80600258800F030FF4E447378C2685F0603900593104604927C
:2068C0002DD40424039A9DF8203092F85B20FF2B0192F27806922DD008A9049800F05CFDB6
:2068E000002800F00B81039B8288B3F86410049BB2FBF1F29B8BB3FBF1F39A4280F0F98081
:206900004FF6FF72C379828043F00103C371029A002313808AF8003011B0BDE8F08F1022FD
