:020000040000FA
:2000000000500020FD0C0000F50C0000DD0C0000F90C0000F90C0000F90C0000000000006E
:20002000000000000000000000000000F90C0000F90C000000000000F90C0000F90C0000AC
:2000400089250000F90C0000DDAE0000F90C0000111C00007D200000F90C0000F90C000089
:20006000F90C000005AF0000F90C0000F90C0000F90C0000F90C0000F90C0000F90C0000A9
:20008000F90C0000F90C0000F90C0000F90C0000F90C0000F90C0000F90C0000F90C000038
:2000A000F90C0000F90C0000F90C0000F90C0000F90C0000F90C0000F90C0000F90C000018
:2000C000F90C0000293500002DE9F0410378022B1ED14578012405EB040809E00DF0D2F950
:2000E0000FA3D3E9002306460F460DF0C7FC40B9AC4204F10104C4EB0800EFD90120BDE8E8
:20010000F08132463B46002007490CF073FDEFE7064803F04FFA0020BDE8F081AFF30080E1
:200120000000000000C05F400000704028E200002DE9F04F23F0004858EA020993B03CD05A
:20014000714C21F00046A64283460D460CDD06F1404606F5801656EA0B0038D183466B49BF
:20016000584613B0BDE8F08F9A4696462BD0A045EDDC654CA04578D0002D0F468146CDE9B8
:20018000002376DB0024BEF1000F27D15E4B984500F08B805D4B984552D0BAF1804F00F07F
:2001A000C9835B4B9A4519D1002D17DB4846394613B0BDE8F04F0CF0B5BECB4658465349F7
:2001C00013B0BDE8F08F0028C1D1B045D1DD514813B0BDE8F04F0CF075BF0024484639463A
:2001E0000CF064FFBBF1000F1CD0ED0F013D54EA050370D0484B984540F3948003F1047317
:20020000984540F30D84454B9E4270DDBAF1000F70DD3BA3D3E90023104619460DF0A8F969
:2002200083469DE726B1394B25F040429A42DCD1BAF1000FC0F2B783002D08DB83468FE701
:20024000BAF1000FC0F25E84CB46394688E706F1404606F5801656EA040300F08384012CD8
:20026000ECD101F1004183467AE7BEF1000F83D06DE72B4B98452CDCA3F15473984581DD0E
:200280004FEA2853A3F2FF33142B40F35384C3F134032EFA03F202FA03F39E457FF472AF29
:2002A00002F00102C2F102046DE706F1404303F5801353EA0B0300F03A83184B9E4240F3C9
:2002C0006783BAF1000F15DBDDE900349B46214646E7022457E74A4648463B4639460CF09D
:2002E00093FF02460B460DF06DFA834638E7BAF1000F8EDB4FF0000B594631E7AFF3008041
:200300009C7500883CE4377E0000F07F0000F03F0000E03F74E300000000E041FFFFEF3F0E
:20032000FFFF3F43B6F5801F4FF0000205DAD04B0DF01EF90E466FF03402DFF844E3331575
:20034000C6F31306A3F2FF3346F07F57764503EB020A47F4401740F3C983C64B00229E421F
:2003600040F304840023CDE90823CDE90C23C24B0022CDE906230AF1010AA7F5801700266C
:200380003946DDE90623CDE90A010CF03DFFDDE9062380468946DDE90A010CF037FF024627
:2003A0000B460020B4490DF00DFA0A4601461346CDE90E120246494640460DF0D9F88C4608
:2003C00083467B1043F0005303F5002399190020CDE904BC06460F464FF0000B61465846B0
:2003E00032463B46CDE910BCCDE902010DF0C0F802460B46404649460CF006FFDDE9062376
:2004000080468946304639460CF0FEFE02460B46DDE90A010CF0F8FEDDE902230DF0A8F876
:2004200002460B46404649460CF0EEFEDDE90E230DF09EF8DDE90478CDE906013A46434694
:20044000384641460DF094F877A3D3E9002306460F460DF08DF876A3D3E900230CF0D6FE2A
:2004600032463B460DF084F873A3D3E900230CF0CDFE32463B460DF07BF871A3D3E90023F2
:200480000CF0C4FE32463B460DF072F86EA3D3E900230CF0BBFE32463B460DF069F86CA333
:2004A000D3E900230CF0B2FE3246804689463B46304639460DF05CF802460B46404649462F
:2004C0000DF056F8DDE9022306460F46DDE904010CF09CFEDDE906230DF04AF832463B46BD
:2004E0000CF094FEDDE902678046894632463B46304639460DF03CF80022604BCDE90A01FD
:200500000CF084FE42464B460CF080FEDDE910BC0F46DDE902015A463B46CDE90EBC5E46D5
:200520000DF026F80022CDE90201544B304639460CF06AFEDDE90A230CF066FE02460B46E1
:20054000404649460CF060FEDDE904230DF010F8324680468946DDE906013B460DF008F8E2
:2005600002460B46404649460CF050FE8046894602460B46DDE902010CF048FEDDE90EBCBA
:2005800035A3D3E900235846CDE906BC5E460F460CF0EEFFDDE90223CDE904013046394611
:2005A0000CF032FE02460B46404649460CF02CFE2BA3D3E900230CF0DBFF2BA3D3E900230B
:2005C00080468946304639460CF0D2FF02460B46404649460CF01AFEDDE90C230CF016FEFD
:2005E0008046504689460CF05DFF06460F46DDE9040142464B460CF009FEDDE908230CF003
:2006000005FE32463B460CF001FEDDE906BC324658463B46DA468B460CF0F6FDDDE90823F3
:2006200030E000BFAFF30080EF4E454A287ECA3F65DBC9934A86CD3F01411DA96074D13FEA
:200640004D268F515555D53FFFAB6FDBB66DDB3F033333333333E33F000000E009C7EE3F57
:20066000FD033ADC09C7EE3FF5015B14E02F3EBE0000404379B60B000000F03F00000840C3
:200680008E9803000CF0C0FDDDE904230CF0BCFD02460B46404649460CF0B6FD80468946E4
:2006A000DDE90012013C54EA050314BFD64CD74C0023CDE904340B461446CDE902340023FC
:2006C0000293DDE9024508462B46114622460CF09BFD52465B460CF04BFFDDE900230646B2
:2006E0000F46404649460CF043FF02460B46304639460CF08BFD06460F4622462B46504630
:200700005946CDE900670CF033FF0B46024680468946304639460CF079FDBD4B064699422B
:200720000D460C4640F30E8101F13F4303F5E003034340F0F081A0A3D3E90023DDE9000133
:200740000CF064FD424682468B464B46304629460CF05AFD02460B46504659460DF098F9F6
:20076000002840F0D8812F463B154FF48012A3F2FE3342FA03F32344C3F30A52A54EA2F236
:20078000FF321641C3F3130B0020C2F1140523EA06014BF4801B02460B46002C4BFA05FB19
:2007A00040464946B8BFCBF1000B0CF02DFD02460B4680468946DDE900010CF027FD4FEA72
:2007C0000B5A00247EA3D3E9002320460D460CF0CFFE424606460F464B46204629460CF083
:2007E00013FD02460B46DDE900010CF00DFD76A3D3E900230CF0BCFE75A3D3E90023804618
:200800008946204629460CF0B3FE02460B46404649460CF0FBFC8046894602460B46304642
:2008200039460CF0F3FC32463B4604460D460CF0EBFC02460B46404649460CF0E5FC2246E2
:20084000804689462B46204629460CF091FE62A3D3E9002306460F460CF08AFE60A3D3E96A
:2008600000230CF0D1FC32463B460CF081FE5EA3D3E900230CF0CAFC32463B460CF078FE0B
:200880005BA3D3E900230CF0BFFC32463B460CF06FFE59A3D3E900230CF0B8FC32463B46DE
:2008A0000CF066FE02460B46204629460CF0ACFC06460F4602460B46204629460CF058FE65
:2008C0000022CDE900014FF08043304639460CF09BFC02460B46DDE900010CF073FF42465F
:2008E00006460F464B46204629460CF041FE42464B460CF08BFC02460B46304639460CF090
:2009000083FC22462B460CF07FFC02460B4600203D490CF079FC8A44BAF5801FC0F23781D2
:200920005146DDE904230CF023FE834618E4F346354915E44A4648463B4639460CF018FE71
:2009400083460DE4344B21F000479F4240F30181324B0B4403430CD142464B460CF054FC1C
:2009600002460B46DDE900010DF07EF800283FF4FBAE23A3D3E90023DDE904010CF0F8FD3F
:200980001FA3D3E900230CF0F3FD8346FFF7E8BBBAF1000FBFF6AEACDDE900349B4604F1CF
:2009A0000041FFF7DDBB02460B46002016490CF009FF41E4AFF30080FE822B654715973CC6
:2009C00000000000432EE63FEF39FAFE422EE63F396CA80C615C20BED0A4BE726937663EF0
:2009E000F16BD2C541BDBB3E2CDE25AF6A56113F93BDBE166CC1663F3E5555555555C53F3E
:200A000059F3F8C21F6EA5010000F03F0000F0BFFFFF8F40FFFF0F00FFCB904000346F3F69
:200A20006F4B9E427FF763AC6E4B9E423FF7EEAB00226C4B0CF0E8FB5BA3D3E9002306464E
:200A40000F460CF095FD5AA3D3E9002380468946304639460CF08CFD002282468B46624B60
:200A6000304639460CF084FD02460B4652A1D1E900010CF0C9FB32463B460CF079FD02464A
:200A80000B46002059490CF0BFFB3246CDE902013B46304639460CF06BFD02460B46DDE923
:200AA00002010CF065FD46A3D3E900230CF060FD02460B46504659460CF0A6FB02460B46B0
:200AC00006460F46404649460CF0A0FB42464B46002082468B460CF097FB02460B4630465A
:200AE00039460CF091FB80468946D9E500220023CDE90823CDE90C233A4B00220026CDE90E
:200B000006233DE44A463B46002036490CF05AFE8346FFF725BB2CA3D3E90023DDE904016F
:200B20000CF026FD28A3D3E900230CF021FD8346FFF716BBBEF1000F7FF44FABC3F114034C
:200B400048FA03F202FA03F3984524D07446FFF721BB264B9F423FF707AEDDE902349A46F6
:200B60009B462EE602460B46FFF7B9BB204B4FF48026CDE9062316A3D3E90023CDE90823D1
:200B800015A3D3E90023CDE90C23FFF7F9BB5A4600F032F8C5E602F00102C2F10204FFF726
:200BA000F9BA00BFAFF30080000000604715F73F44DF5DF80BAE543E555555555555D53FDA
:200BC000FE822B654715F73F9C7500883CE4377E0000004003B8E23F06D0CF43EBFD4C3E8F
:200BE000FEFFEF3F0000F03F0000D03F0000E03F0000F83F00000000F8B5C1F30A5604462B
:200C00000D460B46174606BB21F00043034325D000222F4B0CF0ACFC2E4A044697420D4655
:200C20000B462ADBC1F30A56363E40F2FE723E44964228DC002E12DD23F0FF4323F4E0036A
:200C400043EA065520462946F8BD40F2FF729642EBD102460B460CF0D9FAF8BDF8BD16F172
:200C6000350F1DDA4CF250339F420CDC14A1D1E9000122462B460CF0BBFA11A3D3E9002322
:200C80000CF076FCF8BD22460FA1D1E900012B460CF0AEFA0CA3D3E900230CF069FCF8BDA5
:200CA00023F0FF4323F4E003363643EA0655204629460022084B0CF05BFCF8BDAFF300807D
:200CC00059F3F8C21F6EA5019C7500883CE4377E00005043B03CFFFF0000903C044B1A6853
:200CE000B2F5806F03D01B689B0500D4FEE7704728ED00E0FEE700BFFEE700BF08B507F007
:200D000071FE104A104B9A420DD2D0430F4918440B4620F003000430084453F8041B83421A
:200D200042F8041BF9D10A480A494FF000028842B8BF40F8042BFADB00F066F9FFF7CEFF1B
:200D400008BD00BF00000020790600208CE6000080060020F4300020F0B5038887B0044643
:200D600033B13D2B1AD000230380032007B0F0BD0D480E49C6798579437802784779059697
:200D800006790495C57880788DE8E100084802F02FFC00F08FF8074802F00CFC3D23012002
:200DA000238007B0F0BD00BF542F002028E10000A80600204CE10000F0B51C48C9B002F052
:200DC000F9FB4FF49672002119480DF023F9194B1B789B0716D4184D184C6946144800F0F2
:200DE00089F82A881249206805F0DEFA236800221A805A809A80DA801A815A819A81DA818F
:200E000049B0F0BD0E4B0F491B880B4D0B4C1A46096807482B800DF023F826680A4B00273C
:200E20000FCB778286E80F00D7E700BF7CE10000BC060020AC2C00207C280020E8070020DB
:200E4000B4280020B82C0020CC28002038B5028804466AB1662A07D1124B1B788B421DD090
:200E600066232380012038BD00230380032038BD1146104605F0BEFA03464FF421420A4DD2
:200E80000282A121027D09482B6002F093FB084802F090FB66232380012038BDFFF78CFFA1
:200EA000DEE700BFF2300020E807002098E10000B8E100000021014803F01CBB38040020BB
:200EC00038B50378042B0DD145783DB10023C21894785A1CCC54D3B29D42F8D100234B5563
:200EE000012038BD024802F065FB002038BD00BFECE100002DE9F0410746002522488846AE
:200F00002C4602F057FB7E1E16F8011F1F4802F051FB7B7801350133AB4204F1010406D989
:200F2000082CF1D11A4802F045FB0024ECE73978302905D0174802F03DFB0020BDE8F08192
:200F40000021B81CFFF7C0F810B90020BDE8F0810023781DC8F800300F49FFF7B1FF002821
:200F6000F3D00D490D4802F025FB0D4B08F1110203F1FA0013F8011F984202F8011FF9D1B6
:200F80000120BDE8F08100BF4CE2000070E200006CE2000078E20000ACE20000B4E200000F
:200FA000ABE20000F0B5002706463C463D4683B0304600F0D3F90195019B9C4206DD00BF70
:200FC000019B01330193019B9C42F8DC304600F0CFF90195019BC4F5C874A34206DA00BF86
:200FE000019B01330193019BA342F8DB0137B7F5487F06D0B7F5C87FCCBFC7F548743C4640
:20100000D6E703B0F0BD00BF2DE9F041634C84B02368012162485B689847236801221146CC
:201020001B685F48984707F08FFF01F0C5FA01F05DFA00F0B7F901F095FA00F085F95949FA
:2010400059485A4A012303600B6018461368FFF7A9FF07F07DFF00F04FFD00F0BDFC03F097
:201060001DFB00F019FE03F069FA41F2342002F071F900F0CFFF03F0B3FB4D4800F064FED2
:201080004BF2016200214B4802F094FA4A4800F05BFE0021494803F02DFA02F0E7FF02F00B
:2010A00099FF0220FFF77EFF454802F083FA454B454C186800F048FE444802F07BFA444BAE
:2010C000186800F041FE434802F074FA2168424802F070FAE469A04720B1A04701463F484D
:2010E00002F068FA0A2000F027FE002608F020FC02A808213A4D3B4F019600F05DFE9DF8C8
:201100000F309DF80E4002AA03CA43EA0424D7F82C802860696002204AF6CD31C047214645
:201120000320C04719210120C047082202A97B6B0B209847BB6A01A90120984701992A4883
:2011400002F038FA294B214629481C8002F032FA284B6A6829685A60196007F0C9FF314626
:20116000254803F0C7F90220FFF71CFF3146234803F0C0F9224802F021FF00F09BFD012069
:20118000FFF710FF03F0F4F9044600F0C7FD14F0FF0FF7D101F072F8F4E700BFD8010010B4
:2011A00000400340080009400C4009402C200940D4E20000F8E2000010E300000C0500207D
:2011C00024E3000064E50000D8E500002CE30000A8E5000034E300003CE3000040E300000D
:2011E000542F002064E4000064E300007E28002078E30000BC2800202C05002048040020DB
:2012000020E100002DE9F04104880646772C30D07E2C27D024B1002303800320BDE8F081B6
:2012200003F060F92F4F304B304D3A6818702C60002A55D02346A0462D4C04F803809368A5
:201240000021802098472B68013357F823202B60002AF2D1DBB2274A13707723338001202E
:20126000BDE8F081204B1B788B421CD00120BDE8F081DFF880801D4D98F800201E4F0023E9
:201280003B602B60002AE8D0194CE256002A18DB2B6898F80020013393422B60F5DB3B6842
:2012A000002BECD1D9E7114D114CDFF84880124F2B683A68E15C013201F07F01E1543A60E6
:2012C000E7E7084A084952F823200978002003F0ADF90028ECD17E2333800120BDE8F08166
:2012E0001346B8E76C040020F0300020EC070020B02800208E280020F007002010B40E4B11
:201300001C7864B10D4A1368984213D0002303E052F8041F88420BD00133A342F8D1084A49
:201320000848135D63F07F03135510BC03F0AAB91C46F4E70024F2E78E2800206C040020EE
:20134000B02800204804002008B500F077F8024B00221A7008BD00BF8F280020034A1378E1
:2013600003431846137000F085B800BF8F280020034A137823EA00031846137000F07AB898
:201380008F28002010B5064C042023685B699847236804205B6B98470128F9D110BD00BF3A
:2013A000B8010010F0B591B007F0CEFD0746FFF7E9FF1C4B4FF4A0601B68DB6998471A4BDC
:2013C00001211A4A196013689907FCD56C46184D00F0EAF9174801F07DF80FCD0FC40FCDE8
:2013E0000FC40FCD0FC495E80F0084E80F00009C621C0FD06D46104E336820469B6B984774
:20140000336820469B694FF40051984755F8044F631CF1D10FB111B0F0BD11B0BDE8F040AF
:2014200007F096BDB8010010282008602820084090E3000058040020B40100100A4B1A68CE
:2014400002B1704710B50122084C1A6023680820DB6B984723680720DB6B9847044B4FF42B
:20146000C0721A6010BD00BFF4070020B4010010A0200240084B09494FF4C07208701A6046
:20148000C20744BF4FF4807243F8102C830702D5034B80221A607047A02002409028002078
:2014A0009020024008B5034B1B685B689847C0F3804008BDB401001028B1012806BF054BF6
:2014C000D86800207047044B1868C0F3403080F001007047F8070020C020024008B10020C1
:2014E0007047034B1868C0F3803080F001007047C02002408138012801D9002070470D20FA
:20150000FFF7D0BF8138012801D9002070470E20FFF7C8BF802870B514460AD0812807D186
:20152000E1B9BDE87040184B10461B685B6B184770BD154D1549012393402A680B60936B7C
:20154000204698472B6820460021114A1B689847E0B21049BDE8704000F0EEBF0A4D0B49E7
:20156000012393402A680B60936B204698472B6820461B68064A002198472B682046BDE8CA
:2015800070401B6B184700BFB4010010E020024000400720B115000008B50D22FFF7BAFF28
:2015A000012008BD08B50E22FFF7B4FF012008BD0D2838B50AD00E2800D038BD4FF08052C1
:2015C0004FF48041BDE8384000F082BD0E4C204603F0A4F80028F0D00421204603F08AF884
:2015E0000A4B1D68C5F3403525B900F041FAE560A06038BD00F03CFAA368C31AE360044804
:20160000BDE83840FFF77ABEF8070020C0200240D8E3000030B51C4A1C4B106883B0002402
:201620004FF48015042101908DF800408DF801400DEB01001D6000F0D3F820B9144BFF2009
:201640001D6003B030BD0221684600F0E7F8104B1D6010B9FF2003B030BD9DF80030EF2B8E
:2016600003D0C22B01D02046EBE79DF80100A0F11103012B05D9143801288CBF002001205B
:20168000DFE70120DDE700BFF8E30000A02002409020024030B5164B83B002AC05224FF480
:2016A000801504F8042D1D6000F0DCF82046012100F096F820B910E09DF80730DB0710D5C5
:2016C00001210DF1070000F0A9F80028F4D1094B4FF480121A6003B030BD064B1D6003B0A1
:2016E00030BD044B4FF4801201201A6003B030BDA02002409020024030B583B0FFF7CAFFD3
:2017000008B903B030BD0E4B02A8B9224FF4801500F8012D01211D6000F062F8094B0A2421
:201720001D60FFF777FF631E0028EAD013F0FF04F7D1044B4FF480121A6003B030BD00BF92
:20174000A02002409020024010B50A2182B0124800F09AF8114B14201B68114CDB6B984702
:20176000104A4FF48013AB2102A8236000F8011D1360012100F034F808B1FFF78BFF084BED
:201780004FF480121A60FFF745FFA0F10100B0FA80F0400902B010BD00093D00B401001041
:2017A00090200240A020024008B5FFF7CDFFFFF7A3FFBDE8084000F0C7B800BF08B5064BF5
:2017C00002201B685B6B9847012803BF034B186800F00100002008BDB80100107820084087
:2017E000F0B583B005460C46FFF7E8FF074680B17CB1094E336815F8011B5B684FF080400F
:201800009847336801A9DB684FF080409847013CF0D1384603B0F0BDC4010010F0B583B0FA
:2018200005460C46FFF7CAFF0746B0B1ACB10C4E09E033684FF08040DB689847019B013C69
:2018400005F8013B09D0336800219B684FF08040984701A90028ECD10746384603B0F0BD1F
:20186000C401001010B582B0FFF7A8FF40B1054C236801A91B694FF0804098470028F7D136
:2018800002B010BDC4010010F0B5264D07462B6885B002205B690E4698472B6802205B6B33
:2018A0009847012804461F4BF7D11B684FF48070DB6998471C4B1D4A1C6013689B07FCD593
:2018C0001B4A1C4913681C484FF0030E082523F00F030C4609681360C0F800E00023019536
:2018E00000971A460F684FF080401449B847144B29461B6800965D6C09224FF0FF334FF094
:201900008040A8470F4A136843F002031360236803A91B694FF0804098470028F7D105B05B
:20192000F0BD00BFB8010010282008602820084014000040C401001020000040006CDC025F
:20194000B40100100400004010B5174B4FF480701B681B6A9847154B0121154A1960136868
:201960009B07FCD5134C082023689B6B984723684FF400519B6908209847236809209B6B19
:20198000984723684FF400519B690920984723680A209B6B984723684FF400519B690A2056
:2019A000BDE81040184700BFB80100102820086028200840B401001010B5064C0420236880
:2019C0005B699847236804205B6B98470128F9D110BD00BFB8010010F8B51A4A0020002176
:2019E000C2E90001184B04201B685B6B9847012801D0FFF7E1FF144B00201B68DB69984797
:201A0000124B0121124A196013689B07FCD5114A11491368096823F4807323F001030F4C67
:201A200013600B6820460E49984740F221200D4D0D490E4B04273126012227602E60086086
:201A40001A60F8BD80060020B801001028200860282008400C000140C80100100000014041
:201A6000002100043C000140080001400400244310B40949094C0B68226808688342FAD1A8
:201A8000DB01074903EB52620023C1E9002310BCD1E90001704700BF082009400C200940A5
:201AA0008006002010B50B490B4C0B68226808688342FAD1DB01094903EB52620023C1E976
:201AC000002302F049FC00B910BDBDE8104002F015BC00BF082009400C2009408006002023
:201AE00010B507F031FA034B1C6808B907F030FA204610BD082009402DE9F04107F024FA4B
:201B00001D4E1E4B1E4F32680124002580464FF480314FF480703D601C601860196013682E
:201B2000284623219847336820461B6824219847336825211B6802209847124A12491368D5
:201B400043F4E02313600D6007F088FA0F4B1049104A1B6800F50070086014603C601B6901
:201B600014209847B8F1000F01D0BDE8F081BDE8F04107F0EDB900BF84010010042009407F
:201B8000000024430020094008200940B00100101C200940A0022443431E012B10B419D972
:201BA000042801D010BC704700231A4610F004001CBF0E4C216013B10D4B0121196012B1EE
:201BC0000C4B01221A600028ECD00B4B01221A6010BC704710F0010302D0084A01231160FA
:201BE00010F00202E2D0064C2160DFE72020094080022443A0022443C00224431820094071
:201C00001C200940014B1868704700BF0808002008B508F05DFE184B1860FFF743FF174B48
:201C20001B686BB9164B1B68E3B9164B1B6833B11549164B00204FF4803208601A6008BD3A
:201C4000124B4FF480721A6007F008FA00F205200F4B20F4FF7020F001001860084B1B682C
:201C6000002BE2D00B49094B0020012208601A6002F02CFDD9E700BF08080020A0002443E9
:201C800080002443C0002443C0022443042009401C2009408002244303490448044B012228
:201CA00008601A60704700BF00000840FFFF0F00000C0840F8B507F047F9124AB0FA80F0C9
:201CC0001368012B0BD0104C104D1149114A0123400925600B601360C3070FD4F8BD0E4F85
:201CE000094D0A4E0A4C0B49400940F0020017602E6023600B601360C307EFD5BDE8F84040
:201D000007F026B9000C084000000840FFFF0F000C0008400401004351E5CC1A03490448F4
:201D2000044B012208601A60704700BF00000840FFFF0F000C00084010B50446C0B200F0BF
:201D40007DF9204610BD00BF70B506460024451E04E015F8010F00F071F9013430460CF021
:201D6000A7F9A042F5D80A2000F068F900F07AF90128FBD0204670BD70B50446B0B1007867
:201D8000C0B1A9B10025661804E014F8010F38B1B44205D000F052F9631C05F10105F4D1A6
:201DA00000F060F90128FBD0284670BD0546F7E70D46F5E70546F3E710B40B4B0B4C13F852
:201DC000012FFF2A0DD1A342F9D1094A39B11144013801390B78914200F8013FF9D110BCF4
:201DE0007047044AF2E700BFC7FF0100CFFF0100F0120050C8FF010038B50C4D02202B689B
:201E00005B6998472B6802205B6B984701280446064BF7D11B684FF40070DB699847044B91
:201E2000044A1C6013689B07FCD538BDB801001028200860282008402DE9F04340F2F2750A
:201E4000DFF8DC8083B0FFF7D7FFD8F800302A4EDB682A4898473368294C5B69152098475C
:201E60002368DFF8C090274F23F4FE63D9F8002023F0020323603D60D36B032098472249EE
:201E8000D9F800300820122208600092D3F840900322132302211948C847D8F800206023EF
:201EA000D2F8048019494FF4E1321448C04740F2011240F2013E1649164B14200860196826
:201EC000154841F01001196003681449002B0CBF134673460B603D60036853B1236832687E
:201EE00043F0500323601369152003B0BDE8F043184703B0BDE8F083B00100100010004062
:201F0000381000404410004090200240006CDC02341000402C1000400C08002030100040B5
:201F2000D0010010B401001008B5064B02201B685B6B9847012803BF034B186800F00100F9
:201F4000002008BDB80100106C20084038B50446FFF7EAFF18B1254A13681907FCD4032C17
:201F600003D0234B1B6803B138BDFFF7DDFFE0B9204D4FF400702B681B6A9847032C2AD049
:201F80001D4B01211D4A196013689B07FCD5032000F0BCFA022000F0B9FA132000F0B6FA88
:201FA000BDE83840122000F0B1BA154B15481B68DB689847144B15201B685B69984740F229
:201FC000F270124A1249136823F4FE6323F0020313600860CCE72B684FF400709B6A984725
:201FE0002B684FF400701B6B9847C9E7181000400C080020B80100102820086028200840E1
:20200000D001001000100040B0010010381000404410004010B506F097FF0446054800F0DA
:2020200059FA054B00221A6004B110BDBDE8104006F08EBF780400200C08002010B50446C8
:20204000FFF772FF08B9FFF7F7FE044B2146BDE810401B680248DB69184700BFD0010010B2
:202060000010004008B5FFF75FFF18B1024B1868C0F3C00008BD00BF1810004038B5FFF727
:20208000BBFE40F2F2710C4B0C4A1B68116013F0500F10D00A4C0B4D05E02B681B69984786
:2020A000094B1B6823B923680848DB06F5D538BDC0B29847F7E738BD4010004044100040AA
:2020C00018100040D00100100C080020001000402DE9F04740234FF0000882B00F46164659
:2020E000CDF800800193054606F02EFF494A4A4BC2F80080444601204FF480714FF4803263
:20210000DFF85881186019601A60D8F8003020463F211B6801349847042CF6D1DFF83C81BC
:202120000024D8F8003020463F219B6801349847032CF6D1394B1B68FFF7F0FD384802F04C
:2021400065FB044630B1A368032003B198472468002CF8D16B1C0CD0324BAA0013430021B1
:20216000314A1960136846F000523A4328461B6898472E4EDFF8E89000243368C9F8004090
:202180009B6907209847684608F0B8FB00F08CFA00F03AFA264827490368326823F0030346
:2021A00003600B68244D23F00F030B609369382098472C60012008F0C1FBDFF8A8A01F482E
:2021C0001F4A4FF001081F491F4B2C60134FCAF80040C0F8008014601C4A0C60C9F800400D
:2021E0001C603B681A491368096823F0030313604B68184803219847174A33682C60CAF885
:202200000040C2F800809B6B3A68984702B0BDE8F08700BF00002443042009402C200940C7
:2022200010080020001A4442B4010010B80100100010094008100940401009408801044315
:2022400040012243440122430800094024220840D8010010004003401810094084010010DD
:202260000C40094020042243034A136823F00403136030BF704700BF10ED00E070B506F08E
:2022800063FE02F0C9F918B1BDE8704006F060BE804802F0BBFA0225044648B1636823B17F
:2022A0009847A84228BF2846C5B22468002CF5D108F00EFB784B04461B68002B40F0898016
:2022C00002F04AF8002840F0B2800346012D00F09380022DD8D1002840F0C780611E284662
:2022E000FFF75AFC6B4802F091FA0625044600287BD0A368022003B198472369246825EA93
:202300000305002CF5D1FFF709FD6B0705F006046ED4002C40F0A38000F0C6F9002008F0CE
:202320000DFB5E495E4A0B685E4823F003030B601368016843F00F0313608B6939209847E1
:20234000594A5A4900231360184613600B6006F09BFB062C00F08E80554C564D564E2B682E
:202360002368326823F00303236053680321534898474C4B1B689B6B98472B6806F0B2FC0D
:202380004F4A3368002111604C485B680121984723684C4A012143F00303236011602B681C
:2023A00006F0D8FC08F096FAFFF77CFBFFF7B6FC384802F02BFA044628B1E36803B198471E
:2023C0002468002CF9D106F0C3FDBDE8704006F0BFBD3D4B1B681B1A022B3BD4A3F28F233B
:2023E000002BBFF66DAF012335E0FFF797FC0624344B00221A608CE7002842D06FF00702C5
:20240000121BDA423AD404F58031CA1A11EA220138BF19460220FFF7BFFB2C4A136823F08D
:202420000403136030BFBDE8704006F091BD01F09BFF0646FFF71CFB361A002E7FF724AFEF
:20244000FFF7E0FB224A00EB4623121BDA421BD401203BE700239D4228BF1D4630E7114BB1
:2024600020461B689B69984756E719462846FFF793FB37E7022006F04FFD6DE704F108012E
:20248000C8E704F58031C5E7022DB7D0012D7FF4FBAEB3E710080020800224430010094023
:2024A00008100940B80100104010094020042243242208402C200940D80100100040034041
:2024C000800104430C4009401820094010ED00E071FDFFFF0146014802F09AB910080020C8
:2024E0000146014802F0E6B91008002010B5054802F088F9BDE81040034B20211B680320D4
:202500001B6818471008002084010010431C0ED010B50446064B4FF4C0421B6800211B6803
:202520009847044AA3001A430023136010BD7047B4010010001A444238B504460D4606F06F
:2025400003FD01230549064AA3400B6042F8245000B138BDBDE8384006F0FABCE02002400C
:2025600014080020064B002103F1800243F8041F9342FBD1034B10201B681B69184700BF95
:2025800010080020B0010010F8B5094B094F1D6800241D60012606FA04F32B42E0B203D0D3
:2025A00057F8243003B198470134202CF3D1F8BDE02002401408002000B585B000224123FD
:2025C00002A80292039308F099F9042006F080FD032810D00321042006F052FD042006F054
:2025E00077FD0328FAD100901C234FF040520021044806F0E7FC02A808F0D6F905B05DF810
:2026000004FB00BF00A00C4000B583B00022412368468DE80C0008F071F9042006F058FDA2
:20262000022808D00221042006F02AFD042006F04FFD0228FAD1684608F0B6F903B05DF87C
:2026400004FB00BF00B583B00022412368468DE80C0008F053F9012006F03AFD012803D091
:202660000121032006F00CFD684608F09DF903B05DF804FB00B583B00022412368468DE842
:202680000C0008F03BF9012006F022FD012803D0044B986B06F02AFC684608F085F903B08B
:2026A0005DF804FB4800001010B582B04123684600240193009408F021F90320214606F087
:2026C000DFFC012006F004FD18B1044B986B06F00DFC684608F068F902B010BD480000100F
:2026E00008B508F0A1F930B1044B5B88022B14BF0220012008BD022008BD00BFD0080020D2
:2027000070B582B008F090F940B901A9134808F093F901280AD0002002B070BD0F4C638817
:20272000022B08BF0120F0D102B070BD08F0D0F86FF03F05094C2D1A03E008F0C9F8C54242
:2027400009D56088054E0228F7D1A0F10200B0FA80F04009E8E77088F7E700BFD00800201C
:2027600008B5B32994BF0A46B422014602480BF077FB002008BD00BF5209002070B50546BA
:2027800006F0E2FB04462DB1124A134B12681A6094B170BD0F4B104D1E68002116F18040F9
:2027A0002A684FF0000341F10001994208BF904206D32E60002CECD1BDE8704006F0C8BB80
:2027C00008F086F8054A064913680860013313602E60EFE70430044094080020CC080020CF
:2027E000380B002030B589B002A840F60202182108F060FB164B9DF81A201B689DF81B4045
:202800001979144D61F3050211468DF81A205A7902A862F387118DF81A109A7901A901235A
:2028200062F347048DF81B4007958DF8163008F003F9012802D0002009B030BD02A808F05A
:2028400045F9A0F10100B0FA80F0400909B030BD8C040020A404002008B5FFF7C3FF012889
:2028600001D0002008BDFFF74BFFC0B208BD00BF70B50E4D0E4E2C68002006E02379022B2D
:2028800006D024682B689C420ED02379032BF5D133780120002BF4D1064801F0F3FE24687F
:2028A0002B6801209C42F0D170BD00BFC008002093280020D805002010B582B008F0F4FA3C
:2028C000044608F0B1F808B902B010BD01A9084808F0B2F80128F7D1638803F44063002B90
:2028E000F2D1638803F44063002BF5D0ECE700BF010001040B2807D00C2801D00120704721
:20290000042A11D002207047082AFBD10029F9D0094B0139A3F1080013F8012D834201F8BE
:20292000012FF9D1002070470029EBD0034B00201B680B60704700BF000900205C0C00205F
:2029400042F2034310B584B0002402A801A902940394ADF8083008F06FF820B19DF90A3082
:20296000803302D0204604B010BD9DF80C0000F00C00A0F10400B0FA80F0400904B010BDD5
:2029800010B582B008F050F820B3144C6388022B03D01FE0FFF7D4FF18B108F045F80028F4
:2029A000F8D101A90E4808F047F802E06388022B03D108F039F80028F8D142F202426388CC
:2029C000934207D042F20740181AB0FA80F0400902B010BD012002B010BD00BFD008002065
:2029E0000100010430B585B008F01EF8B8B10D4B5B88022B13D142F20345002401A902A800
:202A000002940394ADF8085008F016F838B19DF80A305B06F2D09DF80C0005B030BDFF2049
:202A200005B030BDD00800200B2801D001207047082A01D0022070470029FBD008B50C4B3C
:202A4000083103F1080011F8012D03F8012F8342F9D107F0E9FF50B1064B5B88022B05D139
:202A6000FFF78EFFFFF74CFE032008BD002008BDF7080020D008002008B508F071FA012866
:202A800014D007F0D1FF88B1094B5B88022B0DD107F0CAFF30B9FFF7A5FFFF2806D0C0F31D
:202AA000801008BDFFF74CFF0028F4D0002008BDD008002008B502E0FFF742FF18B107F021
:202AC000B3FF0028F8D1FFF75BFF08F0E3F8FFF7EBFD0E4B0E48197900220229428012D020
:202AE0000C4B1A79022A04BF00221A710A4B1A79022A04BF00221A71084B1A79022A04BFF7
:202B000000221A7108BD1A71EAE700BF180A0020D0080020A80A0020CC0B00203C0B0020BE
:202B200008B508F01DFA012801D0FFF7C3FF012008BD00BFF8B508F013FA012830D0FFF7A1
:202B400081FD07F071FF38BB1E4A1F481F49204B92F805E047794E795D79012464F3830E22
:202B600064F3830764F3830664F38305882482F805E0106047710160C480D480CC804E717E
:202B80000B601A60DC805D71FFF774FD08F014F9012807D00020F8BD0E4B5B88022BD3D1D8
:202BA0000120F8BD0C4B1878003018BF012008F021F9FFF717FE0128ECD1BDE8F840FFF75A
:202BC0009FBD00BF180A0020A80A0020CC0B00203C0B0020D00800209328002070B584B03C
:202BE000072800F2B380DFE800F01E61262F325C6B04574C217707F017FF10B36388022BD6
:202C00001FD1FFF7BDFE012814BF0324002408F0E1F80020FFF7B2FDFFF772FD01287DD05B
:202C2000032004B070BD012900F08480002977D0022004B070BD464C618607F0F5FE002874
:202C4000DCD1002004B070BD414C2186D3E731F00702EDD13E4C3F48237EC1F3400561F3F1
:202C60000003DBB243F00203067865F38203657EC1F3800103F0870362F3C71362F3C7153C
:202C80008E42657623760170B5D1334B228B184603A95A8007F0D0FE002814BF00200320E7
:202CA000BFE731F00103C3D1C8B2BAE7A1F10B030F2BBDD8264CA37B9942C2D0A1739AE799
:202CC00001F115031A2BB3D8244A6FF014030C2401E052F83430994232DD14F1FF34F8D28B
:202CE00007F0A2FE00289CD04FF000021B4B102503EBC40423796079A17903F03F0360F300
:202D0000871361F3470203A802A98DF80E308DF80F20ADF80C5007F08FFE92E7204680E7E4
:202D2000019108F01DF901288BD0FFF7C3FE0199084676E7FFF7FEFE01287FF471AF80E75E
:202D4000064B074A03EBC4031360C9E7012068E7D008002093280020B8080020FCE30000F7
:202D60008C04002081B130B50C4683B0102800F28580DFE800F05C57524D6C694741282228
:202D80001D83831915100B000220704705230B60002003B030BD6FF014030B600020F8E7BB
:202DA0001A230B600020F4E70B230B600020F0E7474B00201B780B60EBE7464B00201B781A
:202DC0005BB20B60E5E707F02FFE002858D0424B5B88022B54D140F203430022694601A887
:202DE0000192ADF8043007F027FE01286CD06FF07F0323600320CCE7374B002093F91C3032
:202E00000B60C6E7354B00201B681B680B60C0E7314B00201B8E0B60BBE72F4B00205B8E0D
:202E20000B60B6E72C4B00209B7B0B60B1E707F0FBFD30B1284B5888A0F10200B0FA80F00A
:202E4000400920600020A4E700200860A1E70023214A0B60137E03F001030B60127E520719
:202E600044BF43F002030B601D4B1B78002B9DD00B68002043F004030B608AE7012088E7E0
:202E8000FFF758FE0128B2D140F203430022694601A80192ADF8043007F0CEFD01280CD015
:202EA00008F05EF80128A2D06FF07F05FFF702FE256080357FF47AAF9CE79DF9025008F017
:202EC0004FF80128F2D1F3E79DF90250F0E700BF9228002091280020D00800208C0400200C
:202EE0009328002070B588B0054607F09DFD002851D03E4B5B88022B08BF00264BD107F0DC
:202F0000E7FC6FF01F04241A07E0FFF719FD012848D107F0DDFCC44246D507F085FD002847
:202F2000F3D102A842F60142182107F0C3FF304C304B0022EDB28DF817502178069304924A
:202F40009DF81430891A18BF012162F3030301208DF8143007F088FF02A801A907F06CFD85
:202F600030B3207801E0002835D0BDF80A3003F44063002BF7D0BDF80A40A4B2B4F51054EB
:202F800018BF0124003018BF012007F081FFC6B9204608B070BDFFF7CDFD012819D00120D9
:202FA00008B070BD0028BCD0C6B9022008B070BD20780124003018BF012007F069FF002E80
:202FC000E6D007F0CDFF0128E2D0FFF773FD2046E6E7064693E7FFF747F9C2E707F0C0FFA9
:202FE0000128E2D0FFF766FDDFE700BFD0080020932800205209002010B50C46B32998BF80
:203000002246014688BFB42203480AF029FF2046BDE81040FFF766BF5209002010B507F0CA
:203020009FFF012824D007F0FFFCB0B11B4B5B88022B03D011E0FFF783FC18B107F0F4FC23
:203040000028F8D1FFF7CEFCFF2811D000F0030010F1FF3018BF012010BDFFF76BFD012848
:20306000044607D007F07CFF012801D0FFF722FD012010BDFFF7B6FCFF2805D000F0030029
:2030800010F1FF3418BF012407F06AFF012803D0FFF710FD204610BD204610BDD008002043
:2030A0002DE9F0434B4D83B080460F462E6807F0BBFC30B1484B5B88022B02D10020FFF730
:2030C0005DFB07F005FC454C241A03E007F000FCC44208D53379022BF8D0032B06D0002053
:2030E00003B0BDE8F0833379032BF8D12E68394A337A032B07D996F808905FFA89F9A9F1F3
:203100000804BC4207DD3368002013603071307203B0BDE8F0834046224606F109010AF09C
:203120009FFE09F10302B35C09F1050956F809002B4F5BB23B700190B35CDDF80480294EE3
:20314000294A03F07F03B8F1404F3370D2F800900BD907F0BDFB254B1B68C3F17E4303F55F
:203160007203C34248BF09F1FF39DFF88CE06FF4BF70DEF800E010EB08004FF0FF3141F16D
:2031800000010022B0EB0E0061EBEE71121849EB0103190241EA12611002002343F60952D4
:2031A0000AF096FC124B134A1B7810603BB12B6800221968204629601A721A7190E7397876
:2031C000042049B289B206F089FB3178032006F085FBECE7C8080020D0080020FAFEFFFF28
:2031E0009128002092280020CC080020380B0020932800205C0C0020B020002010B507F0B6
:2032000013FC78B10E4B5B88022B0BD10020FFF7B5FABDE8104000230A4A4FF487310A48B3
:2032200000F05EBFFFF786FC0128F2D10020FFF7A5FA07F095FE0128EBD0FFF73BFCE8E7FE
:20324000D0080020FD31000098080020F8B5304F3048FFF73FF907F093FD384690220021DE
:203260000AF0D8FE902200212B480AF0D3FE902200212A482A4C0AF0CDFE902200212948A9
:203280000AF0C8FE284E294B00252946802220461F60376075600AF0BDFE42F6010E42F2CD
:2032A0000200072202236376227621491922214B278B2661A273B9266F22E6736161E2760B
:2032C000FF210122A626A4F800E026775F801971A176627384F837201880FFF72BFC0128C0
:2032E00002D02C462046F8BD0446134807F0F0FD2046FFF743FA2B46104A4FF4873110482F
:2033000000F0EEFE29460F4801F0F4F82046F8BD180A002090040020A80A0020CC0B002054
:20332000D00800203C0B0020C0080020C8080020080A0020B80800209CE40000FD31000096
:2033400098080020D805002008B500F08BF880B208BD00BF00F010B938B50C4D04202B6814
:203360005B6998472B6804205B6B984701280446064BF7D11B6840F20140DB699847044B5A
:20338000044A1C6013689B07FCD538BDB80100102820086028200840034B1B68002B14BFA8
:2033A00001200220704700BF600C0020F8B503880446002B2ED0B3F5847F05D1184B1B78A6
:2033C0008B4205D00120F8BD002303800320F8BD144D2B6873B1144B144A1B6812685B6862
:2033E0000220174698470026301847F100012B6898472E600E4B40F201401B689B6A984795
:203400000C4B01210C4A196013689B07FCD50B48FFF766F84FF4847323800120F8BD00BF5D
:2034200076060020600C0020CC01001004800240B80100102820086028200840D0040020C4
:2034400008B5064B04201B685B6B9847012803BF034B1868C0F34000002008BDB8010010B8
:203460003C20084070B5274B1B689BB1264C0023224612F8011B29B90133042BF9D10020F0
:20348000014670BD214A002502EBC302E55492E8030070BDFFF7D4FF00282FD01C4A1D4BD5
:2034A0001268134073B91C4A0121134611601A68002AFCD110464FF4807105F04DFD174B1D
:2034C00001221A6005F040FD0646114A1368DB07FCD5134B134A1B6814685B6802209847CA
:2034E00023460022141843F1000516B12046294670BD05F02DFD2046294670BDFFF72CFFD1
:20350000CCE700BF600C0020640C0020880600200880024001000080F09F0240A802504217
:20352000CC0100100480024038B50E4D00240E4A2C6013680D4923F00103096813604B6918
:2035400031209847224620464FF4807105F004FD0122074B2A6019782246BDE838400548E1
:2035600001F064B8A80250420C800240B001001076060020E404002010B5074C2378802B71
:2035800000D010BD00F0AEFF207000210348BDE8104000F0AFBF00BF76060020E40400203F
:2035A0000AB90020704708B508461146FEF7E4FB002008BD0FB400B583B004AB53F8041B92
:2035C00004481A46019300F04BF803B05DF804EB04B07047F404002038B504461546006804
:2035E0000AF03EFC236800201D44256038BD00BF0EB430B586B009AB53F8041B084D019071
:203600001A4601AC04A803930495059400F028F8019B00221A7006B0BDE8304003B070479C
:20362000D9350000102970B50C46054602D80AE0102C0BD92B681022084968689847103C8C
:203640000028F5D070BD08460029FBD022462B6868680249BDE87040184700BFC0E40000E1
:203660002DE9F04F834688468FB001924FF0000998F80030002B00F0E380252B08BF454664
:203680001DD0444603E0252B00F045812C466378651C002BF7D1454500F0D280C8EB05067F
:2036A00041463246DBF80030DBF804009847002840F03D826378B144002B00F0C1806B782C
:2036C00005F10108002B00F0BB800025A3F12002102A1BD8DFE802F0171A1A141A1A1A1A0D
:2036E0001A1A1A111A0E1A1A090045F0100518F8013FEBE745F00105F9E745F00605F6E762
:2037000045F00805F3E745F00205F0E7A3F13102082A00F2D580002404EB840403EB440469
:2037200018F8013F303CA3F13002092AF4D92E2B00F0CE804FF0FF366C2B00F0E280682B80
:2037400000F04481782B00F28180DFE813F079007F007F007F007F007F007F007F007F00E3
:203760007F007F007F007F007F007F007F007F007F007F007F007F007F007F007F007F0059
:203780007F007F007F007F007F007F007F007F007F007F007F007F00E2027F007F007F00D4
:2037A0007F007F007F007F007F007F007F007F007F007F007F007F007F007F007F007F0019
:2037C0007F007F007F007F007F007F007F007F00DF027F007F007F00DC02D902D6027F0083
:2037E0007F007F007F007F007F007F007F007F007F007F007F007F007F007F007F00D30283
:203800007F007F007F007F007F007F007F007F00D0027F00CD02CA02C702C402C1027F00F3
:20382000CA027F007F007F007F00BE02BB027D007F007F00B8027F00B5027F007F00B20226
:2038400048460FB0BDE8F08F45F4407505F4E063B3F5806F08F1010800F06E815FD9B3F575
:20386000C06F00F0A181B3F5E06F00F09681B3F5A06F7FF4FDAE019A012C136888BF04F1B5
:20388000FF3402F104028DF8203098BF0024EB07019200F1F38121465846FFF7C3FE0028DE
:2038A00040F045810122DBF8003008A9DBF8040009EB02059847002840F03981254497E197
:2038C0002A2B00F08D802E2B4FF000047FF432AF98F8013008F10101A3F13002092A00F2FF
:2038E0008D808846002606EB860603EB460618F8013F303EA3F13002092AF4D96C2B7FF482
:203900001EAF98F801306C2B00F05A8108F1010845F0600516E745457FF4C0AECFE6B3F556
:20392000807F70D0B3F5407F7FF4A2AE0198B24B15F4804FB14F18BF1F460346016804338B
:2039400001930A460023002900F0AB810DF1330E7046110941EA03714FEA131C02F00F06FE
:2039600063460A46B95D00F8011D52EA0301F0D1BEEB000600F097810336B4424FF0780381
:203980004FF0300200F8013C00F8022C4FF023038CBFA41B0024EA0700F8033CA0F1030705
:2039A00000F1BA8121465846FFF73CFE002840F0BE803946DBF800303246DBF80400984760
:2039C000002840F0B48009EB060511E198F80130682B00F0B58108F1010845F04005B1E6DD
:2039E000019A08F10108134614680433002C0193B8BF45F0010598F8003098E62A2B00F029
:203A0000A681884696E6002EABBF25F0100501230596059315F40053049305F0E00300F061
:203A2000F580402B00F0A88200F29B81002B00F06182202B40F08A82019991F90020043180
:203A4000D3170191002A73F10001C0F25F82CDE902230023069305F4C053B3F5805F00F0AE
:203A6000F080B3F5C05F00F0CC81B3F5006F00F0ED810DF1360A002741F60803059941F2E5
:203A800008028F4203EA050380F08E819342A1EB070600F0518241F60802934207EB060197
:203AA00000F08D8100231A460293049B83B1069B002B40F0928105F00603022B00F053821E
:203AC0004F48062B08BF0246029B08BF01230293029B0B449C428CBFE41A002415F00103B2
:203AE000049304D1E80640F11D8226441C46029838B11146DBF800300246DBF804009847F5
:203B0000A8B9102E07EB090540F2C381B14603E0B9F1100F40F2BF81DBF8003010223949C4
:203B2000DBF804009847A9F110090028F0D04FF0FF300FB0BDE8F08F019A1346D2F800A085
:203B400004330193BAF1000F00F0E8819AF8007037B1574617F8013F002BFBD1CAEB0707F7
:203B6000002E02DBB74228BF3746BC428CBFE41B0024E9072BD421465846FFF753FD00280F
:203B8000D5D15146DBF800303A46DBF8040098470028CCD107EB09052AE0019A1368043294
:203BA0000192C3F8009063E5DBF8003001221649DBF8040098470028B9D109F1010957E5B2
:203BC00098F8023045F0800508F10208BAE55146DBF800303A46DBF8040098470028A6D158
:203BE0002146584607EB0905FFF71CFD00289ED104EB05093CE500BFE0E40000F4E40000A1
:203C000018E50000D0E4000024E50000402B00F0AE8100F2B680002B00F06181202B40F0C0
:203C2000E080049A019906920A780023CDE902230B460433019305F4C053B3F5805F7FF4B2
:203C400010AFDDE90223134300F09D810DF1360307939A46DDE90223D00840EA4370DE081F
:203C600002F007013346024630310AF8011D52EA0301F1D1079BCAEB0307FDE6DBF80030BF
:203C8000012208A9DBF80400984700287FF44FAF2146584609F10105FFF7C4FC0028A7D0A7
:203CA00045E70DF13300302300F8013C0426013863E645F4C855C9E545F41065C6E545F4DD
:203CC0008065C3E545F48855C0E545F4E065BDE545F48135BAE545F40075B7E545F4024524
:203CE000B4E545F42455B1E545F4A065AEE545F4C135ABE545F4B245A8E545F4A135A5E5FD
:203D000045F48445A2E545F442459FE545F4E1359CE545F4C06599E53946DBF80030324630
:203D2000DBF80400984700287FF401AF2146584609EB0605FFF776FC00283FF459AFF6E6D7
:203D400098F8023045F0200508F10208FAE4019998F802300A4604320E68019208F1020878
:203D6000EAE4602B00F0C680802B40F0EF80019B073323F0070303F108020192D3E9002307
:203D800060E6602B00F0AB80802B2AD1049B0693019B073323F0070303F108020192D3E919
:203DA0000023CDE9022356E6934200F0CD8041F608020026934207EB06017FF473AEDDE928
:203DC000022313433FF46EAE744B15F4804F744A18BF1A460223029367E601230293714A12
:203DE00076E605F4C053B3F5805F00F0D080B3F5C05F40F0AE8000230022CDE9022300232C
:203E00000693694B15F4804FDDE90201674E024618BF1E460B46134300F0B5800DF1360379
:203E200007939A4602460B46110941EA03711F0902F00F003B460A46315C0AF8011D52EAD3
:203E40000301F1D1079BCAEB030715E6DDE9026732463B46134300F096800DF136039A46A5
:203E60000793304639460A22002309F031FE3032304639460AF8012D00230A2209F028FE47
:203E800006460F4656EA0703EBD1079BCAEB0307F2E556B1B1464A46DBF800304449DBF852
:203EA0000400984700287FF442AE3A46029F51462F44DBF80030DBF804003D469847002805
:203EC0007FF435AE049B3544002B3FF491AE21465846FFF7A7FB00283FF48AAE27E6019AFF
:203EE000136804321946049B01920022CDE902120693B0E501990B460A6804330193002A14
:203F00004FEAE27373F10001BFF6A1AD524263EB4303CDE90223012306939CE5DFF898A05B
:203F200006271DE6214658460592FFF77BFB059A00283FF4DCADFAE5002E08BF01260023A8
:203F400002931A46B919B0E50126F8E7002200237DE5002306931F4600220023CDE9022317
:203F60000DF1360A88E50123124A0293B0E5049A019906920A8858E60199B1F900200431B3
:203F8000D31701915EE500270DF1360A74E500230022CDE902230023069352E608E50000A3
:203FA0000CE5000010E50000E0E40000F4E40000D0E4000014E500001CE5000010B50446C2
:203FC000006830B1002100F095FA54F8040F0028F8D110BD704700BFF0B5038883B00546B7
:203FE0005BB14A2B04D188291BD0012003B0F0BD00230380032003B0F0BD194800F006FCD2
:20400000044630B1A168201D00F07EF92468002CF8D1144B01221A704A2301202B8003B04F
:20402000F0BD0F48019200F0F1FB04460028F3D0019A031D9A4205D02468231D002CEBD0B9
:204040009A42F9D12146064800F034FC064E6269A369376832600BB1E06998473760DBE74C
:20406000680C002094280020740C002010B5064B002406481C7000F0C5FB2146BDE8104010
:20408000034800F037BA00BF94280020680C0020FC04002070B504460D48049D0078A261C5
:2040A000E361656130B9A1600A482146BDE8704000F0AEBB084D094B2E68201D2B6000F0AE
:2040C00023F92E602146BDE87040024800F0A0BB94280020680C0020740C0020FC040020B5
:2040E00010B5044C82B024680094FFF7D3FF02B010BD00BF740C002070B5094B04461B785D
:204100003BB1084D084B2E6804302B6000F006F92E602146BDE87040044800F079BB00BF4E
:2041200094280020740C0020FC040020680C002070B5094B04461B783BB1084D084B2E68CF
:2041400004302B6000F0F4F82E602146BDE87040044800F05DBB00BF94280020740C0020EB
:20416000FC040020680C002010B50A4B04461B783BB9C36003612146BDE81040064800F07F
:2041800099BB043000F0FAF82146BDE81040024800F090BB94280020680C002010B50E4C45
:2041A0002368B3B1FDF764FC226892E80A0092680B44191A4AB114685368926823441B1A6A
:2041C000994228BF1946002AF5D1044B0144196010BD024A136010BD6C0C0020700C002034
:2041E0002DE9F041038805467BB1592B08D1872912D0822920D059232B800120BDE8F0818E
:20420000002303800320BDE8F081254A0120136059232B80BDE8F081214F39680029EAD08B
:20422000CB689A4203D024E0CB689A4220D189680029F9D13960DEE7194F4FF000083C6803
:20424000002CD8D0002604E0A3682646002BD2D01C46204600F062FA0028F5D0224688212A
:20426000E06800F0E3F978B10E4800F00BFAEBE739608B68002BBED0D86882420BBF9B68CE
:2042800019468B609B68F5E7E060A3682EB1B360C4F80880FFF782FFD1E73B60F8E700BF0C
:2042A0006C0C00200C05002010B50446104800F0E9F91049E3680A684BB142B194420FD042
:2042C000134601E09C420BD09B68002BFAD10A4BA2601B680C60E360BDE81040FFF75EBF61
:2042E000054B1B68E360BDE81040FFF757BF00BF0C0500206C0C0020740C0020014800F046
:20430000C1B900BF0C05002010B5044600F0F2F92046BDE81040FFF7C7BF00BF10B50446A4
:2043200000F0F0F92046BDE81040FFF7BDBF00BF10B5044600F0ECF92046BDE81040FFF7E3
:20434000B3BF00BFC068B0FA80F04009704700BF05C81044704700BF024B1868003018BFC0
:20436000012070476C0C0020024B186808B1024B186870476C0C0020700C002010B50F4B70
:2043800004461A68824213D072B19368984208BF134605D043B19A68944201D01346F9E7E7
:2043A000A2689A60FFF7FAFE0023A360E36010BD82681A60FFF7F2FEF6E700BF6C0C002057
:2043C0002DE9F843DFF8A480274DD8F800702E68874247D077B33B4601E0002B3BD01B6822
:2043E0009842FAD133B3837B8946044623B3002383736FB1BC424FF0870106D0BB7BDB0759
:2044000003D52246384600F033F83F68002FF1D1A3683BB14C4505D02C600022832104F187
:204420000C009847D8F80000844208D12368C8F800302E60BDE8F88338468442F6D00028C7
:20444000F7D003689C4208D0002BF2D01A68944204D01346F8E7BDE8F883034622681A60B6
:204460002E60E7E73B46BDE7740C0020780C002070B586687EB104460A4802230460A373FA
:2044800004F10C000D46B0470238012804D9832D02D00123A37370BD21462046BDE8704086
:2044A000FFF78EBF740C002070B50C4A0C4B146800251D7084B1012601E0246864B1E37BDD
:2044C000002BFAD0A673E573204600228221FFF7CFFF2468002CF2D170BD00BF780C00207C
:2044E00097280020024B1878421C1A70704700BF9828002070B50F4D2C68844206D034B12C
:20450000234600E01BB11B689842FBD170BD0028FCD00346084E04600A463468012000210B
:2045200098739981184681212B60FFF7A1FF346070BD00BF780C0020740C002070B40748FE
:204540000749084A0023084D084C8A2603700B6013602E70237070BC704700BF962800203B
:20456000780C0020740C002098280020952800202DE9F041234D2B780BB1FFF795FF224E2A
:204580003378BBB12148224F0278013B02EB4201890001327C1802F01F020270A068DBB2DA
:2045A00033707F5CD4F8048098B1812F06D0827BD20705D428781844BDE8F0810123837383
:2045C00042463946FFF754FF337828781844BDE8F081104A146834B9ECE7A37BD9070AD45C
:2045E0002468002CF0D02B78002BF6D0FFF75CFFA37BD907F4D5424639462046FFF738FFFD
:20460000EEE700BF9728002096280020952800207C0C0020780C0020024A034B10781B786B
:20462000184470479628002097280020F0B40C4D2C78202C11D00B4B0B4E1B78671C2344B0
:2046400003F01F0303EB43039B00F418A06062602F70F1540020F0BC70470120F0BC7047BD
:2046600096280020952800207C0C002038B5837B034CDB07256801D5FFF7FAFE256038BDF0
:20468000740C002038B1837B013B012B03D8024A01231370C37370479728002006F012B9D0
:2046A00038B5094C049D226822B180E82A002060002038BD024680E82A000846226006F0F3
:2046C00003F9002038BD00BFFC0D002010B5084C206858B100224368816822609847236895
:2046E00023B1BDE81040186806F0EEB810BD00BFFC0D002010B541600446FDF7B9F920604A
:2047000010BD00BF90E80C0013440360704700BF10B50446FDF7ACF9206010BD10B5044655
:20472000FDF7A6F923686268C3F101031844904294BF0020012010BDF8B504880546672C33
:204740000BD0792C04D0CCB1002303800320F8BD85291AD11D4C002323601C4C264604E0AA
:204760000A2814D023687E2B2ADD194800F03EF9431CF5D167232B800120F8BDFFF7B2FE8A
:20478000144A124B10701C60E7E70120F8BD0F4C114F23680F4A581C0026117820603A46FC
:2047A0003046FE54FFF742FF0C4B324618688521FFF73CFF0028CED179232B800120F8BDF0
:2047C00005495A1CC8543260CFE700BF800E0020840E0020F13000208C0E0020740C0020F7
:2047E00008B505490548802200F0F8F8BDE8084000210348FFF77EBE000E0020840E002074
:204800001C05002000230360704700BF0068704710B404685CB1A14223D023680BB906E0F4
:20482000134699420FD01A681C46002AF8D100230B6002680AB910E01A461368002BFBD111
:20484000116010BC70475CB10A68226000221A6000230B600268002AEFD1016010BC704701
:204860000C46226823460260F0E700BF30B4056865B1A94219D02B682C460BB906E01346B8
:20488000994207D01A681C46002AF8D10D60016030BC704744B10A68226000221A6005682C
:2048A0000D60016030BC70470D462A682B460260F3E700BF10B404685CB18C4212D02368BE
:2048C0000BB906E01346994205D01A681C46002AF8D110BC70472CB11A68226000221A604E
:2048E00010BC70470A680B460260F7E703682BB100201B680130002BFBD170471846704754
:2049000000B10068704700BF10B5044642880021406809F07FFB23886288A06802FB03F264
:20492000BDE81040002109F075BB00BF30B44588BDB141680B7863B14A1C002303E0147822
:20494000114601322CB10133AB42F8D1002030BC704701220A700288806830BC03FB020048
:2049600070472846F3E700BF70B4448882685CB18A4206460BD00588002301E0914207D064
:204980000133A3422A44F9D1FF2070BC704700237268D05C0028F8D00138D054726870BC48
:2049A000D05C704783688B4208D84288008800FB023081422CBF0020012070470020704780
:2049C000418849B143680020194413F8012B02B901308B42F9D17047084670470023013A18
:2049E0000160027143718371704700BF0346807959791A79091A114207D010B4411C1C682C
:204A00000A40205C9A7110BC70474FF0FF307047013A0A44914230B414D20C46257863782D
:204A2000023403EB05239BB2184480B2834284BF013080B2A242F1D8CB43134423F00103BB
:204A4000023319448A4201D030BC7047137830BC1B02184480B2834284BF013080B2704740
:204A600030B5134B134D1C782B796A79C4EB0323134483B09BB2ADF80630BDF8063005F110
:204A800008011844202280B2FFF7C2FFBDF8062004F12801294492B2FFF7BAFF18B94FF617
:204AA000FF7003B030BD40BA80B203B030BD00BF99280020C428002002200146F8B5304FDA
:204AC000304D3A78304E2832AB185B783070DB0003F1070E4FF0000C704543DC8318EC5CB3
:204AE0002B44012C12D019D3632C07D1BCF1000F41D101F055FEA0B90120F8BD04F0C004EC
:204B0000802C19D0C02C26D0402C1FD0597802310844C1B208464FF0010CDDE70130C1B2FE
:204B2000F8E73B783278283313441D446B780020134402333370F8BDBCF1000F19D1024453
:204B40000221042006F0E4FA0220F8BDBCF1000FD2D03170D0E7BCF1000F08D12B7EFF2B45
:204B6000EDD1C9E7BCF1000F07D10020F8BD3170F4E73170E3E73170BBE73170F5E700BFF8
:204B800099280020C42800209B2800203A20FFF767BF00BF08B506F00FFE06F0A5FB00F0CA
:204BA0002DFB064A064B4FF48061118003F5A07100221A8220338B42FBD108BD8028002037
:204BC000CC2C0020F8B5114E3478F4B1104F04F127033D88AB4203DB00233B803370F8BD1C
:204BE0000C4BA5F128021919121B184609F0AEF903462C1BA4B2A4F12802101200213C809D
:204C000003F8232C03F8240C3170F8BD99280020B4280020EC280020F0B50746DFF884C0AB
:204C2000BCF800600136B6B2B6F5FA4F2DD2350245EA1625ADB2194A9646134602F5A0742B
:204C4000188A2033A842EDD09C42F9D1ACF800600023108A203220B101330A2BF9D10020D9
:204C6000F0BD5C010EEB0406358271820B4B87B1354638687968BA68FB680FC5084A0EEB4F
:204C80000403127930461A75F0BD10254FF48056D1E71F517760B760F760EFE7CC2C002027
:204CA000842F0020802800202DE9F04F042883B020D0914BDFF86492DFF870A20528C9F835
:204CC0000030CAF800301FD013F83C2CA3F13C0402F0F002602A2ED0884D894EDFF84482C7
:204CE000884F00232B8088F800303B70337003B0BDE8F08F844C814D814E2388002B41D1E5
:204D0000DFF820827F4FECE7804A1268128A002AE2D07F487C4C794D794E00220C3B08210F
:204D2000C9F80030CAF80030026022802A80317001F060FCE1E72279704D61791202288836
:204D40005618864258DC207A28310A44FF282A8052D0704E363BDFF8CC816A4FA2793360FB
:204D6000002388F800303B70002A5AD101233B70FFF7A2FE012800F0A78046D3022850D157
:204D80005F4E34E0614A644C126803F1080149BA0020177DA185E085118A303321859BB24D
:204DA000508AA3F128014FEA212EE77111272B8084F804E060856171A77104F118050FCA7F
:204DC00085E80F00294604F1080006F049FC534B04F13C0238461A60FFF742FEC04380B27C
:204DE00078B1E085002360222270637063800023337003B0BDE8F08F414EDFF82881414FFC
:204E00006FE74FF6FF73E385ECE798F8003003F1280222445178083303EBC103326088F83E
:204E200000303F4806F0F6FA002800F02D813368DFF8D0B03B491A783C2A00F20681DFE861
:204E400012F0DB00040104010401040104010401040104010401040104010401040104012F
:204E60000401040145000401040104010401040104010401040104010401040104010401A2
:204E8000040104010401040104010401040104010401040104010401E900430004010401A0
:204EA00004010401040104010401040104010401040104010401BC004300A70048F2FE03DA
:204EC0002189994200F044810D4E0AE7FFF77AFEE38D1120A071104E002B40F01B81B6F829
:204EE0002AB0BBF1000FEFD0084F0F4B0E4E3B60248D06F5A07820E000290020B4280020AD
:204F0000AC2C00209A280020C82C0020B42C0020BC2C0020B02C0020C4280020B82C00208F
:204F2000DC28002099280020CC2C0020B8280020203646453E6000F0A180338A002BF7D015
:204F40005B45F5D1738A10227A480BB1A342EFD133682BB973681BB9B3680BB9F36823B15D
:204F6000314608F04BFF0028E2D12B88724A7348734C744E303B2B8002210023C9F80020B5
:204F8000CAF8002003602380317001F033FBB4E63A7890076DD5500657D442F040028BF8CC
:204FA00000200191FFF788FD012801998CD053D302283FF4E5AE33683DE73A20FFF750FD33
:204FC0004FF6FF7398427FF47FAF98F800302833E05C01F01BFA98F800302833E218517864
:204FE000E05C06F071F801283FF46EAF2B88554E002B7FF4FCAE74E63A780191D10724D491
:2050000042F001028BF80020FFF756FD01280199CDD159E73A7802F0040000F0FF0EA0B9D0
:2050200098F8000042F0040200F12803234493F803C08BF80020BCF1000F73D15A7808302A
:2050400000EBC2020A703360F5E61A1B0121042006F05EF83B4ECAE698F8002002F12803EB
:2050600023445878083202EBC002336088F80020E1E642F002028BF8002092E7002204217D
:20508000012006F045F87BE62F4806F07FFA00287FF4CDAE227E2D4BFF2A3FF40FAF48F2F3
:2050A000FE00198B81423FF409AF198981424FD081B95A8972B99A8962B9DA8952B91B8A83
:2050C00043B9628A214B2AB99A8A1AB9DB8A002B3FF4FAAE228B1D4B82B95A8B72B99A8BB2
:2050E00062B9DA8B52B91A8C42B95A8C32B99A8C22B9DB8CB3F5807F3FF4E6AE2B88B3F582
:20510000A06F63D8E379114A012B58D9013BD3710C4E6CE6FFF7A4FC4FF6FF7398427FF46B
:20512000D3AEDCE600F12A027146042005F0F0FF044E5CE6CC280020F4280020BC2C002064
:20514000C82C0020AC2C0020DC280020C42800202189224B79B9598969B9998959B9D98930
:2051600049B9198A39B9598A29B9998A19B9DB8A002B3FF4A9AE218B184B81B9598B71B96D
:20518000998B61B9D98B51B9198C41B9598C31B9998C21B9DB8CB3F5807F3FF495AEFF2A49
:2051A0003FF492AE0E4806F015F9024600287FF48BAE0221012005F0ABFF0A4E17E60022AC
:2051C0001146032005F0A4FF064E10E64FF4A0620021022005F09CFFD2E500BFC4280020D9
:2051E000DC280020AC2C0020020C131243EA02239BB240BA43EA0040704700BF704700BF6E
:2052000008B5064801F0F0F8054B00220120FD21187099705A70DA7008BD00BFAD5C0000C7
:205220008810002030B414780B7A84F00204A34215D00B891BB94B89B3F57F4F30D01F4D5F
:2052400001222C6801F10803824004F10801296003CBD3B220606160184630BC70474C7AF6
:2052600053789C42E5D18C7A93789C42E1D1CC7AD3789C42DDD10C7B13799C42D9D14C7BAF
:2052800053799C42D5D18C7B93799C42D1D1D379CA7B9A42CDD1032101FA00F3DBB2DBE7BF
:2052A0008B89FE2BCBD1054CCB892268022122F8023B01FA00F32260DBB2CDE7140F002078
:2052C00010B5124C0220A17904F008FBA379112B09D0062B07D03A2B0FD0BDE810400021E5
:2052E000012004F0FBBA218D638D01209942A8BF1946BDE8104004F0F1BA218D012049BA1E
:2053000089B2BDE8104004F0E9BA00BFC428002010B5084C2378012B01D0002010BD014616
:205320000822A01C08F06AFD00280CBF2046002010BD00BF8810002008B50146102004F043
:20534000DBFA044B00219B6803489847BDE80840FCF7E4BC00E600005D53000010B50C46AE
:205360001146204606F072FD044B1B6813B19B6820469847024B1C6010BD00BFEC150020B7
:20538000981000202DE9F041154D00232A469478713234B101330C2BF9D14FF0FF30BDE82D
:2053A000F081C3EBC30403EB04142F197970064604F0EEF9DFF830800A4A98F80030116895
:2053C000C01A2E55B870CC1804F0E2F998F800202146821AF81C08F043FDB878BDE8F08150
:2053E0009C100020941000209D2800202DE9F84F074615465ABB88469146584E4FF0FF3461
:2054000036F8063C9BBB631C48D00135022D06F1B806F5D1621C00F09E80B82505FB04F5ED
:20542000DFF840910F2009EB0506A6F81280378204F06EFA0146304604F096FA05F1180002
:2054400048444021FFF756F92046BDE8F88FDFF8148100244646328ABA4221D00134022C60
:2054600006F1B806F7D14FF0FF30BDE8F88F3046FFF754F9002831D0394B26F8069C03F2FA
:205480004C51E8B29A7822B11A78824208BF83F8029071338B42F5D1631CB6D16CB2B4E7D0
:2054A000738A002BDAD00F2004F032FA0146304604F060FA0028D1D0E6B229463046FFF784
:2054C00061FF011E11DB0029CDDDB82303FB04839A8A60B20A449A82BDE8F88F611C94D180
:2054E00036F8063C002B90D1D8E74FF0000B5F46D946DFF868A03AF8063CF3B1BC421CD002
:205500005046FFF70BF9C0B15FFA87FEB82303FB0E83134AA3F8129002F24C504FF0000CCD
:20552000937833B11378734504BF82F802900CF1010C71329042F3D1E3440137022F0AF19C
:20554000B80AD8D1BBF1000F8DD029463046FFF719FF0146B7E72046BDE8F88F300F0020FF
:205560009C100020180F00202DE9F04715090F2D06469A4602F00F042CD00F2C36D0A0461D
:20558000A9466719D5BB0F2F03DD5CB9E5B9BDE8F087C7F1100206EB0900002108F03AFD0B
:2055A000002CF3D0DFF87490C8F11000D9F8007030443946224608F053FC022C20D03C44D7
:2055C000C9F80040BDE8F08751463046BDE8F04706F0D2B80F2C4FF0100918D04A464D46A7
:2055E000A046A718304608F03BFCCCE74FF01008A94605F110074446002DD3D02A46F1E7B9
:205600000A2DDCD8FF22FE23F2723373D7E74D46C8464C4620272A46E4E700BF140F0020DE
:205620002DE9F04F0F2089B0DFF81083B84D04F06FF94FF0000A04F03BFA88F800A085F8D3
:2056400000A004F091F8B34E3060042004F04EF93368B1491C7800B25A78086004F0F8013B
:20566000C02942EA042277D0E02964D129789F7893F80490D878C2F30A044B1D40EA0720C7
:2056800021464A462B70FFF7B1FE411C074660D0A24AB82303FB0023D346CDF800A0B3F8E8
:2056A00014A00123A24534BF4FF0000A4FF0010A019304F06DF82B78954D834249D804F059
:2056C00067F82B7898F80080C51A08EBC909944AA944B9F57A7F15603BD8BBF1000F06D089
:2056E00031680BEB080019442A4608F0B9FB002C00F0DC80009B43B1884AB82303FB0723BE
:2057000008EB050292B29A821A84BAF1000F40F01981019BEBB9834B45441D80824C236880
:2057200023B1FFF7CDFD23685B68984700F082FE09B0BDE8F08F57465446DFF8FCB1CDF8DB
:2057400000A02A78995C01F0E00060284AD041291CD009B0BDE8F08F29789F78D878C2F3AF
:205760000A040B1D40EA0720524621462B70FFF73DFE07460130ECD0684AB82303FB0722E9
:2057800002F1220B012233680092DAE75946501CC0B2034403F12000D3F800A0D3F8049036
:2057A000D3F808C0D3F80CE010338342C1F800A0C1F80490C1F808C0C1F80CE001F11001C8
:2057C000EAD118685B6808604B6098F800302932283388F80030009B4FF0000A2A70D146FD
:2057E000019366E7981890F801A002321344DFF850914FFA8AF2002AC9F80030B8BF013321
:205800000192B8BFC9F80030CA065AD501F0080303F0FF00002B40F0C681D9F800301A469D
:205820001B78C3F3830343F060038BF8003012F801EBABF802004FEA9E0303F0300343EA88
:205840008E13C9F800208BF8013001F0040303F0FF0202923BB9D9F8003013F8012B8BF8E3
:205860000620C9F8003011F0030100F0A1802F4B5B5C8BF807301AF0400FCAF3011300F0F6
:205880007581019A002AC0F2B0810021002B00F09880274A1078012800F0CD81254A002324
:2058A0009A4699461360009B019302E7019B002B3FF431AFBAF1000F3FF44BAF194B1C80DD
:2058C0002CE70B0700F17881D9F80030184633F8012F9B78ABF801208BF8033010F804EB7B
:2058E0009BF801204FEA9E0303F0300C02F00F024CEA8E1E03F00F0343F060034EEA02022F
:20590000C9F800008BF800308BF801209DE700BF9D28002094100020100F0020180F0020FD
:20592000E8150020B4280020EC15002058E50000881000200C0F0020C42800209C2800200D
:20594000140F0020B82101FB07F1DFF844A3C7480AEB010319461A8C22319C8208F080FA89
:20596000C34EDFF808B306F24C5916F8012C22B116F8033C9F4200F048817136B145F4D190
:2059800000221046B823FFB203FB07AAB94BAAF8122003F24C519A781AB11A78BA4208BFB8
:2059A000987071339942F6D1019B002B86D1B2E6D9F8003013F8012B8BF80720C9F8003010
:2059C00059E719460BF108020392AB4A0F20D25C0591049203F09CFF049A03460599039861
:2059E000FFF7C2FD0AF0080303F0FF010AF00302002B37D01AF0040F0FD1A049531E0988E1
:205A0000012BADF81C1040F228819D4900238A5C0BF1180007A9FFF7A7FD98F8002002F1BE
:205A2000280388F80030029B002B41D1D9F800303268DFF860929B1A2B70002C00F0A480BD
:205A4000A4F128031A128BF805308BF804209BF80630112B00F0CF80009B4FF0000AD146BC
:205A6000019326E61AF0040F00F0D780019B002BC0F2EC80DFF820A29AF80030012B7FF443
:205A80000DAF9AF801308B427FF408AF7A497D4B8A5C10200192C3F800A003F039FF019A3B
:205AA00003460AF102010BF11800FFF75DFDB4E7D9F80030197801F0F801F029B8D1112150
:205AC0008BF80610187800F0F301F03900F00400C0B20329C0D8DFE801F03D332202597849
:205AE00002330909A1F5756189B2090241F0F001ABF8281013F8011C01F00F01A1F575611B
:205B000089B2090241F0F001ABF82A10C9F80030002800F0C380303288F8002088E75978B2
:205B20000433A1F5805189B2090241F0F001ABF8281033F8021CC9F80030ABF82A10E7E79F
:205B4000B3F801100433ABF8281013F8011CA1F58051D5E7B3F801100533ABF8281033F832
:205B6000021CC9F80030ABF82A10D1E7464A0F20D25C039203F0CCFE039A034643490BF1D4
:205B80000800FFF7F1FC2DE703F002FE99F8002098F80030801A0344283B1A128BF805307A
:205BA0008BF8042053E7002360228BF800208BF80130ABF8023048E6D9F80020602310463B
:205BC0008BF8003010F8013B03324FEA930E0EF0300E03F00F034EEA03038BF80130038801
:205BE000C9F80020ABF802302FE631682A780A44917809094AE6BBF804304FF0000AABF833
:205C00002C30009BD146019353E516F8020C31460BEBC00008F024F9AFE61B4B102013F816
:205C200002A003F075FE5246034618490BF11800FFF79AFCF1E6507888427FF42FAE114868
:205C4000911C02600BF108020392BEE631682B780B44997801F00F010CE7D9F8003013F85A
:205C6000011B8DF81D10C9F80030CEE6C42800209F1000209C10002074E5000054E5000078
:205C800070E500000C0F00205CE5000060E50000180F00209D2800208810002033F8021BC2
:205CA000ABF82E10C9F8003035E700BF2DE9F04FAE4EDFF8E4B2002387B033708BF80030C9
:205CC000044603F097FD03F04FFDA94BDFF8CCA21B68CAF800000BB1FFF7F2FA04A801905B
:205CE000002C00F09382214603F03EFEA14B1B883E2B32D99BF80070DAF800800023023729
:205D00009D4D08F807309D4808F102032B60FFF7FFFA002800F0078108F103032B60802338
:205D20000293974C62782178130943EA0113DBB2980840EA83135BB210075FFA83FE5CD103
:205D40006088002859D1080740F0F58012F0F00F40F0F1804FF078095EE0894C9BF800C08D
:205D6000A646DAF800300CF10105EDB241221D441A7004F1200877460FCF474528606960B0
:205D8000AA60EB600EF1100E05F11005F3D1BEE803002860696033780CF1290C28338BF80D
:205DA00000C033700199102003F0A6FD754BDFF8E8911B6898476F4B002837781B889BF8E7
:205DC0000080ACBFC0F17D056825A3EB0702C8EB0501B8BF15208A4240F3B480C0F17802BE
:205DE00093FBF2F7029203F091F901388742C0F2D780002007B0BDE8F08F090703D112F02F
:205E0000F00F00F082802A6820681346106003F804EB2B604FF06009A379112B68D1E379A4
:205E200049F00409402B6AD0FF2B00F00F82012B68D02A6802F8013B2A602389504A3BB9DC
:205E400053892BB993891BB9D389002B00F034824D48FFF75DFA4D4B1860002800F0778163
:205E6000417818F807304A4A43EA011308F8073045490420FFF7D6F960F03F00C3B2029306
:205E8000237E3F49FF2B00F08E8101F118000391FFF73EFA3D4A03991060002800F0BA81FE
:205EA00018F8072043780298134340F0040E08F807301831019A00205FFA8EF7FFF7B2F904
:205EC00038432F685FFA80FEA3792822112B32702B4900F00E81DAF800309BF80020FF1AD4
:205EE000991803F802908BF8007081F801E059E72A6802F8013BE3792A60402B94D149F020
:205F000002099AE749F0010997E7296823F03F031343204A0B701288CB1CA1F801202B604D
:205F20004FF0680978E71848FFF7F2F900287FF4F3AE0290F5E62B684FF0700903F801EB36
:205F40002B6069E7DAF80000E119404407F088FF084B18884044C01B80B203F0FFFB01988E
:205F6000FFF7EAF9012007B0BDE8F08F9C280020EC150020B4280020140F0020DC280020E4
:205F8000C42800209CE50000CC2800200C0F0020BC280020C62800209D280020941000206A
:205FA000DAF8008099F80070B64E41463A46002308F104000437336007F0C8FFF9B20E46D8
:205FC000B14BB2481A88B24B120A62F03F0288F80020AD4AB3F800E012886D1A017825F0AC
:205FE00007054FEA1E20AB4F88F8012088F803E02A460EF1010E88F80200214408EB0600C2
:20600000A3F800E03D6089F8006007F029FF701980B203F0A3FB03F07FF89F4D80460028D8
:206020003FF4E7AE0198FFF787F9404603F0C2F8404603F0A9F8934B1B68012B3FF4D9AEF5
:20604000043B012B7FF6D5AE8F4B90491B882A681B0A63F01F030D788B49137002983B6842
:2060600009881D4420F0070005235170ADB2386089F80030B84632E03E68DAF80030B242DA
:20608000B8BF16469BF80090B8BFC8F8002003EB0900324683F804E007F0E2FE09EB060014
:2060A00080B203F05BFB03F037F8064600283FF4A0AE0198FFF740F9304603F07BF8304634
:2060C00003F062F86F4A3B6812681D44012AA2F10403ADB23FF48DAE012B7FF68AAE6A4B1C
:2060E00061191B884FEAD50E9D42A3EB0502C3D338E74FF2B002088D030A43EA00239BB20C
:2061000023F00F0080B2904200F0A380498D0A0A42EA012292B202F47F42B2F5704F00F0BC
:20612000218103F47F43B3F5704F00F0EB805B4BF0223A7018687B1DC7F801001F46584B00
:2061400030221B88327027F8023B2F60C3E648F2FE03228953499A420FD14B8B6BB98B8BC6
:206160005BB9CB8B4BB908314F4A0420FFF75AF8029B0343DBB2029382E6D5F800C0DFF8A2
:2061800030E10CF110032B60BEE80F00CCF80410CCF80000CCF80820CCF80C30237E4149EB
:2061A000FF2B7FF472AE029A4B7E42F0080E022B5FFA8EFE4A8B00F0AF80002A34D18A8B2B
:2061C000002A31D1E18B374A71BB118C31B9518C21B992F82410002900F0CF80218C314AEE
:2061E00011BB92F82210F9B92F680298394601F8013B52F8233F40F0090EC7F80130137911
:2062000006375FFA8EFE0B712F605DE6274903F0ABFB6BE548F2FE030A8B9A4202D14B8B60
:20622000002B5FD0DDF808E0D5F80080DFF884C008F11007BCE80F002F60C8F80000C8F80D
:206240000410C8F80820C8F80C303DE649F00309F3E5B1F82AC04FEA1C2242EA0C2292B25E
:2062600022F00F0C84457FF456AFF3233B700A8D4B8D120A1B0A03EB021303F5AA637B704C
:20628000BB1C5BE798100020B42800209C28002082280020E815002094100020EC2800205E
:2062A000F2280020C4280020BC28002094E50000CC280020DC280020138A002B7FF4C8AD33
:2062C000538A002B7FF4C4AD938A002B7FF4C0ADD38A002B7FF4BCAD029B43F04003DBB2A6
:2062E0000293CDE58B8B002B9CD1CB8B002B99D11831019AFEF796FF029B2F6803435FFA7D
:2063000083FEE1E5F2233B70238D254A1B0A7B7012883B1D7A8011E7002A85D18A8B002AA4
:2063200082D1CA8B002A7FF44DAF0A8C002A7FF449AF4A8C002A7FF445AF8A8C002A7FF4D7
:2063400041AF91F82620002A7FF43CAF2F6891F82730029A07F8013B42F00B0E5FFA8EFE78
:206360002F60B1E5F1220F4B3A701A883B1DA7F80120628D120AFA70E0E62868014601F81C
:20638000013B32F825CF029B071D43F00A0E93785FFA8EFEA0F801C02F608B7094E500BF8C
:2063A000EE280020EC28002070B511B1B2F56E7F03DD0A4C0023238070BD0546074C084EDB
:2063C00008482280356007F0C1FD0420FEF76CFC00F042F80023238070BD00BFC82C002010
:2063E000B42C0020F4280020014B1860704700BF0016002010B51446FEF70EFC18B1024BBD
:20640000C4611B68836110BD740C002000B5074B83B08DF80700186828B1054B0DF107020D
:206420001978FEF723F903B05DF804FBC02C0020F330002008B5002202210448FEF716F912
:206440000349044A00230B80137008BD2C050020B42800209928002038B5294C238863B35B
:20646000B3F5A06F24D8274D2B8B6BB96B8B5BB9AB8B4BB9EB8B3BB92B8C2BB96B8C1BB907
:20648000AB8C0BB9EB8C9BB100F042FA80B12B7EFF2B13D01C4804F09DFFA8B11A4805F087
:2064A000A1FC58B305F096FC184B1B6803B19847174A00231370238038BD38BD134B1B68BF
:2064C000002BF5D00020F2E70F4805F067FA054678B105F03BFA0028E1D1EB6923B11B6A01
:2064E00093F8540001F0EEF92846BDE8384005F091BA05F0FBFB0028D1D1D9E7208038BD10
:20650000B4280020C4280020DC280020001600209928002038B503880446EBB140F24B302D
:20652000834215D1022945D02BD9872935D0882922D1294B9A424AD0284B9A421CD1104617
:20654000FDF700FFC0B105F05DF8FFF785FF13E000232380032038BDFDF7C4FF204B187098
:20656000FDF7C0FF1F4B402118701B48FDF7CCFEFEF710FB00F0E8FA40F24B3323800120AE
:2065800038BD0129F8D1002AF6D0174B05201A60FEF78AFBFFF760FFEEE7144B002503F502
:2065A000A070996920338A4208BF23F8105C8342F7D1E1E70E4D2B88002BDDD00120FEF70B
:2065C00073FB2B88002BD7D0FFF746FFD4E71046FDF7B8FED0E700BFF0150020E030002007
:2065E000F2300020F3300020B42C0020CC2C0020B4280020074B1B6843B12833186820B18D
:2066000005495A680978FEF731B87047034B1B681833F3E7BC2C0020F2300020B42C002014
:2066200070B5304D304CAB790022267822701BB995F82A30632B02D02670012070BD95F83A
:2066400029301BB995F82B30042B01D0002070BD95F82D0001F0E2FB28B390F8553013B3A2
:20666000C3689A7DFAB1998B23780A0A2A3342EA01222B449A8090F85420DA7090F85720E0
:20668000012AD9D993F9023005F11800002B0CDB05F084F923782A331D44AB78E8B163F065
:2066A0007F03AB70C8E72670D0E705F077F90028C2D123780F202A331D44AB7843F0200320
:2066C000AB7003F025F901F061F80028BED00022064900F0A3FF002070BD03F07F03AB70AE
:2066E000AAE700BFC428002099280020DC2800202DE9F84FDFF8A080264CB8F8006000253E
:20670000B6F5787F2778257003DD27702846BDE8F88F83468A46DFF88490A6F128024946BE
:2067200009F1080007F012FC19F8220C63210422A9F12803C9F80050C9F8045083F82800DB
:2067400089F8021009F8225C89F80320DBF8002019F8230C958B00F10802290A41EA0521B1
:20676000A9F806109AF80010D2B20836904289F80510A8F8006009F8232C04D919F8242C08
:20678000013209F8242C08372770BDE8F84FFFF747BF00BF99280020B4280020EC280020E7
:2067A0002DE9F047374D384C2B782833E218527832B940F263420344195B2344914202D039
:2067C0000020BDE8F0870646D87801F027FB07460028F5D02B782833334423449A78900610
:2067E0000ED597F85730012B06D904F1180005F0D5F808B105F00EF9384605F0C9FDDFE712
:20680000F968897D0029DBD0B3F804901F494FEA19230F20D1F800A043EA09294FFA82F867
:2068200003F076F8014650461FFA89F902F090FE40B12B782833334423449B78590648BFB9
:20684000A0F80490FB68B8F1000F9B8B04DA994504D20120BDE8F0879945FAD220B1C7F8C2
:206860001001384605F0A6FD2878283030440444A3785A06C0D443F04003A3700120BDE8DF
:20688000F08700BF99280020C42800206C0500202DE9F8431A4C1B4EA1460023A5791A4F93
:2068A000337004F128082B2D04D03C2D20D00DB1BDE8F88394F8291060790131C900C9B299
:2068C0003A88431A521ADBB294F8285092B298423A806371A571A2F1280241440B4804D26F
:2068E00099F80430013B89F8043007F02FFBDAE794F82930DB0008333370BDE8F88300BF83
:20690000C428002099280020B4280020EC28002038B5164D2B68EBB1DA68DAB148F2FE01D5
