:020000040000FA
:2000000000500020E9000000E1000000C9000000E5000000E5000000E5000000000000002E
:20002000000000000000000000000000E5000000E500000000000000E5000000E50000002C
:2000400049270000E500000001BE0000E5000000D11D00003D220000E5000000E500000090
:20006000E500000029BE0000E5000000E5000000E5000000E5000000E5000000E500000056
:20008000E5000000E5000000E5000000E5000000E5000000E5000000E5000000E500000038
:2000A000E5000000E5000000E5000000E5000000E5000000E5000000E5000000E500000018
:2000C000E5000000E9360000044B1A68B2F5806F03D01B689B0500D4FEE7704728ED00E05A
:2000E000FEE700BFFEE700BF08B508F06BFD104A104B9A420DD2D0430F4918440B4620F003
:2001000003000430084453F8041B834242F8041BF9D10A480A494FF000028842B8BF40F8AB
:20012000042BFADB01F01EF8FFF7CEFF08BD00BF00000020D0020020C4ED0000D0020020B8
:20014000BC310020F0B5048887B0054634B1612C1AD000230380032007B0F0BD0D480E49AA
:20016000C67987794378027805964679049707790396C67880788DE8C100084803F048FB0B
:200180002146074804F0C6FA612301202B8007B0F0BD00BF1C300020F0E30000F802002029
:2001A00034000020F0B517460D46124C83B000230C268DE848006A46636D0F49984702AE8C
:2001C000032001F0B5F956F8042D38460B490DF0CBFEE369D4F8B410284698473146636BD8
:2001E000284601229847E36C39462846019A984703B0F0BD1CE5000034E4000038E4000044
:2002000010B5038804464BB12C2B03D12C232380012010BD00230380032010BD074801F067
:2002200073FE01F067F900F02BFF0549054800F047FF2C232380012010BD00BFA4E40000EA
:20024000B8E4000010000020014B1860704700BFB403002080790123013803FA00F0C0B20C
:20026000704700BF2DE9F04F038887B00446B3B1B3F5AD7F0DD1BA4B1B788B421AD0882991
:2002800000F08A804FF4AD730120238007B0BDE8F08F00230380032007B0BDE8F08FB149C4
:2002A000B14800F00DFF00F0DFF943F216300AF02DFDE7E7AD4BAE4D1B78002298072A7033
:2002C000E0D5AC4BDFF8D482AB4F1A88D8F8001038460AF0F3FE0646287000285FD1BB79F0
:2002E000013B032B70D97B6823F07F4323F0FF03002B57D1C3232B70388900F049FADFF8DF
:200300008492C9F8000040B1C66AD0F830A000F0D9F916B150469849B0477B790022012B14
:20032000C9F80020944A40F2CB802E78002EA9D00020C22E00F0C180DFF864B2DFF864A229
:200340008E4E00F0BFF92A78894BC32A00F0B180BF2A84BFA0221A7002213B8986480AF06E
:20036000F1FC356828460DF08FFF2946024682480BF02AFAD8F800509BF8003029462833AD
:200380007D483AF803600AF0EBFC314683B22A467B480AF073FE75E700F00EFA72E7794B67
:2003A0001868C6E77B79032BA6D1DFF8F4B1DFF8F4A19BF800300AF1080028333AF8031029
:2003C0003A8900F0B5FA97E7DFF8D4B1DFF8D4A19BF800300AF1080128333AF8032038895D
:2003E00000F04CF9DFF89C91C9F80000002800F0DB807B792022039604960596ADF80A20BD
:20040000002B6FD13B89452202215F480AF09AFCBA7A002A40F0998004AB009300220DF1E3
:200420000A0303A954480BF075F940B1BDF80A30049A202B28BF20230592ADF80A30534BF7
:20044000D3F800A0BAF1000F00F08480D9F800204D4EDFF824B10DF1140EBDF80A30743296
:2004600031465846CDF800E0D04700285CD02A783F4B92B99BF81620110740F19B8096F924
:200480000620002AC0F29680B27D120700F192803A4E3F49A12231601A702E78D9F8000094
:2004A000002E7FF446AF00283FF4ECAE00F020F9E8E600221A7003214FE700F003F9E1E621
:2004C000D37C5B067FF531AFDFF8D4B0DFF8D4A09BF800300AF1080028333AF8031000F01C
:2004E000ABFCDAE70AF026FC45220346012126480AF028FC8CE7049B9A4275D00132039918
:200500007FD0BDF80A300122DFF87CA050460BF01FF9B6F89E30BDF80A20934204D9DAF8FF
:20052000A01050460BF050F92B78002BB5D1D9F80060154806F136010AF012FC80B2B086B1
:200540000028AAD1C1232B70A7E712490E480BF003F861E7094E104AA12332602B709CE7D7
:20056000BA31002028E600006C000020742D0020742900207C290020B80300203002002066
:20058000942900200C03002010030020B40300203CE60000C30300205CE60000802D00202E
:2005A000622900208C290020284E294AA32332602B70C6E697F91530059A002B9BDB002AF4
:2005C000B5D0013218BF01222023002121480BF0BFF8B6F89E20D6F8A0101F2A88BF20222E
:2005E0001C480BF0F1F89FE7B6F89E10194E8A4210D3822330460F22B37117490BF0E4F814
:2006000092E7B6F89E20BDF80A309A4294BF0022012279E7BDF80A308A1A9A4294BF00224E
:200620000122039930460BF093F80498B6F89E30BDF80A201B1AD6F8A0109A42014428BF4D
:200640001A4630460BF0C0F86EE700BF3002002070E60000100300204CE600000021014886
:2006600004F058B844000020024A034B12681A60704700BF380D002060040020F8B507462B
:200680000E480D46164604F061FA044698B10023878003762968A8686F68EA68C4F81A1020
:2006A000C4F822002146C4F81E70C4F826200448668504F0BDF92046F8BD00BF540000207A
:2006C0005C04002070B110B50446083003F066FF2146054804F0FEF92146BDE81040034894
:2006E00004F052BA704700BF5C040020540000202DE9F041044600F11A063046A38E04F152
:200700003602618D0AF0BAFC94F83650C5F3011595B9237E032B14D82BB3E3685B00E36053
:20072000184D194B2E681B6804F108002B6003F00FFF2E60BDE8F0812046BDE8F041FFF778
:20074000C1BF3046618DE66A276B00F061F82046FFF7B8FF2EB1294638463346BDE8F0415C
:200760001847BDE8F08102F0CFFE084BA3FB0023DB0903EB4303A0EB831303F28113E3602C
:20078000CEE700BF380D002060040020ABAAAAAA10B50446074804F049F948B18388A342D6
:2007A00003D106E08388A34202D000680028F9D110BD10BD5C04002010B50C4804F036F90D
:2007C00090B1044601E0246874B104F1080003F0C9FE0028F7D0237E204601332376FFF78C
:2007E00087FF2468002CF0D110BD00BF5C04002010B504460448214604F0C6F92146BDE86D
:200800001040024804F066B960000020FC070020F8B505460E480E4604F008F90446A0B156
:2008200000271022294604F118000DF06BFB10B9238DB34204D02468002CF2D13846F8BD90
:200840002046FFF7D5FF0137F5E70746F6E700BFFC0700202DE9F843054618480E46914621
:200860001F4604F0E3F8044630B34FF0000801E02468F4B11022294604F118000DF042FBD6
:200880000028F5D1238DB342F2D194F82A30BB42EED13A46494604F12B000DF033FB0028DE
:2008A000E6D12046FFF7A4FF246808F10108002CE0D14046BDE8F8838046FAE7FC070020A7
:2008C0002DE9F843054619488846174604F0AEF8044640B34FF0000908E029460DF012FB70
:2008E00010B9238D434506D02468CCB1102204F11800002DF1D1261DBE4209D030460DF05B
:20090000C3FC3946024630460DF0FCFA0028EBD12046FFF76DFF246809F10109002CE5D1CA
:200920004846BDE8F8838146FAE700BFFC0700202DE9F041054613480E46174604F076F87F
:200940000446E8B14FF0000801E02468ACB11022294604F118000DF0D5FA0028F5D1238D8B
:20096000B342F2D1A38EBB42EFD12046FFF740FF246808F10108002CE9D14046BDE8F08126
:200980008046FAE7FC0700202DE9F0474468DAB0804620460E460DF077FC0546214603A8BD
:2009A00013220DF0EDFC122D07DC36B103AB3146C5F1130258190DF0E3FC00273B4608A87E
:2009C000452201218DF81F700AF0BCF93B460122394631A80AF0B6F903A931A80AF036FE73
:2009E00003A80DF051FC0646334804F01FF8044600285DD0DFF8C4900BE007DA98F80830D2
:200A0000DB0603D5A3191B792F2B08D02468002C4ED0251D28460DF037FC8642EDD12946F0
:200A2000324603A80DF05EFC0028EFD10AF082F9228D04F11801FFF721FE05460028E5D0E5
:200A4000A16B89FB0123CA17C2EBE30303EB8303B1EB830308BF8DF8253082883023A286B2
:200A60008288D8F810A0ADF82820009700F1740208A931A8D0479DF92630002B05DBA16B5D
:200A800008A84B1CA3630AF03DFE94F82A2004F12B0108A80AF060FD05F1360108A80AF02F
:200AA0005FF9A8862846FFF723FE2468002CB0D15AB0BDE8F08700BFFC0700206766666651
:200AC0000021FFF761BF00BF8B79012B00D0704792F90630002BFADB2DE9F04FCB7C81B0DB
:200AE0005B060C4603D54B6E23B1012B47D001B0BDE8F08F2E4B2F481B78D1F860A028331F
:200B00001F5A1546394652460830E66D94F80A80FFF7D6FE284804F019F804F10B09B34608
:200B2000044600283AD0122EC4BF1326B3463246514604300DF018FA4FF0000AA3441F4B58
:200B40008BF804A004F118060FCB86E80F0042464946278584F82A8004F12B000DF004FA00
:200B60002146A4F834A0164803F062FF2846A16B4B1CA36301B0BDE8F04F0AF0C3BD0C4B9F
:200B80000C4A1B7802F108002833D15AA37A04F10B0201B0BDE8F04FFFF75CBE2846094967
:200BA000A3231022AB7101B0BDE8F04F0AF00CBE622900208C2900206000002094290020EB
:200BC000FC07002094E600002DE9F04F83B0019100929846DDF8309000F08EFA03F026FFC9
:200BE000002800F0B380D9F800B0002507462C465E46B44208D3454512D24FF03C02009B4A
:200C00005A55D9F800600135631CB34208D3454506D24FF02F02009B5A55D9F800600135EC
:200C2000D7F804B0023458460DF02EFB04EB000AB2454FD801D3454561D3FE680AF1010428
:200C4000BEB13378ABB1D9F800B05C4508D3454506D2009A3B235355FE68D9F800B0013502
:200C600030460DF011FB0AF1020A0AEB00045C450FD8454504D9D9F80030621B9A425AD87A
:200C80003F68002F40D0BCB9D9F80060B442BBD3B1E70098CAEB0B0308F10101002BACBFC0
:200CA000F318331C491B28442C4A02F089FD0544454540D83F683FB3D9F80060A64207D8A0
:200CC000454505D2009A2C235355D9F80060013501348EE70098331B08F10101002BACBF9A
:200CE0005B440BF10003491B28441C4A02F068FD0544454509D2D9F800309A459DD3009A31
:200D00003E235355013598E70027A5B944B9EFB1D9F800304344C9F8003003B0BDE8F08FA3
:200D2000019C822120460AF011FC20460F220C490AF04AFDEBE79DE812002A4620460AF0A0
:200D400043FD204628210AF01FFCE0E74FF0FF33C9F8003003B0BDE8F08F00BFA8E6000042
:200D60004CE6000038B5A0B105460F480C4601F0CBF8AB79413B3E2B06D8EB7C5B060DD5CA
:200D8000B4FA84F0400938BD084801F0BDF8032038BD074801F0B8F8042038BD054801F09E
:200DA000B3F8022038BD00BFC0E60000D0E60000B4E60000E4E600002DE9F0410A4D0B4CFD
:200DC0000E46174601460022284609F0BBFF2168284609F0C5FF226883B239463046BDE8CB
:200DE000F0410AF04BB900BF04080020802D002070B505460E480E4603F018FE044610B9D6
:200E000013E024688CB16A7829780A4802F0B2FC237FB342F5D13246294604F11D000DF04E
:200E200071F80028EDD1204670BD002070BD00BF0008002058E70000F0B5144683B00646DF
:200E400024480F4601F060F8A57A234801F05CF825B9224801F058F803B0F0BD204801F077
:200E600053F8294604F10B00FFF7C2FF054618B3637983B1EB6A002BEED000212046FFF720
:200E800071FF012806460DD032462146EB6A2846984703B0F0BD3A46314623890220FFF7F4
:200EA0008BFFE7E701A920460AF020FC019B2A6B9A420BD02B63E7E70A4801F025F8238964
:200EC0003A4631460320FFF777FFC5E7064801F01BF8C1E7DCE70000F8E7000008E8000054
:200EE0004CE8000064E80000ACE8000070B502880546C02A0FD0D02A11D01AB100230380CF
:200F0000032070BD1F4B8521186803F09FFCC0232B80012070BD852907D0012070BD882903
:200F200017D0D0232B80012070BD174803F07EFD044618B9F5E72468002CF2D0E369002B29
:200F4000F9D0A1680029F6D004F10C0003F0ECFAF1E70D4803F06AFD044618B9E1E7246800
:200F6000002CDED0A368002BF9D004F10C06304603F0F8FA0028F2D0E3699847304603F0B8
:200F8000DDFAECE7380D0020A80800202DE9F04F87B006AD0024384E45F8044D0291F4680C
:200FA000294691469A468046A0470546334803F03DFD002835D00446DDF814B009E006DD8F
:200FC000227AD30603D51BF800202F2A07D024683CB3676838460DF057F98542EFD102467D
:200FE000594638460DF07EF90028F0D1039032694046904710F0010F039B1CD1850728D5C8
:20100000656935B3109B4A460093029953464046A847237A5B0612D40123184607B0BDE8E1
:20102000F08F73690298D6F8881098470023184607B0BDE8F08F2569002DE3D1DEE7336E45
:201040002046029A414698470123184607B0BDE8F08F410702D5A569002DD3D1020702D5ED
:20106000E569002DCED102987269D6F88C1003939047039BDBE700BF1CE50000AC08002016
:2010800038B50A4B1C7804B138BD094D012209481A7003F0C7FCAB68074898476B689847D3
:2010A0002146BDE83840054803F034BB562900201CE50000AC0800208D0F000090000020BD
:2010C00010B504460A486160214603F0B1FC94F90830002B00DB10BD216ACB69002BFAD09B
:2010E0008B68002BF7D0BDE81040024803F0A0BCAC080020A808002000487047AC08002006
:20110000F0B5002706463C463D4683B0304600F0FBF90195019B9C4206DD00BF019B0133A3
:201120000193019B9C42F8DC304600F0F7F90195019BC4F5C874A34206DA00BF019B0133FC
:201140000193019BA342F8DB0137B7F5487F06D0B7F5C87FCCBFC7F548743C46D6E703B03E
:20116000F0BD00BF2DE9F041744C86B02368012173485B6898472368012211461B6870487C
:20118000984707F0D9FF01F0F7FA01F08FFA00F0E9F901F0C7FA00F0ADF96A496A486B4A11
:2011A000012303600B6018461368FFF7A9FF07F0C7FF00F081FD00F0EFFC03F07FFB00F063
:2011C0004BFE03F0CBFA41F2342002F0A3F901F001F803F015FC5E4800F096FE4BF2016241
:2011E00000215C4802F0C6FA5B4800F08DFE07F0DFFE5A4C5A4D10F0040F14BF27462F4671
:2012000007F0DEFE01280CBF26462E4607F0D0FE10F0020F14BFA046A84607F0C9FE10F0EC
:20122000080F08BF2C4632464346009439464D4802F0A0FA00214C4803F06CFA03F026F80A
:2012400002F0D8FF0220FFF75BFF484802F092FA474B484C186800F057FE474802F08AFA55
:20126000464B186800F050FE454802F083FA2168444802F07FFAE469A04720B1A047014670
:20128000414802F077FA0A2000F036FE002608F047FC04A808213D4D3D4F039600F06CFED5
:2012A0009DF817309DF8164004AA03CA43EA0424D7F82C802860696002204AF6CD31C04764
:2012C00021460320C04719210120C047082204A97B6B0B209847BB6A03A9012098470399E7
:2012E0002C4802F047FA2C4B21462C481C8002F041FA2B4B6A6829685A60196007F0F0FF3A
:201300003146284803F006FA0220FFF7F9FE3146254803F0FFF9254802F060FF00F0AAFDC0
:201320000120FFF7EDFE03F033FA044600F0D6FD14F0FF0FF7D101F081F8F4E7D801001076
:2013400000400340080009400C4009402C20094030E9000054E900006CE9000028E90000D3
:201360002CE9000080E9000064010020B4E90000F0EB000064EC0000BCE9000034EC0000DD
:20138000C4E90000A8E60000CCE900001C300020F0EA0000F0E900004429002004EA0000C3
:2013A0008429002084010020A0000020E8E300002DE9F04104880646772C30D07E2C27D0CD
:2013C00024B1002303800320BDE8F08103F09AF92F4F304B304D3A6818702C60002A55D058
:2013E0002346A0462D4C04F8038093680021802098472B68013357F823202B60002AF2D13A
:20140000DBB2274A1370772333800120BDE8F081204B1B788B421CD00120BDE8F081DFF802
:2014200080801D4D98F800201E4F00233B602B60002AE8D0194CE256002A18DB2B6898F81D
:201440000020013393422B60F5DB3B68002BECD1D9E7114D114CDFF84880124F2B683A68CD
:20146000E15C013201F07F01E1543A60E7E7084A084952F823200978002003F0E7F9002822
:20148000ECD17E2333800120BDE8F0811346B8E7C4000020B8310020B00800207829002086
:2014A00057290020B408002010B40E4B1C7864B10D4A1368984213D0002303E052F8041FE8
:2014C00088420BD00133A342F8D1084A0848135D63F07F03135510BC03F0E4B91C46F4E79D
:2014E0000024F2E757290020C400002078290020A000002008B500F081F8024B00221A70CB
:2015000008BD00BF58290020034A137803431846137000F08FB800BF58290020034A137838
:2015200023EA00031846137000F084B858290020034A137843401846137000F07BB800BFCF
:201540005829002010B5064C042023685B699847236804205B6B98470128F9D110BD00BFAE
:20156000B8010010F0B591B007F0E6FD0746FFF7E9FF1C4B4FF4A0601B68DB6998471A4B02
:2015800001211A4A196013689907FCD56C46184D00F0EAF9174801F07DF80FCD0FC40FCD26
:2015A0000FC40FCD0FC495E80F0084E80F00009C621C0FD06D46104E336820469B6B9847B2
:2015C000336820469B694FF40051984755F8044F631CF1D10FB111B0F0BD11B0BDE8F040EE
:2015E00007F0AEBDB801001028200860282008401CEA0000B0000020B40100100A4B1A680E
:2016000002B1704710B50122084C1A6023680820DB6B984723680720DB6B9847044B4FF469
:20162000C0721A6010BD00BFB8080020B4010010A0200240084B09494FF4C07208701A60BF
:20164000C20744BF4FF4807243F8102C830702D5034B80221A607047A020024059290020EC
:201660009020024008B5034B1B685B689847C0F3804008BDB401001028B1012806BF054B34
:20168000D86800207047044B1868C0F3403080F001007047BC080020C020024008B100203A
:2016A0007047034B1868C0F3803080F001007047C02002408138012801D9002070470D2038
:2016C000FFF7D0BF8138012801D9002070470E20FFF7C8BF802870B514460AD0812807D1C5
:2016E000E1B9BDE87040184B10461B685B6B184770BD154D1549012393402A680B60936BBB
:20170000204698472B6820460021114A1B689847E0B21049BDE8704000F0EEBF0A4D0B4925
:20172000012393402A680B60936B204698472B6820461B68064A002198472B682046BDE808
:2017400070401B6B184700BFB4010010E0200240004007207117000008B50D22FFF7BAFFA4
:20176000012008BD08B50E22FFF7B4FF012008BD0D2838B50AD00E2800D038BD4FF08052FF
:201780004FF48041BDE8384000F082BD0E4C204603F0D4F80028F0D00421204603F0BAF862
:2017A0000A4B1D68C5F3403525B900F041FAE560A06038BD00F03CFAA368C31AE360044842
:2017C000BDE83840FFF770BEBC080020C020024064EA000030B51C4A1C4B106883B00024F3
:2017E0004FF48015042101908DF800408DF801400DEB01001D6000F0D3F820B9144BFF2048
:201800001D6003B030BD0221684600F0E7F8104B1D6010B9FF2003B030BD9DF80030EF2BCC
:2018200003D0C22B01D02046EBE79DF80100A0F11103012B05D9143801288CBF0020012099
:20184000DFE70120DDE700BF84EA0000A02002409020024030B5164B83B002AC05224FF42B
:20186000801504F8042D1D6000F0DCF82046012100F096F820B910E09DF80730DB0710D503
:2018800001210DF1070000F0A9F80028F4D1094B4FF480121A6003B030BD064B1D6003B0DF
:2018A00030BD044B4FF4801201201A6003B030BDA02002409020024030B583B0FFF7CAFF11
:2018C00008B903B030BD0E4B02A8B9224FF4801500F8012D01211D6000F062F8094B0A2460
:2018E0001D60FFF777FF631E0028EAD013F0FF04F7D1044B4FF480121A6003B030BD00BFD1
:20190000A02002409020024010B50A2182B0124800F09AF8114B14201B68114CDB6B984740
:20192000104A4FF48013AB2102A8236000F8011D1360012100F034F808B1FFF78BFF084B2B
:201940004FF480121A60FFF745FFA0F10100B0FA80F0400902B010BD00093D00B40100107F
:2019600090200240A020024008B5FFF7CDFFFFF7A3FFBDE8084000F0C7B800BF08B5064B33
:2019800002201B685B6B9847012803BF034B186800F00100002008BDB801001078200840C5
:2019A000F0B583B005460C46FFF7E8FF074680B17CB1094E336815F8011B5B684FF080404D
:2019C0009847336801A9DB684FF080409847013CF0D1384603B0F0BDC4010010F0B583B039
:2019E00005460C46FFF7CAFF0746B0B1ACB10C4E09E033684FF08040DB689847019B013CA8
:201A000005F8013B09D0336800219B684FF08040984701A90028ECD10746384603B0F0BD5D
:201A2000C401001010B582B0FFF7A8FF40B1054C236801A91B694FF0804098470028F7D174
:201A400002B010BDC4010010F0B5264D07462B6885B002205B690E4698472B6802205B6B71
:201A60009847012804461F4BF7D11B684FF48070DB6998471C4B1D4A1C6013689B07FCD5D1
:201A80001B4A1C4913681C484FF0030E082523F00F030C4609681360C0F800E00023019574
:201AA00000971A460F684FF080401449B847144B29461B6800965D6C09224FF0FF334FF0D2
:201AC0008040A8470F4A136843F002031360236803A91B694FF0804098470028F7D105B09A
:201AE000F0BD00BFB8010010282008602820084014000040C401001020000040006CDC029E
:201B0000B40100100400004010B5174B4FF480701B681B6A9847154B0121154A19601368A6
:201B20009B07FCD5134C082023689B6B984723684FF400519B6908209847236809209B6B57
:201B4000984723684FF400519B690920984723680A209B6B984723684FF400519B690A2094
:201B6000BDE81040184700BFB80100102820086028200840B401001010B5064C04202368BE
:201B80005B699847236804205B6B98470128F9D110BD00BFB8010010F8B51A4A00200021B4
:201BA000C2E90001184B04201B685B6B9847012801D0FFF7E1FF144B00201B68DB699847D5
:201BC000124B0121124A196013689B07FCD5114A11491368096823F4807323F001030F4CA6
:201BE00013600B6820460E49984740F221200D4D0D490E4B04273126012227602E600860C5
:201C00001A60F8BDD0020020B801001028200860282008400C000140C80100100000014033
:201C2000002100043C000140080001400400244310B40949094C0B68226808688342FAD1E6
:201C4000DB01074903EB52620023C1E9002310BCD1E90001704700BF082009400C200940E3
:201C6000D002002010B50B490B4C0B68226808688342FAD1DB01094903EB52620023C1E968
:201C8000002302F079FC00B910BDBDE8104002F045BC00BF082009400C200940D0020020B5
:201CA00010B507F049FA034B1C6808B907F048FA204610BD082009402DE9F04107F03CFA41
:201CC0001D4E1E4B1E4F32680124002580464FF480314FF480703D601C601860196013686D
:201CE000284623219847336820461B6824219847336825211B6802209847124A1249136814
:201D000043F4E02313600D6007F0A0FA0F4B1049104A1B6800F50070086014603C601B6927
:201D200014209847B8F1000F01D0BDE8F081BDE8F04107F005BA00BF8401001004200940A4
:201D4000000024430020094008200940B00100101C200940A0022443431E012B10B419D9B0
:201D6000042801D010BC704700231A4610F004001CBF0E4C216013B10D4B0121196012B12C
:201D80000C4B01221A600028ECD00B4B01221A6010BC704710F0010302D0084A0123116038
:201DA00010F00202E2D0064C2160DFE72020094080022443A0022443C002244318200940AF
:201DC0001C200940014B1868704700BFCC08002008B509F009FD184B1860FFF743FF174B17
:201DE0001B686BB9164B1B68E3B9164B1B6833B11549164B00204FF4803208601A6008BD79
:201E0000124B4FF480721A6007F020FA00F205200F4B20F4FF7020F001001860084B1B6852
:201E2000002BE2D00B49094B0020012208601A6002F05CFDD9E700BFCC080020A000244333
:201E400080002443C0002443C0022443042009401C2009408002244303490448044B012266
:201E600008601A60704700BF00000840FFFF0F00000C0840F8B507F05FF9124AB0FA80F0EF
:201E80001368012B0BD0104C104D1149114A0123400925600B601360C3070FD4F8BD0E4FC3
:201EA000094D0A4E0A4C0B49400940F0020017602E6023600B601360C307EFD5BDE8F8407E
:201EC00007F03EB9000C084000000840FFFF0F000C0008400401004351E5CC1A034904481B
:201EE000044B012208601A60704700BF00000840FFFF0F000C00084010B50446C0B200F0FE
:201F00007DF9204610BD00BF70B506460024451E04E015F8010F00F071F9013430460CF05F
:201F2000B3F9A042F5D80A2000F068F900F07AF90128FBD0204670BD70B50446B0B1007899
:201F4000C0B1A9B10025661804E014F8010F38B1B44205D000F052F9631C05F10105F4D1E4
:201F600000F060F90128FBD0284670BD0546F7E70D46F5E70546F3E710B40B4B0B4C13F890
:201F8000012FFF2A0DD1A342F9D1094A39B11144013801390B78914200F8013FF9D110BC32
:201FA0007047044AF2E700BFC7FF0100CFFF0100F0120050C8FF010038B50C4D02202B68D9
:201FC0005B6998472B6802205B6B984701280446064BF7D11B684FF40070DB699847044BD0
:201FE000044A1C6013689B07FCD538BDB801001028200860282008402DE9F04340F2F27549
:20200000DFF8DC8083B0FFF7D7FFD8F800302A4EDB682A4898473368294C5B69152098479A
:202020002368DFF8C090274F23F4FE63D9F8002023F0020323603D60D36B0320984722492C
:20204000D9F800300820122208600092D3F840900322132302211948C847D8F8002060232D
:20206000D2F8048019494FF4E1321448C04740F2011240F2013E1649164B14200860196864
:20208000154841F01001196003681449002B0CBF134673460B603D60036853B123683268BC
:2020A00043F0500323601369152003B0BDE8F043184703B0BDE8F083B001001000100040A0
:2020C000381000404410004090200240006CDC02341000402C100040D00800203010004030
:2020E000D0010010B401001008B5064B02201B685B6B9847012803BF034B186800F0010038
:20210000002008BDB80100106C20084038B50446FFF7EAFF18B1254A13681907FCD4032C55
:2021200003D0234B1B6803B138BDFFF7DDFFE0B9204D4FF400702B681B6A9847032C2AD087
:202140001D4B01211D4A196013689B07FCD5032000F0BCFA022000F0B9FA132000F0B6FAC6
:20216000BDE83840122000F0B1BA154B15481B68DB689847144B15201B685B69984740F267
:20218000F270124A1249136823F4FE6323F0020313600860CCE72B684FF400709B6A984763
:2021A0002B684FF400701B6B9847C9E718100040D0080020B801001028200860282008405B
:2021C000D001001000100040B0010010381000404410004010B506F0AFFF0446054800F001
:2021E00059FA054B00221A6004B110BDBDE8104006F0A6BFD0000020D008002010B50446D7
:20220000FFF772FF08B9FFF7F7FE044B2146BDE810401B680248DB69184700BFD0010010F0
:202220000010004008B5FFF75FFF18B1024B1868C0F3C00008BD00BF1810004038B5FFF765
:20224000BBFE40F2F2710C4B0C4A1B68116013F0500F10D00A4C0B4D05E02B681B699847C4
:20226000094B1B6823B923680848DB06F5D538BDC0B29847F7E738BD4010004044100040E8
:2022800018100040D0010010D0080020001000402DE9F04740234FF0000882B00F461646D3
:2022A000CDF800800193054606F046FF494A4A4BC2F80080444601204FF480714FF4803289
:2022C000DFF85881186019601A60D8F8003020463F211B6801349847042CF6D1DFF83C81FB
:2022E0000024D8F8003020463F219B6801349847032CF6D1394B1B68FFF7F0FD384802F08B
:2023000095FB044630B1A368032003B198472468002CF8D16B1C0CD0324BAA0013430021BF
:20232000314A1960136846F000523A4328461B6898472E4EDFF8E89000243368C9F80040CE
:202340009B6907209847684609F064FA00F08CFA00F03AFA264827490368326823F00303D8
:2023600003600B68244D23F00F030B609369382098472C60012009F06DFADFF8A8A01F48C0
:202380001F4A4FF001081F491F4B2C60134FCAF80040C0F8008014601C4A0C60C9F800404B
:2023A0001C603B681A491368096823F0030313604B68184803219847174A33682C60CAF8C3
:2023C0000040C2F800809B6B3A68984702B0BDE8F08700BF00002443042009402C20094006
:2023E000D4080020001A4442B4010010B80100100010094008100940401009408801044390
:2024000040012243440122430800094024220840D80100100040034018100940840100101B
:202420000C40094020042243034A136823F00403136030BF704700BF10ED00E070B506F0CC
:202440007BFE02F0F9F918B1BDE8704006F078BE804802F0EBFA0225044648B1636823B12D
:202460009847A84228BF2846C5B22468002CF5D109F0BAF9784B04461B68002B40F08980A9
:2024800002F07AF8002840F0B2800346012D00F09380022DD8D1002840F0C780611E284670
:2024A000FFF75AFC6B4802F0C1FA0625044600287BD0A368022003B198472369246825EAA1
:2024C0000305002CF5D1FFF709FD6B0705F006046ED4002C40F0A38000F0C6F9002009F00C
:2024E000B9F95E495E4A0B685E4823F003030B601368016843F00F0313608B693920984776
:20250000594A5A4900231360184613600B6006F0ABFB062C00F08E80554C564D564E2B685C
:202520002368326823F00303236053680321534898474C4B1B689B6B98472B6806F0C2FC3B
:202540004F4A3368002111604C485B680121984723684C4A012143F00303236011602B685A
:2025600006F0E8FC09F042F9FFF77CFBFFF7B6FC384802F05BFA044628B1E36803B1984770
:202580002468002CF9D106F0DBFDBDE8704006F0D7BD3D4B1B681B1A022B3BD4A3F28F2349
:2025A000002BBFF66DAF012335E0FFF797FC0624344B00221A608CE7002842D06FF0070203
:2025C000121BDA423AD404F58031CA1A11EA220138BF19460220FFF7BFFB2C4A136823F0CC
:2025E0000403136030BFBDE8704006F0A9BD01F0CBFF0646FFF71CFB361A002E7FF724AFE6
:20260000FFF7E0FB224A00EB4623121BDA421BD401203BE700239D4228BF1D4630E7114BEF
:2026200020461B689B69984756E719462846FFF793FB37E7022006F067FD6DE704F1080154
:20264000C8E704F58031C5E7022DB7D0012D7FF4FBAEB3E7D408002080022443001009409D
:2026600008100940B80100104010094020042243242208402C200940D8010010004003407F
:20268000800104430C4009401820094010ED00E071FDFFFF0146014802F0CAB9D408002012
:2026A0000146014802F016BAD408002010B5054802F0B8F9BDE81040034B20211B680320ED
:2026C0001B681847D408002084010010431C0ED010B50446064B4FF4C0421B6800211B687E
:2026E0009847044AA3001A430023136010BD7047B4010010001A444238B504460D4606F0AE
:202700001BFD01230549064AA3400B6042F8245000B138BDBDE8384006F012BDE020024019
:20272000D8080020064B002103F1800243F8041F9342FBD1034B10201B681B69184700BF0F
:20274000D4080020B0010010F8B5094B094F1D6800241D60012606FA04F32B42E0B203D04D
:2027600057F8243003B198470134202CF3D1F8BDE0200240D808002000B585B00022412377
:2027800002A80292039309F045F8042006F098FD032810D00321042006F06AFD042006F0B6
:2027A0008FFD0328FAD100901C234FF040520021044806F0FFFC02A809F082F805B05DF872
:2027C00004FB00BF00A00C4000B583B00022412368468DE80C0009F01DF8042006F070FD1D
:2027E000022808D00221042006F042FD042006F067FD0228FAD1684609F062F803B05DF8DF
:2028000004FB00BF00B583B00022412368468DE80C0008F0FFFF012006F052FD012803D005
:202820000121032006F024FD684609F049F803B05DF804FB00B583B00022412368468DE8BC
:202840000C0008F0E7FF012006F03AFD012803D0044B986B06F042FC684609F031F803B03B
:202860005DF804FB4800001010B582B04123684600240193009408F0CDFF0320214606F013
:20288000F7FC012006F01CFD18B1044B986B06F025FC684609F014F802B010BD4800001059
:2028A00008B509F04DF830B1044B5B88022B14BF0220012008BD022008BD00BF940900209F
:2028C00070B582B009F03CF840B901A9134809F03FF801280AD0002002B070BD0F4C6388FE
:2028E000022B08BF0120F0D102B070BD08F07CFF6FF03F05094C2D1A03E008F075FFC5421B
:2029000009D56088054E0228F7D1A0F10200B0FA80F04009E8E77088F7E700BF9409002095
:2029200008B5B32994BF0A46B422014602480BF01BFB002008BD00BF160A002070B505468F
:2029400006F0FAFB04462DB1124A134B12681A6094B170BD0F4B104D1E68002116F180401F
:202960002A684FF0000341F10001994208BF904206D32E60002CECD1BDE8704006F0E0BBA6
:2029800008F032FF054A064913680860013313602E60EFE7043004405809002090090020D0
:2029A000FC0B002030B589B002A840F60202182109F012FA164B9DF81A201B689DF81B400D
:2029C0001979144D61F3050211468DF81A205A7902A862F387118DF81A109A7901A9012399
:2029E00062F347048DF81B4007958DF8163008F0AFFF012802D0002009B030BD02A808F0E7
:202A0000F1FFA0F10100B0FA80F0400909B030BDE4000020FC00002008B5FFF7C3FF01286D
:202A200001D0002008BDFFF74BFFC0B208BD00BF70B50E4D0E4E2C68002006E02379022B6B
:202A400006D024682B689C420ED02379032BF5D133780120002BF4D1064801F023FF24688C
:202A60002B6801209C42F0D170BD00BF840900205C2900203402002010B582B009F0A6F9E0
:202A8000044608F05DFF08B902B010BD01A9084808F05EFF0128F7D1638803F44063002B68
:202AA000F2D1638803F44063002BF5D0ECE700BF010001040B2807D00C2801D0012070475F
:202AC000042A11D002207047082AFBD10029F9D0094B0139A3F1080013F8012D834201F8FD
:202AE000012FF9D1002070470029EBD0034B00201B680B60704700BFC4090020200D002015
:202B000042F2034310B584B0002402A801A902940394ADF8083008F01BFF20B19DF90A300D
:202B2000803302D0204604B010BD9DF80C0000F00C00A0F10400B0FA80F0400904B010BD13
:202B400010B582B008F0FCFE20B3144C6388022B03D01FE0FFF7D4FF18B108F0F1FE0028CE
:202B6000F8D101A90E4808F0F3FE02E06388022B03D108F0E5FE0028F8D142F202426388A6
:202B8000934207D042F20740181AB0FA80F0400902B010BD012002B010BD00BF94090020DE
:202BA0000100010430B585B008F0CAFEB8B10D4B5B88022B13D142F20345002401A902A88C
:202BC00002940394ADF8085008F0C2FE38B19DF80A305B06F2D09DF80C0005B030BDFF20D6
:202BE00005B030BD940900200B2801D001207047082A01D0022070470029FBD008B50C4BB6
:202C0000083103F1080011F8012D03F8012F8342F9D108F095FE50B1064B5B88022B05D1CB
:202C2000FFF78EFFFFF74CFE032008BD002008BDBB0900209409002008B509F023F9012868
:202C400014D008F07DFE88B1094B5B88022B0DD108F076FE30B9FFF7A5FFFF2806D0C0F303
:202C6000801008BDFFF74CFF0028F4D0002008BD9409002008B502E0FFF742FF18B108F099
:202C80005FFE0028F8D1FFF75BFF08F08FFFFFF7EBFD0E4B0E48197900220229428012D000
:202CA0000C4B1A79022A04BF00221A710A4B1A79022A04BF00221A71084B1A79022A04BF35
:202CC00000221A7108BD1A71EAE700BFDC0A0020940900206C0B0020900C0020000C002025
:202CE00008B509F0CFF8012801D0FFF7C3FF012008BD00BFF8B509F0C5F8012830D0FFF77E
:202D000081FD08F01DFE38BB1E4A1F481F49204B92F805E047794E795D79012464F3830EB4
:202D200064F3830764F3830664F38305882482F805E0106047710160C480D480CC804E71BC
:202D40000B601A60DC805D71FFF774FD08F0C6FF012807D00020F8BD0E4B5B88022BD3D15E
:202D60000120F8BD0C4B1878003018BF012008F0D3FFFFF717FE0128ECD1BDE8F840FFF7E0
:202D80009FBD00BFDC0A00206C0B0020900C0020000C0020940900205C29002070B584B0D8
:202DA000072800F2B380DFE800F01E61262F325C6B04574C217708F0C3FD10B36388022B69
:202DC0001FD1FFF7BDFE012814BF0324002408F093FF0020FFF7B2FDFFF772FD01287DD0E1
:202DE000032004B070BD012900F08480002977D0022004B070BD464C618608F0A1FD002807
:202E0000DCD1002004B070BD414C2186D3E731F00702EDD13E4C3F48237EC1F3400561F32F
:202E20000003DBB243F00203067865F38203657EC1F3800103F0870362F3C71362F3C7157A
:202E40008E42657623760170B5D1334B228B184603A95A8008F07CFD002814BF0020032079
:202E6000BFE731F00103C3D1C8B2BAE7A1F10B030F2BBDD8264CA37B9942C2D0A1739AE7D7
:202E800001F115031A2BB3D8244A6FF014030C2401E052F83430994232DD14F1FF34F8D2C9
:202EA00008F04EFD00289CD04FF000021B4B102503EBC40423796079A17903F03F0360F392
:202EC000871361F3470203A802A98DF80E308DF80F20ADF80C5008F03BFD92E7204680E777
:202EE000019108F0CFFF01288BD0FFF7C3FE0199084676E7FFF7FEFE01287FF471AF80E7E5
:202F0000064B074A03EBC4031360C9E7012068E7940900205C2900207C09002088EA00004E
:202F2000E400002081B130B50C4683B0102800F28580DFE800F05C57524D6C694741282212
:202F40001D83831915100B000220704705230B60002003B030BD6FF014030B600020F8E7F9
:202F60001A230B600020F4E70B230B600020F0E7474B00201B780B60EBE7464B00201B7858
:202F80005BB20B60E5E708F0DBFC002858D0424B5B88022B54D140F203430022694601A81A
:202FA0000192ADF8043008F0D3FC01286CD06FF07F0323600320CCE7374B002093F91C30C5
:202FC0000B60C6E7354B00201B681B680B60C0E7314B00201B8E0B60BBE72F4B00205B8E4C
:202FE0000B60B6E72C4B00209B7B0B60B1E708F0A7FC30B1284B5888A0F10200B0FA80F09D
:20300000400920600020A4E700200860A1E70023214A0B60137E03F001030B60127E520757
:2030200044BF43F002030B601D4B1B78002B9DD00B68002043F004030B608AE7012088E71E
:20304000FFF758FE0128B2D140F203430022694601A80192ADF8043008F07AFC01280CD0A7
:2030600008F010FF0128A2D06FF07F05FFF702FE256080357FF47AAF9CE79DF9025008F09C
:2030800001FF0128F2D1F3E79DF90250F0E700BF5B2900205A29002094090020E4000020E4
:2030A0005C29002070B588B0054608F049FC002851D03E4B5B88022B08BF00264BD108F0A3
:2030C00093FB6FF01F04241A07E0FFF719FD012848D108F089FBC44246D508F031FC002883
:2030E000F3D102A842F60142182108F075FE304C304B0022EDB28DF81750217806930492D7
:203100009DF81430891A18BF012162F3030301208DF8143008F03AFE02A801A908F018FC65
:2031200030B3207801E0002835D0BDF80A3003F44063002BF7D0BDF80A40A4B2B4F5105429
:2031400018BF0124003018BF012008F033FEC6B9204608B070BDFFF7CDFD012819D0012065
:2031600008B070BD0028BCD0C6B9022008B070BD20780124003018BF012008F01BFE002E0C
:20318000E6D008F07FFE0128E2D0FFF773FD2046E6E7064693E7FFF747F9C2E708F072FE83
:2031A0000128E2D0FFF766FDDFE700BF940900205C290020160A002010B50C46B32998BF6A
:2031C0002246014688BFB42203480AF0CDFE2046BDE81040FFF766BF160A002010B508F0A0
:2031E00051FE012824D008F0ABFBB0B11B4B5B88022B03D011E0FFF783FC18B108F0A0FB59
:203200000028F8D1FFF7CEFCFF2811D000F0030010F1FF3018BF012010BDFFF76BFD012886
:20322000044607D008F02EFE012801D0FFF722FD012010BDFFF7B6FCFF2805D000F00300B5
:2032400010F1FF3418BF012408F01CFE012803D0FFF710FD204610BD204610BD940900200A
:203260002DE9F0434B4D83B080460F462E6808F067FB30B1484B5B88022B02D10020FFF7C2
:203280005DFB08F0B1FA454C241A03E008F0ACFAC44208D53379022BF8D0032B06D000203B
:2032A00003B0BDE8F0833379032BF8D12E68394A337A032B07D996F808905FFA89F9A9F131
:2032C0000804BC4207DD3368002013603071307203B0BDE8F0834046224606F109010AF0DB
:2032E00043FE09F10302B35C09F1050956F809002B4F5BB23B700190B35CDDF80480294E7E
:20330000294A03F07F03B8F1404F3370D2F800900BD908F069FA254B1B68C3F17E4303F5F1
:203320007203C34248BF09F1FF39DFF88CE06FF4BF70DEF800E010EB08004FF0FF3141F1AB
:2033400000010022B0EB0E0061EBEE71121849EB0103190241EA12611002002343F6095212
:203360000AF0FAFB124B134A1B7810603BB12B6800221968204629601A721A7190E7397851
:20338000042049B289B206F0A1FB3178032006F09DFBECE78C09002094090020FAFEFFFFAC
:2033A0005A2900205B29002090090020FC0B00205C290020200D00207821002010B508F07E
:2033C000BFFA78B10E4B5B88022B0BD10020FFF7B5FABDE8104000230A4A4FF487310A4848
:2033E00000F08EBFFFF786FC0128F2D10020FFF7A5FA08F047FD0128EBD0FFF73BFCE8E75B
:2034000094090020BD3300005C090020F8B5304F3048FFF73FF908F03FFC38469022002124
:203420000AF07CFE902200212B480AF077FE902200212A482A4C0AF071FE902200212948FB
:203440000AF06CFE284E294B00252946802220461F60376075600AF061FE42F6010E42F2C3
:203460000200072202236376227621491922214B278B2661A273B9266F22E6736161E27649
:20348000FF210122A626A4F800E026775F801971A176627384F837201880FFF72BFC0128FE
:2034A00002D02C462046F8BD0446134808F0A2FC2046FFF743FA2B46104A4FF487311048BB
:2034C00000F01EFF29460F4801F024F92046F8BDDC0A0020E80000206C0B0020900C00208F
:2034E00094090020000C0020840900208C090020CC0A00207C09002028EB0000BD330000E3
:203500005C0900203402002008B500F08BF880B208BD00BF00F010B938B50C4D04202B6834
:203520005B6998472B6804205B6B984701280446064BF7D11B6840F20140DB699847044B98
:20354000044A1C6013689B07FCD538BDB80100102820086028200840034B1B68002B14BFE6
:2035600001200220704700BF240D0020F8B503880446002B2ED0B3F5847F05D1184B1B781F
:203580008B4205D00120F8BD002303800320F8BD144D2B6873B1144B144A1B6812685B68A0
:2035A0000220174698470026301847F100012B6898472E600E4B40F201401B689B6A9847D3
:2035C0000C4B01210C4A196013689B07FCD50B48FFF766F84FF4847323800120F8BD00BF9C
:2035E000CE020020240D0020CC01001004800240B801001028200860282008402801002095
:2036000008B5064B04201B685B6B9847012803BF034B1868C0F34000002008BDB8010010F6
:203620003C20084070B5274B1B689BB1264C0023224612F8011B29B90133042BF9D100202E
:20364000014670BD214A002502EBC302E55492E8030070BDFFF7D4FF00282FD01C4A1D4B13
:203660001268134073B91C4A0121134611601A68002AFCD110464FF4807105F065FD174B43
:2036800001221A6005F058FD0646114A1368DB07FCD5134B134A1B6814685B6802209847F0
:2036A00023460022141843F1000516B12046294670BD05F045FD2046294670BDFFF72CFFF7
:2036C000CCE700BF240D0020280D0020D80200200880024001000080F09F0240A802504280
:2036E000CC0100100480024038B50E4D00240E4A2C6013680D4923F00103096813604B6957
:2037000031209847224620464FF4807105F01CFD0122074B2A6019782246BDE83840054807
:2037200001F094B8A80250420C800240B0010010CE0200203C01002010B5074C2378802BD6
:2037400000D010BD00F0DEFF207000210348BDE8104000F0DFBF00BFCE0200203C01002074
:203760000AB90020704708B508461146FEF7E4FB002008BD0FB400B583B004AB53F8041BD0
:2037800004481A46019300F07BF803B05DF804EB04B070474C01002038B543680446934200
:2037A0008CBF154603F1FF352A4600680AF0DCFB94E80C002A445D1B84E82400002038BD7F
:2037C0000CB430B587B00AAB53F8044B094D029003911A46214604A802AC0193049505945B
:2037E00000F04EF8029B00221A7007B0BDE8304002B070479937000038B50446154600684B
:203800000AF0B2FB236800201D44256038BD00BF0EB430B586B009AB53F8041B084D0190DB
:203820001A4601AC04A803930495059400F028F8019B00221A7006B0BDE8304003B070477A
:20384000F9370000102970B50C46054602D80AE0102C0BD92B681022084968689847103C48
:203860000028F5D070BD08460029FBD022462B6868680249BDE87040184700BF4CEB00002C
:203880002DE9F04F834688468FB001924FF0000998F80030002B00F0E380252B08BF454642
:2038A0001DD0444603E0252B00F045812C466378651C002BF7D1454500F0D280C8EB05065D
:2038C00041463246DBF80030DBF804009847002840F03D826378B144002B00F0C1806B780A
:2038E00005F10108002B00F0BB800025A3F12002102A1BD8DFE802F0171A1A141A1A1A1AEB
:203900001A1A1A111A0E1A1A090045F0100518F8013FEBE745F00105F9E745F00605F6E73F
:2039200045F00805F3E745F00205F0E7A3F13102082A00F2D580002404EB840403EB440447
:2039400018F8013F303CA3F13002092AF4D92E2B00F0CE804FF0FF366C2B00F0E280682B5E
:2039600000F04481782B00F28180DFE813F079007F007F007F007F007F007F007F007F00C1
:203980007F007F007F007F007F007F007F007F007F007F007F007F007F007F007F007F0037
:2039A0007F007F007F007F007F007F007F007F007F007F007F007F00E2027F007F007F00B2
:2039C0007F007F007F007F007F007F007F007F007F007F007F007F007F007F007F007F00F7
:2039E0007F007F007F007F007F007F007F007F00DF027F007F007F00DC02D902D6027F0061
:203A00007F007F007F007F007F007F007F007F007F007F007F007F007F007F007F00D30260
:203A20007F007F007F007F007F007F007F007F00D0027F00CD02CA02C702C402C1027F00D1
:203A4000CA027F007F007F007F00BE02BB027D007F007F00B8027F00B5027F007F00B20204
:203A600048460FB0BDE8F08F45F4407505F4E063B3F5806F08F1010800F06E815FD9B3F553
:203A8000C06F00F0A181B3F5E06F00F09681B3F5A06F7FF4FDAE019A012C136888BF04F193
:203AA000FF3402F104028DF8203098BF0024EB07019200F1F38121465846FFF7C3FE0028BC
:203AC00040F045810122DBF8003008A9DBF8040009EB02059847002840F03981254497E175
:203AE0002A2B00F08D802E2B4FF000047FF432AF98F8013008F10101A3F13002092A00F2DD
:203B00008D808846002606EB860603EB460618F8013F303EA3F13002092AF4D96C2B7FF45F
:203B20001EAF98F801306C2B00F05A8108F1010845F0600516E745457FF4C0AECFE6B3F534
:203B4000807F70D0B3F5407F7FF4A2AE0198B24B15F4804FB14F18BF1F4603460168043369
:203B600001930A460023002900F0AB810DF1330E7046110941EA03714FEA131C02F00F06DC
:203B800063460A46B95D00F8011D52EA0301F0D1BEEB000600F097810336B4424FF078035F
:203BA0004FF0300200F8013C00F8022C4FF023038CBFA41B0024EA0700F8033CA0F10307E3
:203BC00000F1BA8121465846FFF73CFE002840F0BE803946DBF800303246DBF8040098473E
:203BE000002840F0B48009EB060511E198F80130682B00F0B58108F1010845F04005B1E6BB
:203C0000019A08F10108134614680433002C0193B8BF45F0010598F8003098E62A2B00F006
:203C2000A681884696E6002EABBF25F0100501230596059315F40053049305F0E00300F03F
:203C4000F580402B00F0A88200F29B81002B00F06182202B40F08A82019991F9002004315E
:203C6000D3170191002A73F10001C0F25F82CDE902230023069305F4C053B3F5805F00F08C
:203C8000F080B3F5C05F00F0CC81B3F5006F00F0ED810DF1360A002741F60803059941F2C3
:203CA00008028F4203EA050380F08E819342A1EB070600F0518241F60802934207EB060175
:203CC00000F08D8100231A460293049B83B1069B002B40F0928105F00603022B00F05382FC
:203CE0004F48062B08BF0246029B08BF01230293029B0B449C428CBFE41A002415F0010390
:203D0000049304D1E80640F11D8226441C46029838B11146DBF800300246DBF804009847D2
:203D2000A8B9102E07EB090540F2C381B14603E0B9F1100F40F2BF81DBF8003010223949A2
:203D4000DBF804009847A9F110090028F0D04FF0FF300FB0BDE8F08F019A1346D2F800A063
:203D600004330193BAF1000F00F0E8819AF8007037B1574617F8013F002BFBD1CAEB0707D5
:203D8000002E02DBB74228BF3746BC428CBFE41B0024E9072BD421465846FFF753FD0028ED
:203DA000D5D15146DBF800303A46DBF8040098470028CCD107EB09052AE0019A1368043272
:203DC0000192C3F8009063E5DBF8003001221649DBF8040098470028B9D109F1010957E590
:203DE00098F8023045F0800508F10208BAE55146DBF800303A46DBF8040098470028A6D136
:203E00002146584607EB0905FFF71CFD00289ED104EB05093CE500BF6CEB000080EB000058
:203E2000A4EB00005CEB0000B0EB0000402B00F0AE8100F2B680002B00F06181202B40F0E7
:203E4000E080049A019906920A780023CDE902230B460433019305F4C053B3F5805F7FF490
:203E600010AFDDE90223134300F09D810DF1360307939A46DDE90223D00840EA4370DE08FD
:203E800002F007013346024630310AF8011D52EA0301F1D1079BCAEB0307FDE6DBF800309D
:203EA000012208A9DBF80400984700287FF44FAF2146584609F10105FFF7C4FC0028A7D085
:203EC00045E70DF13300302300F8013C0426013863E645F4C855C9E545F41065C6E545F4BB
:203EE0008065C3E545F48855C0E545F4E065BDE545F48135BAE545F40075B7E545F4024502
:203F0000B4E545F42455B1E545F4A065AEE545F4C135ABE545F4B245A8E545F4A135A5E5DA
:203F200045F48445A2E545F442459FE545F4E1359CE545F4C06599E53946DBF8003032460E
:203F4000DBF80400984700287FF401AF2146584609EB0605FFF776FC00283FF459AFF6E6B5
:203F600098F8023045F0200508F10208FAE4019998F802300A4604320E68019208F1020856
:203F8000EAE4602B00F0C680802B40F0EF80019B073323F0070303F108020192D3E90023E5
:203FA00060E6602B00F0AB80802B2AD1049B0693019B073323F0070303F108020192D3E9F7
:203FC0000023CDE9022356E6934200F0CD8041F608020026934207EB06017FF473AEDDE906
:203FE000022313433FF46EAE744B15F4804F744A18BF1A460223029367E601230293714AF0
:2040000076E605F4C053B3F5805F00F0D080B3F5C05F40F0AE8000230022CDE90223002309
:204020000693694B15F4804FDDE90201674E024618BF1E460B46134300F0B5800DF1360357
:2040400007939A4602460B46110941EA03711F0902F00F003B460A46315C0AF8011D52EAB1
:204060000301F1D1079BCAEB030715E6DDE9026732463B46134300F096800DF136039A4683
:204080000793304639460A22002309F065FD3032304639460AF8012D00230A2209F05CFDBF
:2040A00006460F4656EA0703EBD1079BCAEB0307F2E556B1B1464A46DBF800304449DBF830
:2040C0000400984700287FF442AE3A46029F51462F44DBF80030DBF804003D4698470028E3
:2040E0007FF435AE049B3544002B3FF491AE21465846FFF7A7FB00283FF48AAE27E6019ADD
:20410000136804321946049B01920022CDE902120693B0E501990B460A6804330193002AF1
:204120004FEAE27373F10001BFF6A1AD524263EB4303CDE90223012306939CE5DFF898A039
:2041400006271DE6214658460592FFF77BFB059A00283FF4DCADFAE5002E08BF0126002386
:2041600002931A46B919B0E50126F8E7002200237DE5002306931F4600220023CDE90223F5
:204180000DF1360A88E50123124A0293B0E5049A019906920A8858E60199B1F90020043191
:2041A000D31701915EE500270DF1360A74E500230022CDE902230023069352E694EB0000EF
:2041C00098EB00009CEB00006CEB000080EB00005CEB0000A0EB0000A8EB000010B504469F
:2041E000006830B1002100F095FA54F8040F0028F8D110BD704700BFF0B5038883B0054695
:204200005BB14A2B04D188291BD0012003B0F0BD00230380032003B0F0BD194800F006FCAF
:20422000044630B1A168201D00F07EF92468002CF8D1144B01221A704A2301202B8003B02D
:20424000F0BD0F48019200F0F1FB04460028F3D0019A031D9A4205D02468231D002CEBD097
:204260009A42F9D12146064800F034FC064E6269A369376832600BB1E06998473760DBE72A
:204280002C0D00205D290020380D002010B5064B002406481C7000F0C5FB2146BDE810409A
:2042A000034800F037BA00BF5D2900202C0D00205401002070B504460D48049D0078A261BF
:2042C000E361656130B9A1600A482146BDE8704000F0AEBB084D094B2E68201D2B6000F08C
:2042E00023F92E602146BDE87040024800F0A0BB5D2900202C0D0020380D002054010020EA
:2043000010B5044C82B024680094FFF7D3FF02B010BD00BF380D002070B5094B04461B7875
:204320003BB1084D084B2E6804302B6000F006F92E602146BDE87040044800F079BB00BF2C
:204340005D290020380D0020540100202C0D002070B5094B04461B783BB1084D084B2E6804
:2043600004302B6000F0F4F82E602146BDE87040044800F05DBB00BF5D290020380D00203A
:20438000540100202C0D002010B50A4B04461B783BB9C36003612146BDE81040064800F043
:2043A00099BB043000F0FAF82146BDE81040024800F090BB5D2900202C0D002010B50E4C94
:2043C0002368B3B1FDF734FC226892E80A0092680B44191A4AB114685368926823441B1A78
:2043E000994228BF1946002AF5D1044B0144196010BD024A136010BD300D0020340D002088
:204400002DE9F041038805467BB1592B08D1872912D0822920D059232B800120BDE8F0816B
:20442000002303800320BDE8F081254A0120136059232B80BDE8F081214F39680029EAD069
:20444000CB689A4203D024E0CB689A4220D189680029F9D13960DEE7194F4FF000083C68E1
:20446000002CD8D0002604E0A3682646002BD2D01C46204600F062FA0028F5D02246882108
:20448000E06800F0E3F978B10E4800F00BFAEBE739608B68002BBED0D86882420BBF9B68AC
:2044A00019468B609B68F5E7E060A3682EB1B360C4F80880FFF782FFD1E73B60F8E700BFEA
:2044C000300D00206401002010B50446104800F0E9F91049E3680A684BB142B194420FD007
:2044E000134601E09C420BD09B68002BFAD10A4BA2601B680C60E360BDE81040FFF75EBF3F
:20450000054B1B68E360BDE81040FFF757BF00BF64010020300D0020380D0020014800F045
:20452000C1B900BF6401002010B5044600F0F2F92046BDE81040FFF7C7BF00BF10B504462E
:2045400000F0F0F92046BDE81040FFF7BDBF00BF10B5044600F0ECF92046BDE81040FFF7C1
:20456000B3BF00BFC068B0FA80F04009704700BF05C81044704700BF024B1868003018BF9E
:2045800001207047300D0020024B186808B1024B18687047300D0020340D002010B50F4BFF
:2045A00004461A68824213D072B19368984208BF134605D043B19A68944201D01346F9E7C5
:2045C000A2689A60FFF7FAFE0023A360E36010BD82681A60FFF7F2FEF6E700BF300D002070
:2045E0002DE9F843DFF8A480274DD8F800702E68874247D077B33B4601E0002B3BD01B6800
:204600009842FAD133B3837B8946044623B3002383736FB1BC424FF0870106D0BB7BDB0736
:2046200003D52246384600F033F83F68002FF1D1A3683BB14C4505D02C600022832104F165
:204640000C009847D8F80000844208D12368C8F800302E60BDE8F88338468442F6D00028A5
:20466000F7D003689C4208D0002BF2D01A68944204D01346F8E7BDE8F883034622681A6094
:204680002E60E7E73B46BDE7380D00203C0D002070B586687EB104460A4802230460A3734E
:2046A00004F10C000D46B0470238012804D9832D02D00123A37370BD21462046BDE8704064
:2046C000FFF78EBF380D002070B50C4A0C4B146800251D7084B1012601E0246864B1E37BF6
:2046E000002BFAD0A673E573204600228221FFF7CFFF2468002CF2D170BD00BF3C0D002095
:2047000060290020024B1878421C1A70704700BF6129002070B50F4D2C68844206D034B175
:20472000234600E01BB11B689842FBD170BD0028FCD00346084E04600A46346801200021E9
:2047400098739981184681212B60FFF7A1FF346070BD00BF3C0D0020380D002070B4074852
:204760000749084A0023084D084C8A2603700B6013602E70237070BC704700BF5F2900204F
:204780003C0D0020380D0020612900205E2900202DE9F041234D2B780BB1FFF795FF224EEA
:2047A0003378BBB12148224F0278013B02EB4201890001327C1802F01F020270A068DBB2B8
:2047C00033707F5CD4F8048098B1812F06D0827BD20705D428781844BDE8F0810123837361
:2047E00042463946FFF754FF337828781844BDE8F081104A146834B9ECE7A37BD9070AD43A
:204800002468002CF0D02B78002BF6D0FFF75CFFA37BD907F4D5424639462046FFF738FFDA
:20482000EEE700BF602900205F2900205E290020400D00203C0D0020024A034B10781B7861
:20484000184470475F29002060290020F0B40C4D2C78202C11D00B4B0B4E1B78671C2344FA
:2048600003F01F0303EB43039B00F418A06062602F70F1540020F0BC70470120F0BC70479B
:204880005F2900205E290020400D002038B5837B034CDB07256801D5FFF7FAFE256038BD75
:2048A000380D002038B1837B013B012B03D8024A01231370C37370476029002006F08EBF9D
:2048C00038B5094C049D226822B180E82A002060002038BD024680E82A000846226006F0D1
:2048E0007FFF002038BD00BFC00E002010B5084C206858B10022436881682260984723682C
:2049000023B1BDE81040186806F06ABF10BD00BFC00E002010B541600446FDF789F920600F
:2049200010BD00BF90E80C0013440360704700BF10B50446FDF77CF9206010BD10B5044663
:20494000FDF776F923686268C3F101031844904294BF0020012010BDF8B504880546672C41
:204960000BD0792C04D0CCB1002303800320F8BD85291AD11D4C002323601C4C264604E088
:204980000A2814D023687E2B2ADD194800F03EF9431CF5D167232B800120F8BDFFF7B2FE68
:2049A000144A124B10701C60E7E70120F8BD0F4C114F23680F4A581C0026117820603A46DA
:2049C0003046FE54FFF742FF0C4B324618688521FFF73CFF0028CED179232B800120F8BDCE
:2049E00005495A1CC8543260CFE700BF440F0020480F0020B9310020500F0020380D0020F8
:204A000008B505490548802200F0F8F8BDE8084000210348FFF77EBEC40E0020480F0020C8
:204A20007401002000230360704700BF0068704710B404685CB1A14223D023680BB906E07E
:204A4000134699420FD01A681C46002AF8D100230B6002680AB910E01A461368002BFBD1EF
:204A6000116010BC70475CB10A68226000221A6000230B600268002AEFD1016010BC7047DF
:204A80000C46226823460260F0E700BF30B4056865B1A94219D02B682C460BB906E0134696
:204AA000994207D01A681C46002AF8D10D60016030BC704744B10A68226000221A6005680A
:204AC0000D60016030BC70470D462A682B460260F3E700BF10B404685CB18C4212D023689C
:204AE0000BB906E01346994205D01A681C46002AF8D110BC70472CB11A68226000221A602C
:204B000010BC70470A680B460260F7E703682BB100201B680130002BFBD170471846704731
:204B200000B10068704700BF10B5044642880021406809F0F3FA23886288A06802FB03F2CF
:204B4000BDE81040002109F0E9BA00BF30B44588BDB141680B7863B14A1C002303E014788D
:204B6000114601322CB10133AB42F8D1002030BC704701220A700288806830BC03FB020026
:204B800070472846F3E700BF70B4448882685CB18A4206460BD00588002301E0914207D042
:204BA0000133A3422A44F9D1FF2070BC704700237268D05C0028F8D00138D054726870BC26
:204BC000D05C704783688B4208D84288008800FB023081422CBF002001207047002070475E
:204BE000418849B143680020194413F8012B02B901308B42F9D17047084670470023013AF6
:204C00000160027143718371704700BF0346807959791A79091A114207D010B4411C1C6809
:204C20000A40205C9A7110BC70474FF0FF307047013A0A44914230B414D20C46257863780B
:204C4000023403EB05239BB2184480B2834284BF013080B2A242F1D8CB43134423F0010399
:204C6000023319448A4201D030BC7047137830BC1B02184480B2834284BF013080B270471E
:204C800030B5134B134D1C782B796A79C4EB0323134483B09BB2ADF80630BDF8063005F1EE
:204CA00008011844202280B2FFF7C2FFBDF8062004F12801294492B2FFF7BAFF18B94FF6F5
:204CC000FF7003B030BD40BA80B203B030BD00BF622900208C29002002200146F8B5304F25
:204CE000304D3A78304E2832AB185B783070DB0003F1070E4FF0000C704543DC8318EC5C91
:204D00002B44012C12D019D3632C07D1BCF1000F41D101F035FEA0B90120F8BD04F0C004E9
:204D2000802C19D0C02C26D0402C1FD0597802310844C1B208464FF0010CDDE70130C1B2DC
:204D4000F8E73B783278283313441D446B780020134402333370F8BDBCF1000F19D1024431
:204D60000221042007F066F90220F8BDBCF1000FD2D03170D0E7BCF1000F08D12B7EFF2BA1
:204D8000EDD1C9E7BCF1000F07D10020F8BD3170F4E73170E3E73170BBE73170F5E700BFD6
:204DA000622900208C290020642900203A20FFF767BF00BF08B507F091FC07F027FA00F048
:204DC0002DFB064A064B4FF48061118003F5A07100221A8220338B42FBD108BD462900204E
:204DE000942D0020F8B5114E3478F4B1104F04F127033D88AB4203DB00233B803370F8BD31
:204E00000C4BA5F128021919121B184609F022F903462C1BA4B2A4F12802101200213C8006
:204E200003F8232C03F8240C3170F8BD622900207C290020B4290020F0B50746DFF884C02D
:204E4000BCF800600136B6B2B6F5FA4F2DD2350245EA1625ADB2194A9646134602F5A07409
:204E6000188A2033A842EDD09C42F9D1ACF800600023108A203220B101330A2BF9D10020B7
:204E8000F0BD5C010EEB0406358271820B4B87B1354638687968BA68FB680FC5084A0EEB2D
:204EA0000403127930461A75F0BD10254FF48056D1E71F517760B760F760EFE7942D00203C
:204EC0004C300020462900202DE9F04F042883B020D0914BDFF86492DFF870A20528C9F883
:204EE0000030CAF800301FD013F83C2CA3F13C0402F0F002602A2ED0884D894EDFF84482A5
:204F0000884F00232B8088F800303B70337003B0BDE8F08F844C814D814E2388002B41D1C2
:204F2000DFF820827F4FECE7804A1268128A002AE2D07F487C4C794D794E00220C3B0821ED
:204F4000C9F80030CAF80030026022802A80317001F040FCE1E72279704D61791202288834
:204F60005618864258DC207A28310A44FF282A8052D0704E363BDFF8CC816A4FA2793360D9
:204F8000002388F800303B70002A5AD101233B70FFF7A2FE012800F0A78046D3022850D135
:204FA0005F4E34E0614A644C126803F1080149BA0020177DA185E085118A303321859BB22B
:204FC000508AA3F128014FEA212EE77111272B8084F804E060856171A77104F118050FCA5D
:204FE00085E80F00294604F1080007F0CBFA534B04F13C0238461A60FFF742FEC04380B2D9
:2050000078B1E085002360222270637063800023337003B0BDE8F08F414EDFF82881414FD9
:205020006FE74FF6FF73E385ECE798F8003003F1280222445178083303EBC103326088F81C
:2050400000303F4807F078F9002800F02D813368DFF8D0B03B491A783C2A00F20681DFE8BD
:2050600012F0DB00040104010401040104010401040104010401040104010401040104010D
:20508000040104014500040104010401040104010401040104010401040104010401040180
:2050A000040104010401040104010401040104010401040104010401E9004300040104017E
:2050C00004010401040104010401040104010401040104010401BC004300A70048F2FE03B8
:2050E0002189994200F044810D4E0AE7FFF77AFEE38D1120A071104E002B40F01B81B6F807
:205100002AB0BBF1000FEFD0084F0F4B0E4E3B60248D06F5A07820E0C82900207C290020F9
:20512000742D002063290020902D00207C2D0020842D0020782D00208C290020802D002024
:20514000A429002062290020942D002080290020203646453E6000F0A180338A002BF7D0CE
:205160005B45F5D1738A10227A480BB1A342EFD133682BB973681BB9B3680BB9F36823B13B
:20518000314608F0BFFE0028E2D12B88724A7348734C744E303B2B8002210023C9F8002020
:2051A000CAF8002003602380317001F013FBB4E63A7890076DD5500657D442F040028BF8CA
:2051C00000200191FFF788FD012801998CD053D302283FF4E5AE33683DE73A20FFF750FD11
:2051E0004FF6FF7398427FF47FAF98F800302833E05C01F0FBF998F800302833E218517863
:20520000E05C06F0F3FE01283FF46EAF2B88554E002B7FF4FCAE74E63A780191D10724D4E6
:2052200042F001028BF80020FFF756FD01280199CDD159E73A7802F0040000F0FF0EA0B9AE
:2052400098F8000042F0040200F12803234493F803C08BF80020BCF1000F73D15A78083008
:2052600000EBC2020A703360F5E61A1B0121042006F0E0FE3B4ECAE698F8002002F1280341
:2052800023445878083202EBC002336088F80020E1E642F002028BF8002092E7002204215B
:2052A000012006F0C7FE7BE62F4807F001F900287FF4CDAE227E2D4BFF2A3FF40FAF48F2C7
:2052C000FE00198B81423FF409AF198981424FD081B95A8972B99A8962B9DA8952B91B8A61
:2052E00043B9628A214B2AB99A8A1AB9DB8A002B3FF4FAAE228B1D4B82B95A8B72B99A8B90
:2053000062B9DA8B52B91A8C42B95A8C32B99A8C22B9DB8CB3F5807F3FF4E6AE2B88B3F55F
:20532000A06F63D8E379114A012B58D9013BD3710C4E6CE6FFF7A4FC4FF6FF7398427FF449
:20534000D3AEDCE600F12A027146042006F072FE044E5CE694290020BC290020842D002065
:20536000902D0020742D0020A42900208C2900202189224B79B9598969B9998959B9D989EA
:2053800049B9198A39B9598A29B9998A19B9DB8A002B3FF4A9AE218B184B81B9598B71B94B
:2053A000998B61B9D98B51B9198C41B9598C31B9998C21B9DB8CB3F5807F3FF495AEFF2A27
:2053C0003FF492AE0E4806F097FF024600287FF48BAE0221012006F02DFE0A4E17E6002280
:2053E0001146032006F026FE064E10E64FF4A0620021022006F01EFED2E500BF8C290020EA
:20540000A4290020742D0020020C131243EA02239BB240BA43EA0040704700BF704700BFB9
:2054200008B5064801F0D0F8054B00220120FD21187099705A70DA7008BD00BFCD5E0000A3
:205440004C11002030B414780B7A84F00204A34215D00B891BB94B89B3F57F4F30D01F4D78
:2054600001222C6801F10803824004F10801296003CBD3B220606160184630BC70474C7AD4
:2054800053789C42E5D18C7A93789C42E1D1CC7AD3789C42DDD10C7B13799C42D9D14C7B8D
:2054A00053799C42D5D18C7B93799C42D1D1D379CA7B9A42CDD1032101FA00F3DBB2DBE79D
:2054C0008B89FE2BCBD1054CCB892268022122F8023B01FA00F32260DBB2CDE7D80F002092
:2054E00010B5124C0220A17904F0F0FAA379112B09D0062B07D03A2B0FD0BDE810400021DC
:20550000012004F0E3BA218D638D01209942A8BF1946BDE8104004F0D9BA218D012049BA2B
:2055200089B2BDE8104004F0D1BA00BF8C29002010B5084C2378012B01D0002010BD014643
:205540000822A01C08F0DEFC00280CBF2046002010BD00BF4C11002008B50146102004F0E9
:20556000C3FA044B00219B6803489847BDE80840FCF7B4BC8CEC00007D55000010B50C4620
:205580001146204607F0F4FB044B1B6813B19B6820469847024B1C6010BD00BFB01600204F
:2055A0005C1100202DE9F041154D00232A469478713234B101330C2BF9D14FF0FF30BDE846
:2055C000F081C3EBC30403EB04142F197970064604F0D6F9DFF830800A4A98F8003011688B
:2055E000C01A2E55B870CC1804F0CAF998F800202146821AF81C08F0B7FCB878BDE8F081D3
:205600006011002058110020662900202DE9F84F074615465ABB88469146584E4FF0FF34EA
:2056200036F8063C9BBB631C48D00135022D06F1B806F5D1621C00F09E80B82505FB04F5CB
:20564000DFF840910F2009EB0506A6F81280378204F056FA0146304604F07EFA05F1180010
:2056600048444021FFF756F92046BDE8F88FDFF8148100244646328ABA4221D00134022C3E
:2056800006F1B806F7D14FF0FF30BDE8F88F3046FFF754F9002831D0394B26F8069C03F2D8
:2056A0004C51E8B29A7822B11A78824208BF83F8029071338B42F5D1631CB6D16CB2B4E7AE
:2056C000738A002BDAD00F2004F01AFA0146304604F048FA0028D1D0E6B229463046FFF792
:2056E00061FF011E11DB0029CDDDB82303FB04839A8A60B20A449A82BDE8F88F611C94D15E
:2057000036F8063C002B90D1D8E74FF0000B5F46D946DFF868A03AF8063CF3B1BC421CD0DF
:205720005046FFF70BF9C0B15FFA87FEB82303FB0E83134AA3F8129002F24C504FF0000CAB
:20574000937833B11378734504BF82F802900CF1010C71329042F3D1E3440137022F0AF17A
:20576000B80AD8D1BBF1000F8DD029463046FFF719FF0146B7E72046BDE8F88FF40F002019
:2057800060110020DC0F00202DE9F04715090F2D06469A4602F00F042CD00F2C36D0A04672
:2057A000A9466719D5BB0F2F03DD5CB9E5B9BDE8F087C7F1100206EB0900002108F0AEFC76
:2057C000002CF3D0DFF87490C8F11000D9F8007030443946224608F0C7FB022C20D03C4442
:2057E000C9F80040BDE8F08751463046BDE8F04706F054BF0F2C4FF0100918D04A464D46FC
:20580000A046A718304608F0AFFBCCE74FF01008A94605F110074446002DD3D02A46F1E723
:205820000A2DDCD8FF22FE23F2723373D7E74D46C8464C4620272A46E4E700BFD80F0020F8
:205840002DE9F04F0F2089B0DFF81083B84D04F057F94FF0000A04F023FA88F800A085F8E1
:2058600000A004F079F8B34E3060042004F036F93368B1491C7800B25A78086004F0F80149
:20588000C02942EA042277D0E02964D129789F7893F80490D878C2F30A044B1D40EA0720A5
:2058A00021464A462B70FFF7B1FE411C074660D0A24AB82303FB0023D346CDF800A0B3F8C6
:2058C00014A00123A24534BF4FF0000A4FF0010A019304F055F82B78954D834249D804F04F
:2058E0004FF82B7898F80080C51A08EBC909944AA944B9F57A7F15603BD8BBF1000F06D07F
:2059000031680BEB080019442A4608F02DFB002C00F0DC80009B43B1884AB82303FB072327
:2059200008EB050292B29A821A84BAF1000F40F01981019BEBB9834B45441D80824C23685E
:2059400023B1FFF7CDFD23685B68984700F062FE09B0BDE8F08F57465446DFF8FCB1CDF8D9
:2059600000A02A78995C01F0E00060284AD041291CD009B0BDE8F08F29789F78D878C2F38D
:205980000A040B1D40EA0720524621462B70FFF73DFE07460130ECD0684AB82303FB0722C7
:2059A00002F1220B012233680092DAE75946501CC0B2034403F12000D3F800A0D3F8049014
:2059C000D3F808C0D3F80CE010338342C1F800A0C1F80490C1F808C0C1F80CE001F11001A6
:2059E000EAD118685B6808604B6098F800302932283388F80030009B4FF0000A2A70D146DB
:205A0000019366E7981890F801A002321344DFF850914FFA8AF2002AC9F80030B8BF0133FE
:205A20000192B8BFC9F80030CA065AD501F0080303F0FF00002B40F0C681D9F800301A467B
:205A40001B78C3F3830343F060038BF8003012F801EBABF802004FEA9E0303F0300343EA66
:205A60008E13C9F800208BF8013001F0040303F0FF0202923BB9D9F8003013F8012B8BF8C1
:205A80000620C9F8003011F0030100F0A1802F4B5B5C8BF807301AF0400FCAF3011300F0D4
:205AA0007581019A002AC0F2B0810021002B00F09880274A1078012800F0CD81254A002302
:205AC0009A4699461360009B019302E7019B002B3FF431AFBAF1000F3FF44BAF194B1C80BB
:205AE0002CE70B0700F17881D9F80030184633F8012F9B78ABF801208BF8033010F804EB59
:205B00009BF801204FEA9E0303F0300C02F00F024CEA8E1E03F00F0343F060034EEA02020C
:205B2000C9F800008BF800308BF801209DE700BF6629002058110020D40F0020DC0F0020C4
:205B4000AC1600207C290020B0160020E4EB00004C110020D00F00208C29002065290020EA
:205B6000D80F0020B82101FB07F1DFF844A3C7480AEB010319461A8C22319C8208F0F4F930
:205B8000C34EDFF808B306F24C5916F8012C22B116F8033C9F4200F048817136B145F4D16E
:205BA00000221046B823FFB203FB07AAB94BAAF8122003F24C519A781AB11A78BA4208BF96
:205BC000987071339942F6D1019B002B86D1B2E6D9F8003013F8012B8BF80720C9F80030EE
:205BE00059E719460BF108020392AB4A0F20D25C0591049203F084FF049A03460599039857
:205C0000FFF7C2FD0AF0080303F0FF010AF00302002B37D01AF0040F0FD1A049531E0988BE
:205C2000012BADF81C1040F228819D4900238A5C0BF1180007A9FFF7A7FD98F8002002F19C
:205C4000280388F80030029B002B41D1D9F800303268DFF860929B1A2B70002C00F0A4809B
:205C6000A4F128031A128BF805308BF804209BF80630112B00F0CF80009B4FF0000AD1469A
:205C8000019326E61AF0040F00F0D780019B002BC0F2EC80DFF820A29AF80030012B7FF421
:205CA0000DAF9AF801308B427FF408AF7A497D4B8A5C10200192C3F800A003F021FF019A31
:205CC00003460AF102010BF11800FFF75DFDB4E7D9F80030197801F0F801F029B8D111212E
:205CE0008BF80610187800F0F301F03900F00400C0B20329C0D8DFE801F03D332202597827
:205D000002330909A1F5756189B2090241F0F001ABF8281013F8011C01F00F01A1F57561F8
:205D200089B2090241F0F001ABF82A10C9F80030002800F0C380303288F8002088E7597890
:205D40000433A1F5805189B2090241F0F001ABF8281033F8021CC9F80030ABF82A10E7E77D
:205D6000B3F801100433ABF8281013F8011CA1F58051D5E7B3F801100533ABF8281033F810
:205D8000021CC9F80030ABF82A10D1E7464A0F20D25C039203F0B4FE039A034643490BF1CA
:205DA0000800FFF7F1FC2DE703F0EAFD99F8002098F80030801A0344283B1A128BF8053071
:205DC0008BF8042053E7002360228BF800208BF80130ABF8023048E6D9F800206023104619
:205DE0008BF8003010F8013B03324FEA930E0EF0300E03F00F034EEA03038BF801300388DF
:205E0000C9F80020ABF802302FE631682A780A44917809094AE6BBF804304FF0000AABF810
:205E20002C30009BD146019353E516F8020C31460BEBC00008F098F8AFE61B4B102013F881
:205E400002A003F05DFE5246034618490BF11800FFF79AFCF1E6507888427FF42FAE11485E
:205E6000911C02600BF108020392BEE631682B780B44997801F00F010CE7D9F8003013F838
:205E8000011B8DF81D10C9F80030CEE68C290020631100206011002000EC0000E0EB0000DE
:205EA000FCEB0000D00F0020E8EB0000ECEB0000DC0F0020662900204C11002033F8021BD3
:205EC000ABF82E10C9F8003035E700BF2DE9F04FAE4EDFF8E4B2002387B033708BF80030A7
:205EE000044603F07FFD03F037FDA94BDFF8CCA21B68CAF800000BB1FFF7F2FA04A8019069
:205F0000002C00F09382214603F026FEA14B1B883E2B32D99BF80070DAF80080002302371E
:205F20009D4D08F807309D4808F102032B60FFF7FFFA002800F0078108F103032B60802316
:205F40000293974C62782178130943EA0113DBB2980840EA83135BB210075FFA83FE5CD1E1
:205F60006088002859D1080740F0F58012F0F00F40F0F1804FF078095EE0894C9BF800C06B
:205F8000A646DAF800300CF10105EDB241221D441A7004F1200877460FCF4745286069608E
:205FA000AA60EB600EF1100E05F11005F3D1BEE803002860696033780CF1290C28338BF8EB
:205FC00000C033700199102003F08EFD754BDFF8E8911B6898476F4B002837781B889BF8DD
:205FE0000080ACBFC0F17D056825A3EB0702C8EB0501B8BF15208A4240F3B480C0F178029C
:2060000093FBF2F7029203F079F901388742C0F2D780002007B0BDE8F08F090703D112F024
:20602000F00F00F082802A6820681346106003F804EB2B604FF06009A379112B68D1E37982
:2060400049F00409402B6AD0FF2B00F00F82012B68D02A6802F8013B2A602389504A3BB9BA
:2060600053892BB993891BB9D389002B00F034824D48FFF75DFA4D4B1860002800F0778141
:20608000417818F807304A4A43EA011308F8073045490420FFF7D6F960F03F00C3B20293E4
:2060A000237E3F49FF2B00F08E8101F118000391FFF73EFA3D4A03991060002800F0BA81DC
:2060C00018F8072043780298134340F0040E08F807301831019A00205FFA8EF7FFF7B2F9E2
:2060E00038432F685FFA80FEA3792822112B32702B4900F00E81DAF800309BF80020FF1AB2
:20610000991803F802908BF8007081F801E059E72A6802F8013BE3792A60402B94D149F0FD
:2061200002099AE749F0010997E7296823F03F031343204A0B701288CB1CA1F801202B602B
:206140004FF0680978E71848FFF7F2F900287FF4F3AE0290F5E62B684FF0700903F801EB14
:206160002B6069E7DAF80000E119404407F0FCFE084B18884044C01B80B203F0E7FB019811
:20618000FFF7EAF9012007B0BDE8F08F65290020B01600207C290020D80F0020A4290020DD
:2061A0008C29002028EC000094290020D00F0020842900208E29002066290020581100203E
:2061C000DAF8008099F80070B64E41463A46002308F104000437336007F03CFFF9B20E4642
:2061E000B14BB2481A88B24B120A62F03F0288F80020AD4AB3F800E012886D1A017825F08A
:2062000007054FEA1E20AB4F88F8012088F803E02A460EF1010E88F80200214408EB06009F
:20622000A3F800E03D6089F8006007F09DFE701980B203F08BFB03F067F89F4D8046002873
:206240003FF4E7AE0198FFF787F9404603F0AAF8404603F091F8934B1B68012B3FF4D9AE03
:20626000043B012B7FF6D5AE8F4B90491B882A681B0A63F01F030D788B49137002983B6820
:2062800009881D4420F0070005235170ADB2386089F80030B84632E03E68DAF80030B242B8
:2062A000B8BF16469BF80090B8BFC8F8002003EB0900324683F804E007F056FE09EB06007E
:2062C00080B203F043FB03F01FF8064600283FF4A0AE0198FFF740F9304603F063F830465A
:2062E00003F04AF86F4A3B6812681D44012AA2F10403ADB23FF48DAE012B7FF68AAE6A4B12
:2063000061191B884FEAD50E9D42A3EB0502C3D338E74FF2B002088D030A43EA00239BB2E9
:2063200023F00F0080B2904200F0A380498D0A0A42EA012292B202F47F42B2F5704F00F09A
:20634000218103F47F43B3F5704F00F0EB805B4BF0223A7018687B1DC7F801001F46584BDE
:2063600030221B88327027F8023B2F60C3E648F2FE03228953499A420FD14B8B6BB98B8BA4
:206380005BB9CB8B4BB908314F4A0420FFF75AF8029B0343DBB2029382E6D5F800C0DFF880
:2063A00030E10CF110032B60BEE80F00CCF80410CCF80000CCF80820CCF80C30237E4149C9
:2063C000FF2B7FF472AE029A4B7E42F0080E022B5FFA8EFE4A8B00F0AF80002A34D18A8B09
:2063E000002A31D1E18B374A71BB118C31B9518C21B992F82410002900F0CF80218C314ACC
:2064000011BB92F82210F9B92F680298394601F8013B52F8233F40F0090EC7F801301379EE
:2064200006375FFA8EFE0B712F605DE6274903F093FB6BE548F2FE030A8B9A4202D14B8B56
:20644000002B5FD0DDF808E0D5F80080DFF884C008F11007BCE80F002F60C8F80000C8F8EB
:206460000410C8F80820C8F80C303DE649F00309F3E5B1F82AC04FEA1C2242EA0C2292B23C
:2064800022F00F0C84457FF456AFF3233B700A8D4B8D120A1B0A03EB021303F5AA637B702A
:2064A000BB1C5BE75C1100207C2900206529002048290020AC16002058110020B4290020CA
:2064C000BA2900208C2900208429002020EC000094290020A4290020138A002B7FF4C8AD91
:2064E000538A002B7FF4C4AD938A002B7FF4C0ADD38A002B7FF4BCAD029B43F04003DBB284
:206500000293CDE58B8B002B9CD1CB8B002B99D11831019AFEF796FF029B2F6803435FFA5A
:2065200083FEE1E5F2233B70238D254A1B0A7B7012883B1D7A8011E7002A85D18A8B002A82
:2065400082D1CA8B002A7FF44DAF0A8C002A7FF449AF4A8C002A7FF445AF8A8C002A7FF4B5
:2065600041AF91F82620002A7FF43CAF2F6891F82730029A07F8013B42F00B0E5FFA8EFE56
:206580002F60B1E5F1220F4B3A701A883B1DA7F80120628D120AFA70E0E62868014601F8FA
:2065A000013B32F825CF029B071D43F00A0E93785FFA8EFEA0F801C02F608B7094E500BF6A
:2065C000B6290020B4290020014B1860704700BFC416002010B51446FEF72EFC18B1024B37
:2065E000C4611B68836110BD380D002000B5074B83B08DF80700186828B1054B0DF1070267
:206600001978FEF743F903B05DF804FB882D0020BB31002008B5002202210448FEF736F95E
:206620000349044A00230B80137008BD840100207C2900206229002038B5294C238863B392
:20664000B3F5A06F24D8274D2B8B6BB96B8B5BB9AB8B4BB9EB8B3BB92B8C2BB96B8C1BB925
:20666000AB8C0BB9EB8C9BB100F042FA80B12B7EFF2B13D01C4805F03FFEA8B11A4806F002
:2066800043FB58B306F038FB184B1B6803B19847174A00231370238038BD38BD134B1B689A
:2066A000002BF5D00020F2E70F4806F009F9054678B106F0DDF80028E1D1EB6923B11B6ADC
:2066C00093F8540001F0EEF92846BDE8384006F033B906F09DFA0028D1D1D9E7208038BDEA
:2066E0007C2900208C290020A4290020C41600206229002038B503880446EBB140F24B3063
:20670000834215D1022945D02BD9872935D0882922D1294B9A424AD0284B9A421CD1104635
:20672000FDF720FFC0B105F0FFFEFFF785FF13E000232380032038BDFDF7E4FF204B1870CE
:20674000FDF7E0FF1F4B402118701B48FDF7ECFEFEF730FB00F0E8FA40F24B33238001206C
:2067600038BD0129F8D1002AF6D0174B05201A60FEF7AAFBFFF760FFEEE7144B002503F500
:20678000A070996920338A4208BF23F8105C8342F7D1E1E70E4D2B88002BDDD00120FEF729
:2067A00093FB2B88002BD7D0FFF746FFD4E71046FDF7D8FED0E700BFB4160020A831002057
:2067C000BA310020BB3100207C2D0020942D00207C290020074B1B6843B12833186820B1BE
:2067E00005495A680978FEF751B87047034B1B681833F3E7842D0020BA3100207C2D0020B8
:2068000070B5304D304CAB790022267822701BB995F82A30632B02D02670012070BD95F858
:2068200029301BB995F82B30042B01D0002070BD95F82D0001F0E2FB28B390F8553013B3C0
:20684000C3689A7DFAB1998B23780A0A2A3342EA01222B449A8090F85420DA7090F85720FE
:20686000012AD9D993F9023005F11800002B0CDB06F026F823782A331D44AB78E8B163F0E1
:206880007F03AB70C8E72670D0E706F019F80028C2D123780F202A331D44AB7843F020039C
:2068A000AB7003F02DF901F061F80028BED00022064900F0A3FF002070BD03F07F03AB70C4
:2068C000AAE700BF8C29002062290020A42900202DE9F84FDFF8A080264CB8F80060002500
:2068E000B6F5787F2778257003DD27702846BDE8F88F83468A46DFF88490A6F128024946DD
:2069000009F1080007F0A6FB19F8220C63210422A9F12803C9F80050C9F8045083F8280066
