:020000040000FA
:2000000000500020950C00008D0C0000750C0000910C0000910C0000910C000000000000DE
:20002000000000000000000000000000910C0000910C000000000000910C0000910C00004C
:20004000152F0000910C000055BF0000910C00009D250000092A0000910C0000910C0000DF
:20006000910C00007DBF0000910C0000910C0000910C0000910C0000910C0000910C0000F9
:20008000910C0000910C0000910C0000910C0000910C0000910C0000910C0000910C000078
:2000A000910C0000910C0000910C0000910C0000910C0000910C0000910C0000910C000058
:2000C000910C0000B53E00002DE9F04F23F0004858EA020993B03CD0714C21F00046A64248
:2000E00083460D460CDD06F1404606F5801656EA0B0038D183466B49584613B0BDE8F08F97
:200100009A4696462BD0A045EDDC654CA04578D0002D0F468146CDE9002376DB0024BEF156
:20012000000F27D15E4B984500F08B805D4B984552D0BAF1804F00F0C9835B4B9A4519D16B
:20014000002D17DB4846394613B0BDE8F04F0DF0E5BBCB465846534913B0BDE8F08F0028D5
:20016000C1D1B045D1DD514813B0BDE8F04F0DF0A5BC0024484639460DF094FCBBF1000F33
:200180001CD0ED0F013D54EA050370D0484B984540F3948003F10473984540F30D84454B60
:2001A0009E4270DDBAF1000F70DD3BA3D3E90023104619460DF0D8FE83469DE726B1394B1E
:2001C00025F040429A42DCD1BAF1000FC0F2B783002D08DB83468FE7BAF1000FC0F25E84BC
:2001E000CB46394688E706F1404606F5801656EA040300F08384012CECD101F100418346CE
:200200007AE7BEF1000F83D06DE72B4B98452CDCA3F15473984581DD4FEA2853A3F2FF33AC
:20022000142B40F35384C3F134032EFA03F202FA03F39E457FF472AF02F00102C2F1020456
:200240006DE706F1404303F5801353EA0B0300F03A83184B9E4240F36783BAF1000F15DB43
:20026000DDE900349B46214646E7022457E74A4648463B4639460DF0C3FC02460B460DF03B
:200280009DFF834638E7BAF1000F8EDB4FF0000B594631E7AFF300809C7500883CE4377E26
:2002A0000000F07F0000F03F0000E03FC4F100000000E041FFFFEF3FFFFF3F43B6F5801FB5
:2002C0004FF0000205DAD04B0DF04EFE0E466FF03402DFF844E33315C6F31306A3F2FF33D2
:2002E00046F07F57764503EB020A47F4401740F3C983C64B00229E4240F304840023CDE985
:200300000823CDE90C23C24B0022CDE906230AF1010AA7F5801700263946DDE90623CDE93C
:200320000A010DF06DFCDDE9062380468946DDE90A010DF067FC02460B460020B4490DF0E4
:200340003DFF0A4601461346CDE90E120246494640460DF009FE8C4683467B1043F000538E
:2003600003F5002399190020CDE904BC06460F464FF0000B6146584632463B46CDE910BC6F
:20038000CDE902010DF0F0FD02460B46404649460DF036FCDDE90623804689463046394664
:2003A0000DF02EFC02460B46DDE90A010DF028FCDDE902230DF0D8FD02460B464046494620
:2003C0000DF01EFCDDE90E230DF0CEFDDDE90478CDE906013A464346384641460DF0C4FD7C
:2003E00077A3D3E9002306460F460DF0BDFD76A3D3E900230DF006FC32463B460DF0B4FD0E
:2004000073A3D3E900230DF0FDFB32463B460DF0ABFD71A3D3E900230DF0F4FB32463B467C
:200420000DF0A2FD6EA3D3E900230DF0EBFB32463B460DF099FD6CA3D3E900230DF0E2FBF9
:200440003246804689463B46304639460DF08CFD02460B46404649460DF086FDDDE902237A
:2004600006460F46DDE904010DF0CCFBDDE906230DF07AFD32463B460DF0C4FBDDE9026705
:200480008046894632463B46304639460DF06CFD0022604BCDE90A010DF0B4FB42464B4620
:2004A0000DF0B0FBDDE910BC0F46DDE902015A463B46CDE90EBC5E460DF056FD0022CDE977
:2004C0000201544B304639460DF09AFBDDE90A230DF096FB02460B46404649460DF090FB3C
:2004E000DDE904230DF040FD324680468946DDE906013B460DF038FD02460B46404649469A
:200500000DF080FB8046894602460B46DDE902010DF078FBDDE90EBC35A3D3E90023584617
:20052000CDE906BC5E460F460DF01EFDDDE90223CDE90401304639460DF062FB02460B46A4
:20054000404649460DF05CFB2BA3D3E900230DF00BFD2BA3D3E90023804689463046394649
:200560000DF002FD02460B46404649460DF04AFBDDE90C230DF046FB8046504689460DF034
:200580008DFC06460F46DDE9040142464B460DF039FBDDE908230DF035FB32463B460DF008
:2005A00031FBDDE906BC324658463B46DA468B460DF026FBDDE9082330E000BFAFF30080FF
:2005C000EF4E454A287ECA3F65DBC9934A86CD3F01411DA96074D13F4D268F515555D53F2B
:2005E000FFAB6FDBB66DDB3F033333333333E33F000000E009C7EE3FFD033ADC09C7EE3FB6
:20060000F5015B14E02F3EBE0000404379B60B000000F03F000008408E9803000DF0F0FA26
:20062000DDE904230DF0ECFA02460B46404649460DF0E6FA80468946DDE90012013C54EA77
:20064000050314BFD64CD74C0023CDE904340B461446CDE9023400230293DDE902450846BF
:200660002B46114622460DF0CBFA52465B460DF07BFCDDE9002306460F46404649460DF03F
:2006800073FC02460B46304639460DF0BBFA06460F4622462B4650465946CDE900670DF0E2
:2006A00063FC0B46024680468946304639460DF0A9FABD4B064699420D460C4640F30E8182
:2006C00001F13F4303F5E003034340F0F081A0A3D3E90023DDE900010DF094FA4246824620
:2006E0008B464B46304629460DF08AFA02460B46504659460DF0C8FE002840F0D8812F467B
:200700003B154FF48012A3F2FE3342FA03F32344C3F30A52A54EA2F2FF321641C3F3130B60
:200720000020C2F1140523EA06014BF4801B02460B46002C4BFA05FB40464946B8BFCBF18D
:20074000000B0DF05DFA02460B4680468946DDE900010DF057FA4FEA0B5A00247EA3D3E958
:20076000002320460D460DF0FFFB424606460F464B46204629460DF043FA02460B46DDE97E
:2007800000010DF03DFA76A3D3E900230DF0ECFB75A3D3E9002380468946204629460DF0EA
:2007A000E3FB02460B46404649460DF02BFA8046894602460B46304639460DF023FA3246D6
:2007C0003B4604460D460DF01BFA02460B46404649460DF015FA2246804689462B4620465B
:2007E00029460DF0C1FB62A3D3E9002306460F460DF0BAFB60A3D3E900230DF001FA324648
:200800003B460DF0B1FB5EA3D3E900230DF0FAF932463B460DF0A8FB5BA3D3E900230DF06B
:20082000EFF932463B460DF09FFB59A3D3E900230DF0E8F932463B460DF096FB02460B4667
:20084000204629460DF0DCF906460F4602460B46204629460DF088FB0022CDE900014FF04A
:200860008043304639460DF0CBF902460B46DDE900010DF0A3FC424606460F464B462046E3
:2008800029460DF071FB42464B460DF0BBF902460B46304639460DF0B3F922462B460DF0A9
:2008A000AFF902460B4600203D490DF0A9F98A44BAF5801FC0F237815146DDE904230DF0AB
:2008C00053FB834618E4F346354915E44A4648463B4639460DF048FB83460DE4344B21F0AD
:2008E00000479F4240F30181324B0B4403430CD142464B460DF084F902460B46DDE9000139
:200900000DF0AEFD00283FF4FBAE23A3D3E90023DDE904010DF028FB1FA3D3E900230DF0FD
:2009200023FB8346FFF7E8BBBAF1000FBFF6AEACDDE900349B4604F10041FFF7DDBB024687
:200940000B46002016490DF039FC41E4AFF30080FE822B654715973C00000000432EE63F79
:20096000EF39FAFE422EE63F396CA80C615C20BED0A4BE726937663EF16BD2C541BDBB3EFC
:200980002CDE25AF6A56113F93BDBE166CC1663F3E5555555555C53F59F3F8C21F6EA5014F
:2009A0000000F03F0000F0BFFFFF8F40FFFF0F00FFCB904000346F3F6F4B9E427FF763ACE4
:2009C0006E4B9E423FF7EEAB00226C4B0DF018F95BA3D3E9002306460F460DF0C5FA5AA391
:2009E000D3E9002380468946304639460DF0BCFA002282468B46624B304639460DF0B4FAD3
:200A000002460B4652A1D1E900010DF0F9F832463B460DF0A9FA02460B46002059490DF0B0
:200A2000EFF83246CDE902013B46304639460DF09BFA02460B46DDE902010DF095FA46A3BF
:200A4000D3E900230DF090FA02460B46504659460DF0D6F802460B4606460F464046494648
:200A60000DF0D0F842464B46002082468B460DF0C7F802460B46304639460DF0C1F8804619
:200A80008946D9E500220023CDE90823CDE90C233A4B00220026CDE906233DE44A463B46E0
:200AA000002036490DF08AFB8346FFF725BB2CA3D3E90023DDE904010DF056FA28A3D3E929
:200AC00000230DF051FA8346FFF716BBBEF1000F7FF44FABC3F1140348FA03F202FA03F3FC
:200AE000984524D07446FFF721BB264B9F423FF707AEDDE902349A469B462EE602460B46F2
:200B0000FFF7B9BB204B4FF48026CDE9062316A3D3E90023CDE9082315A3D3E90023CDE972
:200B20000C23FFF7F9BB5A4600F032F8C5E602F00102C2F10204FFF7F9BA00BFAFF300803F
:200B4000000000604715F73F44DF5DF80BAE543E555555555555D53FFE822B654715F73F2C
:200B60009C7500883CE4377E0000004003B8E23F06D0CF43EBFD4C3EFEFFEF3F0000F03F37
:200B80000000D03F0000E03F0000F83F00000000F8B5C1F30A5604460D460B46174606BB23
:200BA00021F00043034325D000222F4B0DF0DCF92E4A044697420D460B462ADBC1F30A56E0
:200BC000363E40F2FE723E44964228DC002E12DD23F0FF4323F4E00343EA065520462946D8
:200BE000F8BD40F2FF729642EBD102460B460DF009F8F8BDF8BD16F1350F1DDA4CF2503305
:200C00009F420CDC14A1D1E9000122462B460CF0EBFF11A3D3E900230DF0A6F9F8BD224690
:200C20000FA1D1E900012B460CF0DEFF0CA3D3E900230DF099F9F8BD23F0FF4323F4E003DE
:200C4000363643EA0655204629460022084B0DF08BF9F8BDAFF3008059F3F8C21F6EA501C5
:200C60009C7500883CE4377E00005043B03CFFFF0000903C044B1A68B2F5806F03D01B6800
:200C80009B0500D4FEE7704728ED00E0FEE700BFFEE700BF08B508F0E1FE104A104B9A42E2
:200CA0000DD2D0430F4918440B4620F003000430084453F8041B834242F8041BF9D10A4806
:200CC0000A494FF000028842B8BF40F8042BFADB00F060FEFFF7CEFF08BD00BF000000204E
:200CE00079060020D0F400008006002098360020F0B503888DB0064633B1512B2ED00023C3
:200D0000038003200DB0F0BD17481849C5798479437802784779059505790494C4788078EF
:200D20008DE8B10001242546114803F057F900F08DF9104B08AF0FCB07C73B708DF81D40A4
:200D400008A9013407A88DF81C5000F0C3F80E2CF4D100F0DBF8084803F0F2F851230120DE
:200D600033800DB0F0BD00BFF834002028EC0000A806002010EC00004CEC00002DE9F041EE
:200D8000867805784778C47882B088463A46294600943346144803F0D3F8CEB9A4B9134B85
:200DA000224603F2945002E06633834214D01978D4B2A94202F10102F6D15978B942F3D17F
:200DC00088F80040012000E0304602B0BDE8F081002002B0BDE8F081054803F0B1F8002023
:200DE00002B0BDE8F08100BF7CEC0000C0280020B8EC000010B59AB00C4607300DF10301BE
:200E0000FFF7BCFF08B91AB010BD9DF803300F4A662101FB032101A802310DF065FE01A81C
:200E20000DF0C0FE0023C0B21AAA1A4412F8641C5A1CE154D3B29842F6D2002201A9E254E2
:200E4000034803F07DF801201AB010BDC0280020E0EC0000F0B583B04478027800230E46CE
:200E600001A80DF103018DF805408DF804208DF806308DF80730FFF781FF00B3114C9DF8C2
:200E80000370662505FB0740314602300DF02CFE39460D4803F054F89DF803300B4805FB0F
:200EA00003F3E218E15C527803F04AF89DF80310074805FB0141023103F042F8012003B099
:200EC000F0BD00BFC028002004ED000024ED00004CED000038B50B4C22780E2A0FD06623E5
:200EE000551C03FB02F325700478074AD45444781344981C5C700DF0F7FD012038BD00204A
:200F000038BD00BF9E280020C028002070B50E4E3378B3B10D4C002529460D4803F010F862
:200F200014F8012C14F8021C0A4803F009F82146094803F005F833780135AB4204F1660433
:200F4000EAD8012070BD00BF9E280020C228002064ED000024ED00004CED0000F0B5274A21
:200F6000274B1588ADF5077D2A461968254C26480DF092FC254F2946254802F0E1FF204659
:200F800006F0F6F93B78A4F108052833595B214E0B0A43EA012189B21F4802F0D1FF94E855
:200FA0000F00346884E80F003B78694628335B5B1548638200F0A4F9C8B1184802F0C0FF3F
:200FC0006846114900F0ACFB0F490246306806F027FA336800221A805A809A80DA801A81E3
:200FE0005A819A81DA815A820DF5077DF0BD0C4802F0A6FF0DF5077DF0BD00BF582E00200E
:201000005C320020702E0020BC060020AA28002078ED0000F807002090ED000098ED00000A
:20102000BCED000008B54FF49672002105480DF00DFD054B1B789B0700D408BDBDE808407F
:20104000FFF78CBFBC060020503200200021014803F046BF380400202DE9F0474FF0000879
:201060008246894647464546561C0AE0B8F1000F26DB31D008F101080237102F06F1020632
:201080001BD016F8014C337803EB0424A4B2002CECD0B8F1000F13DD4FF0FF38C5EB090133
:2010A0000AEB05002346124A02F070FF02372844102FC5B206F10206E3D12846BDE8F08778
:2010C000002FEBD0C5EB09010AEB0500094A02F05DFF2844C5B2E1E7C5EB09010AEB050072
:2010E000054A02F053FF2844C5B24FF00108C3E7F0ED0000ECED0000E8ED000030B5224DA9
:20110000ABB02B88012401339BB21A4611A81F492B808DF800408DF8014002F05FFF11A95A
:201120001B4802F00DFF11A96846FFF793FE02238DF801308DF8004006F014F91549024616
:2011400011A802F04BFF402511A96846FFF782FE03232A46002101A88DF801308DF800407C
:201160000DF074FC04F068FB2946024601A8FFF773FF01AA11A8084902F030FF11A96846A5
:20118000FFF768FE2BB030BD8C280020F4ED000004EE000024EE00002CEE000038B50288E1
:2011A00004468AB1A02A0BD11A4B1B788B422ED0194803F0BDFD10BBA0232380012038BDEC
:2011C00000230380032038BD1146104606F04EF903464FF42142114D0282A121027D1048FD
:2011E0002B6002F0ADFE0F4802F0AAFE4FF48071094803F07FFDA0232380012038BD064818
:2012000003F082FDFFF77AFFFFF780FED4E7FFF709FFCDE796360020E8070020F8070020F2
:201220003CEE00005CEE00002DE9F04F037883B0022B37D1457800238B460B6075B3441C5E
:201240004FF0010A14F8010F0CF018FE0646CAEB05000F460CF012FE02460B460020154998
:201260000CF0C4F98046DBF8000089460CF006FE4246CDE900014B46304639460CF074FE1A
:2012800002460B46DDE900010CF0BCFC0DF01CF90AF1010AAA45CBF80000D3D9012003B0F0
:2012A000BDE8F08F044802F04BFE002003B0BDE8F08F00BF00007040CCEE000030B583B04B
:2012C00001A90546FFF7B0FF019C74B901A9E81CFFF7AAFF019B13B9012003B030BD0648E6
:2012E00002F02EFE204603B030BD044802F028FE002003B030BD00BF1CEF0000F0EE0000FE
:201300002DE9F0430378CFB0302B40F0248106460D46C07802AB01301844721C0DF10703B3
:2013200012F8011F03F8011F8342F9D1002401A902A80194FFF778FF10B94FB0BDE8F0837F
:20134000C14802F0FDFD0199002940F00C812A460C4642F80F1B311D11F8013F013402F82C
:20136000013FB3790233A342F6D82B1900271F74B64802F0E5FD05F11008012F98F800106B
:20138000B34807F1010798BFB24802F0D9FDBC4208F10108F1D16B7C691D0933DBB2581CCD
:2013A000013B3044F218002712F8013F013701F8013F03780233BB42F6D8EB1900249C71E1
:2013C000A54802F0BDFD05F10608012C98F80010A24804F1010498BF9E4802F0B1FDA742F9
:2013E00008F10108F1D1697CEB7902AA0B440B33DBB2013B0DF10E00334413F8011F02F836
:20140000011B9042F9D1002302A81C468DF80E30FFF754FF6A7CEB7905F2091113441533DF
:20142000DBB2581C013B3044F21812F8013F013401F8013F03780233A342F6D82B1900276B
:2014400083F80A71864805F5857902F079FDC8460DE0022F12BF98F8001095F80C11814858
:20146000013702F06DFDBC4208F101080CD0012F7D48EED898F800107648013702F060FD5C
:20148000BC4208F10108F2D15D2001F01BF96B7CA2220733DBB2F35C0FA92B716A71484689
:2014A000FFF7A8FC2B790446A12B74D060D8302B4AD0A02B5ED195F80B310133DBB22B44F4
:2014C00093F80A2122B993F80721012A00F005810122484683F80A210FA9FFF78BFC044651
:2014E000624802F02DFD002C00F0ED800FA80DF059FB042310F0FF0785F81F0185F81E31FF
:2015000000F0008107F21F1028440DF13B0205F21F1312F8011F03F8011F9842F9D15448DD
:20152000023702F00DFD05F58F7600243CB3012C2BD0307801F0C6F80134BC4206F10106B4
:20154000F4D15D2001F0BEF80A2001F0BBF801204FB0BDE8F0831946464802F0F1FC0020B0
:201560004FB0BDE8F083444802F0EAFC2046E4E6A32BE9D9414802F0E3FC0020DDE695F866
:201580001E11364802F0DCFCD6E795F81F113C4802F0D6FCD0E795F80B114A1CD2B2AB1805
:2015A00093F80A0100286FD1013A2A4492F80A11062995BF0131012282F80A1183F80A21CC
:2015C00048460FA9FFF716FC04462E4802F0B8FC002C78D00FA80DF0E5FA042310F0FF0723
:2015E00085F81F0185F81E3100F0918007F21F1028440DF13B0205F21F1312F8011F03F864
:20160000011F9842F9D11A4802F09AFC0237002405F58F765CB1012C0FD0307801F052F8C4
:201620000134BC4206F101068BD0002CF3D195F81E110A4802F084FCF2E795F81F111048C0
:2016400002F07EFCECE700BF7CEF0000C8EF0000E4EF0000B0EC0000ECEF000004F000002C
:201660000CF000001CF0000024F0000028F0000074F0000048EF000098EF0000BCF0000068
:2016800090F0000098F0000093F80921012A97D193F80821022A93D193F8070101288FD19A
:2016A00093F80621062A8BD193F805212B2A87D10022023185F80B1183F80B0183F80C2171
:2016C00083F80D217CE7144802F03AFC0522002385F81E2185F81F3136E793F80621022AAC
:2016E0007FF4F6AE93F80521012A7FF4F1AE93F80421062A7FF4ECAE93F803212B2A7FF481
:20170000E7AEEDE6054802F01BFC02270BE7034802F016FC02277AE748F0000074F000007B
:20172000F8B50C4630230B70C279437C90F80B111344173390F81F210B44134402210122E9
:201740006370A170E2700368934204D0C0F09C80032B40F094800022237113460244117C1F
:20176000E2185171417C0133DBB24D1C9D421A46F4DA00263346CA1DD2B2A225A554C779AF
:2017800090F80B5109313D4490F81F71103522443D44C9B2557082199579E2185554C2799F
:2017A0000133DBB2551C9D421E46F4DA114490F81E31C9B28A1C052B5FFA82FC66D0CD1C73
:2017C0000126EDB24FF0020E04F80CE066550D1D0027EDB267554D1DEDB204F805E08D1D11
:2017E000EDB26655CE1DF6B201F10805A755EDB23A463B463027675590F81F5190F80B6162
:201800002E4401F109050636EDB2665501F10A05EDB2675590F80B7190F81F6101F10B0556
:201820003E440436EDB201F10C076655FFB2024492F80A51E218D55590F80B510133DBB2E8
:201840006E1C9E421A46F2DA01F10E02154400221346EDB2024492F81E11E218515590F856
:201860001F110133DBB2013199421A46F2DA61782D48013102F064FB60780230F8BD2B483B
:2018800002F05EFB0020F8BD002364E700263346CA1C02250127D2B204F80C50A7540A1DE8
:2018A000D2B2A5544A1DD2B2A5548A1DD2B2CD1DA754EDB201F108026755D2B23027A7548A
:2018C00090F80B5190F81F212A4401F109050632EDB2625501F10A02D2B2A75490F81F211B
:2018E00090F80B5101F10B0715440435FFB201F10C02E555D2B2064496F80A71E618B754A3
:2019000090F80B510133DBB26F1C9F421E46F2DA1544EDB2AB1C0335DBB2EDB2052100221B
:20192000E1546255A3E700BF04F10000E0F00000F0B5002706463C463D4683B0304600F0F7
:20194000D3F90195019B9C4206DD00BF019B01330193019B9C42F8DC304600F0CFF9019593
:20196000019BC4F5C874A34206DA00BF019B01330193019BA342F8DB0137B7F5487F06D019
:20198000B7F5C87FCCBFC7F548743C46D6E703B0F0BD00BF2DE9F041634C84B0236801211C
:2019A00062485B6898472368012211461B685F48984708F005FB01F0C5FA01F05DFA00F0ED
:2019C000B7F901F095FA00F085F9594959485A4A012303600B6018461368FFF7A9FF08F021
:2019E000F3FA00F04FFD00F0BDFC03F04DFB00F019FE03F099FA41F2342002F071F900F07A
:201A0000CFFF03F0E3FB4D4800F064FE4BF2016200214B4802F094FA4A4800F05BFE002170
:201A2000494803F05DFA03F017F802F0C9FF0220FFF77EFF454802F083FA454B454C1868DD
:201A400000F048FE444802F07BFA444B186800F041FE434802F074FA2168424802F070FAC5
:201A6000E469A04720B1A04701463F4802F068FA0A2000F027FE002608F096FF02A8082193
:201A80003A4D3B4F019600F05DFE9DF80F309DF80E4002AA03CA43EA0424D7F82C802860CB
:201AA000696002204AF6CD31C04721460320C04719210120C047082202A97B6B0B2098473E
:201AC000BB6A01A90120984701992A4802F038FA294B214629481C8002F032FA284B6A68BC
:201AE00029685A60196008F03FFB3146254803F0F7F90220FFF71CFF3146234803F0F0F938
:201B0000224802F051FF00F09BFD0120FFF710FF03F024FA044600F0C7FD14F0FF0FF7D182
:201B200001F072F8F4E700BFD801001000400340080009400C4009402C20094028F10000B0
:201B40004CF1000064F100000C05002078F10000B0F3000048F4000080F1000018F40000FD
:201B600088F1000038EE000090F10000F8340020B4F20000B4F100008E280020C8F100001F
:201B8000602E0020780500204804002020EC00002DE9F04104880646772C30D07E2C27D01F
:201BA00024B1002303800320BDE8F08103F090F92F4F304B304D3A6818702C60002A55D07A
:201BC0002346A0462D4C04F8038093680021802098472B68013357F823202B60002AF2D152
:201BE000DBB2274A1370772333800120BDE8F081204B1B788B421CD00120BDE8F081DFF81B
:201C000080801D4D98F800201E4F00233B602B60002AE8D0194CE256002A18DB2B6898F835
:201C20000020013393422B60F5DB3B68002BECD1D9E7114D114CDFF84880124F2B683A68E5
:201C4000E15C013201F07F01E1543A60E7E7084A084952F823200978002003F0DDF9002844
:201C6000ECD17E2333800120BDE8F0811346B8E76C04002094360020FC070020542E0020E5
:201C80009F2800200008002010B40E4B1C7864B10D4A1368984213D0002303E052F8041F6D
:201CA00088420BD00133A342F8D1084A0848135D63F07F03135510BC03F0DAB91C46F4E7BF
:201CC0000024F2E79F2800206C040020542E00204804002008B500F077F8024B00221A706D
:201CE00008BD00BFA0280020034A137803431846137000F085B800BFA0280020034A1378CD
:201D000023EA00031846137000F07AB8A028002010B5064C042023685B69984723680420B0
:201D20005B6B98470128F9D110BD00BFB8010010F0B591B008F044F90746FFF7E9FF1C4B09
:201D40004FF4A0601B68DB6998471A4B01211A4A196013689907FCD56C46184D00F0EAF960
:201D6000174801F07DF80FCD0FC40FCD0FC40FCD0FC495E80F0084E80F00009C621C0FD091
:201D80006D46104E336820469B6B9847336820469B694FF40051984755F8044F631CF1D1F3
:201DA0000FB111B0F0BD11B0BDE8F04008F00CB9B80100102820086028200840E0F10000C8
:201DC00058040020B40100100A4B1A6802B1704710B50122084C1A6023680820DB6B9847F3
:201DE00023680720DB6B9847044B4FF4C0721A6010BD00BF04080020B4010010A02002404F
:201E0000084B09494FF4C07208701A60C20744BF4FF4807243F8102C830702D5034B8022ED
:201E20001A607047A0200240A12800209020024008B5034B1B685B689847C0F3804008BD2C
:201E4000B401001028B1012806BF054BD86800207047044B1868C0F3403080F00100704775
:201E600008080020C020024008B100207047034B1868C0F3803080F001007047C020024005
:201E80008138012801D9002070470D20FFF7D0BF8138012801D9002070470E20FFF7C8BFBF
:201EA000802870B514460AD0812807D1E1B9BDE87040184B10461B685B6B184770BD154DC1
:201EC0001549012393402A680B60936B204698472B6820460021114A1B689847E0B21049AB
:201EE000BDE8704000F0EEBF0A4D0B49012393402A680B60936B204698472B6820461B6892
:201F0000064A002198472B682046BDE870401B6B184700BFB4010010E02002400040072011
:201F20003D1F000008B50D22FFF7BAFF012008BD08B50E22FFF7B4FF012008BD0D2838B526
:201F40000AD00E2800D038BD4FF080524FF48041BDE8384000F082BD0E4C204603F0D4F8CC
:201F60000028F0D00421204603F0BAF80A4B1D68C5F3403525B900F041FAE560A06038BDFF
:201F800000F03CFAA368C31AE3600448BDE83840FFF77ABE08080020C020024028F20000ED
:201FA00030B51C4A1C4B106883B000244FF48015042101908DF800408DF801400DEB01008E
:201FC0001D6000F0D3F820B9144BFF201D6003B030BD0221684600F0E7F8104B1D6010B914
:201FE000FF2003B030BD9DF80030EF2B03D0C22B01D02046EBE79DF80100A0F11103012B13
:2020000005D9143801288CBF00200120DFE70120DDE700BF48F20000A02002409020024049
:2020200030B5164B83B002AC05224FF4801504F8042D1D6000F0DCF82046012100F096F806
:2020400020B910E09DF80730DB0710D501210DF1070000F0A9F80028F4D1094B4FF4801256
:202060001A6003B030BD064B1D6003B030BD044B4FF4801201201A6003B030BDA020024077
:202080009020024030B583B0FFF7CAFF08B903B030BD0E4B02A8B9224FF4801500F8012D3A
:2020A00001211D6000F062F8094B0A241D60FFF777FF631E0028EAD013F0FF04F7D1044B4C
:2020C0004FF480121A6003B030BD00BFA02002409020024010B50A2182B0124800F09AF860
:2020E000114B14201B68114CDB6B9847104A4FF48013AB2102A8236000F8011D1360012177
:2021000000F034F808B1FFF78BFF084B4FF480121A60FFF745FFA0F10100B0FA80F0400999
:2021200002B010BD00093D00B401001090200240A020024008B5FFF7CDFFFFF7A3FFBDE865
:20214000084000F0C7B800BF08B5064B02201B685B6B9847012803BF034B186800F0010007
:20216000002008BDB801001078200840F0B583B005460C46FFF7E8FF074680B17CB1094E7D
:20218000336815F8011B5B684FF080409847336801A9DB684FF080409847013CF0D13846F8
:2021A00003B0F0BDC4010010F0B583B005460C46FFF7CAFF0746B0B1ACB10C4E09E03368CD
:2021C0004FF08040DB689847019B013C05F8013B09D0336800219B684FF08040984701A9AC
:2021E0000028ECD10746384603B0F0BDC401001010B582B0FFF7A8FF40B1054C236801A9EF
:202200001B694FF0804098470028F7D102B010BDC4010010F0B5264D07462B6885B00220C9
:202220005B690E4698472B6802205B6B9847012804461F4BF7D11B684FF48070DB699847CF
:202240001C4B1D4A1C6013689B07FCD51B4A1C4913681C484FF0030E082523F00F030C46A9
:2022600009681360C0F800E00023019500971A460F684FF080401449B847144B29461B680F
:2022800000965D6C09224FF0FF334FF08040A8470F4A136843F002031360236803A91B691B
:2022A0004FF0804098470028F7D105B0F0BD00BFB8010010282008602820084014000040D2
:2022C000C401001020000040006CDC02B40100100400004010B5174B4FF480701B681B6A14
:2022E0009847154B0121154A196013689B07FCD5134C082023689B6B984723684FF40051A1
:202300009B6908209847236809209B6B984723684FF400519B690920984723680A209B6B33
:20232000984723684FF400519B690A20BDE81040184700BFB8010010282008602820084055
:20234000B401001010B5064C042023685B699847236804205B6B98470128F9D110BD00BF7C
:20236000B8010010F8B51A4A00200021C2E90001184B04201B685B6B9847012801D0FFF7F7
:20238000E1FF144B00201B68DB699847124B0121124A196013689B07FCD5114A11491368C6
:2023A000096823F4807323F001030F4C13600B6820460E49984740F221200D4D0D490E4B32
:2023C00004273126012227602E6008601A60F8BD80060020B80100102820086028200840FD
:2023E0000C000140C801001000000140002100043C000140080001400400244310B409490A
:20240000094C0B68226808688342FAD1DB01074903EB52620023C1E9002310BCD1E9000125
:20242000704700BF082009400C2009408006002010B50B490B4C0B68226808688342FAD12D
:20244000DB01094903EB52620023C1E9002302F079FC00B910BDBDE8104002F045BC00BF28
:20246000082009400C2009408006002010B507F0A7FD034B1C6808B907F0A6FD204610BD10
:20248000082009402DE9F04107F09AFD1D4E1E4B1E4F32680124002580464FF480314FF4D4
:2024A00080703D601C60186019601368284623219847336820461B6824219847336825218D
:2024C0001B6802209847124A1249136843F4E02313600D6007F0FEFD0F4B1049104A1B68AA
:2024E00000F50070086014603C601B6914209847B8F1000F01D0BDE8F081BDE8F04107F0FC
:2025000063BD00BF8401001004200940000024430020094008200940B00100101C20094053
:20252000A0022443431E012B10B419D9042801D010BC704700231A4610F004001CBF0E4C13
:20254000216013B10D4B0121196012B10C4B01221A600028ECD00B4B01221A6010BC704732
:2025600010F0010302D0084A0123116010F00202E2D0064C2160DFE72020094080022443DD
:20258000A0022443C0022443182009401C200940014B1868704700BF1808002008B509F0CB
:2025A000D3F9184B1860FFF743FF174B1B686BB9164B1B68E3B9164B1B6833B11549164B2C
:2025C00000204FF4803208601A6008BD124B4FF480721A6007F07EFD00F205200F4B20F43C
:2025E000FF7020F001001860084B1B68002BE2D00B49094B0020012208601A6002F05CFD18
:20260000D9E700BF18080020A000244380002443C0002443C0022443042009401C200940CB
:202620008002244303490448044B012208601A60704700BF00000840FFFF0F00000C0840A6
:20264000F8B507F0BDFC124AB0FA80F01368012B0BD0104C104D1149114A012340092560C5
:202660000B601360C3070FD4F8BD0E4F094D0A4E0A4C0B49400940F0020017602E60236062
:202680000B601360C307EFD5BDE8F84007F09CBC000C084000000840FFFF0F000C000840A5
:2026A0000401004351E5CC1A03490448044B012208601A60704700BF00000840FFFF0F00FF
:2026C0000C00084010B50446C0B200F07DF9204610BD00BF70B506460024451E04E015F8E4
:2026E000010F00F071F9013430460CF05BFAA042F5D80A2000F068F900F07AF90128FBD0F3
:20270000204670BD70B50446B0B10078C0B1A9B10025661804E014F8010F38B1B44205D0BC
:2027200000F052F9631C05F10105F4D100F060F90128FBD0284670BD0546F7E70D46F5E7EE
:202740000546F3E710B40B4B0B4C13F8012FFF2A0DD1A342F9D1094A39B1114401380139ED
:202760000B78914200F8013FF9D110BC7047044AF2E700BFC7FF0100CFFF0100F0120050B0
:20278000C8FF010038B50C4D02202B685B6998472B6802205B6B984701280446064BF7D1ED
:2027A0001B684FF40070DB699847044B044A1C6013689B07FCD538BDB8010010282008604B
:2027C000282008402DE9F04340F2F275DFF8DC8083B0FFF7D7FFD8F800302A4EDB682A4828
:2027E00098473368294C5B69152098472368DFF8C090274F23F4FE63D9F8002023F0020369
:2028000023603D60D36B032098472249D9F800300820122208600092D3F8409003221323A0
:2028200002211948C847D8F800206023D2F8048019494FF4E1321448C04740F2011240F2B2
:20284000013E1649164B142008601968154841F01001196003681449002B0CBF1346734674
:202860000B603D60036853B12368326843F0500323601369152003B0BDE8F043184703B065
:20288000BDE8F083B001001000100040381000404410004090200240006CDC023410004033
:2028A0002C1000401C08002030100040D0010010B401001008B5064B02201B685B6B9847DA
:2028C000012803BF034B186800F00100002008BDB80100106C20084038B50446FFF7EAFFB6
:2028E00018B1254A13681907FCD4032C03D0234B1B6803B138BDFFF7DDFFE0B9204D4FF47E
:2029000000702B681B6A9847032C2AD01D4B01211D4A196013689B07FCD5032000F0BCFA06
:20292000022000F0B9FA132000F0B6FABDE83840122000F0B1BA154B15481B68DB689847F3
:20294000144B15201B685B69984740F2F270124A1249136823F4FE6323F00203136008608C
:20296000CCE72B684FF400709B6A98472B684FF400701B6B9847C9E7181000401C08002073
:20298000B80100102820086028200840D001001000100040B0010010381000404410004020
:2029A00010B507F00DFB0446054800F059FA054B00221A6004B110BDBDE8104007F004BB60
:2029C000780400201C08002010B50446FFF772FF08B9FFF7F7FE044B2146BDE810401B68C7
:2029E0000248DB69184700BFD00100100010004008B5FFF75FFF18B1024B1868C0F3C000E0
:202A000008BD00BF1810004038B5FFF7BBFE40F2F2710C4B0C4A1B68116013F0500F10D0B6
:202A20000A4C0B4D05E02B681B699847094B1B6823B923680848DB06F5D538BDC0B298478E
:202A4000F7E738BD401000404410004018100040D00100101C080020001000402DE9F04755
:202A600040234FF0000882B00F461646CDF800800193054607F0A4FA494A4A4BC2F80080AE
:202A8000444601204FF480714FF48032DFF85881186019601A60D8F8003020463F211B68FE
:202AA00001349847042CF6D1DFF83C810024D8F8003020463F219B6801349847032CF6D180
:202AC000394B1B68FFF7F0FD384802F095FB044630B1A368032003B198472468002CF8D19D
:202AE0006B1C0CD0324BAA0013430021314A1960136846F000523A4328461B6898472E4E15
:202B0000DFF8E89000243368C9F800409B6907209847684608F02EFF00F08CFA00F03AFA2F
:202B2000264827490368326823F0030303600B68244D23F00F030B609369382098472C6003
:202B4000012008F037FFDFF8A8A01F481F4A4FF001081F491F4B2C60134FCAF80040C0F875
:202B6000008014601C4A0C60C9F800401C603B681A491368096823F0030313604B68184881
:202B800003219847174A33682C60CAF80040C2F800809B6B3A68984702B0BDE8F08700BF5A
:202BA00000002443042009402C20094020080020001A4442B4010010B801001000100940DD
:202BC00008100940401009408801044340012243440122430800094024220840D801001013
:202BE0000040034018100940840100100C40094020042243034A136823F00403136030BFEA
:202C0000704700BF10ED00E070B507F0D9F902F0F9F918B1BDE8704007F0D6B9804802F031
:202C2000EBFA0225044648B1636823B19847A84228BF2846C5B22468002CF5D108F084FE19
:202C4000784B04461B68002B40F0898002F07AF8002840F0B2800346012D00F09380022DE9
:202C6000D8D1002840F0C780611E2846FFF75AFC6B4802F0C1FA0625044600287BD0A36880
:202C8000022003B198472369246825EA0305002CF5D1FFF709FD6B0705F006046ED4002C83
:202CA00040F0A38000F0C6F9002008F083FE5E495E4A0B685E4823F003030B6013680168A9
:202CC00043F00F0313608B6939209847594A5A4900231360184613600B6006F011FF062CC0
:202CE00000F08E80554C564D564E2B682368326823F00303236053680321534898474C4BAA
:202D00001B689B6B98472B6807F028F84F4A3368002111604C485B680121984723684C4A62
:202D2000012143F00303236011602B6807F04EF808F00CFEFFF77CFBFFF7B6FC384802F0EB
:202D40005BFA044628B1E36803B198472468002CF9D107F039F9BDE8704007F035B93D4BB0
:202D60001B681B1A022B3BD4A3F28F23002BBFF66DAF012335E0FFF797FC0624344B00228F
:202D80001A608CE7002842D06FF00702121BDA423AD404F58031CA1A11EA220138BF19464B
:202DA0000220FFF7BFFB2C4A136823F00403136030BFBDE8704007F007B901F0CBFF0646C1
:202DC000FFF71CFB361A002E7FF724AFFFF7E0FB224A00EB4623121BDA421BD401203BE713
:202DE00000239D4228BF1D4630E7114B20461B689B69984756E719462846FFF793FB37E79C
:202E0000022007F0C5F86DE704F10801C8E704F58031C5E7022DB7D0012D7FF4FBAEB3E7EB
:202E200020080020800224430010094008100940B80100104010094020042243242208402E
:202E40002C200940D801001000400340800104430C4009401820094010ED00E071FDFFFF4A
:202E60000146014802F0CAB9200800200146014802F016BA2008002010B5054802F0B8F9B6
:202E8000BDE81040034B20211B6803201B6818472008002084010010431C0ED010B50446FD
:202EA000064B4FF4C0421B6800211B689847044AA3001A430023136010BD7047B401001049
:202EC000001A444238B504460D4607F079F801230549064AA3400B6042F8245000B138BDFC
:202EE000BDE8384007F070B8E020024024080020064B002103F1800243F8041F9342FBD121
:202F0000034B10201B681B69184700BF20080020B0010010F8B5094B094F1D6800241D6086
:202F2000012606FA04F32B42E0B203D057F8243003B198470134202CF3D1F8BDE02002402F
:202F40002408002000B585B00022412302A80292039308F00FFD042007F0F6F8032810D0C9
:202F60000321042007F0C8F8042007F0EDF80328FAD100901C234FF040520021044807F058
:202F80005DF802A808F04CFD05B05DF804FB00BF00A00C4000B583B00022412368468DE8AC
:202FA0000C0008F0E7FC042007F0CEF8022808D00221042007F0A0F8042007F0C5F802286F
:202FC000FAD1684608F02CFD03B05DF804FB00BF00B583B00022412368468DE80C0008F0FC
:202FE000C9FC012007F0B0F8012803D00121032007F082F8684608F013FD03B05DF804FBDD
:2030000000B583B00022412368468DE80C0008F0B1FC012007F098F8012803D0044B986B78
:2030200006F0A0FF684608F0FBFC03B05DF804FB4800001010B582B041236846002401933E
:20304000009408F097FC0320214607F055F8012007F07AF818B1044B986B06F083FF6846B8
:2030600008F0DEFC02B010BD4800001008B508F017FD30B1044B5B88022B14BF0220012088
:2030800008BD022008BD00BFE008002070B582B008F006FD40B901A9134808F009FD012846
:2030A0000AD0002002B070BD0F4C6388022B08BF0120F0D102B070BD08F046FC6FF03F055F
:2030C000094C2D1A03E008F03FFCC54209D56088054E0228F7D1A0F10200B0FA80F0400936
:2030E000E8E77088F7E700BFE008002008B5B32994BF0A46B422014602480BF0CDFB0020DE
:2031000008BD00BF6209002070B5054606F058FF04462DB1124A134B12681A6094B170BD9B
:203120000F4B104D1E68002116F180402A684FF0000341F10001994208BF904206D32E6088
:20314000002CECD1BDE8704006F03EBF08F0FCFB054A064913680860013313602E60EFE7C3
:2031600004300440A4080020DC080020480B002030B589B002A840F60202182108F0D6FE8D
:20318000164B9DF81A201B689DF81B401979144D61F3050211468DF81A205A7902A862F356
:2031A00087118DF81A109A7901A9012362F347048DF81B4007958DF8163008F079FC01286A
:2031C00002D0002009B030BD02A808F0BBFCA0F10100B0FA80F0400909B030BD8C040020B3
:2031E000A404002008B5FFF7C3FF012801D0002008BDFFF74BFFC0B208BD00BF70B50E4DFD
:203200000E4E2C68002006E02379022B06D024682B689C420ED02379032BF5D133780120E2
:20322000002BF4D1064801F023FF24682B6801209C42F0D170BD00BFD0080020A42800208E
:203240002406002010B582B008F06AFE044608F027FC08B902B010BD01A9084808F028FC12
:203260000128F7D1638803F44063002BF2D1638803F44063002BF5D0ECE700BF01000104DD
:203280000B2807D00C2801D001207047042A11D002207047082AFBD10029F9D0094B0139E1
:2032A000A3F1080013F8012D834201F8012FF9D1002070470029EBD0034B00201B680B606A
:2032C000704700BF100900206C0C002042F2034310B584B0002402A801A902940394ADF8EA
:2032E000083008F0E5FB20B19DF90A30803302D0204604B010BD9DF80C0000F00C00A0F183
:203300000400B0FA80F0400904B010BD10B582B008F0C6FB20B3144C6388022B03D01FE0F8
:20332000FFF7D4FF18B108F0BBFB0028F8D101A90E4808F0BDFB02E06388022B03D108F0E6
:20334000AFFB0028F8D142F202426388934207D042F20740181AB0FA80F0400902B010BD34
:20336000012002B010BD00BFE00800200100010430B585B008F094FBB8B10D4B5B88022B6E
:2033800013D142F20345002401A902A802940394ADF8085008F08CFB38B19DF80A305B0693
:2033A000F2D09DF80C0005B030BDFF2005B030BDE00800200B2801D001207047082A01D060
:2033C000022070470029FBD008B50C4B083103F1080011F8012D03F8012F8342F9D108F0EE
:2033E0005FFB50B1064B5B88022B05D1FFF78EFFFFF74CFE032008BD002008BD070900207B
:20340000E008002008B508F0E7FD012814D008F047FB88B1094B5B88022B0DD108F040FB16
:2034200030B9FFF7A5FFFF2806D0C0F3801008BDFFF74CFF0028F4D0002008BDE0080020EA
:2034400008B502E0FFF742FF18B108F029FB0028F8D1FFF75BFF08F059FCFFF7EBFD0E4BEC
:203460000E48197900220229428012D00C4B1A79022A04BF00221A710A4B1A79022A04BF16
:2034800000221A71084B1A79022A04BF00221A7108BD1A71EAE700BF280A0020E0080020C3
:2034A000B80A0020DC0B00204C0B002008B508F093FD012801D0FFF7C3FF012008BD00BF10
:2034C000F8B508F089FD012830D0FFF781FD08F0E7FA38BB1E4A1F481F49204B92F805E047
:2034E00047794E795D79012464F3830E64F3830764F3830664F38305882482F805E0106047
:2035000047710160C480D480CC804E710B601A60DC805D71FFF774FD08F08AFC012807D0FB
:203520000020F8BD0E4B5B88022BD3D10120F8BD0C4B1878003018BF012008F097FCFFF743
:2035400017FE0128ECD1BDE8F840FFF79FBD00BF280A0020B80A0020DC0B00204C0B0020D0
:20356000E0080020A428002070B584B0072800F2B380DFE800F01E61262F325C6B04574C7F
:20358000217708F08DFA10B36388022B1FD1FFF7BDFE012814BF0324002408F057FC0020E6
:2035A000FFF7B2FDFFF772FD01287DD0032004B070BD012900F08480002977D0022004B023
:2035C00070BD464C618608F06BFA0028DCD1002004B070BD414C2186D3E731F00702EDD13C
:2035E0003E4C3F48237EC1F3400561F30003DBB243F00203067865F38203657EC1F3800191
:2036000003F0870362F3C71362F3C7158E42657623760170B5D1334B228B184603A95A8083
:2036200008F046FA002814BF00200320BFE731F00103C3D1C8B2BAE7A1F10B030F2BBDD82B
:20364000264CA37B9942C2D0A1739AE701F115031A2BB3D8244A6FF014030C2401E052F8BF
:203660003430994232DD14F1FF34F8D208F018FA00289CD04FF000021B4B102503EBC404CA
:2036800023796079A17903F03F0360F3871361F3470203A802A98DF80E308DF80F20ADF86A
:2036A0000C5008F005FA92E7204680E7019108F093FC01288BD0FFF7C3FE0199084676E7D8
:2036C000FFF7FEFE01287FF471AF80E7064B074A03EBC4031360C9E7012068E7E0080020E3
:2036E000A4280020C80800204CF200008C04002081B130B50C4683B0102800F28580DFE86E
:2037000000F05C57524D6C69474128221D83831915100B000220704705230B60002003B015
:2037200030BD6FF014030B600020F8E71A230B600020F4E70B230B600020F0E7474B0020D7
:203740001B780B60EBE7464B00201B785BB20B60E5E708F0A5F9002858D0424B5B88022B8E
:2037600054D140F203430022694601A80192ADF8043008F09DF901286CD06FF07F0323606F
:203780000320CCE7374B002093F91C300B60C6E7354B00201B681B680B60C0E7314B00206D
:2037A0001B8E0B60BBE72F4B00205B8E0B60B6E72C4B00209B7B0B60B1E708F071F930B1D5
:2037C000284B5888A0F10200B0FA80F0400920600020A4E700200860A1E70023214A0B606C
:2037E000137E03F001030B60127E520744BF43F002030B601D4B1B78002B9DD00B68002021
:2038000043F004030B608AE7012088E7FFF758FE0128B2D140F203430022694601A8019285
:20382000ADF8043008F044F901280CD008F0D4FB0128A2D06FF07F05FFF702FE2560803500
:203840007FF47AAF9CE79DF9025008F0C5FB0128F2D1F3E79DF90250F0E700BFA32800207A
:20386000A2280020E00800208C040020A428002070B588B0054608F013F9002851D03E4B3C
:203880005B88022B08BF00264BD108F05DF86FF01F04241A07E0FFF719FD012848D108F0D5
:2038A00053F8C44246D508F0FBF80028F3D102A842F60142182108F039FB304C304B002222
:2038C000EDB28DF817502178069304929DF81430891A18BF012162F3030301208DF81430DB
:2038E00008F0FEFA02A801A908F0E2F830B3207801E0002835D0BDF80A3003F44063002B75
:20390000F7D0BDF80A40A4B2B4F5105418BF0124003018BF012008F0F7FAC6B9204608B0D4
:2039200070BDFFF7CDFD012819D0012008B070BD0028BCD0C6B9022008B070BD207801248B
:20394000003018BF012008F0DFFA002EE6D008F043FB0128E2D0FFF773FD2046E6E7064694
:2039600093E7FFF747F9C2E708F036FB0128E2D0FFF766FDDFE700BFE0080020A428002018
:203980006209002010B50C46B32998BF2246014688BFB42203480AF07FFF2046BDE8104068
:2039A000FFF766BF6209002010B508F015FB012824D008F075F8B0B11B4B5B88022B03D068
:2039C00011E0FFF783FC18B108F06AF80028F8D1FFF7CEFCFF2811D000F0030010F1FF3082
:2039E00018BF012010BDFFF76BFD0128044607D008F0F2FA012801D0FFF722FD012010BD79
:203A0000FFF7B6FCFF2805D000F0030010F1FF3418BF012408F0E0FA012803D0FFF710FD0E
:203A2000204610BD204610BDE00800202DE9F0434B4D83B080460F462E6808F031F830B151
:203A4000484B5B88022B02D10020FFF75DFB07F07BFF454C241A03E007F076FFC44208D510
:203A60003379022BF8D0032B06D0002003B0BDE8F0833379032BF8D12E68394A337A032B1F
:203A800007D996F808905FFA89F9A9F10804BC4207DD3368002013603071307203B0BDE8F4
:203AA000F0834046224606F109010AF0F5FE09F10302B35C09F1050956F809002B4F5BB2C3
:203AC0003B700190B35CDDF80480294E294A03F07F03B8F1404F3370D2F800900BD907F0D3
:203AE00033FF254B1B68C3F17E4303F57203C34248BF09F1FF39DFF88CE06FF4BF70DEF8D6
:203B000000E010EB08004FF0FF3141F100010022B0EB0E0061EBEE71121849EB010319022D
:203B200041EA12611002002343F609520AF0ECFC124B134A1B7810603BB12B68002219685D
:203B4000204629601A721A7190E73978042049B289B206F0FFFE3178032006F0FBFEECE75C
:203B6000D8080020E0080020FAFEFFFFA2280020A3280020DC080020480B0020A42800200F
:203B80006C0C00200427002010B507F089FF78B10E4B5B88022B0BD10020FFF7B5FABDE826
:203BA000104000230A4A4FF487310A4800F08EBFFFF786FC0128F2D10020FFF7A5FA08F0A3
:203BC0000BFA0128EBD0FFF73BFCE8E7E0080020893B0000A8080020F8B5304F3048FFF7CA
:203BE0003FF908F009F93846902200210AF02EFF902200212B480AF029FF902200212A486E
:203C00002A4C0AF023FF9022002129480AF01EFF284E294B00252946802220461F6037601B
:203C200075600AF013FF42F6010E42F20200072202236376227621491922214B278B26611D
:203C4000A273B9266F22E6736161E276FF210122A626A4F800E026775F801971A1766273EF
:203C600084F837201880FFF72BFC012802D02C462046F8BD0446134808F066F92046FFF7DC
:203C800043FA2B46104A4FF48731104800F01EFF29460F4801F024F92046F8BD280A00207B
:203CA00090040020B80A0020DC0B0020E00800204C0B0020D0080020D8080020180A0020AE
:203CC000C8080020ECF20000893B0000A80800202406002008B500F08BF880B208BD00BF52
:203CE00000F010B938B50C4D04202B685B6998472B6804205B6B984701280446064BF7D183
:203D00001B6840F20140DB699847044B044A1C6013689B07FCD538BDB80100102820086015
:203D200028200840034B1B68002B14BF01200220704700BF700C0020F8B503880446002B22
:203D40002ED0B3F5847F05D1184B1B788B4205D00120F8BD002303800320F8BD144D2B6804
:203D600073B1144B144A1B6812685B680220174698470026301847F100012B6898472E609D
:203D80000E4B40F201401B689B6A98470C4B01210C4A196013689B07FCD50B48FFF766F813
:203DA0004FF4847323800120F8BD00BF76060020700C0020CC01001004800240B8010010ED
:203DC0002820086028200840D004002008B5064B04201B685B6B9847012803BF034B18689C
:203DE000C0F34000002008BDB80100103C20084070B5274B1B689BB1264C0023224612F811
:203E0000011B29B90133042BF9D10020014670BD214A002502EBC302E55492E8030070BDBE
:203E2000FFF7D4FF00282FD01C4A1D4B1268134073B91C4A0121134611601A68002AFCD100
:203E400010464FF4807106F0C3F8174B01221A6006F0B6F80646114A1368DB07FCD5134B51
:203E6000134A1B6814685B680220984723460022141843F1000516B12046294670BD06F073
:203E8000A3F82046294670BDFFF72CFFCCE700BF700C0020740C002088060020088002403E
:203EA00001000080F09F0240A8025042CC0100100480024038B50E4D00240E4A2C60136806
:203EC0000D4923F00103096813604B6931209847224620464FF4807106F07AF80122074BCE
:203EE0002A6019782246BDE83840054801F094B8A80250420C800240B00100107606002031
:203F0000E404002010B5074C2378802B00D010BD00F0DEFF207000210348BDE8104000F0F0
:203F2000DFBF00BF76060020E40400200AB90020704708B508461146FEF7E4FB002008BDCB
:203F40000FB400B583B004AB53F8041B04481A46019300F07BF803B05DF804EB04B0704798
:203F6000F404002038B54368044693428CBF154603F1FF352A4600680AF08EFC94E80C00C0
:203F80002A445D1B84E82400002038BD0CB430B587B00AAB53F8044B094D029003911A468F
:203FA000214604A802AC01930495059400F04EF8029B00221A7007B0BDE8304002B07047C6
:203FC000653F000038B50446154600680AF064FC236800201D44256038BD00BF0EB430B5FD
:203FE00086B009AB53F8041B084D01901A4601AC04A803930495059400F028F8019B002238
:204000001A7006B0BDE8304003B07047C53F0000102970B50C46054602D80AE0102C0BD9FE
:204020002B681022084968689847103C0028F5D070BD08460029FBD022462B6868680249FD
:20404000BDE87040184700BF10F300002DE9F04F834688468FB001924FF0000998F8003024
:20406000002B00F0E380252B08BF45461DD0444603E0252B00F045812C466378651C002BC7
:20408000F7D1454500F0D280C8EB050641463246DBF80030DBF804009847002840F03D82FF
:2040A0006378B144002B00F0C1806B7805F10108002B00F0BB800025A3F12002102A1BD894
:2040C000DFE802F0171A1A141A1A1A1A1A1A1A111A0E1A1A090045F0100518F8013FEBE730
:2040E00045F00105F9E745F00605F6E745F00805F3E745F00205F0E7A3F13102082A00F26E
:20410000D580002404EB840403EB440418F8013F303CA3F13002092AF4D92E2B00F0CE8060
:204120004FF0FF366C2B00F0E280682B00F04481782B00F28180DFE813F079007F007F0003
:204140007F007F007F007F007F007F007F007F007F007F007F007F007F007F007F007F006F
:204160007F007F007F007F007F007F007F007F007F007F007F007F007F007F007F007F004F
:204180007F007F00E2027F007F007F007F007F007F007F007F007F007F007F007F007F00CA
:2041A0007F007F007F007F007F007F007F007F007F007F007F007F007F007F00DF027F00AD
:2041C0007F007F00DC02D902D6027F007F007F007F007F007F007F007F007F007F007F00DB
:2041E0007F007F007F007F007F00D3027F007F007F007F007F007F007F007F00D0027F0026
:20420000CD02CA02C702C402C1027F00CA027F007F007F007F00BE02BB027D007F007F0072
:20422000B8027F00B5027F007F00B20248460FB0BDE8F08F45F4407505F4E063B3F5806FAA
:2042400008F1010800F06E815FD9B3F5C06F00F0A181B3F5E06F00F09681B3F5A06F7FF434
:20426000FDAE019A012C136888BF04F1FF3402F104028DF8203098BF0024EB07019200F122
:20428000F38121465846FFF7C3FE002840F045810122DBF8003008A9DBF8040009EB020527
:2042A0009847002840F03981254497E12A2B00F08D802E2B4FF000047FF432AF98F8013029
:2042C00008F10101A3F13002092A00F28D808846002606EB860603EB460618F8013F303E82
:2042E000A3F13002092AF4D96C2B7FF41EAF98F801306C2B00F05A8108F1010845F0600562
:2043000016E745457FF4C0AECFE6B3F5807F70D0B3F5407F7FF4A2AE0198B24B15F4804F01
:20432000B14F18BF1F4603460168043301930A460023002900F0AB810DF1330E70461109FD
:2043400041EA03714FEA131C02F00F0663460A46B95D00F8011D52EA0301F0D1BEEB00067A
:2043600000F097810336B4424FF078034FF0300200F8013C00F8022C4FF023038CBFA41B11
:204380000024EA0700F8033CA0F1030700F1BA8121465846FFF73CFE002840F0BE803946C0
:2043A000DBF800303246DBF804009847002840F0B48009EB060511E198F80130682B00F00B
:2043C000B58108F1010845F04005B1E6019A08F10108134614680433002C0193B8BF45F07F
:2043E000010598F8003098E62A2B00F0A681884696E6002EABBF25F01005012305960593AA
:2044000015F40053049305F0E00300F0F580402B00F0A88200F29B81002B00F06182202B90
:2044200040F08A82019991F900200431D3170191002A73F10001C0F25F82CDE9022300232B
:20444000069305F4C053B3F5805F00F0F080B3F5C05F00F0CC81B3F5006F00F0ED810DF159
:20446000360A002741F60803059941F208028F4203EA050380F08E819342A1EB070600F015
:20448000518241F60802934207EB060100F08D8100231A460293049B83B1069B002B40F055
:2044A000928105F00603022B00F053824F48062B08BF0246029B08BF01230293029B0B4419
:2044C0009C428CBFE41A002415F00103049304D1E80640F11D8226441C46029838B11146B8
:2044E000DBF800300246DBF804009847A8B9102E07EB090540F2C381B14603E0B9F1100F03
:2045000040F2BF81DBF8003010223949DBF804009847A9F110090028F0D04FF0FF300FB0F4
:20452000BDE8F08F019A1346D2F800A004330193BAF1000F00F0E8819AF8007037B1574694
:2045400017F8013F002BFBD1CAEB0707002E02DBB74228BF3746BC428CBFE41B0024E9078E
:204560002BD421465846FFF753FD0028D5D15146DBF800303A46DBF8040098470028CCD18E
:2045800007EB09052AE0019A136804320192C3F8009063E5DBF8003001221649DBF8040043
:2045A00098470028B9D109F1010957E598F8023045F0800508F10208BAE55146DBF8003072
:2045C0003A46DBF8040098470028A6D12146584607EB0905FFF71CFD00289ED104EB05095E
:2045E0003CE500BF30F3000044F3000064F3000020F3000070F30000402B00F0AE8100F238
:20460000B680002B00F06181202B40F0E080049A019906920A780023CDE902230B460433B4
:20462000019305F4C053B3F5805F7FF410AFDDE90223134300F09D810DF1360307939A4621
:20464000DDE90223D00840EA4370DE0802F007013346024630310AF8011D52EA0301F1D196
:20466000079BCAEB0307FDE6DBF80030012208A9DBF80400984700287FF44FAF21465846CB
:2046800009F10105FFF7C4FC0028A7D045E70DF13300302300F8013C0426013863E645F4FB
:2046A000C855C9E545F41065C6E545F48065C3E545F48855C0E545F4E065BDE545F4813546
:2046C000BAE545F40075B7E545F40245B4E545F42455B1E545F4A065AEE545F4C135ABE500
:2046E00045F4B245A8E545F4A135A5E545F48445A2E545F442459FE545F4E1359CE545F48E
:20470000C06599E53946DBF800303246DBF80400984700287FF401AF2146584609EB0605F7
:20472000FFF776FC00283FF459AFF6E698F8023045F0200508F10208FAE4019998F8023079
:204740000A4604320E68019208F10208EAE4602B00F0C680802B40F0EF80019B073323F005
:20476000070303F108020192D3E9002360E6602B00F0AB80802B2AD1049B0693019B07331F
:2047800023F0070303F108020192D3E90023CDE9022356E6934200F0CD8041F608020026FC
:2047A000934207EB06017FF473AEDDE9022313433FF46EAE744B15F4804F744A18BF1A467B
:2047C0000223029367E601230293714A76E605F4C053B3F5805F00F0D080B3F5C05F40F038
:2047E000AE8000230022CDE9022300230693694B15F4804FDDE90201674E024618BF1E4622
:204800000B46134300F0B5800DF1360307939A4602460B46110941EA03711F0902F00F00A0
:204820003B460A46315C0AF8011D52EA0301F1D1079BCAEB030715E6DDE9026732463B4674
:20484000134300F096800DF136039A460793304639460A22002309F057FE30323046394662
:204860000AF8012D00230A2209F04EFE06460F4656EA0703EBD1079BCAEB0307F2E556B18E
:20488000B1464A46DBF800304449DBF80400984700287FF442AE3A46029F51462F44DBF8C2
:2048A0000030DBF804003D46984700287FF435AE049B3544002B3FF491AE21465846FFF761
:2048C000A7FB00283FF48AAE27E6019A136804321946049B01920022CDE902120693B0E59F
:2048E00001990B460A6804330193002A4FEAE27373F10001BFF6A1AD524263EB4303CDE992
:204900000223012306939CE5DFF898A006271DE6214658460592FFF77BFB059A00283FF4F3
:20492000DCADFAE5002E08BF0126002302931A46B919B0E50126F8E7002200237DE50023A4
:2049400006931F4600220023CDE902230DF1360A88E50123124A0293B0E5049A0199069214
:204960000A8858E60199B1F900200431D31701915EE500270DF1360A74E500230022CDE956
:2049800002230023069352E658F300005CF3000060F3000030F3000044F3000020F30000A4
:2049A00018F0000068F3000010B50446006830B1002100F095FA54F8040F0028F8D110BD7F
:2049C000704700BFF0B5038883B005465BB14A2B04D188291BD0012003B0F0BD002303809A
:2049E000032003B0F0BD194800F006FC044630B1A168201D00F07EF92468002CF8D1144B29
:204A000001221A704A2301202B8003B0F0BD0F48019200F0F1FB04460028F3D0019A031D9A
:204A20009A4205D02468231D002CEBD09A42F9D12146064800F034FC064E6269A3693768CD
:204A400032600BB1E06998473760DBE7780C0020A5280020840C002010B5064B00240648BE
:204A60001C7000F0C5FB2146BDE81040034800F037BA00BFA5280020780C0020FC04002002
:204A800070B504460D48049D0078A261E361656130B9A1600A482146BDE8704000F0AEBBDB
:204AA000084D094B2E68201D2B6000F023F92E602146BDE87040024800F0A0BBA528002017
:204AC000780C0020840C0020FC04002010B5044C82B024680094FFF7D3FF02B010BD00BFF5
:204AE000840C002070B5094B04461B783BB1084D084B2E6804302B6000F006F92E602146E3
:204B0000BDE87040044800F079BB00BFA5280020840C0020FC040020780C002070B5094B37
:204B200004461B783BB1084D084B2E6804302B6000F0F4F82E602146BDE87040044800F04D
:204B40005DBB00BFA5280020840C0020FC040020780C002010B50A4B04461B783BB9C3600F
:204B600003612146BDE81040064800F099BB043000F0FAF82146BDE81040024800F090BBEC
:204B8000A5280020780C002010B50E4C2368B3B1FDF734FC226892E80A0092680B44191AC8
:204BA0004AB114685368926823441B1A994228BF1946002AF5D1044B0144196010BD024AF6
:204BC000136010BD7C0C0020800C00202DE9F041038805467BB1592B08D1872912D082295E
:204BE00020D059232B800120BDE8F081002303800320BDE8F081254A0120136059232B805E
:204C0000BDE8F081214F39680029EAD0CB689A4203D024E0CB689A4220D189680029F9D1C0
:204C20003960DEE7194F4FF000083C68002CD8D0002604E0A3682646002BD2D01C462046D9
:204C400000F062FA0028F5D022468821E06800F0E3F978B10E4800F00BFAEBE739608B6824
:204C6000002BBED0D86882420BBF9B6819468B609B68F5E7E060A3682EB1B360C4F8088000
:204C8000FFF782FFD1E73B60F8E700BF7C0C00200C05002010B50446104800F0E9F9104941
:204CA000E3680A684BB142B194420FD0134601E09C420BD09B68002BFAD10A4BA2601B68CD
:204CC0000C60E360BDE81040FFF75EBF054B1B68E360BDE81040FFF757BF00BF0C05002016
:204CE0007C0C0020840C0020014800F0C1B900BF0C05002010B5044600F0F2F92046BDE8C4
:204D00001040FFF7C7BF00BF10B5044600F0F0F92046BDE81040FFF7BDBF00BF10B5044685
:204D200000F0ECF92046BDE81040FFF7B3BF00BFC068B0FA80F04009704700BF05C81044FA
:204D4000704700BF024B1868003018BF012070477C0C0020024B186808B1024B186870477F
:204D60007C0C0020800C002010B50F4B04461A68824213D072B19368984208BF134605D060
:204D800043B19A68944201D01346F9E7A2689A60FFF7FAFE0023A360E36010BD82681A60B1
:204DA000FFF7F2FEF6E700BF7C0C00202DE9F843DFF8A480274DD8F800702E68874247D053
:204DC00077B33B4601E0002B3BD01B689842FAD133B3837B8946044623B3002383736FB1DD
:204DE000BC424FF0870106D0BB7BDB0703D52246384600F033F83F68002FF1D1A3683BB198
:204E00004C4505D02C600022832104F10C009847D8F80000844208D12368C8F800302E6082
:204E2000BDE8F88338468442F6D00028F7D003689C4208D0002BF2D01A68944204D01346C6
:204E4000F8E7BDE8F883034622681A602E60E7E73B46BDE7840C0020880C002070B586680E
:204E60007EB104460A4802230460A37304F10C000D46B0470238012804D9832D02D0012397
:204E8000A37370BD21462046BDE87040FFF78EBF840C002070B50C4A0C4B146800251D70BA
:204EA00084B1012601E0246864B1E37B002BFAD0A673E573204600228221FFF7CFFF2468D5
:204EC000002CF2D170BD00BF880C0020A8280020024B1878421C1A70704700BFA928002027
:204EE00070B50F4D2C68844206D034B1234600E01BB11B689842FBD170BD0028FCD0034674
:204F0000084E04600A4634680120002198739981184681212B60FFF7A1FF346070BD00BFE3
:204F2000880C0020840C002070B407480749084A0023084D084C8A2603700B6013602E708D
:204F4000237070BC704700BFA7280020880C0020840C0020A9280020A62800202DE9F041A3
:204F6000234D2B780BB1FFF795FF224E3378BBB12148224F0278013B02EB420189000132D5
:204F80007C1802F01F020270A068DBB233707F5CD4F8048098B1812F06D0827BD20705D417
:204FA00028781844BDE8F0810123837342463946FFF754FF337828781844BDE8F081104A5E
:204FC000146834B9ECE7A37BD9070AD42468002CF0D02B78002BF6D0FFF75CFFA37BD9075E
:204FE000F4D5424639462046FFF738FFEEE700BFA8280020A7280020A62800208C0C002035
:20500000880C0020024A034B10781B7818447047A7280020A8280020F0B40C4D2C78202C48
:2050200011D00B4B0B4E1B78671C234403F01F0303EB43039B00F418A06062602F70F154CD
:205040000020F0BC70470120F0BC7047A7280020A62800208C0C002038B5837B034CDB0798
:20506000256801D5FFF7FAFE256038BD840C002038B1837B013B012B03D8024A0123137098
:20508000C3737047A828002006F058BC38B5094C049D226822B180E82A002060002038BDC2
:2050A000024680E82A000846226006F049FC002038BD00BF0C0E002010B5084C206858B153
:2050C00000224368816822609847236823B1BDE81040186806F034BC10BD00BF0C0E002039
:2050E00010B541600446FDF789F9206010BD00BF90E80C0013440360704700BF10B50446BB
:20510000FDF77CF9206010BD10B50446FDF776F923686268C3F101031844904294BF0020B9
:20512000012010BDF8B504880546672C0BD0792C04D0CCB1002303800320F8BD85291AD182
:205140001D4C002323601C4C264604E00A2814D023687E2B2ADD194800F03EF9431CF5D18A
:2051600067232B800120F8BDFFF7B2FE144A124B10701C60E7E70120F8BD0F4C114F2368DD
:205180000F4A581C0026117820603A463046FE54FFF742FF0C4B324618688521FFF73CFF6E
:2051A0000028CED179232B800120F8BD05495A1CC8543260CFE700BF900E0020940E0020A4
:2051C000953600209C0E0020840C002008B505490548802200F0F8F8BDE808400021034837
:2051E000FFF77EBE100E0020940E00201C05002000230360704700BF0068704710B40468F1
:205200005CB1A14223D023680BB906E0134699420FD01A681C46002AF8D100230B60026894
:205220000AB910E01A461368002BFBD1116010BC70475CB10A68226000221A6000230B60CA
:205240000268002AEFD1016010BC70470C46226823460260F0E700BF30B4056865B1A94287
:2052600019D02B682C460BB906E01346994207D01A681C46002AF8D10D60016030BC704743
:2052800044B10A68226000221A6005680D60016030BC70470D462A682B460260F3E700BF5A
:2052A00010B404685CB18C4212D023680BB906E01346994205D01A681C46002AF8D110BC20
:2052C00070472CB11A68226000221A6010BC70470A680B460260F7E703682BB100201B682A
:2052E0000130002BFBD170471846704700B10068704700BF10B5044642880021406809F090
:20530000A5FB23886288A06802FB03F2BDE81040002109F09BBB00BF30B44588BDB1416872
:205320000B7863B14A1C002303E01478114601322CB10133AB42F8D1002030BC70470122A7
:205340000A700288806830BC03FB020070472846F3E700BF70B4448882685CB18A420646B8
:205360000BD00588002301E0914207D00133A3422A44F9D1FF2070BC704700237268D05C9B
:205380000028F8D00138D054726870BCD05C704783688B4208D84288008800FB02308142FD
:2053A0002CBF00200120704700207047418849B143680020194413F8012B02B901308B4258
:2053C000F9D17047084670470023013A0160027143718371704700BF0346807959791A7950
:2053E000091A114207D010B4411C1C680A40205C9A7110BC70474FF0FF3070472DE9F843F1
:2054000005460F480F469046FFF7F6FEB0B10446DFF834900BE0D9F800304246394628462E
:205420006668B0472046FFF761FF044630B1012DF1D80448FFF750FF0346EEE7BDE8F883FA
:20544000CC130020640F00205C0F002008B50B48FFF750FF0A48FFF7CBFE0A4B0A491868A1
:2054600004F078FF0948FFF745FF0948FFF7C0FEBDE808400748FFF7BBBE00BF4C05002056
:205480000810002048050020455600002C050020640F0020CC13002048B108B5044A41683C
:2054A000106805F017F9BDE8084000F055BE7047480500200148FFF79FBE00BF08100020C8
:2054C00008B1FFF713BF704708B500F04DFE38B1044B0146186805F077F8003018BF012011
:2054E00008BD00BF480500202DE9F04107461B48FFF782FE58B300260446B04694F82450DD
:2055000004F10801B5424FEAD50207D3384609F091F918B9802D1FD02E46A0462046FFF788
:20552000E5FE04460028E9D1B8F1000F0FD00B48FFF762FE804507D041460848FFF7B0FE05
:2055400041460648FFF788FE4046BDE8F0814FF000084046BDE8F081A046E8E7081000208E
:20556000002840D04368002B3DD070B5054601462148FFF795FE6B685868FFF73DFE044659
:2055800028B929E02046FFF7B1FE044620B363689D42F7D105F108066B6821465868FFF793
:2055A0007FFE6B685868FFF727FEE8B129461348FFF7D0FE21461248FFF7CCFE114A28464F
:2055C0001368013B1360FFF767FF3146BDE8704002460320FFF712BF05F10806304601F0DC
:2055E000C7FE0024D8E770476A68074B5168186805F00CF8DAE700BF081000204C050020CD
:20560000580500205C0F002048050020B0B14368A3B110B504461846FFF7EEFD38B14068D6
:20562000FFF79EFF6068FFF7E7FD0028F7D1044B2146BDE81040186804F0E8BF704700BF09
:2056400048050020FFF7E2BF2DE9F84F054610461746894600F088FD00285DD0804628461E
:20566000FFF742FF044660B1FFF716FF30B101461022384609F0DEF800284AD02046FFF748
:205680006FFFDFF8D4A0DAF80030142B44D0DFF8CCB04146DBF8000004F096FF0646002852
:2056A0003DD02A48FFF738FE0446A8B301462848FFF7D2FD2748FFF72FFE804600283ED090
:2056C000446001467068FFF799FDDAF80030666031460133DBF80000CAF8003004F0C4FF8C
:2056E00028686968AA68EB684FF0000E04F108060FC684F824903A462946C4F818E00220CA
:20570000C4F81CE0C4F820E0FFF778FE2046BDE8F88F2046BDE8F88F0020BDE8F88F0346F0
:2057200041460422DBF8000004F0A0FE06460028F2D0002380E84800FFF75AFDB1E7214602
:205740000248FFF707FE4046BDE8F88F4C05002008100020580500205C0F00204805002034
:2057600010B504460E48FFF747FD40B1A04202D106E0844204D0FFF7B9FD0028F9D110BDF9
:2057800021460748FFF78CFD21460648FFF7E2FD221D1146BDE810400120FFF72FBE00BFFC
:2057A000640F00202C05002038B505460A48FFF723FD044628B90DE02046FFF797FD044613
:2057C00040B110222946201D09F034F80028F3D1204638BD002038BD640F0020F8B50F46E4
:2057E0000546FFF7E1FF0646B8B128686968AA68EB68341D0FC447B9012333772A4629463C
:205800000020FFF7FBFD3046F8BD394606F1140006F0E8FB00233377F0E70548FFF77CFD8C
:2058200006460028EFD001460248FFF715FDDCE72C050020640F002038B50B48FFF7DCFCE7
:20584000044670B1251D284600F068FC08B1437C2BB92046FFF74AFD04460028F2D1284637
:2058600038BD0546FBE700BF640F002010B50E48FFF7C2FC68B10446237F04F1140013B90B
:2058800006F0B8FB30B92046FFF730FD0446002CF2D110BD2046FFF763FF0348FFF7ACFC40
:2058A0000446002CE8D1F4E7640F0020013A0A44914230B414D20C4625786378023403EB37
:2058C00005239BB2184480B2834284BF013080B2A242F1D8CB43134423F00103023319449F
:2058E0008A4201D030BC7047137830BC1B02184480B2834284BF013080B2704730B5134BE1
:20590000134D1C782B796A79C4EB0323134483B09BB2ADF80630BDF8063005F1080118443F
:20592000202280B2FFF7C2FFBDF8062004F12801294492B2FFF7BAFF18B94FF6FF7003B0AB
:2059400030BD40BA80B203B030BD00BFAA280020682E002002200146F8B5304F304D3A7863
:20596000304E2832AB185B783070DB0003F1070E4FF0000C704543DC8318EC5C2B44012C97
:2059800012D019D3632C07D1BCF1000F41D101F043FFA0B90120F8BD04F0C004802C19D055
:2059A000C02C26D0402C1FD0597802310844C1B208464FF0010CDDE70130C1B2F8E73B7853
:2059C0003278283313441D446B780020134402333370F8BDBCF1000F19D1024402210420F0
:2059E00006F0EAFB0220F8BDBCF1000FD2D03170D0E7BCF1000F08D12B7EFF2BEDD1C9E769
:205A0000BCF1000F07D10020F8BD3170F4E73170E3E73170BBE73170F5E700BFAA280020C5
:205A2000682E0020AC2800203A20FFF767BF00BF08B506F015FF06F0ABFC00F0BDFB064A2B
:205A4000064B4FF48061118003F5A07100221A8220338B42FBD108BD90280020703200202E
:205A6000F8B5114E3478F4B1104F04F127033D88AB4203DB00233B803370F8BD0C4BA5F198
:205A800028021919121B184608F07CFF03462C1BA4B2A4F12802101200213C8003F8232CBE
:205AA00003F8240C3170F8BDAA280020582E0020902E0020F0B50746DFF884C0BCF80060CE
:205AC0000136B6B2B6F5FA4F2DD2350245EA1625ADB2194A9646134602F5A074188A20339C
:205AE000A842EDD09C42F9D1ACF800600023108A203220B101330A2BF9D10020F0BD5C0116
:205B00000EEB0406358271820B4B87B1354638687968BA68FB680FC5084A0EEB0403127918
:205B200030461A75F0BD10254FF48056D1E71F517760B760F760EFE77032002028350020E3
:205B4000902800202DE9F04F042883B020D0914BDFF86492DFF870A20528C9F80030CAF857
:205B600000301FD013F83C2CA3F13C0402F0F002602A2ED0884D894EDFF84482884F002310
:205B80002B8088F800303B70337003B0BDE8F08F844C814D814E2388002B41D1DFF82082B7
:205BA0007F4FECE7804A1268128A002AE2D07F487C4C794D794E00220C3B0821C9F80030E9
:205BC000CAF80030026022802A80317001F04EFDE1E72279704D6179120228885618864254
:205BE00058DC207A28310A44FF282A8052D0704E363BDFF8CC816A4FA2793360002388F8E0
:205C000000303B70002A5AD101233B70FFF7A2FE012800F0A78046D3022850D15F4E34E08A
:205C2000614A644C126803F1080149BA0020177DA185E085118A303321859BB2508AA3F1F1
:205C400028014FEA212EE77111272B8084F804E060856171A77104F118050FCA85E80F00C2
:205C6000294604F1080006F04FFD534B04F13C0238461A60FFF742FEC04380B278B1E085B4
:205C8000002360222270637063800023337003B0BDE8F08F414EDFF82881414F6FE74FF640
:205CA000FF73E385ECE798F8003003F1280222445178083303EBC103326088F800303F4874
:205CC00006F0FCFB002800F02D813368DFF8D0B03B491A783C2A00F20681DFE812F0DB0086
:205CE000040104010401040104010401040104010401040104010401040104010401040154
:205D00004500040104010401040104010401040104010401040104010401040104010401F3
:205D20000401040104010401040104010401040104010401E90043000401040104010401F1
:205D4000040104010401040104010401040104010401BC004300A70048F2FE0321899942B0
:205D600000F044810D4E0AE7FFF77AFEE38D1120A071104E002B40F01B81B6F82AB0BBF179
:205D8000000FEFD0084F0F4B0E4E3B60248D06F5A07820E0A42E0020582E0020503200208F
:205DA000AB2800206C320020583200206032002054320020682E00205C320020802E0020FE
:205DC000AA280020703200205C2E0020203646453E6000F0A180338A002BF7D05B45F5D1C0
:205DE000738A10227A480BB1A342EFD133682BB973681BB9B3680BB9F36823B1314608F0A6
:205E000019FD0028E2D12B88724A7348734C744E303B2B8002210023C9F80020CAF80020C7
:205E200003602380317001F021FCB4E63A7890076DD5500657D442F040028BF8002001915E
:205E4000FFF788FD012801998CD053D302283FF4E5AE33683DE73A20FFF750FD4FF6FF737F
:205E600098427FF47FAF98F800302833E05C01F009FB98F800302833E2185178E05C06F04B
:205E800077F901283FF46EAF2B88554E002B7FF4FCAE74E63A780191D10724D442F00102D8
:205EA0008BF80020FFF756FD01280199CDD159E73A7802F0040000F0FF0EA0B998F80000C7
:205EC00042F0040200F12803234493F803C08BF80020BCF1000F73D15A78083000EBC2025D
:205EE0000A703360F5E61A1B0121042006F064F93B4ECAE698F8002002F1280323445878AE
:205F0000083202EBC002336088F80020E1E642F002028BF8002092E700220421012006F0EE
:205F20004BF97BE62F4806F085FB00287FF4CDAE227E2D4BFF2A3FF40FAF48F2FE00198BAB
:205F400081423FF409AF198981424FD081B95A8972B99A8962B9DA8952B91B8A43B9628A8E
:205F6000214B2AB99A8A1AB9DB8A002B3FF4FAAE228B1D4B82B95A8B72B99A8B62B9DA8B6B
:205F800052B91A8C42B95A8C32B99A8C22B9DB8CB3F5807F3FF4E6AE2B88B3F5A06F63D809
:205FA000E379114A012B58D9013BD3710C4E6CE6FFF7A4FC4FF6FF7398427FF4D3AEDCE6C4
:205FC00000F12A027146042006F0F6F8044E5CE6702E0020982E0020603200206C3200203D
:205FE00050320020802E0020682E00202189224B79B9598969B9998959B9D98949B9198AF3
:2060000039B9598A29B9998A19B9DB8A002B3FF4A9AE218B184B81B9598B71B9998B61B925
:20602000D98B51B9198C41B9598C31B9998C21B9DB8CB3F5807F3FF495AEFF2A3FF492AE65
:206040000E4806F01BFA024600287FF48BAE0221012006F0B1F80A4E17E6002211460320EF
:2060600006F0AAF8064E10E64FF4A0620021022006F0A2F8D2E500BF682E0020802E00202C
:2060800050320020020C131243EA02239BB240BA43EA0040704700BF50B110B5044601F0AE
:2060A00061FD044B2146BDE81040186804F0AEBA704700BF6405002008B504F063FD034B9D
:2060C00003491868BDE8084004F044B96405002099600000F8B50C4A05461E461068079BC8
:2060E0009DF8182004F0C2F9044650B12F686968AA68EB68076041608260C360467401F054
:2061000031FD2046F8BD00BF64050020024B0146186804F0DFBA00BF6405002070B5054695
:206120000C4E306804F06AF98DB1044630B90EE02146306804F024F9044640B110222946CB
:20614000204608F077FB0028F2D1204670BD002070BD00BF64050020024B0146186804F054
:2061600033BA00BF6405002008B5FFF7D7FF30B1034B01461868BDE8084004F0ABBA08BD60
:206180006405002070B5054610200E4604F0FCFB0849044604F02AFC00B170BD324629461D
:2061A000204604F05BFC324629462046BDE8704001F0A8BC04F40000704700BF08B50648BE
:2061C00001F04EF9054B00220120FD21187099705A70DA7008BD00BF696C0000DC160020C6
:2061E00030B414780B7A84F00204A34215D00B891BB94B89B3F57F4F30D01F4D01222C6891
:2062000001F10803824004F10801296003CBD3B220606160184630BC70474C7A53789C4234
:20622000E5D18C7A93789C42E1D1CC7AD3789C42DDD10C7B13799C42D9D14C7B53799C42DE
:20624000D5D18C7B93799C42D1D1D379CA7B9A42CDD1032101FA00F3DBB2DBE78B89FE2B5C
:20626000CBD1054CCB892268022122F8023B01FA00F32260DBB2CDE76815002010B5124C68
:206280000220A17904F066FBA379112B09D0062B07D03A2B0FD0BDE810400021012004F0C5
:2062A00059BB218D638D01209942A8BF1946BDE8104004F04FBB218D012049BA89B2BDE8C5
:2062C000104004F047BB00BF682E002010B5084C2378012B01D0002010BD01460822A01C38
:2062E00008F0A8FA00280CBF2046002010BD00BFDC16002008B50146102004F039FB044B42
:2063000000219B6803489847BDE80840FCF7CCB970F400001963000010B50C461146204616
:20632000FFF730FF044B1B6813B19B6820469847024B1C6010BD00BF401C0020EC16002067
:206340002DE9F041154D00232A469478713234B101330C2BF9D14FF0FF30BDE8F081C3EB06
:20636000C30403EB04142F197970064604F04CFADFF830800A4A98F800301168C01A2E5528
:20638000B870CC1804F040FA98F800202146821AF81C08F081FAB878BDE8F081F01600201D
:2063A000E8160020AE2800202DE9F84F074615465ABB88469146584E4FF0FF3436F8063C82
:2063C0009BBB631C48D00135022D06F1B806F5D1621C00F09E80B82505FB04F5DFF84091E6
:2063E0000F2009EB0506A6F81280378204F0CCFA0146304604F0F4FA05F118004844402132
:20640000FEF76EFE2046BDE8F88FDFF8148100244646328ABA4221D00134022C06F1B806AC
:20642000F7D14FF0FF30BDE8F88F3046FEF76CFE002831D0394B26F8069C03F24C51E8B28C
:206440009A7822B11A78824208BF83F8029071338B42F5D1631CB6D16CB2B4E7738A002B0F
:20646000DAD00F2004F090FA0146304604F0BEFA0028D1D0E6B229463046FFF761FF011EA1
:2064800011DB0029CDDDB82303FB04839A8A60B20A449A82BDE8F88F611C94D136F8063CBF
:2064A000002B90D1D8E74FF0000B5F46D946DFF868A03AF8063CF3B1BC421CD05046FEF717
:2064C00023FEC0B15FFA87FEB82303FB0E83134AA3F8129002F24C504FF0000C937833B17E
:2064E0001378734504BF82F802900CF1010C71329042F3D1E3440137022F0AF1B80AD8D151
:20650000BBF1000F8DD029463046FFF719FF0146B7E72046BDE8F88F84150020F01600201A
:206520006C1500202DE9F04715090F2D06469A4602F00F042CD00F2C36D0A046A946671950
:20654000D5BB0F2F03DD5CB9E5B9BDE8F087C7F1100206EB0900002108F078FA002CF3D080
:20656000DFF87490C8F11000D9F8007030443946224608F091F9022C20D03C44C9F80040BA
:20658000BDE8F08751463046BDE8F04706F048B90F2C4FF0100918D04A464D46A046A718BC
:2065A000304608F079F9CCE74FF01008A94605F110074446002DD3D02A46F1E70A2DDCD868
:2065C000FF22FE23F2723373D7E74D46C8464C4620272A46E4E700BF681500202DE9F04F4B
:2065E0000F2089B0DFF81083B84D04F0CDF94FF0000A04F099FA88F800A085F800A004F009
:20660000EFF8B34E3060042004F0ACF93368B1491C7800B25A78086004F0F801C02942EA2E
:20662000042277D0E02964D129789F7893F80490D878C2F30A044B1D40EA072021464A4615
:206640002B70FFF7B1FE411C074660D0A24AB82303FB0023D346CDF800A0B3F814A0012337
:20666000A24534BF4FF0000A4FF0010A019304F0CBF82B78954D834249D804F0C5F82B78A3
:2066800098F80080C51A08EBC909944AA944B9F57A7F15603BD8BBF1000F06D031680BEB2C
:2066A000080019442A4608F0F7F8002C00F0DC80009B43B1884AB82303FB072308EB050248
:2066C00092B29A821A84BAF1000F40F01981019BEBB9834B45441D80824C236823B1FFF7E1
:2066E000CDFD23685B68984700F0E0FE09B0BDE8F08F57465446DFF8FCB1CDF800A02A7836
:20670000995C01F0E00060284AD041291CD009B0BDE8F08F29789F78D878C2F30A040B1DEB
:2067200040EA0720524621462B70FFF73DFE07460130ECD0684AB82303FB072202F1220B2F
:20674000012233680092DAE75946501CC0B2034403F12000D3F800A0D3F80490D3F808C0F3
:20676000D3F80CE010338342C1F800A0C1F80490C1F808C0C1F80CE001F11001EAD1186850
:206780005B6808604B6098F800302932283388F80030009B4FF0000A2A70D146019366E787
:2067A000981890F801A002321344DFF850914FFA8AF2002AC9F80030B8BF01330192B8BF28
:2067C000C9F80030CA065AD501F0080303F0FF00002B40F0C681D9F800301A461B78C3F38F
:2067E000830343F060038BF8003012F801EBABF802004FEA9E0303F0300343EA8E13C9F8A0
:2068000000208BF8013001F0040303F0FF0202923BB9D9F8003013F8012B8BF80620C9F88E
:20682000003011F0030100F0A1802F4B5B5C8BF807301AF0400FCAF3011300F07581019A7C
:20684000002AC0F2B0810021002B00F09880274A1078012800F0CD81254A00239A46994626
:206860001360009B019302E7019B002B3FF431AFBAF1000F3FF44BAF194B1C802CE70B07A7
:2068800000F17881D9F80030184633F8012F9B78ABF801208BF8033010F804EB9BF801201C
:2068A0004FEA9E0303F0300C02F00F024CEA8E1E03F00F0343F060034EEA0202C9F8000052
:2068C0008BF800308BF801209DE700BFAE280020E8160020641500206C1500203C1C002058
:2068E000582E0020401C0020A4F30000DC16002060150020682E0020AD28002068150020F0
:20690000B82101FB07F1DFF844A3C7480AEB010319461A8C22319C8207F0BEFFC34EDFF8D2
