:020000040000FA
:2000000000500020950C00008D0C0000750C0000910C0000910C0000910C000000000000DE
:20002000000000000000000000000000910C0000910C000000000000910C0000910C00004C
:200040002D330000910C000081C90000910C0000B5290000212E0000910C0000910C000055
:20006000910C0000A9C90000910C0000910C0000910C0000910C0000910C0000910C0000C3
:20008000910C0000910C0000910C0000910C0000910C0000910C0000910C0000910C000078
:2000A000910C0000910C0000910C0000910C0000910C0000910C0000910C0000910C000058
:2000C000910C0000CD4200002DE9F04F23F0004858EA020993B03CD0714C21F00046A6422C
:2000E00083460D460CDD06F1404606F5801656EA0B0038D183466B49584613B0BDE8F08F97
:200100009A4696462BD0A045EDDC654CA04578D0002D0F468146CDE9002376DB0024BEF156
:20012000000F27D15E4B984500F08B805D4B984552D0BAF1804F00F0C9835B4B9A4519D16B
:20014000002D17DB4846394613B0BDE8F04F0DF029BECB465846534913B0BDE8F08F00288E
:20016000C1D1B045D1DD514813B0BDE8F04F0DF0E9BE0024484639460DF0D8FEBBF1000FA7
:200180001CD0ED0F013D54EA050370D0484B984540F3948003F10473984540F30D84454B60
:2001A0009E4270DDBAF1000F70DD3BA3D3E90023104619460EF01CF983469DE726B1394BDE
:2001C00025F040429A42DCD1BAF1000FC0F2B783002D08DB83468FE7BAF1000FC0F25E84BC
:2001E000CB46394688E706F1404606F5801656EA040300F08384012CECD101F100418346CE
:200200007AE7BEF1000F83D06DE72B4B98452CDCA3F15473984581DD4FEA2853A3F2FF33AC
:20022000142B40F35384C3F134032EFA03F202FA03F39E457FF472AF02F00102C2F1020456
:200240006DE706F1404303F5801353EA0B0300F03A83184B9E4240F36783BAF1000F15DB43
:20026000DDE900349B46214646E7022457E74A4648463B4639460DF007FF02460B460EF0F3
:20028000E1F9834638E7BAF1000F8EDB4FF0000B594631E7AFF300809C7500883CE4377EE8
:2002A0000000F07F0000F03F0000E03F94F700000000E041FFFFEF3FFFFF3F43B6F5801FDF
:2002C0004FF0000205DAD04B0EF092F80E466FF03402DFF844E33315C6F31306A3F2FF3393
:2002E00046F07F57764503EB020A47F4401740F3C983C64B00229E4240F304840023CDE985
:200300000823CDE90C23C24B0022CDE906230AF1010AA7F5801700263946DDE90623CDE93C
:200320000A010DF0B1FEDDE9062380468946DDE90A010DF0ABFE02460B460020B4490EF057
:2003400081F90A4601461346CDE90E120246494640460EF04DF88C4683467B1043F0005311
:2003600003F5002399190020CDE904BC06460F464FF0000B6146584632463B46CDE910BC6F
:20038000CDE902010EF034F802460B46404649460DF07AFEDDE906238046894630463946DE
:2003A0000DF072FE02460B46DDE90A010DF06CFEDDE902230EF01CF802460B464046494654
:2003C0000DF062FEDDE90E230EF012F8DDE90478CDE906013A464346384641460EF008F8B6
:2003E00077A3D3E9002306460F460EF001F876A3D3E900230DF04AFE32463B460DF0F8FF42
:2004000073A3D3E900230DF041FE32463B460DF0EFFF71A3D3E900230DF038FE32463B46A8
:200420000DF0E6FF6EA3D3E900230DF02FFE32463B460DF0DDFF6CA3D3E900230DF026FEDF
:200440003246804689463B46304639460DF0D0FF02460B46404649460DF0CAFFDDE90223EE
:2004600006460F46DDE904010DF010FEDDE906230DF0BEFF32463B460DF008FEDDE9026731
:200480008046894632463B46304639460DF0B0FF0022604BCDE90A010DF0F8FD42464B4694
:2004A0000DF0F4FDDDE910BC0F46DDE902015A463B46CDE90EBC5E460DF09AFF0022CDE9EB
:2004C0000201544B304639460DF0DEFDDDE90A230DF0DAFD02460B46404649460DF0D4FD6A
:2004E000DDE904230DF084FF324680468946DDE906013B460DF07CFF02460B46404649460E
:200500000DF0C4FD8046894602460B46DDE902010DF0BCFDDDE90EBC35A3D3E9002358468B
:20052000CDE906BC5E460F460DF062FFDDE90223CDE90401304639460DF0A6FD02460B4618
:20054000404649460DF0A0FD2BA3D3E900230DF04FFF2BA3D3E900238046894630463946BD
:200560000DF046FF02460B46404649460DF08EFDDDE90C230DF08AFD8046504689460DF062
:20058000D1FE06460F46DDE9040142464B460DF07DFDDDE908230DF079FD32463B460DF036
:2005A00075FDDDE906BC324658463B46DA468B460DF06AFDDDE9082330E000BFAFF3008073
:2005C000EF4E454A287ECA3F65DBC9934A86CD3F01411DA96074D13F4D268F515555D53F2B
:2005E000FFAB6FDBB66DDB3F033333333333E33F000000E009C7EE3FFD033ADC09C7EE3FB6
:20060000F5015B14E02F3EBE0000404379B60B000000F03F000008408E9803000DF034FDDF
:20062000DDE904230DF030FD02460B46404649460DF02AFD80468946DDE90012013C54EAE9
:20064000050314BFD64CD74C0023CDE904340B461446CDE9023400230293DDE902450846BF
:200660002B46114622460DF00FFD52465B460DF0BFFEDDE9002306460F46404649460DF0B2
:20068000B7FE02460B46304639460DF0FFFC06460F4622462B4650465946CDE900670DF056
:2006A000A7FE0B46024680468946304639460DF0EDFCBD4B064699420D460C4640F30E81F6
:2006C00001F13F4303F5E003034340F0F081A0A3D3E90023DDE900010DF0D8FC42468246DA
:2006E0008B464B46304629460DF0CEFC02460B46504659460EF00CF9002840F0D8812F46F5
:200700003B154FF48012A3F2FE3342FA03F32344C3F30A52A54EA2F2FF321641C3F3130B60
:200720000020C2F1140523EA06014BF4801B02460B46002C4BFA05FB40464946B8BFCBF18D
:20074000000B0DF0A1FC02460B4680468946DDE900010DF09BFC4FEA0B5A00247EA3D3E9CC
:20076000002320460D460DF043FE424606460F464B46204629460DF087FC02460B46DDE9F1
:2007800000010DF081FC76A3D3E900230DF030FE75A3D3E9002380468946204629460DF05D
:2007A00027FE02460B46404649460DF06FFC8046894602460B46304639460DF067FC324603
:2007C0003B4604460D460DF05FFC02460B46404649460DF059FC2246804689462B462046CF
:2007E00029460DF005FE62A3D3E9002306460F460DF0FEFD60A3D3E900230DF045FC324675
:200800003B460DF0F5FD5EA3D3E900230DF03EFC32463B460DF0ECFD5BA3D3E900230DF098
:2008200033FC32463B460DF0E3FD59A3D3E900230DF02CFC32463B460DF0DAFD02460B464D
:20084000204629460DF020FC06460F4602460B46204629460DF0CCFD0022CDE900014FF0BD
:200860008043304639460DF00FFC02460B46DDE900010DF0E7FE424606460F464B46204656
:2008800029460DF0B5FD42464B460DF0FFFB02460B46304639460DF0F7FB22462B460DF0D7
:2008A000F3FB02460B4600203D490DF0EDFB8A44BAF5801FC0F237815146DDE904230DF01F
:2008C00097FD834618E4F346354915E44A4648463B4639460DF08CFD83460DE4344B21F021
:2008E00000479F4240F30181324B0B4403430CD142464B460DF0C8FB02460B46DDE90001F3
:200900000DF0F2FF00283FF4FBAE23A3D3E90023DDE904010DF06CFD1FA3D3E900230DF071
:2009200067FD8346FFF7E8BBBAF1000FBFF6AEACDDE900349B4604F10041FFF7DDBB024641
:200940000B46002016490DF07DFE41E4AFF30080FE822B654715973C00000000432EE63F33
:20096000EF39FAFE422EE63F396CA80C615C20BED0A4BE726937663EF16BD2C541BDBB3EFC
:200980002CDE25AF6A56113F93BDBE166CC1663F3E5555555555C53F59F3F8C21F6EA5014F
:2009A0000000F03F0000F0BFFFFF8F40FFFF0F00FFCB904000346F3F6F4B9E427FF763ACE4
:2009C0006E4B9E423FF7EEAB00226C4B0DF05CFB5BA3D3E9002306460F460DF009FD5AA304
:2009E000D3E9002380468946304639460DF000FD002282468B46624B304639460DF0F8FC46
:200A000002460B4652A1D1E900010DF03DFB32463B460DF0EDFC02460B46002059490DF023
:200A200033FB3246CDE902013B46304639460DF0DFFC02460B46DDE902010DF0D9FC46A3EC
:200A4000D3E900230DF0D4FC02460B46504659460DF01AFB02460B4606460F4640464946BB
:200A60000DF014FB42464B46002082468B460DF00BFB02460B46304639460DF005FB804644
:200A80008946D9E500220023CDE90823CDE90C233A4B00220026CDE906233DE44A463B46E0
:200AA000002036490DF0CEFD8346FFF725BB2CA3D3E90023DDE904010DF09AFC28A3D3E99D
:200AC00000230DF095FC8346FFF716BBBEF1000F7FF44FABC3F1140348FA03F202FA03F3B6
:200AE000984524D07446FFF721BB264B9F423FF707AEDDE902349A469B462EE602460B46F2
:200B0000FFF7B9BB204B4FF48026CDE9062316A3D3E90023CDE9082315A3D3E90023CDE972
:200B20000C23FFF7F9BB5A4600F032F8C5E602F00102C2F10204FFF7F9BA00BFAFF300803F
:200B4000000000604715F73F44DF5DF80BAE543E555555555555D53FFE822B654715F73F2C
:200B60009C7500883CE4377E0000004003B8E23F06D0CF43EBFD4C3EFEFFEF3F0000F03F37
:200B80000000D03F0000E03F0000F83F00000000F8B5C1F30A5604460D460B46174606BB23
:200BA00021F00043034325D000222F4B0DF020FC2E4A044697420D460B462ADBC1F30A5699
:200BC000363E40F2FE723E44964228DC002E12DD23F0FF4323F4E00343EA065520462946D8
:200BE000F8BD40F2FF729642EBD102460B460DF04DFAF8BDF8BD16F1350F1DDA4CF25033BF
:200C00009F420CDC14A1D1E9000122462B460DF02FFA11A3D3E900230DF0EAFBF8BD22460A
:200C20000FA1D1E900012B460DF022FA0CA3D3E900230DF0DDFBF8BD23F0FF4323F4E00358
:200C4000363643EA0655204629460022084B0DF0CFFBF8BDAFF3008059F3F8C21F6EA5017F
:200C60009C7500883CE4377E00005043B03CFFFF0000903C044B1A68B2F5806F03D01B6800
:200C80009B0500D4FEE7704728ED00E0FEE700BFFEE700BF08B509F0F7FB104A104B9A42CE
:200CA0000DD2D0430F4918440B4620F003000430084453F8041B834242F8041BF9D10A4806
:200CC0000A494FF000028842B8BF40F8042BFADB01F06CF8FFF7CEFF08BD00BF0000002047
:200CE00079060020A0FA00008006002018380020F0B5038895B0064633B15D2B3AD000234B
:200D00000380032015B0F0BD1D481E49C5798479437802784779059505790494C4788078DB
:200D20008DE8B100184803F065FB00F0CDF9174B08AC0FCB07C4144A15490CA8237004253D
:200D400003F058FB01230CA907A88DF81C508DF81D3000F0CDF802248DF81D4008A901345F
:200D600007A88DF81C5000F0C3F80E2CF4D1094803F0F2FA5D230120338015B0F0BD00BF74
:200D8000EC370020B0F00000A806002098F00000D4F00000E0F000002DE9F04186780578C4
:200DA0004778C47882B088463A46294600943346144803F0D1FACEB9A4B9134B224603F283
:200DC000945002E06633834214D01978D4B2A94202F10102F6D15978B942F3D188F80040FC
:200DE000012000E0304602B0BDE8F081002002B0BDE8F081054803F0AFFA002002B0BDE86C
:200E0000F08100BF10F10000202A00204CF1000010B59AB00C4607300DF10301FFF7BCFFAF
:200E200008B91AB010BD9DF803300F4A662101FB032101A802310EF09BF801A80EF0F6F890
:200E40000023C0B21AAA1A4412F8641C5A1CE154D3B29842F6D2002201A9E254034803F03F
:200E60007BFA01201AB010BD202A002074F10000F0B583B04478027800230E4601A80DF14A
:200E800003018DF805408DF804208DF806308DF80730FFF781FF00B3114C9DF8037066254B
:200EA00005FB0740314602300EF062F839460D4803F052FA9DF803300B4805FB03F3E218CC
:200EC000E15C527803F048FA9DF80310074805FB0141023103F040FA012003B0F0BD00BFFD
:200EE000202A002098F10000B8F10000E0F1000038B50B4C22780E2A0FD06623551C03FB98
:200F000002F325700478074AD45444781344981C5C700EF02DF8012038BD002038BD00BFB2
:200F2000FC290020202A002070B50E4E3378B3B10D4C002529460D4803F00EFA14F8012CFC
:200F400014F8021C0A4803F007FA2146094803F003FA33780135AB4204F16604EAD8012069
:200F600070BD00BFFC290020222A0020F8F10000B8F10000E0F10000F0B5104883B003F04E
:200F8000EBF90F4803F0BAFF0E4D0F4B28461A78002100F05DFE07460C4A0D4B14684FF48F
:200FA00022460FCB84E80F002046FAB229460096084B06F033FF03B0F0BD00BF0CF20000C5
:200FC000BC06002000070020FD290020DC06002064310020E0060020F0B5274A274B1588E0
:200FE000ADF5077D2A461968254C26480DF098FE254F2946254803F0AFF9204606F096FE8D
:201000003B78A4F108052833595B214E0B0A43EA012189B21F4803F09FF994E80F00346845
:2010200084E80F003B78694628335B5B1548638200F0F6FAC8B1184803F08EF96846114945
:2010400000F0FEFC0F490246306806F0C7FE336800221A805A809A80DA801A815A819A817D
:20106000DA815A820DF5077DF0BD0C4803F074F90DF5077DF0BD00BF4C310020503500201E
:201080006431002030080020092A002034F200002C0800204CF2000054F2000078F2000088
:2010A00008B54FF49672002105480DF013FF054B1B789B0700D408BDBDE80840FFF78CBF5F
:2010C00030080020443500200021014804F014B9380400202DE9F0474FF00008824689466D
:2010E00047464546561C0AE0B8F1000F26DB31D008F101080237102F06F102061BD016F850
:20110000014C337803EB0424A4B2002CECD0B8F1000F13DD4FF0FF38C5EB09010AEB0500B1
:201120002346124A03F03EF902372844102FC5B206F10206E3D12846BDE8F087002FEBD03E
:20114000C5EB09010AEB0500094A03F02BF92844C5B2E1E7C5EB09010AEB0500054A03F0D0
:2011600021F92844C5B24FF00108C3E7ACF20000A8F20000A4F200002DE9F0419B4DC2B011
:201180002B7804240133DBB21A46994929A802262B708DF840408DF8416003F02BF929A9D9
:2011A000944803F0D9F829A910A8FFF761FE03238DF841308DF8404006F0B2FD8E490246CB
:2011C00029A803F017F929A910A8FFF751FE4022002119A88DF840408DF841400DF07AFEA8
:2011E00005F008F84021024619A8FFF773FF834C19AA834929A803F0FDF829A910A8FFF791
:2012000037FE206809F010FE0F9008F07FF90F9981B1C36805469B69994205D194E0EB682F
:201220009B698B4200F09080206809F0BFFD01460028F4D100252A4605230424714929A8FC
:201240008DF841308DF8404003F0D4F829A910A8FFF70EFE2A4606236B4929A88DF8413034
:201260008DF8404003F0C6F829A910A8FFF700FE664803F071F8664C002504F13A08237E81
:201280001BB194F82A60012E65D90135032D04F12004F4D15F4B0DF1430203F1100012F8C0
:2012A000011F03F8011F8342F9D15B4B0DF1530203F1100012F8011F03F8011F8342F9D193
:2012C00056490424C87B4B780A788D7B0790487B06950D7B0590C87A04958D7A0390487A6E
:2012E000097A02950190009107254D4929A88DF841508DF8404003F07DF829A910A8FFF71C
:20130000B7FD48490825CE7B887B4B780A78079606904E7B087B05960490CE7A887A039639
:201320000290487A097A0190009129A83E498DF840408DF8415003F05DF829A910A8FFF779
:2013400097FD42B0BDE8F08108468C8807F064FF2246054670E7234653F81A0F15AF5968C9
:201360009A68DB68012D0FC735D015AF0FC794F8291094F8282094F8273094F826700C914A
:2013800094F825100B9294F824200A9394F82330099794F82270089107920693237FE27E18
:2013A000A17E059794F821E094F82070CDF810E00397A77F94F81FE00197CDF808E0677F9E
:2013C0001A48009702F0C8FF002E7FF45EAF012384F82A3059E7D8F80000D8F80410D8F8EF
:2013E0000820D8F80C3011AF0FC7C0E7FD290020B0F20000C0F20000E0F20000B805002033
:20140000E8F20000FCF200000CF3000024F30000E02F0020B32F0020C32F0020C42F002098
:2014200098F30000B42F0020D0F3000044F30000F0B5048885B00546BCB140F233139C42B0
:201440000ED1374B1B788B4266D0364803F07CFE002859D140F2331301202B8005B0F0BDB2
:2014600000230380032005B0F0BD22462146204606F0FEFC03464FF421422B4E0282A1216E
:20148000027D2A48336002F067FF294802F064FFFD2768462749ADF80240ADF80440ADF8F3
:2014A0000640ADF80840ADF80A40ADF80C40ADF80E40ADF8007004F0E3FB21466846012207
:2014C00004F094FA1C4B4FF480762246214618461F805C809C80DC801C815C819C81DE81D4
:2014E00006F0C6FC0346154A4FF42240314618820C48136003F00AFE2346114A4FF4A0610C
:20150000104803F0EFFCA5E7064803F009FEFFF733FEFFF709FD9DE7FFF7C2FD95E700BF2A
:2015200016380020F00600202C08002008F4000028F4000054310020E0060020DC0600200E
:20154000790F0000BC0600202DE9F04F037883B0022B37D1457800238B460B6075B3441C45
:201560004FF0010A14F8010F0CF0CCFE0646CAEB05000F460CF0C6FE02460B46002015490D
:201580000CF078FA8046DBF8000089460CF0BAFE4246CDE900014B46304639460CF028FFD9
:2015A00002460B46DDE900010CF070FD0DF0D0F90AF1010AAA45CBF80000D3D9012003B064
:2015C000BDE8F08F044802F0C7FE002003B0BDE8F08F00BF0000704098F4000030B583B0DA
:2015E00001A90546FFF7B0FF019C74B901A9E81CFFF7AAFF019B13B9012003B030BD0648C3
:2016000002F0AAFE204603B030BD044802F0A4FE002003B030BD00BFE8F40000BCF400003F
:201620002DE9F0430378CFB0302B40F0248106460D46C07802AB01301844721C0DF1070390
:2016400012F8011F03F8011F8342F9D1002401A902A80194FFF778FF10B94FB0BDE8F0835C
:20166000C14802F079FE0199002940F00C812A460C4642F80F1B311D11F8013F013402F88C
:20168000013FB3790233A342F6D82B1900271F74B64802F061FE05F11008012F98F80010CB
:2016A000B34807F1010798BFB24802F055FEBC4208F10108F1D16B7C691D0933DBB2581C2D
:2016C000013B3044F218002712F8013F013701F8013F03780233BB42F6D8EB1900249C71BE
:2016E000A54802F039FE05F10608012C98F80010A24804F1010498BF9E4802F02DFEA742DC
:2017000008F10108F1D1697CEB7902AA0B440B33DBB2013B0DF10E00334413F8011F02F812
:20172000011B9042F9D1002302A81C468DF80E30FFF754FF6A7CEB7905F2091113441533BC
:20174000DBB2581C013B3044F21812F8013F013401F8013F03780233A342F6D82B19002748
:2017600083F80A71864805F5857902F0F5FDC8460DE0022F12BF98F8001095F80C118148B9
:20178000013702F0E9FDBC4208F101080CD0012F7D48EED898F800107648013702F0DCFD41
:2017A000BC4208F10108F2D15D2001F097F96B7CA2220733DBB2F35C0FA92B716A714846EA
:2017C000FFF726FB2B790446A12B74D060D8302B4AD0A02B5ED195F80B310133DBB22B4454
:2017E00093F80A2122B993F80721012A00F005810122484683F80A210FA9FFF709FB0446B1
:20180000624802F0A9FD002C00F0ED800FA80DF00DFC042310F0FF0785F81F0185F81E31AA
:2018200000F0008107F21F1028440DF13B0205F21F1312F8011F03F8011F9842F9D15448BA
:20184000023702F089FD05F58F7600243CB3012C2BD0307801F042F90134BC4206F1010698
:20186000F4D15D2001F03AF90A2001F037F901204FB0BDE8F0831946464802F06DFD002016
:201880004FB0BDE8F083444802F066FD2046E4E6A32BE9D9414802F05FFD0020DDE695F849
:2018A0001E11364802F058FDD6E795F81F113C4802F052FDD0E795F80B114A1CD2B2AB18E8
:2018C00093F80A0100286FD1013A2A4492F80A11082995BF0131012282F80A1183F80A21A7
:2018E00048460FA9FFF794FA04462E4802F034FD002C78D00FA80DF099FB042310F0FF0752
:2019000085F81F0185F81E3100F0918007F21F1028440DF13B0205F21F1312F8011F03F840
:20192000011F9842F9D11A4802F016FD0237002405F58F765CB1012C0FD0307801F0CEF8A8
:201940000134BC4206F101068BD0002CF3D195F81E110A4802F000FDF2E795F81F11104820
:2019600002F0FAFCECE700BF48F5000094F50000B0F5000044F10000B8F50000D0F50000DB
:20198000D8F50000E8F50000F0F50000F4F5000040F6000014F5000064F5000088F60000B9
:2019A0005CF6000064F6000093F80921012A97D193F80821022A93D193F8070101288FD1D3
:2019C00093F80621062A8BD193F805212B2A87D10022023185F80B1183F80B0183F80C214E
:2019E00083F80D217CE7144802F0B6FC0522002385F81E2185F81F3136E793F80621022A0D
:201A00007FF4F6AE93F80521012A7FF4F1AE93F80421062A7FF4ECAE93F803212B2A7FF45D
:201A2000E7AEEDE6054802F097FC02270BE7034802F092FC02277AE714F6000040F60000BC
:201A4000F8B50C4630230B70C279437C90F80B111344173390F81F210B44134402210122C6
:201A60006370A170E2700368934204D0C0F09C80032B40F094800022237113460244117CFC
:201A8000E2185171417C0133DBB24D1C9D421A46F4DA00263346CA1DD2B2A225A554C7798C
:201AA00090F80B5109313D4490F81F71103522443D44C9B2557082199579E2185554C2797C
:201AC0000133DBB2551C9D421E46F4DA114490F81E31C9B28A1C052B5FFA82FC66D0CD1C50
:201AE0000126EDB24FF0020E04F80CE066550D1D0027EDB267554D1DEDB204F805E08D1DEE
:201B0000EDB26655CE1DF6B201F10805A755EDB23A463B463027675590F81F5190F80B613E
:201B20002E4401F109050636EDB2665501F10A05EDB2675590F80B7190F81F6101F10B0533
:201B40003E440436EDB201F10C076655FFB2024492F80A51E218D55590F80B510133DBB2C5
:201B60006E1C9E421A46F2DA01F10E02154400221346EDB2024492F81E11E218515590F833
:201B80001F110133DBB2013199421A46F2DA61782D48013102F0E0FB60780230F8BD2B489C
:201BA00002F0DAFB0020F8BD002364E700263346CA1C02250127D2B204F80C50A7540A1D49
:201BC000D2B2A5544A1DD2B2A5548A1DD2B2CD1DA754EDB201F108026755D2B23027A75467
:201BE00090F80B5190F81F212A4401F109050632EDB2625501F10A02D2B2A75490F81F21F8
:201C000090F80B5101F10B0715440435FFB201F10C02E555D2B2064496F80A71E618B7547F
:201C200090F80B510133DBB26F1C9F421E46F2DA1544EDB2AB1C0335DBB2EDB205210022F8
:201C4000E1546255A3E700BFD0F60000ACF600002DE9F0433824702775264FF0620E4470AD
:201C6000C771067280F809E04FF06C0C69256323A424092715264FF0400E80F80AC0C5724F
:201C80004FF0300C02250373447301230024077446760427062680F81AE04FF02B0E80F83D
:201CA00000C085700576C370C3744375C3750471047744778477C477477107758775C7764C
:201CC0008671C673867480F80EE04FF0430980F811E04FF00F0880F822100D27082180F8AB
:201CE000205080F8213080F8235080F8243080F8254080F8273080F8284080F829C080F88F
:201D00002BC080F82D6080F82FE080F8306080F8313080F8325080F8333080F8345080F822
:201D2000353080F8364080F8375080F8383080F8392080F8269080F82A8080F82C7080F8C4
:201D40002E103A20BDE8F083F0B5002706463C463D4683B0304600F0D3F90195019B9C4241
:201D600006DD00BF019B01330193019B9C42F8DC304600F0CFF90195019BC4F5C874A342D5
:201D800006DA00BF019B01330193019BA342F8DB0137B7F5487F06D0B7F5C87FCCBFC7F531
:201DA00048743C46D6E703B0F0BD00BF2DE9F041634C84B02368012162485B68984723685B
:201DC000012211461B685F48984708F00FFE01F0C5FA01F05DFA00F0B7F901F095FA00F073
:201DE00085F9594959485A4A012303600B6018461368FFF7A9FF08F0FDFD00F04FFD00F0F7
:201E0000BDFC03F04DFB00F019FE03F099FA41F2342002F071F900F0CFFF03F0E3FB4D483A
:201E200000F064FE4BF2016200214B4802F094FA4A4800F05BFE0021494803F05DFA03F0B2
:201E400017F802F0C9FF0220FFF77EFF454802F083FA454B454C186800F048FE444802F0D3
:201E60007BFA444B186800F041FE434802F074FA2168424802F070FAE469A04720B1A04769
:201E800001463F4802F068FA0A2000F027FE002609F0A0FA02A808213A4D3B4F019600F0BD
:201EA0005DFE9DF80F309DF80E4002AA03CA43EA0424D7F82C802860696002204AF6CD3116
:201EC000C04721460320C04719210120C047082202A97B6B0B209847BB6A01A90120984774
:201EE00001992A4802F038FA294B214629481C8002F032FA284B6A6829685A60196008F0AB
:201F000049FE3146254803F0F7F90220FFF71CFF3146234803F0F0F9224802F051FF00F026
:201F20009BFD0120FFF710FF03F024FA044600F0C7FD14F0FF0FF7D101F072F8F4E700BF05
:201F4000D801001000400340080009400C4009402C200940F4F6000018F7000030F700007A
:201F60000C05002044F7000080F9000018FA00004CF70000E8F9000054F700005CF70000A8
:201F800060F70000EC37002084F8000084F70000EC29002098F700005431002078050020AA
:201FA00048040020A8F000002DE9F04104880646772C30D07E2C27D024B10023038003201C
:201FC000BDE8F08103F090F92F4F304B304D3A6818702C60002A55D02346A0462D4C04F830
:201FE000038093680021802098472B68013357F823202B60002AF2D1DBB2274A13707723D7
:2020000033800120BDE8F081204B1B788B421CD00120BDE8F081DFF880801D4D98F80020F7
:202020001E4F00233B602B60002AE8D0194CE256002A18DB2B6898F80020013393422B6077
:20204000F5DB3B68002BECD1D9E7114D114CDFF84880124F2B683A68E15C013201F07F0194
:20206000E1543A60E7E7084A084952F823200978002003F0DDF90028ECD17E2333800120CF
:20208000BDE8F0811346B8E76C040020143800205C090020D42F0020FE29002060090020BE
:2020A00010B40E4B1C7864B10D4A1368984213D0002303E052F8041F88420BD00133A3429A
:2020C000F8D1084A0848135D63F07F03135510BC03F0DAB91C46F4E70024F2E7FE29002015
:2020E0006C040020D42F00204804002008B500F077F8024B00221A7008BD00BFFF290020E0
:20210000034A137803431846137000F085B800BFFF290020034A137823EA000318461370C3
:2021200000F07AB8FF29002010B5064C042023685B699847236804205B6B98470128F9D185
:2021400010BD00BFB8010010F0B591B008F04EFC0746FFF7E9FF1C4B4FF4A0601B68DB6966
:2021600098471A4B01211A4A196013689907FCD56C46184D00F0EAF9174801F07DF80FCDA5
:202180000FC40FCD0FC40FCD0FC495E80F0084E80F00009C621C0FD06D46104E33682046FC
:2021A0009B6B9847336820469B694FF40051984755F8044F631CF1D10FB111B0F0BD11B0F2
:2021C000BDE8F04008F016BCB80100102820086028200840B0F7000058040020B40100106F
:2021E0000A4B1A6802B1704710B50122084C1A6023680820DB6B984723680720DB6B984739
:20220000044B4FF4C0721A6010BD00BF64090020B4010010A0200240084B09494FF4C07286
:2022200008701A60C20744BF4FF4807243F8102C830702D5034B80221A607047A0200240B0
:20224000002A00209020024008B5034B1B685B689847C0F3804008BDB401001028B1012813
:2022600006BF054BD86800207047044B1868C0F3403080F00100704768090020C020024065
:2022800008B100207047034B1868C0F3803080F001007047C02002408138012801D9002057
:2022A00070470D20FFF7D0BF8138012801D9002070470E20FFF7C8BF802870B514460AD076
:2022C000812807D1E1B9BDE87040184B10461B685B6B184770BD154D1549012393402A68B7
:2022E0000B60936B204698472B6820460021114A1B689847E0B21049BDE8704000F0EEBF7C
:202300000A4D0B49012393402A680B60936B204698472B6820461B68064A002198472B687C
:202320002046BDE870401B6B184700BFB4010010E0200240004007205523000008B50D226C
:20234000FFF7BAFF012008BD08B50E22FFF7B4FF012008BD0D2838B50AD00E2800D038BD75
:202360004FF080524FF48041BDE8384000F082BD0E4C204603F0D4F80028F0D0042120460A
:2023800003F0BAF80A4B1D68C5F3403525B900F041FAE560A06038BD00F03CFAA368C31A40
:2023A000E3600448BDE83840FFF77ABE68090020C0200240F8F7000030B51C4A1C4B106877
:2023C00083B000244FF48015042101908DF800408DF801400DEB01001D6000F0D3F820B983
:2023E000144BFF201D6003B030BD0221684600F0E7F8104B1D6010B9FF2003B030BD9DF8AD
:202400000030EF2B03D0C22B01D02046EBE79DF80100A0F11103012B05D9143801288CBFA4
:2024200000200120DFE70120DDE700BF18F80000A02002409020024030B5164B83B002ACC6
:2024400005224FF4801504F8042D1D6000F0DCF82046012100F096F820B910E09DF8073074
:20246000DB0710D501210DF1070000F0A9F80028F4D1094B4FF480121A6003B030BD064B5C
:202480001D6003B030BD044B4FF4801201201A6003B030BDA02002409020024030B583B0B4
:2024A000FFF7CAFF08B903B030BD0E4B02A8B9224FF4801500F8012D01211D6000F062F837
:2024C000094B0A241D60FFF777FF631E0028EAD013F0FF04F7D1044B4FF480121A6003B00F
:2024E00030BD00BFA02002409020024010B50A2182B0124800F09AF8114B14201B68114CCE
:20250000DB6B9847104A4FF48013AB2102A8236000F8011D1360012100F034F808B1FFF7F7
:202520008BFF084B4FF480121A60FFF745FFA0F10100B0FA80F0400902B010BD00093D007B
:20254000B401001090200240A020024008B5FFF7CDFFFFF7A3FFBDE8084000F0C7B800BF90
:2025600008B5064B02201B685B6B9847012803BF034B186800F00100002008BDB8010010AB
:2025800078200840F0B583B005460C46FFF7E8FF074680B17CB1094E336815F8011B5B6880
:2025A0004FF080409847336801A9DB684FF080409847013CF0D1384603B0F0BDC401001026
:2025C000F0B583B005460C46FFF7CAFF0746B0B1ACB10C4E09E033684FF08040DB689847BD
:2025E000019B013C05F8013B09D0336800219B684FF08040984701A90028ECD107463846F9
:2026000003B0F0BDC401001010B582B0FFF7A8FF40B1054C236801A91B694FF08040984718
:202620000028F7D102B010BDC4010010F0B5264D07462B6885B002205B690E4698472B687D
:2026400002205B6B9847012804461F4BF7D11B684FF48070DB6998471C4B1D4A1C60136870
:202660009B07FCD51B4A1C4913681C484FF0030E082523F00F030C4609681360C0F800E0CE
:202680000023019500971A460F684FF080401449B847144B29461B6800965D6C09224FF09E
:2026A000FF334FF08040A8470F4A136843F002031360236803A91B694FF0804098470028BA
:2026C000F7D105B0F0BD00BFB8010010282008602820084014000040C4010010200000407F
:2026E000006CDC02B40100100400004010B5174B4FF480701B681B6A9847154B0121154A65
:20270000196013689B07FCD5134C082023689B6B984723684FF400519B69082098472368A6
:2027200009209B6B984723684FF400519B690920984723680A209B6B984723684FF40051A7
:202740009B690A20BDE81040184700BFB80100102820086028200840B401001010B5064C53
:20276000042023685B699847236804205B6B98470128F9D110BD00BFB8010010F8B51A4A5A
:2027800000200021C2E90001184B04201B685B6B9847012801D0FFF7E1FF144B00201B68CB
:2027A000DB699847124B0121124A196013689B07FCD5114A11491368096823F4807323F0F6
:2027C00001030F4C13600B6820460E49984740F221200D4D0D490E4B042731260122276070
:2027E0002E6008601A60F8BD80060020B801001028200860282008400C000140C8010010DF
:2028000000000140002100043C000140080001400400244310B40949094C0B682268086849
:202820008342FAD1DB01074903EB52620023C1E9002310BCD1E90001704700BF08200940DC
:202840000C2009408006002010B50B490B4C0B68226808688342FAD1DB01094903EB526220
:202860000023C1E9002302F079FC00B910BDBDE8104002F045BC00BF082009400C200940EE
:202880008006002010B508F0B1F8034B1C6808B908F0B0F8204610BD082009402DE9F0410E
:2028A00008F0A4F81D4E1E4B1E4F32680124002580464FF480314FF480703D601C601860E1
:2028C00019601368284623219847336820461B6824219847336825211B6802209847124A0A
:2028E0001249136843F4E02313600D6008F008F90F4B1049104A1B6800F50070086014601E
:202900003C601B6914209847B8F1000F01D0BDE8F081BDE8F04108F06DB800BF840100109E
:2029200004200940000024430020094008200940B00100101C200940A0022443431E012B0D
:2029400010B419D9042801D010BC704700231A4610F004001CBF0E4C216013B10D4B0121C6
:20296000196012B10C4B01221A600028ECD00B4B01221A6010BC704710F0010302D0084AA5
:202980000123116010F00202E2D0064C2160DFE72020094080022443A0022443C0022443AF
:2029A000182009401C200940014B1868704700BF7809002008B509F0DDFC184B1860FFF7CE
:2029C00043FF174B1B686BB9164B1B68E3B9164B1B6833B11549164B00204FF48032086028
:2029E0001A6008BD124B4FF480721A6008F088F800F205200F4B20F4FF7020F00100186097
:202A0000084B1B68002BE2D00B49094B0020012208601A6002F05CFDD9E700BF78090020CB
:202A2000A000244380002443C0002443C0022443042009401C2009408002244303490448E5
:202A4000044B012208601A60704700BF00000840FFFF0F00000C0840F8B507F0C7FF124A3D
:202A6000B0FA80F01368012B0BD0104C104D1149114A0123400925600B601360C3070FD4CF
:202A8000F8BD0E4F094D0A4E0A4C0B49400940F0020017602E6023600B601360C307EFD55D
:202AA000BDE8F84007F0A6BF000C084000000840FFFF0F000C0008400401004351E5CC1A7C
:202AC00003490448044B012208601A60704700BF00000840FFFF0F000C00084010B50446DC
:202AE000C0B200F07DF9204610BD00BF70B506460024451E04E015F8010F00F071F9013484
:202B000030460CF093FAA042F5D80A2000F068F900F07AF90128FBD0204670BD70B5044633
:202B2000B0B10078C0B1A9B10025661804E014F8010F38B1B44205D000F052F9631C05F1EA
:202B40000105F4D100F060F90128FBD0284670BD0546F7E70D46F5E70546F3E710B40B4B3B
:202B60000B4C13F8012FFF2A0DD1A342F9D1094A39B11144013801390B78914200F8013F7A
:202B8000F9D110BC7047044AF2E700BFC7FF0100CFFF0100F0120050C8FF010038B50C4D0C
:202BA00002202B685B6998472B6802205B6B984701280446064BF7D11B684FF40070DB695D
:202BC0009847044B044A1C6013689B07FCD538BDB801001028200860282008402DE9F043C8
:202BE00040F2F275DFF8DC8083B0FFF7D7FFD8F800302A4EDB682A4898473368294C5B692A
:202C0000152098472368DFF8C090274F23F4FE63D9F8002023F0020323603D60D36B032076
:202C200098472249D9F800300820122208600092D3F840900322132302211948C847D8F89A
:202C400000206023D2F8048019494FF4E1321448C04740F2011240F2013E1649164B1420BE
:202C600008601968154841F01001196003681449002B0CBF134673460B603D60036853B10C
:202C80002368326843F0500323601369152003B0BDE8F043184703B0BDE8F083B0010010DF
:202CA00000100040381000404410004090200240006CDC02341000402C1000407C090020C7
:202CC00030100040D0010010B401001008B5064B02201B685B6B9847012803BF034B1868BD
:202CE00000F00100002008BDB80100106C20084038B50446FFF7EAFF18B1254A1368190778
:202D0000FCD4032C03D0234B1B6803B138BDFFF7DDFFE0B9204D4FF400702B681B6A9847C5
:202D2000032C2AD01D4B01211D4A196013689B07FCD5032000F0BCFA022000F0B9FA132051
:202D400000F0B6FABDE83840122000F0B1BA154B15481B68DB689847144B15201B685B69EC
:202D6000984740F2F270124A1249136823F4FE6323F0020313600860CCE72B684FF400704A
:202D80009B6A98472B684FF400701B6B9847C9E7181000407C090020B8010010282008606E
:202DA00028200840D001001000100040B0010010381000404410004010B507F017FE04465A
:202DC000054800F059FA054B00221A6004B110BDBDE8104007F00EBE780400207C090020FC
:202DE00010B50446FFF772FF08B9FFF7F7FE044B2146BDE810401B680248DB69184700BFD7
:202E0000D00100100010004008B5FFF75FFF18B1024B1868C0F3C00008BD00BF181000407B
:202E200038B5FFF7BBFE40F2F2710C4B0C4A1B68116013F0500F10D00A4C0B4D05E02B6858
:202E40001B699847094B1B6823B923680848DB06F5D538BDC0B29847F7E738BD401000402D
:202E60004410004018100040D00100107C090020001000402DE9F04740234FF0000882B057
:202E80000F461646CDF800800193054607F0AEFD494A4A4BC2F80080444601204FF480717A
:202EA0004FF48032DFF85881186019601A60D8F8003020463F211B6801349847042CF6D1AE
:202EC000DFF83C810024D8F8003020463F219B6801349847032CF6D1394B1B68FFF7F0FD7D
:202EE000384802F095FB044630B1A368032003B198472468002CF8D16B1C0CD0324BAA00D9
:202F000013430021314A1960136846F000523A4328461B6898472E4EDFF8E890002433686C
:202F2000C9F800409B6907209847684609F038FA00F08CFA00F03AFA264827490368326830
:202F400023F0030303600B68244D23F00F030B609369382098472C60012009F041FADFF896
:202F6000A8A01F481F4A4FF001081F491F4B2C60134FCAF80040C0F8008014601C4A0C60B1
:202F8000C9F800401C603B681A491368096823F0030313604B68184803219847174A336824
:202FA0002C60CAF80040C2F800809B6B3A68984702B0BDE8F08700BF000024430420094061
:202FC0002C20094080090020001A4442B4010010B801001000100940081009404010094032
:202FE0008801044340012243440122430800094024220840D80100100040034018100940F5
:20300000840100100C40094020042243034A136823F00403136030BF704700BF10ED00E066
:2030200070B507F0E3FC02F0F9F918B1BDE8704007F0E0BC804802F0EBFA0225044648B1F7
:20304000636823B19847A84228BF2846C5B22468002CF5D109F08EF9784B04461B68002B83
:2030600040F0898002F07AF8002840F0B2800346012D00F09380022DD8D1002840F0C78038
:20308000611E2846FFF75AFC6B4802F0C1FA0625044600287BD0A368022003B19847236963
:2030A000246825EA0305002CF5D1FFF709FD6B0705F006046ED4002C40F0A38000F0C6F99E
:2030C000002009F08DF95E495E4A0B685E4823F003030B601368016843F00F0313608B69D5
:2030E00039209847594A5A4900231360184613600B6007F01BFA062C00F08E80554C564D00
:20310000564E2B682368326823F00303236053680321534898474C4B1B689B6B98472B68CC
:2031200007F032FB4F4A3368002111604C485B680121984723684C4A012143F0030323604E
:2031400011602B6807F058FB09F016F9FFF77CFBFFF7B6FC384802F05BFA044628B1E368CF
:2031600003B198472468002CF9D107F043FCBDE8704007F03FBC3D4B1B681B1A022B3BD441
:20318000A3F28F23002BBFF66DAF012335E0FFF797FC0624344B00221A608CE7002842D038
:2031A0006FF00702121BDA423AD404F58031CA1A11EA220138BF19460220FFF7BFFB2C4A06
:2031C000136823F00403136030BFBDE8704007F011BC01F0CBFF0646FFF71CFB361A002E4D
:2031E0007FF724AFFFF7E0FB224A00EB4623121BDA421BD401203BE700239D4228BF1D462E
:2032000030E7114B20461B689B69984756E719462846FFF793FB37E7022007F0CFFB6DE78C
:2032200004F10801C8E704F58031C5E7022DB7D0012D7FF4FBAEB3E780090020800224435F
:203240000010094008100940B80100104010094020042243242208402C200940D8010010BD
:2032600000400340800104430C4009401820094010ED00E071FDFFFF0146014802F0CAB99F
:20328000800900200146014802F016BA8009002010B5054802F0B8F9BDE81040034B202151
:2032A0001B6803201B6818478009002084010010431C0ED010B50446064B4FF4C0421B68E3
:2032C00000211B689847044AA3001A430023136010BD7047B4010010001A444238B5044667
:2032E0000D4607F083FB01230549064AA3400B6042F8245000B138BDBDE8384007F07ABB59
:20330000E020024084090020064B002103F1800243F8041F9342FBD1034B10201B681B6952
:20332000184700BF80090020B0010010F8B5094B094F1D6800241D60012606FA04F32B42FB
:20334000E0B203D057F8243003B198470134202CF3D1F8BDE02002408409002000B585B0FF
:203360000022412302A80292039309F019F8042007F000FC032810D00321042007F0D2FBBB
:20338000042007F0F7FB0328FAD100901C234FF040520021044807F067FB02A809F056F8D3
:2033A00005B05DF804FB00BF00A00C4000B583B00022412368468DE80C0008F0F1FF0420B0
:2033C00007F0D8FB022808D00221042007F0AAFB042007F0CFFB0228FAD1684609F036F88F
:2033E00003B05DF804FB00BF00B583B00022412368468DE80C0008F0D3FF012007F0BAFBD3
:20340000012803D00121032007F08CFB684609F01DF803B05DF804FB00B583B000224123BC
:2034200068468DE80C0008F0BBFF012007F0A2FB012803D0044B986B07F0AAFA684609F066
:2034400005F803B05DF804FB4800001010B582B04123684600240193009408F0A1FF032000
:20346000214607F05FFB012007F084FB18B1044B986B07F08DFA684608F0E8FF02B010BD58
:203480004800001008B509F021F830B1044B5B88022B14BF0220012008BD022008BD00BF44
:2034A000400A002070B582B009F010F840B901A9134809F013F801280AD0002002B070BD46
:2034C0000F4C6388022B08BF0120F0D102B070BD08F050FF6FF03F05094C2D1A03E008F090
:2034E00049FFC54209D56088054E0228F7D1A0F10200B0FA80F04009E8E77088F7E700BF18
:20350000400A002008B5B32994BF0A46B422014602480BF005FC002008BD00BFC20A002012
:2035200070B5054607F062FA04462DB1124A134B12681A6094B170BD0F4B104D1E68002122
:2035400016F180402A684FF0000341F10001994208BF904206D32E60002CECD1BDE8704084
:2035600007F048BA08F006FF054A064913680860013313602E60EFE704300440040A002023
:203580003C0A0020A80C002030B589B002A840F60202182109F0E0F9164B9DF81A201B6831
:2035A0009DF81B401979144D61F3050211468DF81A205A7902A862F387118DF81A109A798B
:2035C00001A9012362F347048DF81B4007958DF8163008F083FF012802D0002009B030BDFB
:2035E00002A808F0C5FFA0F10100B0FA80F0400909B030BD8C040020A404002008B5FFF79F
:20360000C3FF012801D0002008BDFFF74BFFC0B208BD00BF70B50E4D0E4E2C68002006E05D
:203620002379022B06D024682B689C420ED02379032BF5D133780120002BF4D1064801F085
:2036400023FF24682B6801209C42F0D170BD00BF300A0020032A00202406002010B582B095
:2036600009F074F9044608F031FF08B902B010BD01A9084808F032FF0128F7D1638803F43C
:203680004063002BF2D1638803F44063002BF5D0ECE700BF010001040B2807D00C2801D07D
:2036A00001207047042A11D002207047082AFBD10029F9D0094B0139A3F1080013F8012DF7
:2036C000834201F8012FF9D1002070470029EBD0034B00201B680B60704700BF700A00200B
:2036E000CC0D002042F2034310B584B0002402A801A902940394ADF8083008F0EFFE20B126
:203700009DF90A30803302D0204604B010BD9DF80C0000F00C00A0F10400B0FA80F04009D8
:2037200004B010BD10B582B008F0D0FE20B3144C6388022B03D01FE0FFF7D4FF18B108F0A4
:20374000C5FE0028F8D101A90E4808F0C7FE02E06388022B03D108F0B9FE0028F8D142F256
:2037600002426388934207D042F20740181AB0FA80F0400902B010BD012002B010BD00BF80
:20378000400A00200100010430B585B008F09EFEB8B10D4B5B88022B13D142F203450024B6
:2037A00001A902A802940394ADF8085008F096FE38B19DF80A305B06F2D09DF80C0005B0CE
:2037C00030BDFF2005B030BD400A00200B2801D001207047082A01D0022070470029FBD025
:2037E00008B50C4B083103F1080011F8012D03F8012F8342F9D108F069FE50B1064B5B88FB
:20380000022B05D1FFF78EFFFFF74CFE032008BD002008BD670A0020400A002008B509F064
:20382000F1F8012814D008F051FE88B1094B5B88022B0DD108F04AFE30B9FFF7A5FFFF28E6
:2038400006D0C0F3801008BDFFF74CFF0028F4D0002008BD400A002008B502E0FFF742FF38
:2038600018B108F033FE0028F8D1FFF75BFF08F063FFFFF7EBFD0E4B0E481979002202294F
:20388000428012D00C4B1A79022A04BF00221A710A4B1A79022A04BF00221A71084B1A7994
:2038A000022A04BF00221A7108BD1A71EAE700BF880B0020400A0020180C00203C0D0020C2
:2038C000AC0C002008B509F09DF8012801D0FFF7C3FF012008BD00BFF8B509F093F8012814
:2038E00030D0FFF781FD08F0F1FD38BB1E4A1F481F49204B92F805E047794E795D790124E8
:2039000064F3830E64F3830764F3830664F38305882482F805E0106047710160C480D480F3
:20392000CC804E710B601A60DC805D71FFF774FD08F094FF012807D00020F8BD0E4B5B886A
:20394000022BD3D10120F8BD0C4B1878003018BF012008F0A1FFFFF717FE0128ECD1BDE883
:20396000F840FFF79FBD00BF880B0020180C00203C0D0020AC0C0020400A0020032A00200F
:2039800070B584B0072800F2B380DFE800F01E61262F325C6B04574C217708F097FD10B368
:2039A0006388022B1FD1FFF7BDFE012814BF0324002408F061FF0020FFF7B2FDFFF772FD85
:2039C00001287DD0032004B070BD012900F08480002977D0022004B070BD464C618608F06B
:2039E00075FD0028DCD1002004B070BD414C2186D3E731F00702EDD13E4C3F48237EC1F343
:203A0000400561F30003DBB243F00203067865F38203657EC1F3800103F0870362F3C71326
:203A200062F3C7158E42657623760170B5D1334B228B184603A95A8008F050FD002814BFCB
:203A400000200320BFE731F00103C3D1C8B2BAE7A1F10B030F2BBDD8264CA37B9942C2D03D
:203A6000A1739AE701F115031A2BB3D8244A6FF014030C2401E052F83430994232DD14F145
:203A8000FF34F8D208F022FD00289CD04FF000021B4B102503EBC40423796079A17903F06A
:203AA0003F0360F3871361F3470203A802A98DF80E308DF80F20ADF80C5008F00FFD92E7EF
:203AC000204680E7019108F09DFF01288BD0FFF7C3FE0199084676E7FFF7FEFE01287FF4E5
:203AE00071AF80E7064B074A03EBC4031360C9E7012068E7400A0020032A0020280A00204C
:203B00001CF800008C04002081B130B50C4683B0102800F28580DFE800F05C57524D6C6938
:203B2000474128221D83831915100B000220704705230B60002003B030BD6FF014030B603A
:203B40000020F8E71A230B600020F4E70B230B600020F0E7474B00201B780B60EBE7464B20
:203B600000201B785BB20B60E5E708F0AFFC002858D0424B5B88022B54D140F203430022FF
:203B8000694601A80192ADF8043008F0A7FC01286CD06FF07F0323600320CCE7374B002085
:203BA00093F91C300B60C6E7354B00201B681B680B60C0E7314B00201B8E0B60BBE72F4B91
:203BC00000205B8E0B60B6E72C4B00209B7B0B60B1E708F07BFC30B1284B5888A0F10200EE
:203BE000B0FA80F0400920600020A4E700200860A1E70023214A0B60137E03F001030B603B
:203C0000127E520744BF43F002030B601D4B1B78002B9DD00B68002043F004030B608AE7D9
:203C2000012088E7FFF758FE0128B2D140F203430022694601A80192ADF8043008F04EFC5C
:203C400001280CD008F0DEFE0128A2D06FF07F05FFF702FE256080357FF47AAF9CE79DF928
:203C6000025008F0CFFE0128F2D1F3E79DF90250F0E700BF022A0020012A0020400A0020E8
:203C80008C040020032A002070B588B0054608F01DFC002851D03E4B5B88022B08BF00269F
:203CA0004BD108F067FB6FF01F04241A07E0FFF719FD012848D108F05DFBC44246D508F030
:203CC00005FC0028F3D102A842F60142182108F043FE304C304B0022EDB28DF81750217823
:203CE000069304929DF81430891A18BF012162F3030301208DF8143008F008FE02A801A989
:203D000008F0ECFB30B3207801E0002835D0BDF80A3003F44063002BF7D0BDF80A40A4B26B
:203D2000B4F5105418BF0124003018BF012008F001FEC6B9204608B070BDFFF7CDFD0128A8
:203D400019D0012008B070BD0028BCD0C6B9022008B070BD20780124003018BF012008F05D
:203D6000E9FD002EE6D008F04DFE0128E2D0FFF773FD2046E6E7064693E7FFF747F9C2E71D
:203D800008F040FE0128E2D0FFF766FDDFE700BF400A0020032A0020C20A002010B50C467A
:203DA000B32998BF2246014688BFB42203480AF0B7FF2046BDE81040FFF766BFC20A0020A7
:203DC00010B508F01FFE012824D008F07FFBB0B11B4B5B88022B03D011E0FFF783FC18B1A1
:203DE00008F074FB0028F8D1FFF7CEFCFF2811D000F0030010F1FF3018BF012010BDFFF7C5
:203E00006BFD0128044607D008F0FCFD012801D0FFF722FD012010BDFFF7B6FCFF2805D05E
:203E200000F0030010F1FF3418BF012408F0EAFD012803D0FFF710FD204610BD204610BD1B
:203E4000400A00202DE9F0434B4D83B080460F462E6808F03BFB30B1484B5B88022B02D1AE
:203E60000020FFF75DFB08F085FA454C241A03E008F080FAC44208D53379022BF8D0032B87
:203E800006D0002003B0BDE8F0833379032BF8D12E68394A337A032B07D996F808905FFA6B
:203EA00089F9A9F10804BC4207DD3368002013603071307203B0BDE8F0834046224606F1D7
:203EC00009010AF02DFF09F10302B35C09F1050956F809002B4F5BB23B700190B35CDDF89E
:203EE0000480294E294A03F07F03B8F1404F3370D2F800900BD908F03DFA254B1B68C3F1F0
:203F00007E4303F57203C34248BF09F1FF39DFF88CE06FF4BF70DEF800E010EB08004FF068
:203F2000FF3141F100010022B0EB0E0061EBEE71121849EB0103190241EA12611002002358
:203F400043F609520AF024FD124B134A1B7810603BB12B6800221968204629601A721A71CD
:203F600090E73978042049B289B207F009FA3178032007F005FAECE7380A0020400A002064
:203F8000FAFEFFFF012A0020022A00203C0A0020A80C0020032A0020CC0D0020802800204C
:203FA00010B508F093FA78B10E4B5B88022B0BD10020FFF7B5FABDE8104000230A4A4FF4D5
:203FC00087310A4800F08EBFFFF786FC0128F2D10020FFF7A5FA08F015FD0128EBD0FFF79D
:203FE0003BFCE8E7400A0020A13F0000080A0020F8B5304F3048FFF73FF908F013FC3846E8
:20400000902200210AF066FF902200212B480AF061FF902200212A482A4C0AF05BFF90220D
:20402000002129480AF056FF284E294B00252946802220461F60376075600AF04BFF42F6B2
:20404000010E42F20200072202236376227621491922214B278B2661A273B9266F22E67334
:204060006161E276FF210122A626A4F800E026775F801971A176627384F837201880FFF748
:204080002BFC012802D02C462046F8BD0446134808F070FC2046FFF743FA2B46104A4FF4C1
:2040A0008731104800F01EFF29460F4801F024F92046F8BD880B002090040020180C002049
:2040C0003C0D0020400A0020AC0C0020300A0020380A0020780B0020280A0020BCF80000D0
:2040E000A13F0000080A00202406002008B500F08BF880B208BD00BF00F010B938B50C4D7F
:2041000004202B685B6998472B6804205B6B984701280446064BF7D11B6840F20140DB6923
:204120009847044B044A1C6013689B07FCD538BDB80100102820086028200840034B1B68CA
:20414000002B14BF01200220704700BFD00D0020F8B503880446002B2ED0B3F5847F05D17F
:20416000184B1B788B4205D00120F8BD002303800320F8BD144D2B6873B1144B144A1B68FB
:2041800012685B680220174698470026301847F100012B6898472E600E4B40F201401B688E
:2041A0009B6A98470C4B01210C4A196013689B07FCD50B48FFF766F84FF484732380012040
:2041C000F8BD00BF76060020D00D0020CC01001004800240B8010010282008602820084026
:2041E000D004002008B5064B04201B685B6B9847012803BF034B1868C0F34000002008BDE0
:20420000B80100103C20084070B5274B1B689BB1264C0023224612F8011B29B90133042B63
:20422000F9D10020014670BD214A002502EBC302E55492E8030070BDFFF7D4FF00282FD00B
:204240001C4A1D4B1268134073B91C4A0121134611601A68002AFCD110464FF4807106F04C
:20426000CDFB174B01221A6006F0C0FB0646114A1368DB07FCD5134B134A1B6814685B6874
:204280000220984723460022141843F1000516B12046294670BD06F0ADFB2046294670BDC4
:2042A000FFF72CFFCCE700BFD00D0020D40D0020880600200880024001000080F09F0240A3
:2042C000A8025042CC0100100480024038B50E4D00240E4A2C6013680D4923F00103096856
:2042E00013604B6931209847224620464FF4807106F084FB0122074B2A6019782246BDE853
:204300003840054801F094B8A80250420C800240B001001076060020E404002010B5074C14
:204320002378802B00D010BD00F0DEFF207000210348BDE8104000F0DFBF00BF76060020F3
:20434000E40400200AB90020704708B508461146FEF7E4FB002008BD0FB400B583B004AB46
:2043600053F8041B04481A46019300F07BF803B05DF804EB04B07047F404002038B543681E
:20438000044693428CBF154603F1FF352A4600680AF0C6FC94E80C002A445D1B84E824009E
:2043A000002038BD0CB430B587B00AAB53F8044B094D029003911A46214604A802AC01938C
:2043C0000495059400F04EF8029B00221A7007B0BDE8304002B070477D43000038B5044600
:2043E000154600680AF09CFC236800201D44256038BD00BF0EB430B586B009AB53F8041B28
:20440000084D01901A4601AC04A803930495059400F028F8019B00221A7006B0BDE8304012
:2044200003B07047DD430000102970B50C46054602D80AE0102C0BD92B681022084968682D
:204440009847103C0028F5D070BD08460029FBD022462B6868680249BDE87040184700BF4C
:20446000E0F800002DE9F04F834688468FB001924FF0000998F80030002B00F0E380252BD0
:2044800008BF45461DD0444603E0252B00F045812C466378651C002BF7D1454500F0D280DD
:2044A000C8EB050641463246DBF80030DBF804009847002840F03D826378B144002B00F084
:2044C000C1806B7805F10108002B00F0BB800025A3F12002102A1BD8DFE802F0171A1A1443
:2044E0001A1A1A1A1A1A1A111A0E1A1A090045F0100518F8013FEBE745F00105F9E745F0D4
:204500000605F6E745F00805F3E745F00205F0E7A3F13102082A00F2D580002404EB8404A9
:2045200003EB440418F8013F303CA3F13002092AF4D92E2B00F0CE804FF0FF366C2B00F031
:20454000E280682B00F04481782B00F28180DFE813F079007F007F007F007F007F007F00DE
:204560007F007F007F007F007F007F007F007F007F007F007F007F007F007F007F007F004B
:204580007F007F007F007F007F007F007F007F007F007F007F007F007F007F00E2027F00C6
:2045A0007F007F007F007F007F007F007F007F007F007F007F007F007F007F007F007F000B
:2045C0007F007F007F007F007F007F007F007F007F007F00DF027F007F007F00DC02D902CE
:2045E000D6027F007F007F007F007F007F007F007F007F007F007F007F007F007F007F0072
:204600007F00D3027F007F007F007F007F007F007F007F00D0027F00CD02CA02C702C402D3
:20462000C1027F00CA027F007F007F007F00BE02BB027D007F007F00B8027F00B5027F0009
:204640007F00B20248460FB0BDE8F08F45F4407505F4E063B3F5806F08F1010800F06E8114
:204660005FD9B3F5C06F00F0A181B3F5E06F00F09681B3F5A06F7FF4FDAE019A012C136803
:2046800088BF04F1FF3402F104028DF8203098BF0024EB07019200F1F38121465846FFF77D
:2046A000C3FE002840F045810122DBF8003008A9DBF8040009EB02059847002840F0398181
:2046C000254497E12A2B00F08D802E2B4FF000047FF432AF98F8013008F10101A3F1300235
:2046E000092A00F28D808846002606EB860603EB460618F8013F303EA3F13002092AF4D959
:204700006C2B7FF41EAF98F801306C2B00F05A8108F1010845F0600516E745457FF4C0AE9B
:20472000CFE6B3F5807F70D0B3F5407F7FF4A2AE0198B24B15F4804FB14F18BF1F460346C0
:204740000168043301930A460023002900F0AB810DF1330E7046110941EA03714FEA131C57
:2047600002F00F0663460A46B95D00F8011D52EA0301F0D1BEEB000600F097810336B44226
:204780004FF078034FF0300200F8013C00F8022C4FF023038CBFA41B0024EA0700F8033CD8
:2047A000A0F1030700F1BA8121465846FFF73CFE002840F0BE803946DBF800303246DBF89A
:2047C00004009847002840F0B48009EB060511E198F80130682B00F0B58108F1010845F0C8
:2047E0004005B1E6019A08F10108134614680433002C0193B8BF45F0010598F8003098E684
:204800002A2B00F0A681884696E6002EABBF25F0100501230596059315F40053049305F0E1
:20482000E00300F0F580402B00F0A88200F29B81002B00F06182202B40F08A82019991F9F4
:2048400000200431D3170191002A73F10001C0F25F82CDE902230023069305F4C053B3F51A
:20486000805F00F0F080B3F5C05F00F0CC81B3F5006F00F0ED810DF1360A002741F60803D9
:20488000059941F208028F4203EA050380F08E819342A1EB070600F0518241F608029342B1
:2048A00007EB060100F08D8100231A460293049B83B1069B002B40F0928105F00603022BDC
:2048C00000F053824F48062B08BF0246029B08BF01230293029B0B449C428CBFE41A0024E8
:2048E00015F00103049304D1E80640F11D8226441C46029838B11146DBF800300246DBF8C1
:2049000004009847A8B9102E07EB090540F2C381B14603E0B9F1100F40F2BF81DBF8003087
:2049200010223949DBF804009847A9F110090028F0D04FF0FF300FB0BDE8F08F019A13462D
:20494000D2F800A004330193BAF1000F00F0E8819AF8007037B1574617F8013F002BFBD142
:20496000CAEB0707002E02DBB74228BF3746BC428CBFE41B0024E9072BD421465846FFF7B6
:2049800053FD0028D5D15146DBF800303A46DBF8040098470028CCD107EB09052AE0019ABF
:2049A000136804320192C3F8009063E5DBF8003001221649DBF8040098470028B9D109F139
:2049C000010957E598F8023045F0800508F10208BAE55146DBF800303A46DBF804009847A3
:2049E0000028A6D12146584607EB0905FFF71CFD00289ED104EB05093CE500BF00F9000097
:204A000014F9000034F90000F0F8000040F90000402B00F0AE8100F2B680002B00F061818C
:204A2000202B40F0E080049A019906920A780023CDE902230B460433019305F4C053B3F57B
:204A4000805F7FF410AFDDE90223134300F09D810DF1360307939A46DDE90223D00840EA58
:204A60004370DE0802F007013346024630310AF8011D52EA0301F1D1079BCAEB0307FDE61B
:204A8000DBF80030012208A9DBF80400984700287FF44FAF2146584609F10105FFF7C4FC35
:204AA0000028A7D045E70DF13300302300F8013C0426013863E645F4C855C9E545F4106514
:204AC000C6E545F48065C3E545F48855C0E545F4E065BDE545F48135BAE545F40075B7E5B2
:204AE00045F40245B4E545F42455B1E545F4A065AEE545F4C135ABE545F4B245A8E545F4CF
:204B0000A135A5E545F48445A2E545F442459FE545F4E1359CE545F4C06599E53946DBF86A
:204B200000303246DBF80400984700287FF401AF2146584609EB0605FFF776FC00283FF405
:204B400059AFF6E698F8023045F0200508F10208FAE4019998F802300A4604320E68019289
:204B600008F10208EAE4602B00F0C680802B40F0EF80019B073323F0070303F108020192D5
:204B8000D3E9002360E6602B00F0AB80802B2AD1049B0693019B073323F0070303F108027B
:204BA0000192D3E90023CDE9022356E6934200F0CD8041F608020026934207EB06017FF4B2
:204BC00073AEDDE9022313433FF46EAE744B15F4804F744A18BF1A460223029367E601236D
:204BE0000293714A76E605F4C053B3F5805F00F0D080B3F5C05F40F0AE8000230022CDE916
:204C0000022300230693694B15F4804FDDE90201674E024618BF1E460B46134300F0B5805A
:204C20000DF1360307939A4602460B46110941EA03711F0902F00F003B460A46315C0AF8E8
:204C4000011D52EA0301F1D1079BCAEB030715E6DDE9026732463B46134300F096800DF156
:204C600036039A460793304639460A22002309F08FFE3032304639460AF8012D00230A22E1
:204C800009F086FE06460F4656EA0703EBD1079BCAEB0307F2E556B1B1464A46DBF8003027
:204CA0004449DBF80400984700287FF442AE3A46029F51462F44DBF80030DBF804003D469E
:204CC000984700287FF435AE049B3544002B3FF491AE21465846FFF7A7FB00283FF48AAE92
:204CE00027E6019A136804321946049B01920022CDE902120693B0E501990B460A6804331C
:204D00000193002A4FEAE27373F10001BFF6A1AD524263EB4303CDE90223012306939CE59E
:204D2000DFF898A006271DE6214658460592FFF77BFB059A00283FF4DCADFAE5002E08BFD5
:204D40000126002302931A46B919B0E50126F8E7002200237DE5002306931F46002200239A
:204D6000CDE902230DF1360A88E50123124A0293B0E5049A019906920A8858E60199B1F91F
:204D800000200431D31701915EE500270DF1360A74E500230022CDE902230023069352E62D
:204DA00028F900002CF9000030F9000000F9000014F90000F0F80000E4F5000038F900008C
:204DC00010B50446006830B1002100F095FA54F8040F0028F8D110BD704700BFF0B5038818
:204DE00083B005465BB14A2B04D188291BD0012003B0F0BD00230380032003B0F0BD194838
:204E000000F006FC044630B1A168201D00F07EF92468002CF8D1144B01221A704A230120AD
:204E20002B8003B0F0BD0F48019200F0F1FB04460028F3D0019A031D9A4205D02468231D34
:204E4000002CEBD09A42F9D12146064800F034FC064E6269A369376832600BB1E0699847B0
:204E60003760DBE7D80D0020042A0020E40D002010B5064B002406481C7000F0C5FB21464A
:204E8000BDE81040034800F037BA00BF042A0020D80D0020FC04002070B504460D48049D5A
:204EA0000078A261E361656130B9A1600A482146BDE8704000F0AEBB084D094B2E68201DA0
:204EC0002B6000F023F92E602146BDE87040024800F0A0BB042A0020D80D0020E40D0020F8
:204EE000FC04002010B5044C82B024680094FFF7D3FF02B010BD00BFE40D002070B5094B9B
:204F000004461B783BB1084D084B2E6804302B6000F006F92E602146BDE87040044800F056
:204F200079BB00BF042A0020E40D0020FC040020D80D002070B5094B04461B783BB1084D63
:204F4000084B2E6804302B6000F0F4F82E602146BDE87040044800F05DBB00BF042A002022
:204F6000E40D0020FC040020D80D002010B50A4B04461B783BB9C36003612146BDE810402D
:204F8000064800F099BB043000F0FAF82146BDE81040024800F090BB042A0020D80D002035
:204FA00010B50E4C2368B3B1FDF734FC226892E80A0092680B44191A4AB114685368926809
:204FC00023441B1A994228BF1946002AF5D1044B0144196010BD024A136010BDDC0D0020B5
:204FE000E00D00202DE9F041038805467BB1592B08D1872912D0822920D059232B80012089
:20500000BDE8F081002303800320BDE8F081254A0120136059232B80BDE8F081214F39684A
:205020000029EAD0CB689A4203D024E0CB689A4220D189680029F9D13960DEE7194F4FF0BE
:2050400000083C68002CD8D0002604E0A3682646002BD2D01C46204600F062FA0028F5D081
:2050600022468821E06800F0E3F978B10E4800F00BFAEBE739608B68002BBED0D86882427C
:205080000BBF9B6819468B609B68F5E7E060A3682EB1B360C4F80880FFF782FFD1E73B60CF
:2050A000F8E700BFDC0D00200C05002010B50446104800F0E9F91049E3680A684BB142B1DA
:2050C00094420FD0134601E09C420BD09B68002BFAD10A4BA2601B680C60E360BDE81040B1
:2050E000FFF75EBF054B1B68E360BDE81040FFF757BF00BF0C050020DC0D0020E40D00207C
:20510000014800F0C1B900BF0C05002010B5044600F0F2F92046BDE81040FFF7C7BF00BF6C
:2051200010B5044600F0F0F92046BDE81040FFF7BDBF00BF10B5044600F0ECF92046BDE80C
:205140001040FFF7B3BF00BFC068B0FA80F04009704700BF05C81044704700BF024B186873
:20516000003018BF01207047DC0D0020024B186808B1024B18687047DC0D0020E00D002027
:2051800010B50F4B04461A68824213D072B19368984208BF134605D043B19A68944201D0F3
:2051A0001346F9E7A2689A60FFF7FAFE0023A360E36010BD82681A60FFF7F2FEF6E700BFA8
:2051C000DC0D00202DE9F843DFF8A480274DD8F800702E68874247D077B33B4601E0002B99
:2051E0003BD01B689842FAD133B3837B8946044623B3002383736FB1BC424FF0870106D0D5
:20520000BB7BDB0703D52246384600F033F83F68002FF1D1A3683BB14C4505D02C600022FA
:20522000832104F10C009847D8F80000844208D12368C8F800302E60BDE8F883384684420E
:20524000F6D00028F7D003689C4208D0002BF2D01A68944204D01346F8E7BDE8F8830346BE
:2052600022681A602E60E7E73B46BDE7E40D0020E80D002070B586687EB104460A48022380
:205280000460A37304F10C000D46B0470238012804D9832D02D00123A37370BD2146204653
:2052A000BDE87040FFF78EBFE40D002070B50C4A0C4B146800251D7084B1012601E024687C
:2052C00064B1E37B002BFAD0A673E573204600228221FFF7CFFF2468002CF2D170BD00BF9F
:2052E000E80D0020072A0020024B1878421C1A70704700BF082A002070B50F4D2C688442E0
:2053000006D034B1234600E01BB11B689842FBD170BD0028FCD00346084E04600A46346884
:205320000120002198739981184681212B60FFF7A1FF346070BD00BFE80D0020E40D00203F
:2053400070B407480749084A0023084D084C8A2603700B6013602E70237070BC704700BF98
:20536000062A0020E80D0020E40D0020082A0020052A00202DE9F041234D2B780BB1FFF70A
:2053800095FF224E3378BBB12148224F0278013B02EB4201890001327C1802F01F0202705D
:2053A000A068DBB233707F5CD4F8048098B1812F06D0827BD20705D428781844BDE8F081FA
:2053C0000123837342463946FFF754FF337828781844BDE8F081104A146834B9ECE7A37BF2
:2053E000D9070AD42468002CF0D02B78002BF6D0FFF75CFFA37BD907F4D54246394620465E
:20540000FFF738FFEEE700BF072A0020062A0020052A0020EC0D0020E80D0020024A034B13
:2054200010781B7818447047062A0020072A0020F0B40C4D2C78202C11D00B4B0B4E1B788D
:20544000671C234403F01F0303EB43039B00F418A06062602F70F1540020F0BC7047012028
:20546000F0BC7047062A0020052A0020EC0D002038B5837B034CDB07256801D5FFF7FAFEA4
:20548000256038BDE40D002038B1837B013B012B03D8024A01231370C3737047072A002026
:2054A00006F062BF38B5094C049D226822B180E82A002060002038BD024680E82A00084646
:2054C000226006F053FF002038BD00BF6C0F002010B5084C206858B10022436881682260B1
:2054E0009847236823B1BDE81040186806F03EBF10BD00BF6C0F002010B541600446FDF73B
:2055000089F9206010BD00BF90E80C0013440360704700BF10B50446FDF77CF9206010BD84
:2055200010B50446FDF776F923686268C3F101031844904294BF0020012010BDF8B5048824
:205540000546672C0BD0792C04D0CCB1002303800320F8BD85291AD11D4C002323601C4C0E
:20556000264604E00A2814D023687E2B2ADD194800F03EF9431CF5D167232B800120F8BDD2
:20558000FFF7B2FE144A124B10701C60E7E70120F8BD0F4C114F23680F4A581C0026117848
:2055A00020603A463046FE54FFF742FF0C4B324618688521FFF73CFF0028CED179232B80B8
:2055C0000120F8BD05495A1CC8543260CFE700BFF00F0020F40F002015380020FC0F002034
:2055E000E40D002008B505490548802200F0F8F8BDE8084000210348FFF77EBE700F002096
:20560000F40F00201C05002000230360704700BF0068704710B404685CB1A14223D023686D
:205620000BB906E0134699420FD01A681C46002AF8D100230B6002680AB910E01A46136850
:20564000002BFBD1116010BC70475CB10A68226000221A6000230B600268002AEFD101607F
:2056600010BC70470C46226823460260F0E700BF30B4056865B1A94219D02B682C460BB966
:2056800006E01346994207D01A681C46002AF8D10D60016030BC704744B10A6822600022C6
:2056A0001A6005680D60016030BC70470D462A682B460260F3E700BF10B404685CB18C4236
:2056C00012D023680BB906E01346994205D01A681C46002AF8D110BC70472CB11A6822606F
:2056E00000221A6010BC70470A680B460260F7E703682BB100201B680130002BFBD17047BF
:205700001846704700B10068704700BF10B5044642880021406809F0DDFB23886288A068D5
:2057200002FB03F2BDE81040002109F0D3BB00BF30B44588BDB141680B7863B14A1C002333
:2057400003E01478114601322CB10133AB42F8D1002030BC704701220A700288806830BCCB
:2057600003FB020070472846F3E700BF70B4448882685CB18A4206460BD00588002301E000
:20578000914207D00133A3422A44F9D1FF2070BC704700237268D05C0028F8D00138D05496
:2057A000726870BCD05C704783688B4208D84288008800FB023081422CBF00200120704743
:2057C00000207047418849B143680020194413F8012B02B901308B42F9D170470846704791
:2057E0000023013A0160027143718371704700BF0346807959791A79091A114207D010B4A1
:20580000411C1C680A40205C9A7110BC70474FF0FF3070472DE9F84302FB0105099F1646D6
:20582000A8424FF000023A609DF820801CD2044699464FEAD80807E04246494609F03EFA0F
:2058400078B13444AC4207D22378A01C002BF3D13C603444AC42F7D33B682BB10120BDE889
:20586000F8833C60BDE8F8830220BDE8F88300BF2DE9F041174D82B0009104460E4690460E
:205880001F4601950346202203211348FFF7C2FF01281BD12B68187020682B68D4F804E051
:2058A000A168E268C3F802002868C3F806E0C3F80A10C3F80E20089B86744361099B80F88C
:2058C00013800777836102B0BDE8F081002002B0BDE8F08180100020DC300020F8B507464D
:2058E0000C4D0D4E05F120043560803514F8203CA4F11E0033B114F80E2C3946D20809F0F9
:20590000DDF928B134602034AC42EFD10020F8BD0120F8BDDC3000208010002010B5094CA1
:2059200082B0802203468DE81400032120220648FFF770FF10B9206802B010BD002002B006
:2059400010BD00BF84100020F82F002070B4114A114E134648F2FE0502F160043260002142
:2059600007E09A7C824209D02033A3424FF001010AD01A78002AF7D0421CF2D15A88AA42C8
:20598000F2D119B1336001E033600023184670BC704700BFF82F002084100020F0B5114D52
:2059A00083B0802203468DE824000446122205210D48FFF72FFF012811D12B681870206865
:2059C0002A686768A668E168C2F802002868C2F80670C2F80A60C2F80E1003B0F0BD002017
:2059E00003B0F0BD7C1000207C3000202DE9F0410446254D82B080208DE821000F46904639
:205A00002346202203212148FFF704FF012837D12B68187026682B68D4F804E0A168E268E5
:205A2000C3F802602E68C3F806E0C3F80A10C3F80E2086F81380D7B93075154B0022FF216C
:205A400001200227B0745F70D872197019735A809A80DA801A819A72627B18465A73E28942
:205A6000DA81FFF79BFF286802B0BDE8F0810023337506F11800394606F0CAFF2E68DCE772
:205A8000002002B0BDE8F08184100020F82F00208810002010B5094C82B0802203468DE8BF
:205AA0001400052112220648FFF7B4FE10B9206802B010BD002002B010BD00BF7C100020A8
:205AC0007C300020E8B138B504460E4B0025FF22022001215870D9721A735D809D80DD8050
:205AE0001D819D721A70E27B18465A73228ADA81FFF7D0FF044B186000B105700023237078
:205B000038BD7047881000207C10002038B5134B134C1846236003F1600504E020682030D5
:205B2000A842206012D20378002BF7D0037D002BF4D1183006F074FF0028EFD02068FFF724
:205B4000C1FF20682030A8422060ECD300F06CFBBDE838400348FFF7E3BA00BFF82F00202C
:205B6000841000203C3100202DE9F04F48F2FE090B884B453FD00B78FF2B3CD03E4CDFF802
:205B8000FCC0002322469A4604F16008CCF8004004E020324245CCF8002020D01478002C34
:205BA000F7D0947C012CF4D154884C45F1D04F1E561C002417F801BF16F8015F04F1080EA3
:205BC000AB4544D15FFA8EF4802CF3D1A2459CBFA246134620324245CCF80020DED15BB378
:205BE00053F8024F59689A68DB68046041608260C360BDE8F08F204ADFF880C048F2FE0517
:205C0000134602F16004CCF80020002104E02033A3424FF001010DD01A78002AF7D09A7CFC
:205C2000012AF4D15A88AA42F1D10029D8D0CCF80030D5E7CCF80030002303804380838003
:205C4000C380038143818381C381BDE8F08F04F1080E8BEA05055FFA8EFE6E0015F0800FDC
:205C600004F10107F5B2B1D1FCB27445F5D1A2459CBFA2461346ADE7F82F002084100020BF
:205C80000B684A688360037AC26083F002030372704700BF70B5094EB0684508FEF726FA04
:205CA0000446FEF723FA2402B268A4B22044B0FBF2F302FB1300284470BD00BFE02F002067
:205CC0002DE9F041344E82B000F0D4FE00F09CF860220021314809F0FDF83046F8220021C8
:205CE00009F0F8F82E4C2F492F4B4FF0400818224FF4A06520203560B4601A7086F80480D1
:205D00000870FFF7C7FF48F2FE0E42F2107240F2FF27264C002501950095F060A4F800E06D
:205D200041462B46326120462A466580A580E5803575FFF79DFD1E4A04F1080310685168C0
:205D4000012203C3237A294683F0020320462372FFF74CFE4FF480732046E3816580A58091
:205D6000E58025816581A5812780FFF717FE4FF40073204627806580A580E580258165819C
:205D8000A581E381FFF70AFE0A480C2102B0BDE8F041FFF7BBB900BFE02F0020DC300020F0
:205DA000C0270900D9300020D830002088100020543100203C3100202DE9F84305460F48C5
:205DC0000F469046FFF724FCB0B10446DFF834900BE0D9F800304246394628466668B04716
:205DE0002046FFF78FFC044630B1012DF1D80448FFF77EFC0346EEE7BDE8F8834815002023
:205E0000E0100020D810002008B50B48FFF77EFC0A48FFF7F9FB0A4B0A49186804F0B0FFE3
:205E20000948FFF773FC0948FFF7EEFBBDE808400748FFF7E9BB00BF4C05002084110020C1
:205E400048050020016000002C050020E01000204815002048B108B5044A4168106805F07C
:205E60004FF9BDE8084000F055BE7047480500200148FFF7CDBB00BF8411002008B1FFF7DC
:205E800041BC704708B500F04DFE38B1044B0146186805F0AFF8003018BF012008BD00BF0F
:205EA000480500202DE9F04107461B48FFF7B0FB58B300260446B04694F8245004F108016E
:205EC000B5424FEAD50207D3384608F0F7FE18B9802D1FD02E46A0462046FFF713FC0446FA
:205EE0000028E9D1B8F1000F0FD00B48FFF790FB804507D041460848FFF7DEFB414606483E
:205F0000FFF7B6FB4046BDE8F0814FF000084046BDE8F081A046E8E784110020002840D0B9
:205F20004368002B3DD070B5054601462148FFF7C3FB6B685868FFF76BFB044628B929E087
:205F40002046FFF7DFFB044620B363689D42F7D105F108066B6821465868FFF7ADFB6B680D
:205F60005868FFF755FBE8B129461348FFF7FEFB21461248FFF7FAFB114A28461368013B9D
:205F80001360FFF767FF3146BDE8704002460320FFF712BF05F10806304601F0C7FE0024E0
:205FA000D8E770476A68074B5168186805F044F8DAE700BF841100204C05002058050020BA
:205FC000D810002048050020B0B14368A3B110B504461846FFF71CFB38B14068FFF79EFF4E
:205FE0006068FFF715FB0028F7D1044B2146BDE81040186805F020B8704700BF4805002008
:20600000FFF7E2BF2DE9F84F054610461746894600F088FD00285DD080462846FFF742FF8A
:20602000044660B1FFF716FF30B101461022384608F044FE00284AD02046FFF76FFFDFF805
:20604000D4A0DAF80030142B44D0DFF8CCB04146DBF8000004F0CEFF064600283DD02A4816
:20606000FFF766FB0446A8B301462848FFF700FB2748FFF75DFB804600283ED044600146D8
:206080007068FFF7C7FADAF80030666031460133DBF80000CAF8003004F0FCFF28686968E9
:2060A000AA68EB684FF0000E04F108060FC684F824903A462946C4F818E00220C4F81CE0A9
:2060C000C4F820E0FFF778FE2046BDE8F88F2046BDE8F88F0020BDE8F88F03464146042232
:2060E000DBF8000004F0D8FE06460028F2D0002380E84800FFF788FAB1E721460248FFF743
:2061000035FB4046BDE8F88F4C0500208411002058050020D81000204805002010B5044676
:206120000E48FFF775FA40B1A04202D106E0844204D0FFF7E7FA0028F9D110BD2146074832
:20614000FFF7BAFA21460648FFF710FB221D1146BDE810400120FFF72FBE00BFE010002081
:206160002C05002038B505460A48FFF751FA044628B90DE02046FFF7C5FA044640B1102263
:206180002946201D08F09AFD0028F3D1204638BD002038BDE0100020F8B50F460546FFF715
:2061A000E1FF0646B8B128686968AA68EB68341D0FC447B9012333772A4629460020FFF79D
:2061C000FBFD3046F8BD394606F1140006F020FC00233377F0E70548FFF7AAFA0646002801
:2061E000EFD001460248FFF743FADCE72C050020E010002038B50B48FFF70AFA044670B153
:20620000251D284600F068FC08B1437C2BB92046FFF778FA04460028F2D1284638BD05466D
:20622000FBE700BFE010002010B50E48FFF7F0F968B10446237F04F1140013B906F0F0FBF8
:2062400030B92046FFF75EFA0446002CF2D110BD2046FFF763FF0348FFF7DAF90446002C53
:20626000E8D1F4E7E0100020013A0A44914230B414D20C4625786378023403EB05239BB2F1
:20628000184480B2834284BF013080B2A242F1D8CB43134423F00103023319448A4201D0AD
:2062A00030BC7047137830BC1B02184480B2834284BF013080B2704730B5134B134D1C78C0
:2062C0002B796A79C4EB0323134483B09BB2ADF80630BDF8063005F108011844202280B2F6
:2062E000FFF7C2FFBDF8062004F12801294492B2FFF7BAFF18B94FF6FF7003B030BD40BA6F
:2063000080B203B030BD00BF092A00205C31002002200146F8B5304F304D3A78304E283250
:20632000AB185B783070DB0003F1070E4FF0000C704543DC8318EC5C2B44012C12D019D3D7
:20634000632C07D1BCF1000F41D101F067FFA0B90120F8BD04F0C004802C19D0C02C26D053
:20636000402C1FD0597802310844C1B208464FF0010CDDE70130C1B2F8E73B783278283366
:2063800013441D446B780020134402333370F8BDBCF1000F19D102440221042006F022FC17
:2063A0000220F8BDBCF1000FD2D03170D0E7BCF1000F08D12B7EFF2BEDD1C9E7BCF1000FBE
:2063C00007D10020F8BD3170F4E73170E3E73170BBE73170F5E700BF092A00205C310020AA
:2063E0000B2A00203A20FFF767BF00BF08B5FFF767FC06F0E3FC00F0BDFB064A064B4FF49C
:206400008061118003F5A07100221A8220338B42FBD108BDEE29002064350020F8B5114E96
:206420003478F4B1104F04F127033D88AB4203DB00233B803370F8BD0C4BA5F1280219197E
:20644000121B184608F0E2FC03462C1BA4B2A4F12802101200213C8003F8232C03F8240CC2
:206460003170F8BD092A00204C31002084310020F0B50746DFF884C0BCF800600136B6B241
:20648000B6F5FA4F2DD2350245EA1625ADB2194A9646134602F5A074188A2033A842EDD0CA
:2064A0009C42F9D1ACF800600023108A203220B101330A2BF9D10020F0BD5C010EEB0406F0
:2064C000358271820B4B87B1354638687968BA68FB680FC5084A0EEB0403127930461A754D
:2064E000F0BD10254FF48056D1E71F517760B760F760EFE764350020E02F0020EE2900203F
:206500002DE9F04F042883B020D0914BDFF86492DFF870A20528C9F80030CAF800301FD046
:2065200013F83C2CA3F13C0402F0F002602A2ED0884D894EDFF84482884F00232B8088F83A
:2065400000303B70337003B0BDE8F08F844C814D814E2388002B41D1DFF820827F4FECE777
:20656000804A1268128A002AE2D07F487C4C794D794E00220C3B0821C9F80030CAF80030CE
:20658000026022802A80317001F072FDE1E72279704D6179120228885618864258DC207A8A
:2065A00028310A44FF282A8052D0704E363BDFF8CC816A4FA2793360002388F800303B7009
:2065C000002A5AD101233B70FFF7A2FE012800F0A78046D3022850D15F4E34E0614A644C41
:2065E000126803F1080149BA0020177DA185E085118A303321859BB2508AA3F128014FEA21
:20660000212EE77111272B8084F804E060856171A77104F118050FCA85E80F00294604F1F6
:206620000800FFF7A1FA534B04F13C0238461A60FFF742FEC04380B278B1E085002360225A
:206640002270637063800023337003B0BDE8F08F414EDFF82881414F6FE74FF6FF73E38541
:20666000ECE798F8003003F1280222445178083303EBC103326088F800303F48FFF74EF947
:20668000002800F02D813368DFF8D0B03B491A783C2A00F20681DFE812F0DB00040104019F
:2066A00004010401040104010401040104010401040104010401040104010401450004014A
:2066C00004010401040104010401040104010401040104010401040104010401040104016A
:2066E00004010401040104010401040104010401E900430004010401040104010401040128
:206700000401040104010401040104010401BC004300A70048F2FE032189994200F044813B
:206720000D4E0AE7FFF77AFEE38D1120A071104E002B40F01B81B6F82AB0BBF1000FEFD096
:20674000084F0F4B0E4E3B60248D06F5A07820E0983100204C310020443500200A2A00205A
:20676000603500204C35002054350020483500205C3100205035002074310020092A002013
:206780006435002050310020203646453E6000F0A180338A002BF7D05B45F5D1738A1022CB
:2067A0007A480BB1A342EFD133682BB973681BB9B3680BB9F36823B1314608F07FFA00286A
:2067C000E2D12B88724A7348734C744E303B2B8002210023C9F80020CAF800200360238036
:2067E000317001F045FCB4E63A7890076DD5500657D442F040028BF800200191FFF788FDFC
:20680000012801998CD053D302283FF4E5AE33683DE73A20FFF750FD4FF6FF7398427FF4E3
:206820007FAF98F800302833E05C01F02DFB98F800302833E2185178E05C06F0AFF90128D9
:206840003FF46EAF2B88554E002B7FF4FCAE74E63A780191D10724D442F001028BF8002004
:20686000FFF756FD01280199CDD159E73A7802F0040000F0FF0EA0B998F8000042F0040268
:2068800000F12803234493F803C08BF80020BCF1000F73D15A78083000EBC2020A703360BE
:2068A000F5E61A1B0121042006F09CF93B4ECAE698F8002002F1280323445878083202EB92
:2068C000C002336088F80020E1E642F002028BF8002092E700220421012006F083F97BE66F
:2068E0002F48FFF7D7F800287FF4CDAE227E2D4BFF2A3FF40FAF48F2FE00198B81423FF442
:2069000009AF198981424FD081B95A8972B99A8962B9DA8952B91B8A43B9628A214B2AB96B
